{
  "_format": "hh-sol-artifact-1",
  "contractName": "DeterministicDeploymentHelper",
  "sourceName": "contracts/DeterministicDeploymentHelper.sol",
  "abi": [
    {
      "anonymous": false,
      "inputs": [
        {
          "indexed": true,
          "internalType": "address",
          "name": "proxy",
          "type": "address"
        },
        {
          "indexed": true,
          "internalType": "address",
          "name": "masterCopy",
          "type": "address"
        }
      ],
      "name": "ModuleProxyCreation",
      "type": "event"
    },
    {
      "anonymous": false,
      "inputs": [
        {
          "indexed": false,
          "internalType": "address",
          "name": "newOwner",
          "type": "address"
        }
      ],
      "name": "ModuleProxyUpdateOwner",
      "type": "event"
    },
    {
      "anonymous": false,
      "inputs": [
        {
          "indexed": false,
          "internalType": "uint256",
          "name": "templateId",
          "type": "uint256"
        }
      ],
      "name": "ModuleProxyUpdateTemplate",
      "type": "event"
    },
    {
      "inputs": [
        {
          "internalType": "contract RealityModule",
          "name": "moduleInstance",
          "type": "address"
        },
        {
          "internalType": "contract RealitioV3",
          "name": "realityOracle",
          "type": "address"
        },
        {
          "internalType": "string",
          "name": "templateContent",
          "type": "string"
        }
      ],
      "name": "createTemplate",
      "outputs": [
        {
          "internalType": "uint256",
          "name": "templateId",
          "type": "uint256"
        }
      ],
      "stateMutability": "nonpayable",
      "type": "function"
    },
    {
      "inputs": [
        {
          "internalType": "contract RealityModule",
          "name": "moduleInstance",
          "type": "address"
        },
        {
          "internalType": "contract RealitioV3",
          "name": "realityOracle",
          "type": "address"
        },
        {
          "internalType": "string",
          "name": "templateContent",
          "type": "string"
        },
        {
          "internalType": "address",
          "name": "newOwner",
          "type": "address"
        }
      ],
      "name": "createTemplateAndChangeOwner",
      "outputs": [
        {
          "internalType": "uint256",
          "name": "templateId",
          "type": "uint256"
        }
      ],
      "stateMutability": "nonpayable",
      "type": "function"
    },
    {
      "inputs": [
        {
          "internalType": "contract ModuleProxyFactory",
          "name": "factory",
          "type": "address"
        },
        {
          "internalType": "address",
          "name": "masterCopy",
          "type": "address"
        },
        {
          "internalType": "bytes",
          "name": "initParams",
          "type": "bytes"
        },
        {
          "internalType": "uint256",
          "name": "saltNonce",
          "type": "uint256"
        },
        {
          "internalType": "contract RealitioV3",
          "name": "realityOracle",
          "type": "address"
        },
        {
          "internalType": "string",
          "name": "templateContent",
          "type": "string"
        },
        {
          "internalType": "address",
          "name": "finalModuleOwner",
          "type": "address"
        }
      ],
      "name": "deployWithEncodedParams",
      "outputs": [
        {
          "internalType": "address",
          "name": "realityModuleProxy",
          "type": "address"
        }
      ],
      "stateMutability": "nonpayable",
      "type": "function"
    },
    {
      "inputs": [
        {
          "internalType": "contract ModuleProxyFactory",
          "name": "factory",
          "type": "address"
        },
        {
          "internalType": "address",
          "name": "masterCopy",
          "type": "address"
        },
        {
          "internalType": "uint256",
          "name": "saltNonce",
          "type": "uint256"
        },
        {
          "components": [
            {
              "internalType": "contract RealitioV3",
              "name": "realityOracle",
              "type": "address"
            },
            {
              "internalType": "string",
              "name": "templateContent",
              "type": "string"
            },
            {
              "internalType": "address",
              "name": "owner",
              "type": "address"
            },
            {
              "internalType": "address",
              "name": "avatar",
              "type": "address"
            },
            {
              "internalType": "address",
              "name": "target",
              "type": "address"
            },
            {
              "internalType": "uint32",
              "name": "timeout",
              "type": "uint32"
            },
            {
              "internalType": "uint32",
              "name": "cooldown",
              "type": "uint32"
            },
            {
              "internalType": "uint32",
              "name": "expiration",
              "type": "uint32"
            },
            {
              "internalType": "uint256",
              "name": "bond",
              "type": "uint256"
            },
            {
              "internalType": "address",
              "name": "arbitrator",
              "type": "address"
            }
          ],
          "internalType": "struct DeterministicDeploymentHelper.ModuleSetupParams",
          "name": "setupParams",
          "type": "tuple"
        }
      ],
      "name": "deployWithTemplate",
      "outputs": [
        {
          "internalType": "address",
          "name": "realityModuleProxy",
          "type": "address"
        }
      ],
      "stateMutability": "nonpayable",
      "type": "function"
    }
  ],
  "bytecode": "0x608060405234801561001057600080fd5b50610ec8806100206000396000f3fe608060405234801561001057600080fd5b506004361061004c5760003560e01c806369aea2bd14610051578063a21a2e7b14610081578063dc1c0342146100b1578063e3a43c36146100e1575b600080fd5b61006b60048036038101906100669190610826565b610111565b6040516100789190610aaa565b60405180910390f35b61009b600480360381019061009691906108ca565b61028f565b6040516100a89190610be5565b60405180910390f35b6100cb60048036038101906100c69190610936565b6103ca565b6040516100d89190610be5565b60405180910390f35b6100fb60048036038101906100f69190610754565b610485565b6040516101089190610aaa565b60405180910390f35b60008063a4f9edbf60e01b308460600160208101906101309190610702565b8560800160208101906101439190610702565b86600001602081019061015691906108a1565b8760a001602081019061016991906109df565b8860c001602081019061017c91906109df565b8960e001602081019061018f91906109df565b8a610100013560008c6101200160208101906101ab9190610702565b6040516020016101c49a99989796959493929190610ac5565b6040516020818303038152906040526040516024016101e39190610b9f565b604051602081830303815290604052907bffffffffffffffffffffffffffffffffffffffffffffffffffffffff19166020820180517bffffffffffffffffffffffffffffffffffffffffffffffffffffffff838183161783525050505090506102848686838787600001602081019061025c91906108a1565b88806020019061026c9190610c00565b8a604001602081019061027f9190610702565b610485565b915050949350505050565b60008373ffffffffffffffffffffffffffffffffffffffff166383bf460984846040518363ffffffff1660e01b81526004016102cc929190610bc1565b602060405180830381600087803b1580156102e657600080fd5b505af11580156102fa573d6000803e3d6000fd5b505050506040513d601f19601f8201168201806040525081019061031e91906109b6565b90508473ffffffffffffffffffffffffffffffffffffffff16635fc1188d826040518263ffffffff1660e01b81526004016103599190610be5565b600060405180830381600087803b15801561037357600080fd5b505af1158015610387573d6000803e3d6000fd5b505050507fd0d856adc5f013e5a96e48c5a3a1589ae68c7364ec7907e596911ef47e939859816040516103ba9190610be5565b60405180910390a1949350505050565b60006103d88686868661028f565b90508573ffffffffffffffffffffffffffffffffffffffff1663f2fde38b836040518263ffffffff1660e01b81526004016104139190610aaa565b600060405180830381600087803b15801561042d57600080fd5b505af1158015610441573d6000803e3d6000fd5b505050507f69213d6844127ac9ed13a37f2b821d94841074cbcaa99eb9442b08a3e758a9d9826040516104749190610aaa565b60405180910390a195945050505050565b60008873ffffffffffffffffffffffffffffffffffffffff1663f1ab873c8989896040518463ffffffff1660e01b81526004016104c493929190610b61565b602060405180830381600087803b1580156104de57600080fd5b505af11580156104f2573d6000803e3d6000fd5b505050506040513d601f19601f82011682018060405250810190610516919061072b565b905061052581868686866103ca565b508773ffffffffffffffffffffffffffffffffffffffff168173ffffffffffffffffffffffffffffffffffffffff167f2150ada912bf189ed721c44211199e270903fc88008c2a1e1e889ef30fe67c5f60405160405180910390a398975050505050505050565b600061059f61059a84610c88565b610c57565b9050828152602081018484840111156105b757600080fd5b6105c2848285610d86565b509392505050565b6000813590506105d981610e08565b92915050565b6000815190506105ee81610e08565b92915050565b600082601f83011261060557600080fd5b813561061584826020860161058c565b91505092915050565b60008135905061062d81610e1f565b92915050565b60008135905061064281610e36565b92915050565b60008135905061065781610e4d565b92915050565b60008083601f84011261066f57600080fd5b8235905067ffffffffffffffff81111561068857600080fd5b6020830191508360018202830111156106a057600080fd5b9250929050565b600061014082840312156106ba57600080fd5b81905092915050565b6000813590506106d281610e64565b92915050565b6000815190506106e781610e64565b92915050565b6000813590506106fc81610e7b565b92915050565b60006020828403121561071457600080fd5b6000610722848285016105ca565b91505092915050565b60006020828403121561073d57600080fd5b600061074b848285016105df565b91505092915050565b60008060008060008060008060e0898b03121561077057600080fd5b600061077e8b828c0161061e565b985050602061078f8b828c016105ca565b975050604089013567ffffffffffffffff8111156107ac57600080fd5b6107b88b828c016105f4565b96505060606107c98b828c016106c3565b95505060806107da8b828c01610633565b94505060a089013567ffffffffffffffff8111156107f757600080fd5b6108038b828c0161065d565b935093505060c06108168b828c016105ca565b9150509295985092959890939650565b6000806000806080858703121561083c57600080fd5b600061084a8782880161061e565b945050602061085b878288016105ca565b935050604061086c878288016106c3565b925050606085013567ffffffffffffffff81111561088957600080fd5b610895878288016106a7565b91505092959194509250565b6000602082840312156108b357600080fd5b60006108c184828501610633565b91505092915050565b600080600080606085870312156108e057600080fd5b60006108ee87828801610648565b94505060206108ff87828801610633565b935050604085013567ffffffffffffffff81111561091c57600080fd5b6109288782880161065d565b925092505092959194509250565b60008060008060006080868803121561094e57600080fd5b600061095c88828901610648565b955050602061096d88828901610633565b945050604086013567ffffffffffffffff81111561098a57600080fd5b6109968882890161065d565b935093505060606109a9888289016105ca565b9150509295509295909350565b6000602082840312156109c857600080fd5b60006109d6848285016106d8565b91505092915050565b6000602082840312156109f157600080fd5b60006109ff848285016106ed565b91505092915050565b610a1181610ce5565b82525050565b6000610a2282610cb8565b610a2c8185610cc3565b9350610a3c818560208601610d95565b610a4581610df7565b840191505092915050565b610a5981610d74565b82525050565b6000610a6b8385610cd4565b9350610a78838584610d86565b610a8183610df7565b840190509392505050565b610a9581610d4d565b82525050565b610aa481610d57565b82525050565b6000602082019050610abf6000830184610a08565b92915050565b600061014082019050610adb600083018d610a08565b610ae8602083018c610a08565b610af5604083018b610a08565b610b02606083018a610a08565b610b0f6080830189610a9b565b610b1c60a0830188610a9b565b610b2960c0830187610a9b565b610b3660e0830186610a8c565b610b44610100830185610a50565b610b52610120830184610a08565b9b9a5050505050505050505050565b6000606082019050610b766000830186610a08565b8181036020830152610b888185610a17565b9050610b976040830184610a8c565b949350505050565b60006020820190508181036000830152610bb98184610a17565b905092915050565b60006020820190508181036000830152610bdc818486610a5f565b90509392505050565b6000602082019050610bfa6000830184610a8c565b92915050565b60008083356001602003843603038112610c1957600080fd5b80840192508235915067ffffffffffffffff821115610c3757600080fd5b602083019250600182023603831315610c4f57600080fd5b509250929050565b6000604051905081810181811067ffffffffffffffff82111715610c7e57610c7d610dc8565b5b8060405250919050565b600067ffffffffffffffff821115610ca357610ca2610dc8565b5b601f19601f8301169050602081019050919050565b600081519050919050565b600082825260208201905092915050565b600082825260208201905092915050565b6000610cf082610d2d565b9050919050565b6000610d0282610ce5565b9050919050565b6000610d1482610ce5565b9050919050565b6000610d2682610ce5565b9050919050565b600073ffffffffffffffffffffffffffffffffffffffff82169050919050565b6000819050919050565b600063ffffffff82169050919050565b600060ff82169050919050565b6000610d7f82610d67565b9050919050565b82818337600083830152505050565b60005b83811015610db3578082015181840152602081019050610d98565b83811115610dc2576000848401525b50505050565b7f4e487b7100000000000000000000000000000000000000000000000000000000600052604160045260246000fd5b6000601f19601f8301169050919050565b610e1181610ce5565b8114610e1c57600080fd5b50565b610e2881610cf7565b8114610e3357600080fd5b50565b610e3f81610d09565b8114610e4a57600080fd5b50565b610e5681610d1b565b8114610e6157600080fd5b50565b610e6d81610d4d565b8114610e7857600080fd5b50565b610e8481610d57565b8114610e8f57600080fd5b5056fea26469706673582212204792c9f84817fcabd0341b8ced478b19e7233d2dc69bf158dc3389a819decffa64736f6c63430008000033",
  "linkReferences": {},
  "deployedLinkReferences": {}
}