{
  "_format": "hh-sol-artifact-1",
  "contractName": "Exit",
  "sourceName": "contracts/ExitModule.sol",
  "abi": [
    {
      "inputs": [
        {
          "internalType": "address",
          "name": "_owner",
          "type": "address"
        },
        {
          "internalType": "address",
          "name": "_avatar",
          "type": "address"
        },
        {
          "internalType": "address",
          "name": "_target",
          "type": "address"
        },
        {
          "internalType": "address",
          "name": "_designatedToken",
          "type": "address"
        },
        {
          "internalType": "address",
          "name": "_circulatingSupply",
          "type": "address"
        }
      ],
      "stateMutability": "nonpayable",
      "type": "constructor"
    },
    {
      "anonymous": false,
      "inputs": [
        {
          "indexed": true,
          "internalType": "address",
          "name": "previousAvatar",
          "type": "address"
        },
        {
          "indexed": true,
          "internalType": "address",
          "name": "newAvatar",
          "type": "address"
        }
      ],
      "name": "AvatarSet",
      "type": "event"
    },
    {
      "anonymous": false,
      "inputs": [
        {
          "indexed": false,
          "internalType": "address",
          "name": "guard",
          "type": "address"
        }
      ],
      "name": "ChangedGuard",
      "type": "event"
    },
    {
      "anonymous": false,
      "inputs": [
        {
          "indexed": true,
          "internalType": "address",
          "name": "initiator",
          "type": "address"
        },
        {
          "indexed": true,
          "internalType": "address",
          "name": "avatar",
          "type": "address"
        }
      ],
      "name": "ExitModuleSetup",
      "type": "event"
    },
    {
      "anonymous": false,
      "inputs": [
        {
          "indexed": true,
          "internalType": "address",
          "name": "leaver",
          "type": "address"
        }
      ],
      "name": "ExitSuccessful",
      "type": "event"
    },
    {
      "anonymous": false,
      "inputs": [
        {
          "indexed": true,
          "internalType": "address",
          "name": "previousOwner",
          "type": "address"
        },
        {
          "indexed": true,
          "internalType": "address",
          "name": "newOwner",
          "type": "address"
        }
      ],
      "name": "OwnershipTransferred",
      "type": "event"
    },
    {
      "anonymous": false,
      "inputs": [
        {
          "indexed": true,
          "internalType": "address",
          "name": "previousTarget",
          "type": "address"
        },
        {
          "indexed": true,
          "internalType": "address",
          "name": "newTarget",
          "type": "address"
        }
      ],
      "name": "TargetSet",
      "type": "event"
    },
    {
      "inputs": [
        {
          "internalType": "address[]",
          "name": "tokens",
          "type": "address[]"
        }
      ],
      "name": "addToDenylist",
      "outputs": [],
      "stateMutability": "nonpayable",
      "type": "function"
    },
    {
      "inputs": [],
      "name": "avatar",
      "outputs": [
        {
          "internalType": "address",
          "name": "",
          "type": "address"
        }
      ],
      "stateMutability": "view",
      "type": "function"
    },
    {
      "inputs": [],
      "name": "circulatingSupply",
      "outputs": [
        {
          "internalType": "contract CirculatingSupply",
          "name": "",
          "type": "address"
        }
      ],
      "stateMutability": "view",
      "type": "function"
    },
    {
      "inputs": [
        {
          "internalType": "address",
          "name": "",
          "type": "address"
        }
      ],
      "name": "deniedTokens",
      "outputs": [
        {
          "internalType": "bool",
          "name": "",
          "type": "bool"
        }
      ],
      "stateMutability": "view",
      "type": "function"
    },
    {
      "inputs": [],
      "name": "designatedToken",
      "outputs": [
        {
          "internalType": "contract ERC20",
          "name": "",
          "type": "address"
        }
      ],
      "stateMutability": "view",
      "type": "function"
    },
    {
      "inputs": [
        {
          "internalType": "uint256",
          "name": "amountToRedeem",
          "type": "uint256"
        },
        {
          "internalType": "address[]",
          "name": "tokens",
          "type": "address[]"
        }
      ],
      "name": "exit",
      "outputs": [],
      "stateMutability": "nonpayable",
      "type": "function"
    },
    {
      "inputs": [],
      "name": "getCirculatingSupply",
      "outputs": [
        {
          "internalType": "uint256",
          "name": "",
          "type": "uint256"
        }
      ],
      "stateMutability": "view",
      "type": "function"
    },
    {
      "inputs": [],
      "name": "getGuard",
      "outputs": [
        {
          "internalType": "address",
          "name": "_guard",
          "type": "address"
        }
      ],
      "stateMutability": "view",
      "type": "function"
    },
    {
      "inputs": [],
      "name": "guard",
      "outputs": [
        {
          "internalType": "address",
          "name": "",
          "type": "address"
        }
      ],
      "stateMutability": "view",
      "type": "function"
    },
    {
      "inputs": [],
      "name": "owner",
      "outputs": [
        {
          "internalType": "address",
          "name": "",
          "type": "address"
        }
      ],
      "stateMutability": "view",
      "type": "function"
    },
    {
      "inputs": [
        {
          "internalType": "address[]",
          "name": "tokens",
          "type": "address[]"
        }
      ],
      "name": "removeFromDenylist",
      "outputs": [],
      "stateMutability": "nonpayable",
      "type": "function"
    },
    {
      "inputs": [],
      "name": "renounceOwnership",
      "outputs": [],
      "stateMutability": "nonpayable",
      "type": "function"
    },
    {
      "inputs": [
        {
          "internalType": "address",
          "name": "_avatar",
          "type": "address"
        }
      ],
      "name": "setAvatar",
      "outputs": [],
      "stateMutability": "nonpayable",
      "type": "function"
    },
    {
      "inputs": [
        {
          "internalType": "address",
          "name": "_circulatingSupply",
          "type": "address"
        }
      ],
      "name": "setCirculatingSupply",
      "outputs": [],
      "stateMutability": "nonpayable",
      "type": "function"
    },
    {
      "inputs": [
        {
          "internalType": "address",
          "name": "_token",
          "type": "address"
        }
      ],
      "name": "setDesignatedToken",
      "outputs": [],
      "stateMutability": "nonpayable",
      "type": "function"
    },
    {
      "inputs": [
        {
          "internalType": "address",
          "name": "_guard",
          "type": "address"
        }
      ],
      "name": "setGuard",
      "outputs": [],
      "stateMutability": "nonpayable",
      "type": "function"
    },
    {
      "inputs": [
        {
          "internalType": "address",
          "name": "_target",
          "type": "address"
        }
      ],
      "name": "setTarget",
      "outputs": [],
      "stateMutability": "nonpayable",
      "type": "function"
    },
    {
      "inputs": [
        {
          "internalType": "bytes",
          "name": "initParams",
          "type": "bytes"
        }
      ],
      "name": "setUp",
      "outputs": [],
      "stateMutability": "nonpayable",
      "type": "function"
    },
    {
      "inputs": [],
      "name": "target",
      "outputs": [
        {
          "internalType": "address",
          "name": "",
          "type": "address"
        }
      ],
      "stateMutability": "view",
      "type": "function"
    },
    {
      "inputs": [
        {
          "internalType": "address",
          "name": "newOwner",
          "type": "address"
        }
      ],
      "name": "transferOwnership",
      "outputs": [],
      "stateMutability": "nonpayable",
      "type": "function"
    }
  ],
  "bytecode": "0x60806040523480156200001157600080fd5b5060405162003e6038038062003e608339818101604052810190620000379190620008b8565b600085858585856040516020016200005495949392919062000a14565b604051602081830303815290604052905062000076816200008260201b60201c565b50505050505062000cc6565b600080600080600085806020019051810190620000a0919062000830565b94509450945094509450620000ba6200031760201b60201c565b600073ffffffffffffffffffffffffffffffffffffffff168473ffffffffffffffffffffffffffffffffffffffff1614156200012d576040517f08c379a0000000000000000000000000000000000000000000000000000000008152600401620001249062000af9565b60405180910390fd5b83606660006101000a81548173ffffffffffffffffffffffffffffffffffffffff021916908373ffffffffffffffffffffffffffffffffffffffff160217905550600073ffffffffffffffffffffffffffffffffffffffff168373ffffffffffffffffffffffffffffffffffffffff161415620001e1576040517f08c379a0000000000000000000000000000000000000000000000000000000008152600401620001d89062000a93565b60405180910390fd5b82606760006101000a81548173ffffffffffffffffffffffffffffffffffffffff021916908373ffffffffffffffffffffffffffffffffffffffff16021790555081606860006101000a81548173ffffffffffffffffffffffffffffffffffffffff021916908373ffffffffffffffffffffffffffffffffffffffff16021790555080606960006101000a81548173ffffffffffffffffffffffffffffffffffffffff021916908373ffffffffffffffffffffffffffffffffffffffff160217905550620002b5856200041660201b60201c565b8373ffffffffffffffffffffffffffffffffffffffff163373ffffffffffffffffffffffffffffffffffffffff167f98b6e848bcb9ab7cb2c546075f85f11bb4e96cbcbcb49aab03e65f45c33c621360405160405180910390a3505050505050565b600060019054906101000a900460ff16806200033e575060008054906101000a900460ff16155b62000380576040517f08c379a0000000000000000000000000000000000000000000000000000000008152600401620003779062000ab5565b60405180910390fd5b60008060019054906101000a900460ff161590508015620003d1576001600060016101000a81548160ff02191690831515021790555060016000806101000a81548160ff0219169083151502179055505b620003e16200052c60201b60201c565b620003f16200060b60201b60201c565b8015620004135760008060016101000a81548160ff0219169083151502179055505b50565b620004266200070a60201b60201c565b73ffffffffffffffffffffffffffffffffffffffff166200044c6200071260201b60201c565b73ffffffffffffffffffffffffffffffffffffffff1614620004a5576040517f08c379a00000000000000000000000000000000000000000000000000000000081526004016200049c9062000ad7565b60405180910390fd5b600073ffffffffffffffffffffffffffffffffffffffff168173ffffffffffffffffffffffffffffffffffffffff16141562000518576040517f08c379a00000000000000000000000000000000000000000000000000000000081526004016200050f9062000a71565b60405180910390fd5b62000529816200073c60201b60201c565b50565b600060019054906101000a900460ff168062000553575060008054906101000a900460ff16155b62000595576040517f08c379a00000000000000000000000000000000000000000000000000000000081526004016200058c9062000ab5565b60405180910390fd5b60008060019054906101000a900460ff161590508015620005e6576001600060016101000a81548160ff02191690831515021790555060016000806101000a81548160ff0219169083151502179055505b8015620006085760008060016101000a81548160ff0219169083151502179055505b50565b600060019054906101000a900460ff168062000632575060008054906101000a900460ff16155b62000674576040517f08c379a00000000000000000000000000000000000000000000000000000000081526004016200066b9062000ab5565b60405180910390fd5b60008060019054906101000a900460ff161590508015620006c5576001600060016101000a81548160ff02191690831515021790555060016000806101000a81548160ff0219169083151502179055505b620006e5620006d96200070a60201b60201c565b6200073c60201b60201c565b8015620007075760008060016101000a81548160ff0219169083151502179055505b50565b600033905090565b6000603360009054906101000a900473ffffffffffffffffffffffffffffffffffffffff16905090565b6000603360009054906101000a900473ffffffffffffffffffffffffffffffffffffffff16905081603360006101000a81548173ffffffffffffffffffffffffffffffffffffffff021916908373ffffffffffffffffffffffffffffffffffffffff1602179055508173ffffffffffffffffffffffffffffffffffffffff168173ffffffffffffffffffffffffffffffffffffffff167f8be0079c531659141344cd1fd0a4f28419497f9722a3daafe3b4186f6b6457e060405160405180910390a35050565b600081519050620008138162000c92565b92915050565b6000815190506200082a8162000cac565b92915050565b600080600080600060a086880312156200084f576200084e62000b74565b5b60006200085f8882890162000819565b9550506020620008728882890162000819565b9450506040620008858882890162000819565b9350506060620008988882890162000819565b9250506080620008ab8882890162000819565b9150509295509295909350565b600080600080600060a08688031215620008d757620008d662000b74565b5b6000620008e78882890162000802565b9550506020620008fa8882890162000802565b94505060406200090d8882890162000802565b9350506060620009208882890162000802565b9250506080620009338882890162000802565b9150509295509295909350565b6200094b8162000b2c565b82525050565b60006200096060268362000b1b565b91506200096d8262000b79565b604082019050919050565b600062000987601e8362000b1b565b9150620009948262000bc8565b602082019050919050565b6000620009ae602e8362000b1b565b9150620009bb8262000bf1565b604082019050919050565b6000620009d560208362000b1b565b9150620009e28262000c40565b602082019050919050565b6000620009fc601e8362000b1b565b915062000a098262000c69565b602082019050919050565b600060a08201905062000a2b600083018862000940565b62000a3a602083018762000940565b62000a49604083018662000940565b62000a58606083018562000940565b62000a67608083018462000940565b9695505050505050565b6000602082019050818103600083015262000a8c8162000951565b9050919050565b6000602082019050818103600083015262000aae8162000978565b9050919050565b6000602082019050818103600083015262000ad0816200099f565b9050919050565b6000602082019050818103600083015262000af281620009c6565b9050919050565b6000602082019050818103600083015262000b1481620009ed565b9050919050565b600082825260208201905092915050565b600062000b398262000b54565b9050919050565b600062000b4d8262000b54565b9050919050565b600073ffffffffffffffffffffffffffffffffffffffff82169050919050565b600080fd5b7f4f776e61626c653a206e6577206f776e657220697320746865207a65726f206160008201527f6464726573730000000000000000000000000000000000000000000000000000602082015250565b7f5461726765742063616e206e6f74206265207a65726f20616464726573730000600082015250565b7f496e697469616c697a61626c653a20636f6e747261637420697320616c72656160008201527f647920696e697469616c697a6564000000000000000000000000000000000000602082015250565b7f4f776e61626c653a2063616c6c6572206973206e6f7420746865206f776e6572600082015250565b7f4176617461722063616e206e6f74206265207a65726f20616464726573730000600082015250565b62000c9d8162000b2c565b811462000ca957600080fd5b50565b62000cb78162000b40565b811462000cc357600080fd5b50565b61318a8062000cd66000396000f3fe608060405234801561001057600080fd5b506004361061012c5760003560e01c80638da5cb5b116100ad578063c910638911610071578063c9106389146102e3578063d4b8399214610301578063e19a9dd91461031f578063ef9688041461033b578063f2fde38b146103575761012c565b80638da5cb5b1461023f5780639358928b1461025d578063a4f9edbf1461027b578063af20af8a14610297578063b6887710146102b35761012c565b8063776d1a01116100f4578063776d1a01146101af578063798ed83d146101cb5780637c89d2f0146101e75780637ceab3b1146102055780638a6ff456146102235761012c565b806302ada99c14610131578063086cfca81461014d5780632b112e49146101695780635aef7de614610187578063715018a6146101a5575b600080fd5b61014b600480360381019061014691906121f8565b610373565b005b610167600480360381019061016291906121f8565b610433565b005b610171610575565b60405161017e9190612a3b565b60405180910390f35b61018f61061c565b60405161019c9190612686565b60405180910390f35b6101ad610642565b005b6101c960048036038101906101c491906121f8565b6106ca565b005b6101e560048036038101906101e091906122a0565b61080c565b005b6101ef6109ea565b6040516101fc9190612880565b60405180910390f35b61020d610a10565b60405161021a9190612686565b60405180910390f35b61023d600480360381019061023891906122a0565b610a36565b005b610247610c13565b6040516102549190612686565b60405180910390f35b610265610c3d565b6040516102729190612865565b60405180910390f35b6102956004803603810190610290919061231a565b610c63565b005b6102b160048036038101906102ac9190612390565b610ee0565b005b6102cd60048036038101906102c891906121f8565b6113a5565b6040516102da9190612806565b60405180910390f35b6102eb6113c5565b6040516102f89190612686565b60405180910390f35b6103096113ef565b6040516103169190612686565b60405180910390f35b610339600480360381019061033491906121f8565b611415565b005b610355600480360381019061035091906121f8565b61164b565b005b610371600480360381019061036c91906121f8565b61170b565b005b61037b611803565b73ffffffffffffffffffffffffffffffffffffffff16610399610c13565b73ffffffffffffffffffffffffffffffffffffffff16146103ef576040517f08c379a00000000000000000000000000000000000000000000000000000000081526004016103e69061295b565b60405180910390fd5b80606860006101000a81548173ffffffffffffffffffffffffffffffffffffffff021916908373ffffffffffffffffffffffffffffffffffffffff16021790555050565b61043b611803565b73ffffffffffffffffffffffffffffffffffffffff16610459610c13565b73ffffffffffffffffffffffffffffffffffffffff16146104af576040517f08c379a00000000000000000000000000000000000000000000000000000000081526004016104a69061295b565b60405180910390fd5b6000606660009054906101000a900473ffffffffffffffffffffffffffffffffffffffff16905081606660006101000a81548173ffffffffffffffffffffffffffffffffffffffff021916908373ffffffffffffffffffffffffffffffffffffffff1602179055508173ffffffffffffffffffffffffffffffffffffffff168173ffffffffffffffffffffffffffffffffffffffff167f52ae88b092de36f87fb43fe794eb1381023b9c1bce563a871154022c63dce34260405160405180910390a35050565b6000606960009054906101000a900473ffffffffffffffffffffffffffffffffffffffff1673ffffffffffffffffffffffffffffffffffffffff16636d4ce63c6040518163ffffffff1660e01b815260040160206040518083038186803b1580156105df57600080fd5b505afa1580156105f3573d6000803e3d6000fd5b505050506040513d601f19601f820116820180604052508101906106179190612363565b905090565b606660009054906101000a900473ffffffffffffffffffffffffffffffffffffffff1681565b61064a611803565b73ffffffffffffffffffffffffffffffffffffffff16610668610c13565b73ffffffffffffffffffffffffffffffffffffffff16146106be576040517f08c379a00000000000000000000000000000000000000000000000000000000081526004016106b59061295b565b60405180910390fd5b6106c8600061180b565b565b6106d2611803565b73ffffffffffffffffffffffffffffffffffffffff166106f0610c13565b73ffffffffffffffffffffffffffffffffffffffff1614610746576040517f08c379a000000000000000000000000000000000000000000000000000000000815260040161073d9061295b565b60405180910390fd5b6000606760009054906101000a900473ffffffffffffffffffffffffffffffffffffffff16905081606760006101000a81548173ffffffffffffffffffffffffffffffffffffffff021916908373ffffffffffffffffffffffffffffffffffffffff1602179055508173ffffffffffffffffffffffffffffffffffffffff168173ffffffffffffffffffffffffffffffffffffffff167f90cc2f570a6eb594b1580ea3e41247d2d73a55281889e86bd4ec2fc29c7e62d660405160405180910390a35050565b610814611803565b73ffffffffffffffffffffffffffffffffffffffff16610832610c13565b73ffffffffffffffffffffffffffffffffffffffff1614610888576040517f08c379a000000000000000000000000000000000000000000000000000000000815260040161087f9061295b565b60405180910390fd5b60005b828290508160ff1610156109e557606a600084848460ff168181106108b3576108b2612daa565b5b90506020020160208101906108c891906121f8565b73ffffffffffffffffffffffffffffffffffffffff1673ffffffffffffffffffffffffffffffffffffffff16815260200190815260200160002060009054906101000a900460ff1615610950576040517f08c379a00000000000000000000000000000000000000000000000000000000081526004016109479061299b565b60405180910390fd5b6001606a600085858560ff1681811061096c5761096b612daa565b5b905060200201602081019061098191906121f8565b73ffffffffffffffffffffffffffffffffffffffff1673ffffffffffffffffffffffffffffffffffffffff16815260200190815260200160002060006101000a81548160ff02191690831515021790555080806109dd90612cf3565b91505061088b565b505050565b606860009054906101000a900473ffffffffffffffffffffffffffffffffffffffff1681565b606560009054906101000a900473ffffffffffffffffffffffffffffffffffffffff1681565b610a3e611803565b73ffffffffffffffffffffffffffffffffffffffff16610a5c610c13565b73ffffffffffffffffffffffffffffffffffffffff1614610ab2576040517f08c379a0000000000000000000000000000000000000000000000000000000008152600401610aa99061295b565b60405180910390fd5b60005b828290508160ff161015610c0e57606a600084848460ff16818110610add57610adc612daa565b5b9050602002016020810190610af291906121f8565b73ffffffffffffffffffffffffffffffffffffffff1673ffffffffffffffffffffffffffffffffffffffff16815260200190815260200160002060009054906101000a900460ff16610b79576040517f08c379a0000000000000000000000000000000000000000000000000000000008152600401610b709061289b565b60405180910390fd5b6000606a600085858560ff16818110610b9557610b94612daa565b5b9050602002016020810190610baa91906121f8565b73ffffffffffffffffffffffffffffffffffffffff1673ffffffffffffffffffffffffffffffffffffffff16815260200190815260200160002060006101000a81548160ff0219169083151502179055508080610c0690612cf3565b915050610ab5565b505050565b6000603360009054906101000a900473ffffffffffffffffffffffffffffffffffffffff16905090565b606960009054906101000a900473ffffffffffffffffffffffffffffffffffffffff1681565b600080600080600085806020019051810190610c7f9190612225565b94509450945094509450610c916118d1565b600073ffffffffffffffffffffffffffffffffffffffff168473ffffffffffffffffffffffffffffffffffffffff161415610d01576040517f08c379a0000000000000000000000000000000000000000000000000000000008152600401610cf89061297b565b60405180910390fd5b83606660006101000a81548173ffffffffffffffffffffffffffffffffffffffff021916908373ffffffffffffffffffffffffffffffffffffffff160217905550600073ffffffffffffffffffffffffffffffffffffffff168373ffffffffffffffffffffffffffffffffffffffff161415610db2576040517f08c379a0000000000000000000000000000000000000000000000000000000008152600401610da9906128fb565b60405180910390fd5b82606760006101000a81548173ffffffffffffffffffffffffffffffffffffffff021916908373ffffffffffffffffffffffffffffffffffffffff16021790555081606860006101000a81548173ffffffffffffffffffffffffffffffffffffffff021916908373ffffffffffffffffffffffffffffffffffffffff16021790555080606960006101000a81548173ffffffffffffffffffffffffffffffffffffffff021916908373ffffffffffffffffffffffffffffffffffffffff160217905550610e7e8561170b565b8373ffffffffffffffffffffffffffffffffffffffff163373ffffffffffffffffffffffffffffffffffffffff167f98b6e848bcb9ab7cb2c546075f85f11bb4e96cbcbcb49aab03e65f45c33c621360405160405180910390a3505050505050565b82606860009054906101000a900473ffffffffffffffffffffffffffffffffffffffff1673ffffffffffffffffffffffffffffffffffffffff166370a08231336040518263ffffffff1660e01b8152600401610f3c9190612686565b60206040518083038186803b158015610f5457600080fd5b505afa158015610f68573d6000803e3d6000fd5b505050506040513d601f19601f82011682018060405250810190610f8c9190612363565b1015610fcd576040517f08c379a0000000000000000000000000000000000000000000000000000000008152600401610fc4906129db565b60405180910390fd5b6000610fd7610575565b9050606860009054906101000a900473ffffffffffffffffffffffffffffffffffffffff1673ffffffffffffffffffffffffffffffffffffffff166323b872dd33606660009054906101000a900473ffffffffffffffffffffffffffffffffffffffff16876040518463ffffffff1660e01b815260040161105a939291906126a1565b602060405180830381600087803b15801561107457600080fd5b505af1158015611088573d6000803e3d6000fd5b505050506040513d601f19601f820116820180604052508101906110ac91906122ed565b506000606660009054906101000a900473ffffffffffffffffffffffffffffffffffffffff1673ffffffffffffffffffffffffffffffffffffffff163111156110fb576110fa3385836119ba565b5b600080600090505b848490508160ff16101561135a57606a600086868460ff1681811061112b5761112a612daa565b5b905060200201602081019061114091906121f8565b73ffffffffffffffffffffffffffffffffffffffff1673ffffffffffffffffffffffffffffffffffffffff16815260200190815260200160002060009054906101000a900460ff1615801561120d5750606860009054906101000a900473ffffffffffffffffffffffffffffffffffffffff1673ffffffffffffffffffffffffffffffffffffffff1685858360ff168181106111df576111de612daa565b5b90506020020160208101906111f491906121f8565b73ffffffffffffffffffffffffffffffffffffffff1614155b61124c576040517f08c379a0000000000000000000000000000000000000000000000000000000008152600401611243906129fb565b60405180910390fd5b8173ffffffffffffffffffffffffffffffffffffffff1685858360ff1681811061127957611278612daa565b5b905060200201602081019061128e91906121f8565b73ffffffffffffffffffffffffffffffffffffffff16116112e4576040517f08c379a00000000000000000000000000000000000000000000000000000000081526004016112db90612a1b565b60405180910390fd5b61131a85858360ff168181106112fd576112fc612daa565b5b905060200201602081019061131291906121f8565b338886611a95565b84848260ff168181106113305761132f612daa565b5b905060200201602081019061134591906121f8565b9150808061135290612cf3565b915050611103565b503373ffffffffffffffffffffffffffffffffffffffff167f19713765ac35da5948240df5d5347716cd4dc3815a2890a3c94df4a1e745136a60405160405180910390a25050505050565b606a6020528060005260406000206000915054906101000a900460ff1681565b6000606560009054906101000a900473ffffffffffffffffffffffffffffffffffffffff16905090565b606760009054906101000a900473ffffffffffffffffffffffffffffffffffffffff1681565b61141d611803565b73ffffffffffffffffffffffffffffffffffffffff1661143b610c13565b73ffffffffffffffffffffffffffffffffffffffff1614611491576040517f08c379a00000000000000000000000000000000000000000000000000000000081526004016114889061295b565b60405180910390fd5b600073ffffffffffffffffffffffffffffffffffffffff168173ffffffffffffffffffffffffffffffffffffffff16146115ae578073ffffffffffffffffffffffffffffffffffffffff166301ffc9a77fe6d7a83a000000000000000000000000000000000000000000000000000000006040518263ffffffff1660e01b815260040161151e919061284a565b60206040518083038186803b15801561153657600080fd5b505afa15801561154a573d6000803e3d6000fd5b505050506040513d601f19601f8201168201806040525081019061156e91906122ed565b6115ad576040517f08c379a00000000000000000000000000000000000000000000000000000000081526004016115a4906129bb565b60405180910390fd5b5b80606560006101000a81548173ffffffffffffffffffffffffffffffffffffffff021916908373ffffffffffffffffffffffffffffffffffffffff1602179055507f1151116914515bc0891ff9047a6cb32cf902546f83066499bcf8ba33d2353fa2606560009054906101000a900473ffffffffffffffffffffffffffffffffffffffff166040516116409190612686565b60405180910390a150565b611653611803565b73ffffffffffffffffffffffffffffffffffffffff16611671610c13565b73ffffffffffffffffffffffffffffffffffffffff16146116c7576040517f08c379a00000000000000000000000000000000000000000000000000000000081526004016116be9061295b565b60405180910390fd5b80606960006101000a81548173ffffffffffffffffffffffffffffffffffffffff021916908373ffffffffffffffffffffffffffffffffffffffff16021790555050565b611713611803565b73ffffffffffffffffffffffffffffffffffffffff16611731610c13565b73ffffffffffffffffffffffffffffffffffffffff1614611787576040517f08c379a000000000000000000000000000000000000000000000000000000000815260040161177e9061295b565b60405180910390fd5b600073ffffffffffffffffffffffffffffffffffffffff168173ffffffffffffffffffffffffffffffffffffffff1614156117f7576040517f08c379a00000000000000000000000000000000000000000000000000000000081526004016117ee906128db565b60405180910390fd5b6118008161180b565b50565b600033905090565b6000603360009054906101000a900473ffffffffffffffffffffffffffffffffffffffff16905081603360006101000a81548173ffffffffffffffffffffffffffffffffffffffff021916908373ffffffffffffffffffffffffffffffffffffffff1602179055508173ffffffffffffffffffffffffffffffffffffffff168173ffffffffffffffffffffffffffffffffffffffff167f8be0079c531659141344cd1fd0a4f28419497f9722a3daafe3b4186f6b6457e060405160405180910390a35050565b600060019054906101000a900460ff16806118f7575060008054906101000a900460ff16155b611936576040517f08c379a000000000000000000000000000000000000000000000000000000000815260040161192d9061291b565b60405180910390fd5b60008060019054906101000a900460ff161590508015611986576001600060016101000a81548160ff02191690831515021790555060016000806101000a81548160ff0219169083151502179055505b61198e611c12565b611996611ceb565b80156119b75760008060016101000a81548160ff0219169083151502179055505b50565b600081606660009054906101000a900473ffffffffffffffffffffffffffffffffffffffff1673ffffffffffffffffffffffffffffffffffffffff163184611a029190612b0a565b611a0c9190612ad9565b9050611a5084826040518060400160405280600281526020017f30780000000000000000000000000000000000000000000000000000000000008152506000611dd4565b611a8f576040517f08c379a0000000000000000000000000000000000000000000000000000000008152600401611a869061293b565b60405180910390fd5b50505050565b60008473ffffffffffffffffffffffffffffffffffffffff166370a08231606660009054906101000a900473ffffffffffffffffffffffffffffffffffffffff166040518263ffffffff1660e01b8152600401611af29190612686565b60206040518083038186803b158015611b0a57600080fd5b505afa158015611b1e573d6000803e3d6000fd5b505050506040513d601f19601f82011682018060405250810190611b429190612363565b90506000828285611b539190612b0a565b611b5d9190612ad9565b9050600063a9059cbb8683604051602401611b799291906126d8565b6040516020818303038152906040529060e01b6020820180517bffffffffffffffffffffffffffffffffffffffffffffffffffffffff83818316178352505050509050611bca876000836000611dd4565b611c09576040517f08c379a0000000000000000000000000000000000000000000000000000000008152600401611c00906128bb565b60405180910390fd5b50505050505050565b600060019054906101000a900460ff1680611c38575060008054906101000a900460ff16155b611c77576040517f08c379a0000000000000000000000000000000000000000000000000000000008152600401611c6e9061291b565b60405180910390fd5b60008060019054906101000a900460ff161590508015611cc7576001600060016101000a81548160ff02191690831515021790555060016000806101000a81548160ff0219169083151502179055505b8015611ce85760008060016101000a81548160ff0219169083151502179055505b50565b600060019054906101000a900460ff1680611d11575060008054906101000a900460ff16155b611d50576040517f08c379a0000000000000000000000000000000000000000000000000000000008152600401611d479061291b565b60405180910390fd5b60008060019054906101000a900460ff161590508015611da0576001600060016101000a81548160ff02191690831515021790555060016000806101000a81548160ff0219169083151502179055505b611db0611dab611803565b61180b565b8015611dd15760008060016101000a81548160ff0219169083151502179055505b50565b60008073ffffffffffffffffffffffffffffffffffffffff16606560009054906101000a900473ffffffffffffffffffffffffffffffffffffffff1673ffffffffffffffffffffffffffffffffffffffff1614611f0657606560009054906101000a900473ffffffffffffffffffffffffffffffffffffffff1673ffffffffffffffffffffffffffffffffffffffff166375f0bb528686868660008060008060006040518060400160405280600281526020017f307800000000000000000000000000000000000000000000000000000000000081525060006040518c63ffffffff1660e01b8152600401611ed39b9a9998979695949392919061274d565b600060405180830381600087803b158015611eed57600080fd5b505af1158015611f01573d6000803e3d6000fd5b505050505b606760009054906101000a900473ffffffffffffffffffffffffffffffffffffffff1673ffffffffffffffffffffffffffffffffffffffff1663468721a7868686866040518563ffffffff1660e01b8152600401611f679493929190612701565b602060405180830381600087803b158015611f8157600080fd5b505af1158015611f95573d6000803e3d6000fd5b505050506040513d601f19601f82011682018060405250810190611fb991906122ed565b9050600073ffffffffffffffffffffffffffffffffffffffff16606560009054906101000a900473ffffffffffffffffffffffffffffffffffffffff1673ffffffffffffffffffffffffffffffffffffffff16146120c157606560009054906101000a900473ffffffffffffffffffffffffffffffffffffffff1673ffffffffffffffffffffffffffffffffffffffff1663932713687f3078000000000000000000000000000000000000000000000000000000000000836040518363ffffffff1660e01b815260040161208e929190612821565b600060405180830381600087803b1580156120a857600080fd5b505af11580156120bc573d6000803e3d6000fd5b505050505b949350505050565b60006120dc6120d784612a7b565b612a56565b9050828152602081018484840111156120f8576120f7612e17565b5b612103848285612c80565b509392505050565b60008135905061211a816130f8565b92915050565b60008151905061212f8161310f565b92915050565b60008083601f84011261214b5761214a612e0d565b5b8235905067ffffffffffffffff81111561216857612167612e08565b5b60208301915083602082028301111561218457612183612e12565b5b9250929050565b60008151905061219a81613126565b92915050565b600082601f8301126121b5576121b4612e0d565b5b81356121c58482602086016120c9565b91505092915050565b6000813590506121dd8161313d565b92915050565b6000815190506121f28161313d565b92915050565b60006020828403121561220e5761220d612e21565b5b600061221c8482850161210b565b91505092915050565b600080600080600060a0868803121561224157612240612e21565b5b600061224f88828901612120565b955050602061226088828901612120565b945050604061227188828901612120565b935050606061228288828901612120565b925050608061229388828901612120565b9150509295509295909350565b600080602083850312156122b7576122b6612e21565b5b600083013567ffffffffffffffff8111156122d5576122d4612e1c565b5b6122e185828601612135565b92509250509250929050565b60006020828403121561230357612302612e21565b5b60006123118482850161218b565b91505092915050565b6000602082840312156123305761232f612e21565b5b600082013567ffffffffffffffff81111561234e5761234d612e1c565b5b61235a848285016121a0565b91505092915050565b60006020828403121561237957612378612e21565b5b6000612387848285016121e3565b91505092915050565b6000806000604084860312156123a9576123a8612e21565b5b60006123b7868287016121ce565b935050602084013567ffffffffffffffff8111156123d8576123d7612e1c565b5b6123e486828701612135565b92509250509250925092565b6123f981612b76565b82525050565b61240881612b64565b82525050565b61241781612b88565b82525050565b61242681612b94565b82525050565b61243581612b9e565b82525050565b600061244682612aac565b6124508185612ab7565b9350612460818560208601612c8f565b61246981612e26565b840191505092915050565b61247d81612c14565b82525050565b61248c81612c38565b82525050565b61249b81612c5c565b82525050565b6124aa81612c6e565b82525050565b60006124bd601083612ac8565b91506124c882612e37565b602082019050919050565b60006124e0601783612ac8565b91506124eb82612e60565b602082019050919050565b6000612503602683612ac8565b915061250e82612e89565b604082019050919050565b6000612526601e83612ac8565b915061253182612ed8565b602082019050919050565b6000612549602e83612ac8565b915061255482612f01565b604082019050919050565b600061256c601e83612ac8565b915061257782612f50565b602082019050919050565b600061258f602083612ac8565b915061259a82612f79565b602082019050919050565b60006125b2601e83612ac8565b91506125bd82612fa2565b602082019050919050565b60006125d5601483612ac8565b91506125e082612fcb565b602082019050919050565b60006125f8602083612ac8565b915061260382612ff4565b602082019050919050565b600061261b602883612ac8565b91506126268261301d565b604082019050919050565b600061263e600c83612ac8565b91506126498261306c565b602082019050919050565b6000612661603083612ac8565b915061266c82613095565b604082019050919050565b61268081612bfd565b82525050565b600060208201905061269b60008301846123ff565b92915050565b60006060820190506126b660008301866123ff565b6126c360208301856123ff565b6126d06040830184612677565b949350505050565b60006040820190506126ed60008301856123ff565b6126fa6020830184612677565b9392505050565b600060808201905061271660008301876123ff565b6127236020830186612677565b8181036040830152612735818561243b565b90506127446060830184612492565b95945050505050565b600061016082019050612763600083018e6123ff565b612770602083018d612677565b8181036040830152612782818c61243b565b9050612791606083018b612492565b61279e608083018a6124a1565b6127ab60a08301896124a1565b6127b860c08301886124a1565b6127c560e08301876123ff565b6127d36101008301866123f0565b8181036101208301526127e6818561243b565b90506127f66101408301846123ff565b9c9b505050505050505050505050565b600060208201905061281b600083018461240e565b92915050565b6000604082019050612836600083018561241d565b612843602083018461240e565b9392505050565b600060208201905061285f600083018461242c565b92915050565b600060208201905061287a6000830184612474565b92915050565b60006020820190506128956000830184612483565b92915050565b600060208201905081810360008301526128b4816124b0565b9050919050565b600060208201905081810360008301526128d4816124d3565b9050919050565b600060208201905081810360008301526128f4816124f6565b9050919050565b6000602082019050818103600083015261291481612519565b9050919050565b600060208201905081810360008301526129348161253c565b9050919050565b600060208201905081810360008301526129548161255f565b9050919050565b6000602082019050818103600083015261297481612582565b9050919050565b60006020820190508181036000830152612994816125a5565b9050919050565b600060208201905081810360008301526129b4816125c8565b9050919050565b600060208201905081810360008301526129d4816125eb565b9050919050565b600060208201905081810360008301526129f48161260e565b9050919050565b60006020820190508181036000830152612a1481612631565b9050919050565b60006020820190508181036000830152612a3481612654565b9050919050565b6000602082019050612a506000830184612677565b92915050565b6000612a60612a71565b9050612a6c8282612cc2565b919050565b6000604051905090565b600067ffffffffffffffff821115612a9657612a95612dd9565b5b612a9f82612e26565b9050602081019050919050565b600081519050919050565b600082825260208201905092915050565b600082825260208201905092915050565b6000612ae482612bfd565b9150612aef83612bfd565b925082612aff57612afe612d4c565b5b828204905092915050565b6000612b1582612bfd565b9150612b2083612bfd565b9250817fffffffffffffffffffffffffffffffffffffffffffffffffffffffffffffffff0483118215151615612b5957612b58612d1d565b5b828202905092915050565b6000612b6f82612bdd565b9050919050565b6000612b8182612bdd565b9050919050565b60008115159050919050565b6000819050919050565b60007fffffffff0000000000000000000000000000000000000000000000000000000082169050919050565b6000819050612bd8826130e4565b919050565b600073ffffffffffffffffffffffffffffffffffffffff82169050919050565b6000819050919050565b600060ff82169050919050565b6000612c1f82612c26565b9050919050565b6000612c3182612bdd565b9050919050565b6000612c4382612c4a565b9050919050565b6000612c5582612bdd565b9050919050565b6000612c6782612bca565b9050919050565b6000612c7982612bfd565b9050919050565b82818337600083830152505050565b60005b83811015612cad578082015181840152602081019050612c92565b83811115612cbc576000848401525b50505050565b612ccb82612e26565b810181811067ffffffffffffffff82111715612cea57612ce9612dd9565b5b80604052505050565b6000612cfe82612c07565b915060ff821415612d1257612d11612d1d565b5b600182019050919050565b7f4e487b7100000000000000000000000000000000000000000000000000000000600052601160045260246000fd5b7f4e487b7100000000000000000000000000000000000000000000000000000000600052601260045260246000fd5b7f4e487b7100000000000000000000000000000000000000000000000000000000600052602160045260246000fd5b7f4e487b7100000000000000000000000000000000000000000000000000000000600052603260045260246000fd5b7f4e487b7100000000000000000000000000000000000000000000000000000000600052604160045260246000fd5b600080fd5b600080fd5b600080fd5b600080fd5b600080fd5b600080fd5b6000601f19601f8301169050919050565b7f546f6b656e206e6f742064656e69656400000000000000000000000000000000600082015250565b7f4572726f72206f6e20746f6b656e207472616e73666572000000000000000000600082015250565b7f4f776e61626c653a206e6577206f776e657220697320746865207a65726f206160008201527f6464726573730000000000000000000000000000000000000000000000000000602082015250565b7f5461726765742063616e206e6f74206265207a65726f20616464726573730000600082015250565b7f496e697469616c697a61626c653a20636f6e747261637420697320616c72656160008201527f647920696e697469616c697a6564000000000000000000000000000000000000602082015250565b7f4572726f72206f6e206e6174697665206173736574207472616e736665720000600082015250565b7f4f776e61626c653a2063616c6c6572206973206e6f7420746865206f776e6572600082015250565b7f4176617461722063616e206e6f74206265207a65726f20616464726573730000600082015250565b7f546f6b656e20616c72656164792064656e696564000000000000000000000000600082015250565b7f477561726420646f6573206e6f7420696d706c656d656e742049455243313635600082015250565b7f416d6f756e7420746f2072656465656d2069732067726561746572207468616e60008201527f2062616c616e6365000000000000000000000000000000000000000000000000602082015250565b7f44656e69656420746f6b656e0000000000000000000000000000000000000000600082015250565b7f746f6b656e735b5d206973206f7574206f66206f72646572206f7220636f6e7460008201527f61696e732061206475706c696361746500000000000000000000000000000000602082015250565b600281106130f5576130f4612d7b565b5b50565b61310181612b64565b811461310c57600080fd5b50565b61311881612b76565b811461312357600080fd5b50565b61312f81612b88565b811461313a57600080fd5b50565b61314681612bfd565b811461315157600080fd5b5056fea26469706673582212203d8297274cb6a0b91b222121ecfbebbbbd7742b02ec3429b92c46dd603bd726964736f6c63430008060033",
  "linkReferences": {},
  "deployedLinkReferences": {}
}