{
  "_format": "hh-sol-artifact-1",
  "contractName": "OptimisticGovernor",
  "sourceName": "contracts/OptimisticGovernor.sol",
  "abi": [
    {
      "inputs": [
        {
          "internalType": "address",
          "name": "_finder",
          "type": "address"
        },
        {
          "internalType": "address",
          "name": "_owner",
          "type": "address"
        },
        {
          "internalType": "address",
          "name": "_collateral",
          "type": "address"
        },
        {
          "internalType": "uint256",
          "name": "_bondAmount",
          "type": "uint256"
        },
        {
          "internalType": "string",
          "name": "_rules",
          "type": "string"
        },
        {
          "internalType": "bytes32",
          "name": "_identifier",
          "type": "bytes32"
        },
        {
          "internalType": "uint64",
          "name": "_liveness",
          "type": "uint64"
        }
      ],
      "stateMutability": "nonpayable",
      "type": "constructor"
    },
    {
      "anonymous": false,
      "inputs": [
        {
          "indexed": true,
          "internalType": "address",
          "name": "previousAvatar",
          "type": "address"
        },
        {
          "indexed": true,
          "internalType": "address",
          "name": "newAvatar",
          "type": "address"
        }
      ],
      "name": "AvatarSet",
      "type": "event"
    },
    {
      "anonymous": false,
      "inputs": [
        {
          "indexed": false,
          "internalType": "address",
          "name": "guard",
          "type": "address"
        }
      ],
      "name": "ChangedGuard",
      "type": "event"
    },
    {
      "anonymous": false,
      "inputs": [
        {
          "indexed": false,
          "internalType": "uint8",
          "name": "version",
          "type": "uint8"
        }
      ],
      "name": "Initialized",
      "type": "event"
    },
    {
      "anonymous": false,
      "inputs": [
        {
          "indexed": true,
          "internalType": "address",
          "name": "owner",
          "type": "address"
        },
        {
          "indexed": true,
          "internalType": "address",
          "name": "avatar",
          "type": "address"
        },
        {
          "indexed": false,
          "internalType": "address",
          "name": "target",
          "type": "address"
        }
      ],
      "name": "OptimisticGovernorDeployed",
      "type": "event"
    },
    {
      "anonymous": false,
      "inputs": [
        {
          "indexed": true,
          "internalType": "address",
          "name": "previousOwner",
          "type": "address"
        },
        {
          "indexed": true,
          "internalType": "address",
          "name": "newOwner",
          "type": "address"
        }
      ],
      "name": "OwnershipTransferred",
      "type": "event"
    },
    {
      "anonymous": false,
      "inputs": [
        {
          "indexed": true,
          "internalType": "bytes32",
          "name": "proposalHash",
          "type": "bytes32"
        },
        {
          "indexed": true,
          "internalType": "address",
          "name": "sender",
          "type": "address"
        },
        {
          "indexed": true,
          "internalType": "bytes32",
          "name": "status",
          "type": "bytes32"
        }
      ],
      "name": "ProposalDeleted",
      "type": "event"
    },
    {
      "anonymous": false,
      "inputs": [
        {
          "indexed": true,
          "internalType": "contract IERC20",
          "name": "collateral",
          "type": "address"
        },
        {
          "indexed": true,
          "internalType": "uint256",
          "name": "bondAmount",
          "type": "uint256"
        }
      ],
      "name": "SetBond",
      "type": "event"
    },
    {
      "anonymous": false,
      "inputs": [
        {
          "indexed": true,
          "internalType": "contract IERC20",
          "name": "collateral",
          "type": "address"
        }
      ],
      "name": "SetCollateral",
      "type": "event"
    },
    {
      "anonymous": false,
      "inputs": [
        {
          "indexed": true,
          "internalType": "bytes32",
          "name": "identifier",
          "type": "bytes32"
        }
      ],
      "name": "SetIdentifier",
      "type": "event"
    },
    {
      "anonymous": false,
      "inputs": [
        {
          "indexed": true,
          "internalType": "uint64",
          "name": "liveness",
          "type": "uint64"
        }
      ],
      "name": "SetLiveness",
      "type": "event"
    },
    {
      "anonymous": false,
      "inputs": [
        {
          "indexed": true,
          "internalType": "string",
          "name": "rules",
          "type": "string"
        }
      ],
      "name": "SetRules",
      "type": "event"
    },
    {
      "anonymous": false,
      "inputs": [
        {
          "indexed": true,
          "internalType": "address",
          "name": "previousTarget",
          "type": "address"
        },
        {
          "indexed": true,
          "internalType": "address",
          "name": "newTarget",
          "type": "address"
        }
      ],
      "name": "TargetSet",
      "type": "event"
    },
    {
      "anonymous": false,
      "inputs": [
        {
          "indexed": true,
          "internalType": "bytes32",
          "name": "proposalHash",
          "type": "bytes32"
        },
        {
          "indexed": true,
          "internalType": "uint256",
          "name": "transactionIndex",
          "type": "uint256"
        }
      ],
      "name": "TransactionExecuted",
      "type": "event"
    },
    {
      "anonymous": false,
      "inputs": [
        {
          "indexed": true,
          "internalType": "address",
          "name": "proposer",
          "type": "address"
        },
        {
          "indexed": true,
          "internalType": "uint256",
          "name": "proposalTime",
          "type": "uint256"
        },
        {
          "components": [
            {
              "components": [
                {
                  "internalType": "address",
                  "name": "to",
                  "type": "address"
                },
                {
                  "internalType": "enum Enum.Operation",
                  "name": "operation",
                  "type": "uint8"
                },
                {
                  "internalType": "uint256",
                  "name": "value",
                  "type": "uint256"
                },
                {
                  "internalType": "bytes",
                  "name": "data",
                  "type": "bytes"
                }
              ],
              "internalType": "struct OptimisticGovernor.Transaction[]",
              "name": "transactions",
              "type": "tuple[]"
            },
            {
              "internalType": "uint256",
              "name": "requestTime",
              "type": "uint256"
            }
          ],
          "indexed": false,
          "internalType": "struct OptimisticGovernor.Proposal",
          "name": "proposal",
          "type": "tuple"
        },
        {
          "indexed": false,
          "internalType": "bytes32",
          "name": "proposalHash",
          "type": "bytes32"
        },
        {
          "indexed": false,
          "internalType": "bytes",
          "name": "explanation",
          "type": "bytes"
        },
        {
          "indexed": false,
          "internalType": "uint256",
          "name": "challengeWindowEnds",
          "type": "uint256"
        }
      ],
      "name": "TransactionsProposed",
      "type": "event"
    },
    {
      "inputs": [],
      "name": "PROPOSAL_HASH_KEY",
      "outputs": [
        {
          "internalType": "bytes",
          "name": "",
          "type": "bytes"
        }
      ],
      "stateMutability": "view",
      "type": "function"
    },
    {
      "inputs": [],
      "name": "PROPOSAL_VALID_RESPONSE",
      "outputs": [
        {
          "internalType": "int256",
          "name": "",
          "type": "int256"
        }
      ],
      "stateMutability": "view",
      "type": "function"
    },
    {
      "inputs": [],
      "name": "avatar",
      "outputs": [
        {
          "internalType": "address",
          "name": "",
          "type": "address"
        }
      ],
      "stateMutability": "view",
      "type": "function"
    },
    {
      "inputs": [],
      "name": "bondAmount",
      "outputs": [
        {
          "internalType": "uint256",
          "name": "",
          "type": "uint256"
        }
      ],
      "stateMutability": "view",
      "type": "function"
    },
    {
      "inputs": [],
      "name": "collateral",
      "outputs": [
        {
          "internalType": "contract IERC20",
          "name": "",
          "type": "address"
        }
      ],
      "stateMutability": "view",
      "type": "function"
    },
    {
      "inputs": [
        {
          "internalType": "bytes32",
          "name": "_proposalHash",
          "type": "bytes32"
        }
      ],
      "name": "deleteDisputedProposal",
      "outputs": [],
      "stateMutability": "nonpayable",
      "type": "function"
    },
    {
      "inputs": [
        {
          "internalType": "bytes32",
          "name": "_proposalHash",
          "type": "bytes32"
        }
      ],
      "name": "deleteProposal",
      "outputs": [],
      "stateMutability": "nonpayable",
      "type": "function"
    },
    {
      "inputs": [
        {
          "internalType": "bytes32",
          "name": "_proposalHash",
          "type": "bytes32"
        }
      ],
      "name": "deleteRejectedProposal",
      "outputs": [],
      "stateMutability": "nonpayable",
      "type": "function"
    },
    {
      "inputs": [
        {
          "components": [
            {
              "internalType": "address",
              "name": "to",
              "type": "address"
            },
            {
              "internalType": "enum Enum.Operation",
              "name": "operation",
              "type": "uint8"
            },
            {
              "internalType": "uint256",
              "name": "value",
              "type": "uint256"
            },
            {
              "internalType": "bytes",
              "name": "data",
              "type": "bytes"
            }
          ],
          "internalType": "struct OptimisticGovernor.Transaction[]",
          "name": "_transactions",
          "type": "tuple[]"
        }
      ],
      "name": "executeProposal",
      "outputs": [],
      "stateMutability": "payable",
      "type": "function"
    },
    {
      "inputs": [],
      "name": "finder",
      "outputs": [
        {
          "internalType": "contract FinderInterface",
          "name": "",
          "type": "address"
        }
      ],
      "stateMutability": "view",
      "type": "function"
    },
    {
      "inputs": [],
      "name": "getCurrentTime",
      "outputs": [
        {
          "internalType": "uint256",
          "name": "",
          "type": "uint256"
        }
      ],
      "stateMutability": "view",
      "type": "function"
    },
    {
      "inputs": [],
      "name": "getGuard",
      "outputs": [
        {
          "internalType": "address",
          "name": "_guard",
          "type": "address"
        }
      ],
      "stateMutability": "view",
      "type": "function"
    },
    {
      "inputs": [],
      "name": "guard",
      "outputs": [
        {
          "internalType": "address",
          "name": "",
          "type": "address"
        }
      ],
      "stateMutability": "view",
      "type": "function"
    },
    {
      "inputs": [],
      "name": "identifier",
      "outputs": [
        {
          "internalType": "bytes32",
          "name": "",
          "type": "bytes32"
        }
      ],
      "stateMutability": "view",
      "type": "function"
    },
    {
      "inputs": [],
      "name": "liveness",
      "outputs": [
        {
          "internalType": "uint64",
          "name": "",
          "type": "uint64"
        }
      ],
      "stateMutability": "view",
      "type": "function"
    },
    {
      "inputs": [],
      "name": "optimisticOracle",
      "outputs": [
        {
          "internalType": "contract OptimisticOracleV2Interface",
          "name": "",
          "type": "address"
        }
      ],
      "stateMutability": "view",
      "type": "function"
    },
    {
      "inputs": [],
      "name": "owner",
      "outputs": [
        {
          "internalType": "address",
          "name": "",
          "type": "address"
        }
      ],
      "stateMutability": "view",
      "type": "function"
    },
    {
      "inputs": [
        {
          "internalType": "bytes32",
          "name": "",
          "type": "bytes32"
        }
      ],
      "name": "proposalHashes",
      "outputs": [
        {
          "internalType": "uint256",
          "name": "",
          "type": "uint256"
        }
      ],
      "stateMutability": "view",
      "type": "function"
    },
    {
      "inputs": [
        {
          "components": [
            {
              "internalType": "address",
              "name": "to",
              "type": "address"
            },
            {
              "internalType": "enum Enum.Operation",
              "name": "operation",
              "type": "uint8"
            },
            {
              "internalType": "uint256",
              "name": "value",
              "type": "uint256"
            },
            {
              "internalType": "bytes",
              "name": "data",
              "type": "bytes"
            }
          ],
          "internalType": "struct OptimisticGovernor.Transaction[]",
          "name": "_transactions",
          "type": "tuple[]"
        },
        {
          "internalType": "bytes",
          "name": "_explanation",
          "type": "bytes"
        }
      ],
      "name": "proposeTransactions",
      "outputs": [],
      "stateMutability": "nonpayable",
      "type": "function"
    },
    {
      "inputs": [],
      "name": "renounceOwnership",
      "outputs": [],
      "stateMutability": "nonpayable",
      "type": "function"
    },
    {
      "inputs": [],
      "name": "rules",
      "outputs": [
        {
          "internalType": "string",
          "name": "",
          "type": "string"
        }
      ],
      "stateMutability": "view",
      "type": "function"
    },
    {
      "inputs": [
        {
          "internalType": "address",
          "name": "_avatar",
          "type": "address"
        }
      ],
      "name": "setAvatar",
      "outputs": [],
      "stateMutability": "nonpayable",
      "type": "function"
    },
    {
      "inputs": [
        {
          "internalType": "contract IERC20",
          "name": "_collateral",
          "type": "address"
        },
        {
          "internalType": "uint256",
          "name": "_bondAmount",
          "type": "uint256"
        }
      ],
      "name": "setCollateralAndBond",
      "outputs": [],
      "stateMutability": "nonpayable",
      "type": "function"
    },
    {
      "inputs": [
        {
          "internalType": "address",
          "name": "_guard",
          "type": "address"
        }
      ],
      "name": "setGuard",
      "outputs": [],
      "stateMutability": "nonpayable",
      "type": "function"
    },
    {
      "inputs": [
        {
          "internalType": "bytes32",
          "name": "_identifier",
          "type": "bytes32"
        }
      ],
      "name": "setIdentifier",
      "outputs": [],
      "stateMutability": "nonpayable",
      "type": "function"
    },
    {
      "inputs": [
        {
          "internalType": "uint64",
          "name": "_liveness",
          "type": "uint64"
        }
      ],
      "name": "setLiveness",
      "outputs": [],
      "stateMutability": "nonpayable",
      "type": "function"
    },
    {
      "inputs": [
        {
          "internalType": "string",
          "name": "_rules",
          "type": "string"
        }
      ],
      "name": "setRules",
      "outputs": [],
      "stateMutability": "nonpayable",
      "type": "function"
    },
    {
      "inputs": [
        {
          "internalType": "address",
          "name": "_target",
          "type": "address"
        }
      ],
      "name": "setTarget",
      "outputs": [],
      "stateMutability": "nonpayable",
      "type": "function"
    },
    {
      "inputs": [
        {
          "internalType": "bytes",
          "name": "initializeParams",
          "type": "bytes"
        }
      ],
      "name": "setUp",
      "outputs": [],
      "stateMutability": "nonpayable",
      "type": "function"
    },
    {
      "inputs": [],
      "name": "sync",
      "outputs": [],
      "stateMutability": "nonpayable",
      "type": "function"
    },
    {
      "inputs": [],
      "name": "target",
      "outputs": [
        {
          "internalType": "address",
          "name": "",
          "type": "address"
        }
      ],
      "stateMutability": "view",
      "type": "function"
    },
    {
      "inputs": [
        {
          "internalType": "address",
          "name": "newOwner",
          "type": "address"
        }
      ],
      "name": "transferOwnership",
      "outputs": [],
      "stateMutability": "nonpayable",
      "type": "function"
    }
  ],
  "bytecode": "0x60a06040523480156200001157600080fd5b506040516200505738038062005057833981016040819052620000349162000cf6565b6067805460ff60a01b1916600160a01b179055604051600090620000679088908890889088908890889060200162000d9d565b60408051601f1981840301815291905290506001600160a01b038816620000d55760405162461bcd60e51b815260206004820152601f60248201527f66696e64657220616464726573732063616e206e6f7420626520656d7074790060448201526064015b60405180910390fd5b6001600160a01b038816608052620000ed81620000fb565b505050505050505062000f40565b600054610100900460ff16158080156200011c5750600054600160ff909116105b806200014c575062000139306200031d60201b6200245c1760201c565b1580156200014c575060005460ff166001145b620001b15760405162461bcd60e51b815260206004820152602e60248201527f496e697469616c697a61626c653a20636f6e747261637420697320616c72656160448201526d191e481a5b9a5d1a585b1a5e995960921b6064820152608401620000cc565b6000805460ff191660011790558015620001d5576000805461ff0019166101001790555b620001ee6067805460ff60a01b1916600160a01b179055565b620001f86200032c565b6000806000806000808780602001905181019062000217919062000e0b565b9550955095509550955095506200023585856200039460201b60201c565b6200024083620004b8565b6200024b826200056e565b620002568162000675565b62000261866200079c565b6200026c86620007f8565b620002778662000854565b62000281620008d3565b6066546067546040516001600160a01b03918216815291811691908816907f268908d64ce6f0c721a4acf6ea8202edcdd077d5fee9976a9ce604f5bf30098f9060200160405180910390a3505050505050801562000319576000805461ff0019169055604051600181527f7f26b83ff96e1f2b6a682f133852f6798a09c465da95921460cefb38474024989060200160405180910390a15b5050565b6001600160a01b03163b151590565b600054610100900460ff16620003885760405162461bcd60e51b815260206004820152602b60248201526000805160206200503783398151915260448201526a6e697469616c697a696e6760a81b6064820152608401620000cc565b62000392620008ff565b565b6200039e62000966565b620003a8620009c2565b604051631d1d5b3960e11b81526001600160a01b0384811660048301529190911690633a3ab67290602401602060405180830381865afa158015620003f1573d6000803e3d6000fd5b505050506040513d601f19601f8201168201806040525081019062000417919062000e9b565b620004655760405162461bcd60e51b815260206004820152601860248201527f626f6e6420746f6b656e206e6f7420737570706f7274656400000000000000006044820152606401620000cc565b606880546001600160a01b0319166001600160a01b03841690811790915560698290556040518291907f6d99292521faedf161a1edd828ddef955afcb227fa80a42c65e5ac25dba40c0990600090a35050565b620004c262000966565b6000815111620005155760405162461bcd60e51b815260206004820152601660248201527f72756c65732063616e206e6f7420626520656d707479000000000000000000006044820152606401620000cc565b80516200052a90606a90602084019062000b43565b50806040516200053b919062000ec6565b604051908190038120907fd126aed3fefb9793c6164dec52a0cd8fed9bd9a8867f4d7b41dbd6c7134ebf3090600090a250565b6200057862000966565b6200058262000a58565b6001600160a01b03166390978d1b826040518263ffffffff1660e01b8152600401620005b091815260200190565b602060405180830381865afa158015620005ce573d6000803e3d6000fd5b505050506040513d601f19601f82011682018060405250810190620005f4919062000e9b565b620006425760405162461bcd60e51b815260206004820152601860248201527f6964656e746966696572206e6f7420737570706f7274656400000000000000006044820152606401620000cc565b606b81905560405181907ff35b61cf27d8ae21648935573dbd9eefad145ebc7dfe806273e3f93d9896ab9c90600090a250565b6200067f62000966565b6000816001600160401b031611620006da5760405162461bcd60e51b815260206004820152601360248201527f6c6976656e6573732063616e27742062652030000000000000000000000000006044820152606401620000cc565b63bb744800816001600160401b031610620007465760405162461bcd60e51b815260206004820152602560248201527f6c6976656e657373206d757374206265206c657373207468616e2035323030206044820152647765656b7360d81b6064820152608401620000cc565b60688054600160a01b600160e01b031916600160a01b6001600160401b038416908102919091179091556040517f0ccc3b904401a4ffd81153f4acf19daaa09629a146f2642dc4785ff2d243d3aa90600090a250565b620007a662000966565b606680546001600160a01b038381166001600160a01b0319831681179093556040519116919082907f52ae88b092de36f87fb43fe794eb1381023b9c1bce563a871154022c63dce34290600090a35050565b6200080262000966565b606780546001600160a01b038381166001600160a01b0319831681179093556040519116919082907f90cc2f570a6eb594b1580ea3e41247d2d73a55281889e86bd4ec2fc29c7e62d690600090a35050565b6200085e62000966565b6001600160a01b038116620008c55760405162461bcd60e51b815260206004820152602660248201527f4f776e61626c653a206e6577206f776e657220697320746865207a65726f206160448201526564647265737360d01b6064820152608401620000cc565b620008d08162000aaa565b50565b620008dd62000afc565b606c80546001600160a01b0319166001600160a01b0392909216919091179055565b600054610100900460ff166200095b5760405162461bcd60e51b815260206004820152602b60248201526000805160206200503783398151915260448201526a6e697469616c697a696e6760a81b6064820152608401620000cc565b620003923362000aaa565b6033546001600160a01b03163314620003925760405162461bcd60e51b815260206004820181905260248201527f4f776e61626c653a2063616c6c6572206973206e6f7420746865206f776e65726044820152606401620000cc565b6080516040516302abf57960e61b81527f436f6c6c61746572616c57686974656c6973740000000000000000000000000060048201526000916001600160a01b03169063aafd5e40906024015b602060405180830381865afa15801562000a2d573d6000803e3d6000fd5b505050506040513d601f19601f8201168201806040525081019062000a53919062000ee4565b905090565b6080516040516302abf57960e61b81527f4964656e74696669657257686974656c6973740000000000000000000000000060048201526000916001600160a01b03169063aafd5e409060240162000a0f565b603380546001600160a01b038381166001600160a01b0319831681179093556040519116919082907f8be0079c531659141344cd1fd0a4f28419497f9722a3daafe3b4186f6b6457e090600090a35050565b6080516040516302abf57960e61b81527127b83a34b6b4b9ba34b1a7b930b1b632ab1960711b60048201526000916001600160a01b03169063aafd5e409060240162000a0f565b82805462000b519062000f04565b90600052602060002090601f01602090048101928262000b75576000855562000bc0565b82601f1062000b9057805160ff191683800117855562000bc0565b8280016001018555821562000bc0579182015b8281111562000bc057825182559160200191906001019062000ba3565b5062000bce92915062000bd2565b5090565b5b8082111562000bce576000815560010162000bd3565b6001600160a01b0381168114620008d057600080fd5b634e487b7160e01b600052604160045260246000fd5b60005b8381101562000c3257818101518382015260200162000c18565b8381111562000c42576000848401525b50505050565b600082601f83011262000c5a57600080fd5b81516001600160401b038082111562000c775762000c7762000bff565b604051601f8301601f19908116603f0116810190828211818310171562000ca25762000ca262000bff565b8160405283815286602085880101111562000cbc57600080fd5b62000ccf84602083016020890162000c15565b9695505050505050565b80516001600160401b038116811462000cf157600080fd5b919050565b600080600080600080600060e0888a03121562000d1257600080fd5b875162000d1f8162000be9565b602089015190975062000d328162000be9565b604089015190965062000d458162000be9565b606089015160808a015191965094506001600160401b0381111562000d6957600080fd5b62000d778a828b0162000c48565b93505060a0880151915062000d8f60c0890162000cd9565b905092959891949750929550565b600060018060a01b03808916835280881660208401525085604083015260c0606083015284518060c084015262000ddc8160e085016020890162000c15565b6080830194909452506001600160401b039190911660a082015260e0601f909201601f19160101949350505050565b60008060008060008060c0878903121562000e2557600080fd5b865162000e328162000be9565b602088015190965062000e458162000be9565b6040880151606089015191965094506001600160401b0381111562000e6957600080fd5b62000e7789828a0162000c48565b9350506080870151915062000e8f60a0880162000cd9565b90509295509295509295565b60006020828403121562000eae57600080fd5b8151801515811462000ebf57600080fd5b9392505050565b6000825162000eda81846020870162000c15565b9190910192915050565b60006020828403121562000ef757600080fd5b815162000ebf8162000be9565b600181811c9082168062000f1957607f821691505b60208210810362000f3a57634e487b7160e01b600052602260045260246000fd5b50919050565b6080516140c662000f71600039600081816105050152818161254a015281816129c70152612e5201526140c66000f3fe6080604052600436106101e25760003560e01c806380f323a711610102578063d4b8399211610095578063edc4569a11610064578063edc4569a1461060c578063f2fde38b1461062c578063f913f33a1461064c578063fff6cae91461069557600080fd5b8063d4b8399214610572578063d8dfeb451461059f578063e19a9dd9146105cc578063e20dac00146105ec57600080fd5b8063b460b46b116100d1578063b460b46b146104d3578063b9a3c84c146104f3578063c910638914610527578063ce0d8d201461055257600080fd5b806380f323a7146104525780638da5cb5b14610468578063a4f9edbf14610493578063b3d39e63146104b357600080fd5b80635aef7de61161017a57806375e0fc391161014957806375e0fc39146103cf578063776d1a01146103ef5780637998a1c41461040f5780637ceab3b11461042557600080fd5b80635aef7de61461031f578063636c06581461034c5780636ad0690a14610368578063715018a6146103ba57600080fd5b806329cb924d116101b657806329cb924d146102935780633c4432f1146102b057806350564e19146102d057806352f6747a146102fd57600080fd5b8062c99206146101e7578063086cfca814610209578063210f68ae14610229578063223029221461023c575b600080fd5b3480156101f357600080fd5b50610207610202366004613344565b6106aa565b005b34801561021557600080fd5b5061020761022436600461337f565b6107d3565b610207610237366004613634565b610852565b34801561024857600080fd5b50606c546102699073ffffffffffffffffffffffffffffffffffffffff1681565b60405173ffffffffffffffffffffffffffffffffffffffff90911681526020015b60405180910390f35b34801561029f57600080fd5b50425b60405190815260200161028a565b3480156102bc57600080fd5b506102076102cb36600461367f565b610d56565b3480156102dc57600080fd5b506102a26102eb366004613344565b606d6020526000908152604090205481565b34801561030957600080fd5b50610312610eec565b60405161028a9190613712565b34801561032b57600080fd5b506066546102699073ffffffffffffffffffffffffffffffffffffffff1681565b34801561035857600080fd5b506102a2670de0b6b3a764000081565b34801561037457600080fd5b506068546103a19074010000000000000000000000000000000000000000900467ffffffffffffffff1681565b60405167ffffffffffffffff909116815260200161028a565b3480156103c657600080fd5b50610207610f7a565b3480156103db57600080fd5b506102076103ea366004613725565b610f8e565b3480156103fb57600080fd5b5061020761040a36600461337f565b61110e565b34801561041b57600080fd5b506102a2606b5481565b34801561043157600080fd5b506065546102699073ffffffffffffffffffffffffffffffffffffffff1681565b34801561045e57600080fd5b506102a260695481565b34801561047457600080fd5b5060335473ffffffffffffffffffffffffffffffffffffffff16610269565b34801561049f57600080fd5b506102076104ae366004613751565b61118d565b3480156104bf57600080fd5b506102076104ce366004613344565b611433565b3480156104df57600080fd5b506102076104ee366004613344565b611511565b3480156104ff57600080fd5b506102697f000000000000000000000000000000000000000000000000000000000000000081565b34801561053357600080fd5b5060655473ffffffffffffffffffffffffffffffffffffffff16610269565b34801561055e57600080fd5b5061020761056d366004613786565b611761565b34801561057e57600080fd5b506067546102699073ffffffffffffffffffffffffffffffffffffffff1681565b3480156105ab57600080fd5b506068546102699073ffffffffffffffffffffffffffffffffffffffff1681565b3480156105d857600080fd5b506102076105e736600461337f565b611829565b3480156105f857600080fd5b506102076106073660046137cf565b6119da565b34801561061857600080fd5b50610207610627366004613344565b6120c6565b34801561063857600080fd5b5061020761064736600461337f565b612327565b34801561065857600080fd5b506103126040518060400160405280600c81526020017f70726f706f73616c48617368000000000000000000000000000000000000000081525081565b3480156106a157600080fd5b506102076123db565b6106b2612478565b6106ba6124f9565b73ffffffffffffffffffffffffffffffffffffffff166390978d1b826040518263ffffffff1660e01b81526004016106f491815260200190565b602060405180830381865afa158015610711573d6000803e3d6000fd5b505050506040513d601f19601f820116820180604052508101906107359190613848565b6107a0576040517f08c379a000000000000000000000000000000000000000000000000000000000815260206004820152601860248201527f6964656e746966696572206e6f7420737570706f72746564000000000000000060448201526064015b60405180910390fd5b606b81905560405181907ff35b61cf27d8ae21648935573dbd9eefad145ebc7dfe806273e3f93d9896ab9c90600090a250565b6107db612478565b6066805473ffffffffffffffffffffffffffffffffffffffff8381167fffffffffffffffffffffffff0000000000000000000000000000000000000000831681179093556040519116919082907f52ae88b092de36f87fb43fe794eb1381023b9c1bce563a871154022c63dce34290600090a35050565b61085a6125d0565b610887606780547fffffffffffffffffffffff00ffffffffffffffffffffffffffffffffffffffff169055565b60008160405160200161089a919061393b565b6040516020818303038152906040528051906020012090506000610903604051806020016040528060008152506040518060400160405280600c81526020017f70726f706f73616c48617368000000000000000000000000000000000000000081525084612654565b6000838152606d60205260408120549192500361097c576040517f08c379a000000000000000000000000000000000000000000000000000000000815260206004820152601c60248201527f70726f706f73616c206861736820646f6573206e6f74206578697374000000006044820152606401610797565b6000828152606d602052604080822054606c54606b5492517fa9904f9b00000000000000000000000000000000000000000000000000000000815291939273ffffffffffffffffffffffffffffffffffffffff9091169163a9904f9b916109ec913091908790899060040161394e565b61020060405180830381865afa158015610a0a573d6000803e3d6000fd5b505050506040513d601f19601f82011682018060405250810190610a2e9190613a43565b6020015173ffffffffffffffffffffffffffffffffffffffff1614610ad5576040517f08c379a000000000000000000000000000000000000000000000000000000000815260206004820152602860248201527f4d7573742063616c6c2064656c657465446973707574656450726f706f73616c60448201527f20696e73746561640000000000000000000000000000000000000000000000006064820152608401610797565b6000838152606d6020526040808220829055606c54606b5491517f53b5923900000000000000000000000000000000000000000000000000000000815273ffffffffffffffffffffffffffffffffffffffff909116916353b5923991610b42919086908890600401613aee565b6020604051808303816000875af1158015610b61573d6000803e3d6000fd5b505050506040513d601f19601f82011682018060405250810190610b859190613b16565b9050670de0b6b3a76400008114610bf8576040517f08c379a000000000000000000000000000000000000000000000000000000000815260206004820152601560248201527f50726f706f73616c207761732072656a656374656400000000000000000000006044820152606401610797565b60005b8551811015610d0a576000868281518110610c1857610c18613b2f565b60200260200101519050610c3e816000015182604001518360600151846020015161269b565b610cca576040517f08c379a000000000000000000000000000000000000000000000000000000000815260206004820152602160248201527f4661696c656420746f206578656375746520746865207472616e73616374696f60448201527f6e000000000000000000000000000000000000000000000000000000000000006064820152608401610797565b604051829087907fd9a0df418868c38712b1f6eab685bc77a2e49596edd77667ab34d5448f5f941c90600090a35080610d0281613b8d565b915050610bfb565b5050505050610d53606780547fffffffffffffffffffffff00ffffffffffffffffffffffffffffffffffffffff1674010000000000000000000000000000000000000000179055565b50565b610d5e612478565b60008167ffffffffffffffff1611610dd2576040517f08c379a000000000000000000000000000000000000000000000000000000000815260206004820152601360248201527f6c6976656e6573732063616e27742062652030000000000000000000000000006044820152606401610797565b63bb7448008167ffffffffffffffff1610610e6f576040517f08c379a000000000000000000000000000000000000000000000000000000000815260206004820152602560248201527f6c6976656e657373206d757374206265206c657373207468616e20353230302060448201527f7765656b730000000000000000000000000000000000000000000000000000006064820152608401610797565b606880547fffffffff0000000000000000ffffffffffffffffffffffffffffffffffffffff167401000000000000000000000000000000000000000067ffffffffffffffff8416908102919091179091556040517f0ccc3b904401a4ffd81153f4acf19daaa09629a146f2642dc4785ff2d243d3aa90600090a250565b606a8054610ef990613bc5565b80601f0160208091040260200160405190810160405280929190818152602001828054610f2590613bc5565b8015610f725780601f10610f4757610100808354040283529160200191610f72565b820191906000526020600020905b815481529060010190602001808311610f5557829003601f168201915b505050505081565b610f82612478565b610f8c60006128ff565b565b610f96612478565b610f9e612976565b6040517f3a3ab67200000000000000000000000000000000000000000000000000000000815273ffffffffffffffffffffffffffffffffffffffff84811660048301529190911690633a3ab67290602401602060405180830381865afa15801561100c573d6000803e3d6000fd5b505050506040513d601f19601f820116820180604052508101906110309190613848565b611096576040517f08c379a000000000000000000000000000000000000000000000000000000000815260206004820152601860248201527f626f6e6420746f6b656e206e6f7420737570706f7274656400000000000000006044820152606401610797565b606880547fffffffffffffffffffffffff00000000000000000000000000000000000000001673ffffffffffffffffffffffffffffffffffffffff841690811790915560698290556040518291907f6d99292521faedf161a1edd828ddef955afcb227fa80a42c65e5ac25dba40c0990600090a35050565b611116612478565b6067805473ffffffffffffffffffffffffffffffffffffffff8381167fffffffffffffffffffffffff0000000000000000000000000000000000000000831681179093556040519116919082907f90cc2f570a6eb594b1580ea3e41247d2d73a55281889e86bd4ec2fc29c7e62d690600090a35050565b600054610100900460ff16158080156111ad5750600054600160ff909116105b806111c75750303b1580156111c7575060005460ff166001145b611253576040517f08c379a000000000000000000000000000000000000000000000000000000000815260206004820152602e60248201527f496e697469616c697a61626c653a20636f6e747261637420697320616c72656160448201527f647920696e697469616c697a65640000000000000000000000000000000000006064820152608401610797565b600080547fffffffffffffffffffffffffffffffffffffffffffffffffffffffffffffff0016600117905580156112b157600080547fffffffffffffffffffffffffffffffffffffffffffffffffffffffffffff00ff166101001790555b6112f5606780547fffffffffffffffffffffff00ffffffffffffffffffffffffffffffffffffffff1674010000000000000000000000000000000000000000179055565b6112fd612a0b565b6000806000806000808780602001905181019061131a9190613c23565b9550955095509550955095506113308585610f8e565b61133983611761565b611342826106aa565b61134b81610d56565b611354866107d3565b61135d8661110e565b61136686612327565b61136e612aaa565b60665460675460405173ffffffffffffffffffffffffffffffffffffffff918216815291811691908816907f268908d64ce6f0c721a4acf6ea8202edcdd077d5fee9976a9ce604f5bf30098f9060200160405180910390a3505050505050801561142f57600080547fffffffffffffffffffffffffffffffffffffffffffffffffffffffffffff00ff169055604051600181527f7f26b83ff96e1f2b6a682f133852f6798a09c465da95921460cefb38474024989060200160405180910390a15b5050565b61143b612478565b6000818152606d602052604081205490036114b2576040517f08c379a000000000000000000000000000000000000000000000000000000000815260206004820152601760248201527f50726f706f73616c20646f6573206e6f742065786973740000000000000000006044820152606401610797565b6000818152606d6020526040808220829055517f44656c6574656442794f776e657200000000000000000000000000000000000091339184917f2e196fb594ee89cd4c7053ad70d90963696393c9bf5b8fb46d2cea0143107ef591a450565b6000818152606d60205260408120549003611588576040517f08c379a000000000000000000000000000000000000000000000000000000000815260206004820152601760248201527f50726f706f73616c20646f6573206e6f742065786973740000000000000000006044820152606401610797565b60006115d9604051806020016040528060008152506040518060400160405280600c81526020017f70726f706f73616c48617368000000000000000000000000000000000000000081525084612654565b6000838152606d602052604080822054606c54606b5492517f53b59239000000000000000000000000000000000000000000000000000000008152949550909373ffffffffffffffffffffffffffffffffffffffff909116916353b5923991611649919086908890600401613aee565b6020604051808303816000875af1158015611668573d6000803e3d6000fd5b505050506040513d601f19601f8201168201806040525081019061168c9190613b16565b9050670de0b6b3a764000081036116ff576040517f08c379a000000000000000000000000000000000000000000000000000000000815260206004820152601960248201527f50726f706f73616c20776173206e6f742072656a6563746564000000000000006044820152606401610797565b6000848152606d6020526040808220829055517f52656a656374656400000000000000000000000000000000000000000000000091339187917f2e196fb594ee89cd4c7053ad70d90963696393c9bf5b8fb46d2cea0143107ef591a450505050565b611769612478565b60008151116117d4576040517f08c379a000000000000000000000000000000000000000000000000000000000815260206004820152601660248201527f72756c65732063616e206e6f7420626520656d707479000000000000000000006044820152606401610797565b80516117e790606a9060208401906132ab565b50806040516117f69190613ce6565b604051908190038120907fd126aed3fefb9793c6164dec52a0cd8fed9bd9a8867f4d7b41dbd6c7134ebf3090600090a250565b611831612478565b73ffffffffffffffffffffffffffffffffffffffff811615611961576040517f01ffc9a70000000000000000000000000000000000000000000000000000000081527fe6d7a83a00000000000000000000000000000000000000000000000000000000600482015273ffffffffffffffffffffffffffffffffffffffff8216906301ffc9a790602401602060405180830381865afa1580156118d7573d6000803e3d6000fd5b505050506040513d601f19601f820116820180604052508101906118fb9190613848565b611961576040517f08c379a000000000000000000000000000000000000000000000000000000000815260206004820181905260248201527f477561726420646f6573206e6f7420696d706c656d656e7420494552433136356044820152606401610797565b606580547fffffffffffffffffffffffff00000000000000000000000000000000000000001673ffffffffffffffffffffffffffffffffffffffff83169081179091556040519081527f1151116914515bc0891ff9047a6cb32cf902546f83066499bcf8ba33d2353fa29060200160405180910390a150565b6119e26125d0565b611a0f606780547fffffffffffffffffffffff00ffffffffffffffffffffffffffffffffffffffff169055565b6040805180820190915260608152426020820181905290339060005b8551811015611bc357600073ffffffffffffffffffffffffffffffffffffffff16868281518110611a5e57611a5e613b2f565b60200260200101516000015173ffffffffffffffffffffffffffffffffffffffff1603611ae7576040517f08c379a000000000000000000000000000000000000000000000000000000000815260206004820152601e60248201527f5468652060746f6020616464726573732063616e6e6f742062652030783000006044820152606401610797565b6000868281518110611afb57611afb613b2f565b602002602001015160600151511115611bb157611b4b868281518110611b2357611b23613b2f565b60200260200101516000015173ffffffffffffffffffffffffffffffffffffffff163b151590565b611bb1576040517f08c379a000000000000000000000000000000000000000000000000000000000815260206004820152601d60248201527f454f412063616e277420616363657074207478207769746820646174610000006044820152606401610797565b80611bbb81613b8d565b915050611a2b565b50848152604051600090611bdb90879060200161393b565b6040516020818303038152906040528051906020012090506000611c44604051806020016040528060008152506040518060400160405280600c81526020017f70726f706f73616c48617368000000000000000000000000000000000000000081525084612654565b6000838152606d602052604090205490915015611ce3576040517f08c379a000000000000000000000000000000000000000000000000000000000815260206004820152602360248201527f4475706c69636174652070726f706f73616c7320617265206e6f7420616c6c6f60448201527f77656400000000000000000000000000000000000000000000000000000000006064820152608401610797565b6000828152606d6020526040808220879055606c54606b5460685492517f11df92f100000000000000000000000000000000000000000000000000000000815273ffffffffffffffffffffffffffffffffffffffff928316946311df92f194611d57948c9389939190921691600401613d02565b6020604051808303816000875af1158015611d76573d6000803e3d6000fd5b505050506040513d601f19601f82011682018060405250810190611d9a9190613b16565b50606c54606b546069546040517fad5a755a00000000000000000000000000000000000000000000000000000000815260009373ffffffffffffffffffffffffffffffffffffffff169263ad5a755a92611dfa928b918891600401613d4b565b6020604051808303816000875af1158015611e19573d6000803e3d6000fd5b505050506040513d601f19601f82011682018060405250810190611e3d9190613b16565b606c54606b546068546040517f473c45fe00000000000000000000000000000000000000000000000000000000815293945073ffffffffffffffffffffffffffffffffffffffff9092169263473c45fe92611ec392918b9188917401000000000000000000000000000000000000000090910467ffffffffffffffff1690600401613d7b565b600060405180830381600087803b158015611edd57600080fd5b505af1158015611ef1573d6000803e3d6000fd5b5050606854611f1b925073ffffffffffffffffffffffffffffffffffffffff169050333084612af9565b606c54606854611f459173ffffffffffffffffffffffffffffffffffffffff918216911683612bdb565b606c54606b546040517f7c82288f00000000000000000000000000000000000000000000000000000000815273ffffffffffffffffffffffffffffffffffffffff90921691637c82288f91611fae91339130918c908990670de0b6b3a764000090600401613db5565b6020604051808303816000875af1158015611fcd573d6000803e3d6000fd5b505050506040513d601f19601f82011682018060405250810190611ff19190613b16565b506068546000906120249074010000000000000000000000000000000000000000900467ffffffffffffffff1688613e0d565b9050868673ffffffffffffffffffffffffffffffffffffffff167fed77d009499d5ef2cab953d5f77b8feb4c4d68fc8e468feb226c7736a06df6c187878c866040516120739493929190613e25565b60405180910390a35050505050505061142f606780547fffffffffffffffffffffff00ffffffffffffffffffffffffffffffffffffffff1674010000000000000000000000000000000000000000179055565b6000818152606d6020526040812054900361213d576040517f08c379a000000000000000000000000000000000000000000000000000000000815260206004820152601760248201527f50726f706f73616c20646f6573206e6f742065786973740000000000000000006044820152606401610797565b600061218e604051806020016040528060008152506040518060400160405280600c81526020017f70726f706f73616c48617368000000000000000000000000000000000000000081525084612654565b6000838152606d602052604080822054606c54606b5492517fa9904f9b000000000000000000000000000000000000000000000000000000008152949550909373ffffffffffffffffffffffffffffffffffffffff9091169163a9904f9b916121ff9130918790899060040161394e565b61020060405180830381865afa15801561221d573d6000803e3d6000fd5b505050506040513d601f19601f820116820180604052508101906122419190613a43565b602081015190915073ffffffffffffffffffffffffffffffffffffffff166122c5576040517f08c379a000000000000000000000000000000000000000000000000000000000815260206004820152601960248201527f50726f706f73616c20776173206e6f74206469737075746564000000000000006044820152606401610797565b6000848152606d6020526040808220829055517f446973707574656400000000000000000000000000000000000000000000000091339187917f2e196fb594ee89cd4c7053ad70d90963696393c9bf5b8fb46d2cea0143107ef591a450505050565b61232f612478565b73ffffffffffffffffffffffffffffffffffffffff81166123d2576040517f08c379a000000000000000000000000000000000000000000000000000000000815260206004820152602660248201527f4f776e61626c653a206e6577206f776e657220697320746865207a65726f206160448201527f64647265737300000000000000000000000000000000000000000000000000006064820152608401610797565b610d53816128ff565b6123e36125d0565b612410606780547fffffffffffffffffffffff00ffffffffffffffffffffffffffffffffffffffff169055565b612418612aaa565b610f8c606780547fffffffffffffffffffffff00ffffffffffffffffffffffffffffffffffffffff1674010000000000000000000000000000000000000000179055565b73ffffffffffffffffffffffffffffffffffffffff163b151590565b60335473ffffffffffffffffffffffffffffffffffffffff163314610f8c576040517f08c379a000000000000000000000000000000000000000000000000000000000815260206004820181905260248201527f4f776e61626c653a2063616c6c6572206973206e6f7420746865206f776e65726044820152606401610797565b6040517faafd5e400000000000000000000000000000000000000000000000000000000081527f4964656e74696669657257686974656c6973740000000000000000000000000060048201526000907f000000000000000000000000000000000000000000000000000000000000000073ffffffffffffffffffffffffffffffffffffffff169063aafd5e40906024015b602060405180830381865afa1580156125a7573d6000803e3d6000fd5b505050506040513d601f19601f820116820180604052508101906125cb9190613e77565b905090565b60675474010000000000000000000000000000000000000000900460ff16610f8c576040517f08c379a000000000000000000000000000000000000000000000000000000000815260206004820152601f60248201527f5265656e7472616e637947756172643a207265656e7472616e742063616c6c006044820152606401610797565b606060006126628585612cd9565b9050848161266f85612d21565b60405160200161268193929190613e94565b6040516020818303038152906040529150505b9392505050565b60655460009073ffffffffffffffffffffffffffffffffffffffff161561278b57606554604080518082018252600281527f3078000000000000000000000000000000000000000000000000000000000000602082015290517f75f0bb5200000000000000000000000000000000000000000000000000000000815273ffffffffffffffffffffffffffffffffffffffff909216916375f0bb52916127589189918991899189916000918291829182918291908290600401613ed7565b600060405180830381600087803b15801561277257600080fd5b505af1158015612786573d6000803e3d6000fd5b505050505b6067546040517f468721a700000000000000000000000000000000000000000000000000000000815273ffffffffffffffffffffffffffffffffffffffff9091169063468721a7906127e7908890889088908890600401613f70565b6020604051808303816000875af1158015612806573d6000803e3d6000fd5b505050506040513d601f19601f8201168201806040525081019061282a9190613848565b60655490915073ffffffffffffffffffffffffffffffffffffffff16156128f7576065546040517f932713680000000000000000000000000000000000000000000000000000000081527f30780000000000000000000000000000000000000000000000000000000000006004820152821515602482015273ffffffffffffffffffffffffffffffffffffffff90911690639327136890604401600060405180830381600087803b1580156128de57600080fd5b505af11580156128f2573d6000803e3d6000fd5b505050505b949350505050565b6033805473ffffffffffffffffffffffffffffffffffffffff8381167fffffffffffffffffffffffff0000000000000000000000000000000000000000831681179093556040519116919082907f8be0079c531659141344cd1fd0a4f28419497f9722a3daafe3b4186f6b6457e090600090a35050565b6040517faafd5e400000000000000000000000000000000000000000000000000000000081527f436f6c6c61746572616c57686974656c6973740000000000000000000000000060048201526000907f000000000000000000000000000000000000000000000000000000000000000073ffffffffffffffffffffffffffffffffffffffff169063aafd5e409060240161258a565b600054610100900460ff16612aa2576040517f08c379a000000000000000000000000000000000000000000000000000000000815260206004820152602b60248201527f496e697469616c697a61626c653a20636f6e7472616374206973206e6f74206960448201527f6e697469616c697a696e670000000000000000000000000000000000000000006064820152608401610797565b610f8c612d61565b612ab2612e01565b606c80547fffffffffffffffffffffffff00000000000000000000000000000000000000001673ffffffffffffffffffffffffffffffffffffffff92909216919091179055565b60405173ffffffffffffffffffffffffffffffffffffffff80851660248301528316604482015260648101829052612bd59085907f23b872dd00000000000000000000000000000000000000000000000000000000906084015b604080517fffffffffffffffffffffffffffffffffffffffffffffffffffffffffffffffe08184030181529190526020810180517bffffffffffffffffffffffffffffffffffffffffffffffffffffffff167fffffffff0000000000000000000000000000000000000000000000000000000090931692909217909152612e96565b50505050565b6040517fdd62ed3e00000000000000000000000000000000000000000000000000000000815230600482015273ffffffffffffffffffffffffffffffffffffffff8381166024830152600091839186169063dd62ed3e90604401602060405180830381865afa158015612c52573d6000803e3d6000fd5b505050506040513d601f19601f82011682018060405250810190612c769190613b16565b612c809190613e0d565b60405173ffffffffffffffffffffffffffffffffffffffff8516602482015260448101829052909150612bd59085907f095ea7b30000000000000000000000000000000000000000000000000000000090606401612b53565b815160609015612d0a5781604051602001612cf49190613fb4565b6040516020818303038152906040529050612d1b565b81604051602001612cf49190614020565b92915050565b6060612d30608083901c612fa7565b612d3983612fa7565b6040805160208101939093528201526060016040516020818303038152906040529050919050565b600054610100900460ff16612df8576040517f08c379a000000000000000000000000000000000000000000000000000000000815260206004820152602b60248201527f496e697469616c697a61626c653a20636f6e7472616374206973206e6f74206960448201527f6e697469616c697a696e670000000000000000000000000000000000000000006064820152608401610797565b610f8c336128ff565b6040517faafd5e400000000000000000000000000000000000000000000000000000000081527f4f7074696d69737469634f7261636c655632000000000000000000000000000060048201526000907f000000000000000000000000000000000000000000000000000000000000000073ffffffffffffffffffffffffffffffffffffffff169063aafd5e409060240161258a565b6000612ef8826040518060400160405280602081526020017f5361666545524332303a206c6f772d6c6576656c2063616c6c206661696c65648152508573ffffffffffffffffffffffffffffffffffffffff166131499092919063ffffffff16565b805190915015612fa25780806020019051810190612f169190613848565b612fa2576040517f08c379a000000000000000000000000000000000000000000000000000000000815260206004820152602a60248201527f5361666545524332303a204552433230206f7065726174696f6e20646964206e60448201527f6f742073756363656564000000000000000000000000000000000000000000006064820152608401610797565b505050565b6000808260001c9050806fffffffffffffffffffffffffffffffff169050806801000000000000000002811777ffffffffffffffff0000000000000000ffffffffffffffff169050806401000000000281177bffffffff00000000ffffffff00000000ffffffff00000000ffffffff16905080620100000281177dffff0000ffff0000ffff0000ffff0000ffff0000ffff0000ffff0000ffff169050806101000281177eff00ff00ff00ff00ff00ff00ff00ff00ff00ff00ff00ff00ff00ff00ff00ff1690508060100281177f0f0f0f0f0f0f0f0f0f0f0f0f0f0f0f0f0f0f0f0f0f0f0f0f0f0f0f0f0f0f0f0f16905060006008827f080808080808080808080808080808080808080808080808080808080808080816816130cb576130cb614061565b0460047f040404040404040404040404040404040404040404040404040404040404040484160460027f020202020202020202020202020202020202020202020202020202020202020285160417166027029091017f3030303030303030303030303030303030303030303030303030303030303030019392505050565b60606128f784846000858573ffffffffffffffffffffffffffffffffffffffff85163b6131d2576040517f08c379a000000000000000000000000000000000000000000000000000000000815260206004820152601d60248201527f416464726573733a2063616c6c20746f206e6f6e2d636f6e74726163740000006044820152606401610797565b6000808673ffffffffffffffffffffffffffffffffffffffff1685876040516131fb9190613ce6565b60006040518083038185875af1925050503d8060008114613238576040519150601f19603f3d011682016040523d82523d6000602084013e61323d565b606091505b509150915061324d828286613258565b979650505050505050565b60608315613267575081612694565b8251156132775782518084602001fd5b816040517f08c379a00000000000000000000000000000000000000000000000000000000081526004016107979190613712565b8280546132b790613bc5565b90600052602060002090601f0160209004810192826132d9576000855561331f565b82601f106132f257805160ff191683800117855561331f565b8280016001018555821561331f579182015b8281111561331f578251825591602001919060010190613304565b5061332b92915061332f565b5090565b5b8082111561332b5760008155600101613330565b60006020828403121561335657600080fd5b5035919050565b73ffffffffffffffffffffffffffffffffffffffff81168114610d5357600080fd5b60006020828403121561339157600080fd5b81356126948161335d565b7f4e487b7100000000000000000000000000000000000000000000000000000000600052604160045260246000fd5b6040516080810167ffffffffffffffff811182821017156133ee576133ee61339c565b60405290565b604051610140810167ffffffffffffffff811182821017156133ee576133ee61339c565b604051601f82017fffffffffffffffffffffffffffffffffffffffffffffffffffffffffffffffe016810167ffffffffffffffff8111828210171561345f5761345f61339c565b604052919050565b600067ffffffffffffffff8211156134815761348161339c565b50601f017fffffffffffffffffffffffffffffffffffffffffffffffffffffffffffffffe01660200190565b60006134c06134bb84613467565b613418565b90508281528383830111156134d457600080fd5b828260208301376000602084830101529392505050565b600082601f8301126134fc57600080fd5b612694838335602085016134ad565b600082601f83011261351c57600080fd5b8135602067ffffffffffffffff808311156135395761353961339c565b8260051b613548838201613418565b938452858101830193838101908886111561356257600080fd5b84880192505b85831015613628578235848111156135805760008081fd5b88016080818b037fffffffffffffffffffffffffffffffffffffffffffffffffffffffffffffffe0018113156135b65760008081fd5b6135be6133cb565b878301356135cb8161335d565b8152604083810135600281106135e15760008081fd5b828a01526060848101358284015292840135928884111561360457600091508182fd5b6136128e8b868801016134eb565b9083015250845250509184019190840190613568565b98975050505050505050565b60006020828403121561364657600080fd5b813567ffffffffffffffff81111561365d57600080fd5b6128f78482850161350b565b67ffffffffffffffff81168114610d5357600080fd5b60006020828403121561369157600080fd5b813561269481613669565b60005b838110156136b757818101518382015260200161369f565b83811115612bd55750506000910152565b600081518084526136e081602086016020860161369c565b601f017fffffffffffffffffffffffffffffffffffffffffffffffffffffffffffffffe0169290920160200192915050565b60208152600061269460208301846136c8565b6000806040838503121561373857600080fd5b82356137438161335d565b946020939093013593505050565b60006020828403121561376357600080fd5b813567ffffffffffffffff81111561377a57600080fd5b6128f7848285016134eb565b60006020828403121561379857600080fd5b813567ffffffffffffffff8111156137af57600080fd5b8201601f810184136137c057600080fd5b6128f7848235602084016134ad565b600080604083850312156137e257600080fd5b823567ffffffffffffffff808211156137fa57600080fd5b6138068683870161350b565b9350602085013591508082111561381c57600080fd5b50613829858286016134eb565b9150509250929050565b8051801515811461384357600080fd5b919050565b60006020828403121561385a57600080fd5b61269482613833565b6002811061389a577f4e487b7100000000000000000000000000000000000000000000000000000000600052602160045260246000fd5b9052565b600081518084526020808501808196508360051b8101915082860160005b8581101561392e5782840389528151608073ffffffffffffffffffffffffffffffffffffffff8251168652868201516138f788880182613863565b506040828101519087015260609182015191860181905261391a818701836136c8565b9a87019a95505050908401906001016138bc565b5091979650505050505050565b602081526000612694602083018461389e565b73ffffffffffffffffffffffffffffffffffffffff8516815283602082015282604082015260806060820152600061398960808301846136c8565b9695505050505050565b80516138438161335d565b600060e082840312156139b057600080fd5b60405160e0810181811067ffffffffffffffff821117156139d3576139d361339c565b6040529050806139e283613833565b81526139f060208401613833565b6020820152613a0160408401613833565b6040820152613a1260608401613833565b6060820152613a2360808401613833565b608082015260a083015160a082015260c083015160c08201525092915050565b60006102008284031215613a5657600080fd5b613a5e6133f4565b613a6783613993565b8152613a7560208401613993565b6020820152613a8660408401613993565b6040820152613a9760608401613833565b6060820152613aa9846080850161399e565b608082015261016083015160a082015261018083015160c08201526101a083015160e08201526101c08301516101008201526101e09092015161012083015250919050565b838152826020820152606060408201526000613b0d60608301846136c8565b95945050505050565b600060208284031215613b2857600080fd5b5051919050565b7f4e487b7100000000000000000000000000000000000000000000000000000000600052603260045260246000fd5b7f4e487b7100000000000000000000000000000000000000000000000000000000600052601160045260246000fd5b60007fffffffffffffffffffffffffffffffffffffffffffffffffffffffffffffffff8203613bbe57613bbe613b5e565b5060010190565b600181811c90821680613bd957607f821691505b602082108103613c12577f4e487b7100000000000000000000000000000000000000000000000000000000600052602260045260246000fd5b50919050565b805161384381613669565b60008060008060008060c08789031215613c3c57600080fd5b8651613c478161335d565b6020880151909650613c588161335d565b60408801516060890151919650945067ffffffffffffffff811115613c7c57600080fd5b8701601f81018913613c8d57600080fd5b8051613c9b6134bb82613467565b8181528a6020838501011115613cb057600080fd5b613cc182602083016020860161369c565b80955050505060808701519150613cda60a08801613c18565b90509295509295509295565b60008251613cf881846020870161369c565b9190910192915050565b85815284602082015260a060408201526000613d2160a08301866136c8565b73ffffffffffffffffffffffffffffffffffffffff94909416606083015250608001529392505050565b848152836020820152608060408201526000613d6a60808301856136c8565b905082606083015295945050505050565b848152836020820152608060408201526000613d9a60808301856136c8565b905067ffffffffffffffff8316606083015295945050505050565b600073ffffffffffffffffffffffffffffffffffffffff808916835280881660208401525085604083015284606083015260c06080830152613dfa60c08301856136c8565b90508260a0830152979650505050505050565b60008219821115613e2057613e20613b5e565b500190565b608081526000855160406080840152613e4160c084018261389e565b9050602087015160a08401528560208401528281036040840152613e6581866136c8565b91505082606083015295945050505050565b600060208284031215613e8957600080fd5b81516126948161335d565b60008451613ea681846020890161369c565b845190830190613eba81836020890161369c565b8451910190613ecd81836020880161369c565b0195945050505050565b600061016073ffffffffffffffffffffffffffffffffffffffff808f1684528d6020850152816040850152613f0e8285018e6136c8565b9150613f1d606085018d613863565b8a60808501528960a08501528860c085015280881660e0850152808716610100850152838203610120850152613f5382876136c8565b925080851661014085015250509c9b505050505050505050505050565b73ffffffffffffffffffffffffffffffffffffffff85168152836020820152608060408201526000613fa560808301856136c8565b9050613b0d6060830184613863565b7f2c00000000000000000000000000000000000000000000000000000000000000815260008251613fec81600185016020870161369c565b7f3a000000000000000000000000000000000000000000000000000000000000006001939091019283015250600201919050565b6000825161403281846020870161369c565b7f3a00000000000000000000000000000000000000000000000000000000000000920191825250600101919050565b7f4e487b7100000000000000000000000000000000000000000000000000000000600052601260045260246000fdfea2646970667358221220e3ca134c391784d83ad0ba8d418787bf29f47d9ba1fad4ad2cfab7068710600964736f6c634300080d0033496e697469616c697a61626c653a20636f6e7472616374206973206e6f742069",
  "linkReferences": {},
  "deployedLinkReferences": {}
}