{
  "_format": "hh-sol-artifact-1",
  "contractName": "OptimisticGovernor",
  "sourceName": "contracts/OptimisticGovernor.sol",
  "abi": [
    {
      "inputs": [
        {
          "internalType": "address",
          "name": "_finder",
          "type": "address"
        },
        {
          "internalType": "address",
          "name": "_owner",
          "type": "address"
        },
        {
          "internalType": "address",
          "name": "_collateral",
          "type": "address"
        },
        {
          "internalType": "uint256",
          "name": "_bondAmount",
          "type": "uint256"
        },
        {
          "internalType": "string",
          "name": "_rules",
          "type": "string"
        },
        {
          "internalType": "bytes32",
          "name": "_identifier",
          "type": "bytes32"
        },
        {
          "internalType": "uint64",
          "name": "_liveness",
          "type": "uint64"
        }
      ],
      "stateMutability": "nonpayable",
      "type": "constructor"
    },
    {
      "anonymous": false,
      "inputs": [
        {
          "indexed": true,
          "internalType": "address",
          "name": "previousAvatar",
          "type": "address"
        },
        {
          "indexed": true,
          "internalType": "address",
          "name": "newAvatar",
          "type": "address"
        }
      ],
      "name": "AvatarSet",
      "type": "event"
    },
    {
      "anonymous": false,
      "inputs": [
        {
          "indexed": false,
          "internalType": "address",
          "name": "guard",
          "type": "address"
        }
      ],
      "name": "ChangedGuard",
      "type": "event"
    },
    {
      "anonymous": false,
      "inputs": [
        {
          "indexed": true,
          "internalType": "address",
          "name": "owner",
          "type": "address"
        },
        {
          "indexed": true,
          "internalType": "address",
          "name": "avatar",
          "type": "address"
        },
        {
          "indexed": false,
          "internalType": "address",
          "name": "target",
          "type": "address"
        }
      ],
      "name": "OptimisticGovernorDeployed",
      "type": "event"
    },
    {
      "anonymous": false,
      "inputs": [
        {
          "indexed": true,
          "internalType": "address",
          "name": "previousOwner",
          "type": "address"
        },
        {
          "indexed": true,
          "internalType": "address",
          "name": "newOwner",
          "type": "address"
        }
      ],
      "name": "OwnershipTransferred",
      "type": "event"
    },
    {
      "anonymous": false,
      "inputs": [
        {
          "indexed": true,
          "internalType": "bytes32",
          "name": "proposalHash",
          "type": "bytes32"
        },
        {
          "indexed": true,
          "internalType": "address",
          "name": "sender",
          "type": "address"
        },
        {
          "indexed": true,
          "internalType": "bytes32",
          "name": "status",
          "type": "bytes32"
        }
      ],
      "name": "ProposalDeleted",
      "type": "event"
    },
    {
      "anonymous": false,
      "inputs": [
        {
          "indexed": true,
          "internalType": "contract IERC20",
          "name": "collateral",
          "type": "address"
        },
        {
          "indexed": true,
          "internalType": "uint256",
          "name": "bondAmount",
          "type": "uint256"
        }
      ],
      "name": "SetBond",
      "type": "event"
    },
    {
      "anonymous": false,
      "inputs": [
        {
          "indexed": true,
          "internalType": "contract IERC20",
          "name": "collateral",
          "type": "address"
        }
      ],
      "name": "SetCollateral",
      "type": "event"
    },
    {
      "anonymous": false,
      "inputs": [
        {
          "indexed": true,
          "internalType": "bytes32",
          "name": "identifier",
          "type": "bytes32"
        }
      ],
      "name": "SetIdentifier",
      "type": "event"
    },
    {
      "anonymous": false,
      "inputs": [
        {
          "indexed": true,
          "internalType": "uint64",
          "name": "liveness",
          "type": "uint64"
        }
      ],
      "name": "SetLiveness",
      "type": "event"
    },
    {
      "anonymous": false,
      "inputs": [
        {
          "indexed": true,
          "internalType": "string",
          "name": "rules",
          "type": "string"
        }
      ],
      "name": "SetRules",
      "type": "event"
    },
    {
      "anonymous": false,
      "inputs": [
        {
          "indexed": true,
          "internalType": "address",
          "name": "previousTarget",
          "type": "address"
        },
        {
          "indexed": true,
          "internalType": "address",
          "name": "newTarget",
          "type": "address"
        }
      ],
      "name": "TargetSet",
      "type": "event"
    },
    {
      "anonymous": false,
      "inputs": [
        {
          "indexed": true,
          "internalType": "bytes32",
          "name": "proposalHash",
          "type": "bytes32"
        },
        {
          "indexed": true,
          "internalType": "uint256",
          "name": "transactionIndex",
          "type": "uint256"
        }
      ],
      "name": "TransactionExecuted",
      "type": "event"
    },
    {
      "anonymous": false,
      "inputs": [
        {
          "indexed": true,
          "internalType": "address",
          "name": "proposer",
          "type": "address"
        },
        {
          "indexed": true,
          "internalType": "uint256",
          "name": "proposalTime",
          "type": "uint256"
        },
        {
          "components": [
            {
              "components": [
                {
                  "internalType": "address",
                  "name": "to",
                  "type": "address"
                },
                {
                  "internalType": "enum Enum.Operation",
                  "name": "operation",
                  "type": "uint8"
                },
                {
                  "internalType": "uint256",
                  "name": "value",
                  "type": "uint256"
                },
                {
                  "internalType": "bytes",
                  "name": "data",
                  "type": "bytes"
                }
              ],
              "internalType": "struct OptimisticGovernor.Transaction[]",
              "name": "transactions",
              "type": "tuple[]"
            },
            {
              "internalType": "uint256",
              "name": "requestTime",
              "type": "uint256"
            }
          ],
          "indexed": false,
          "internalType": "struct OptimisticGovernor.Proposal",
          "name": "proposal",
          "type": "tuple"
        },
        {
          "indexed": false,
          "internalType": "bytes32",
          "name": "proposalHash",
          "type": "bytes32"
        },
        {
          "indexed": false,
          "internalType": "bytes",
          "name": "explanation",
          "type": "bytes"
        },
        {
          "indexed": false,
          "internalType": "uint256",
          "name": "challengeWindowEnds",
          "type": "uint256"
        }
      ],
      "name": "TransactionsProposed",
      "type": "event"
    },
    {
      "inputs": [],
      "name": "PROPOSAL_HASH_KEY",
      "outputs": [
        {
          "internalType": "bytes",
          "name": "",
          "type": "bytes"
        }
      ],
      "stateMutability": "view",
      "type": "function"
    },
    {
      "inputs": [],
      "name": "PROPOSAL_VALID_RESPONSE",
      "outputs": [
        {
          "internalType": "int256",
          "name": "",
          "type": "int256"
        }
      ],
      "stateMutability": "view",
      "type": "function"
    },
    {
      "inputs": [],
      "name": "avatar",
      "outputs": [
        {
          "internalType": "address",
          "name": "",
          "type": "address"
        }
      ],
      "stateMutability": "view",
      "type": "function"
    },
    {
      "inputs": [],
      "name": "bondAmount",
      "outputs": [
        {
          "internalType": "uint256",
          "name": "",
          "type": "uint256"
        }
      ],
      "stateMutability": "view",
      "type": "function"
    },
    {
      "inputs": [],
      "name": "collateral",
      "outputs": [
        {
          "internalType": "contract IERC20",
          "name": "",
          "type": "address"
        }
      ],
      "stateMutability": "view",
      "type": "function"
    },
    {
      "inputs": [
        {
          "internalType": "bytes32",
          "name": "_proposalHash",
          "type": "bytes32"
        }
      ],
      "name": "deleteDisputedProposal",
      "outputs": [],
      "stateMutability": "nonpayable",
      "type": "function"
    },
    {
      "inputs": [
        {
          "internalType": "bytes32",
          "name": "_proposalHash",
          "type": "bytes32"
        }
      ],
      "name": "deleteProposal",
      "outputs": [],
      "stateMutability": "nonpayable",
      "type": "function"
    },
    {
      "inputs": [
        {
          "internalType": "bytes32",
          "name": "_proposalHash",
          "type": "bytes32"
        }
      ],
      "name": "deleteRejectedProposal",
      "outputs": [],
      "stateMutability": "nonpayable",
      "type": "function"
    },
    {
      "inputs": [
        {
          "components": [
            {
              "internalType": "address",
              "name": "to",
              "type": "address"
            },
            {
              "internalType": "enum Enum.Operation",
              "name": "operation",
              "type": "uint8"
            },
            {
              "internalType": "uint256",
              "name": "value",
              "type": "uint256"
            },
            {
              "internalType": "bytes",
              "name": "data",
              "type": "bytes"
            }
          ],
          "internalType": "struct OptimisticGovernor.Transaction[]",
          "name": "_transactions",
          "type": "tuple[]"
        }
      ],
      "name": "executeProposal",
      "outputs": [],
      "stateMutability": "payable",
      "type": "function"
    },
    {
      "inputs": [],
      "name": "finder",
      "outputs": [
        {
          "internalType": "contract FinderInterface",
          "name": "",
          "type": "address"
        }
      ],
      "stateMutability": "view",
      "type": "function"
    },
    {
      "inputs": [],
      "name": "getCurrentTime",
      "outputs": [
        {
          "internalType": "uint256",
          "name": "",
          "type": "uint256"
        }
      ],
      "stateMutability": "view",
      "type": "function"
    },
    {
      "inputs": [],
      "name": "getGuard",
      "outputs": [
        {
          "internalType": "address",
          "name": "_guard",
          "type": "address"
        }
      ],
      "stateMutability": "view",
      "type": "function"
    },
    {
      "inputs": [],
      "name": "guard",
      "outputs": [
        {
          "internalType": "address",
          "name": "",
          "type": "address"
        }
      ],
      "stateMutability": "view",
      "type": "function"
    },
    {
      "inputs": [],
      "name": "identifier",
      "outputs": [
        {
          "internalType": "bytes32",
          "name": "",
          "type": "bytes32"
        }
      ],
      "stateMutability": "view",
      "type": "function"
    },
    {
      "inputs": [],
      "name": "liveness",
      "outputs": [
        {
          "internalType": "uint64",
          "name": "",
          "type": "uint64"
        }
      ],
      "stateMutability": "view",
      "type": "function"
    },
    {
      "inputs": [],
      "name": "optimisticOracle",
      "outputs": [
        {
          "internalType": "contract OptimisticOracleInterface",
          "name": "",
          "type": "address"
        }
      ],
      "stateMutability": "view",
      "type": "function"
    },
    {
      "inputs": [],
      "name": "owner",
      "outputs": [
        {
          "internalType": "address",
          "name": "",
          "type": "address"
        }
      ],
      "stateMutability": "view",
      "type": "function"
    },
    {
      "inputs": [
        {
          "internalType": "bytes32",
          "name": "",
          "type": "bytes32"
        }
      ],
      "name": "proposalHashes",
      "outputs": [
        {
          "internalType": "uint256",
          "name": "",
          "type": "uint256"
        }
      ],
      "stateMutability": "view",
      "type": "function"
    },
    {
      "inputs": [
        {
          "components": [
            {
              "internalType": "address",
              "name": "to",
              "type": "address"
            },
            {
              "internalType": "enum Enum.Operation",
              "name": "operation",
              "type": "uint8"
            },
            {
              "internalType": "uint256",
              "name": "value",
              "type": "uint256"
            },
            {
              "internalType": "bytes",
              "name": "data",
              "type": "bytes"
            }
          ],
          "internalType": "struct OptimisticGovernor.Transaction[]",
          "name": "_transactions",
          "type": "tuple[]"
        },
        {
          "internalType": "bytes",
          "name": "_explanation",
          "type": "bytes"
        }
      ],
      "name": "proposeTransactions",
      "outputs": [],
      "stateMutability": "nonpayable",
      "type": "function"
    },
    {
      "inputs": [],
      "name": "renounceOwnership",
      "outputs": [],
      "stateMutability": "nonpayable",
      "type": "function"
    },
    {
      "inputs": [],
      "name": "rules",
      "outputs": [
        {
          "internalType": "string",
          "name": "",
          "type": "string"
        }
      ],
      "stateMutability": "view",
      "type": "function"
    },
    {
      "inputs": [
        {
          "internalType": "address",
          "name": "_avatar",
          "type": "address"
        }
      ],
      "name": "setAvatar",
      "outputs": [],
      "stateMutability": "nonpayable",
      "type": "function"
    },
    {
      "inputs": [
        {
          "internalType": "contract IERC20",
          "name": "_collateral",
          "type": "address"
        },
        {
          "internalType": "uint256",
          "name": "_bondAmount",
          "type": "uint256"
        }
      ],
      "name": "setCollateralAndBond",
      "outputs": [],
      "stateMutability": "nonpayable",
      "type": "function"
    },
    {
      "inputs": [
        {
          "internalType": "address",
          "name": "_guard",
          "type": "address"
        }
      ],
      "name": "setGuard",
      "outputs": [],
      "stateMutability": "nonpayable",
      "type": "function"
    },
    {
      "inputs": [
        {
          "internalType": "bytes32",
          "name": "_identifier",
          "type": "bytes32"
        }
      ],
      "name": "setIdentifier",
      "outputs": [],
      "stateMutability": "nonpayable",
      "type": "function"
    },
    {
      "inputs": [
        {
          "internalType": "uint64",
          "name": "_liveness",
          "type": "uint64"
        }
      ],
      "name": "setLiveness",
      "outputs": [],
      "stateMutability": "nonpayable",
      "type": "function"
    },
    {
      "inputs": [
        {
          "internalType": "string",
          "name": "_rules",
          "type": "string"
        }
      ],
      "name": "setRules",
      "outputs": [],
      "stateMutability": "nonpayable",
      "type": "function"
    },
    {
      "inputs": [
        {
          "internalType": "address",
          "name": "_target",
          "type": "address"
        }
      ],
      "name": "setTarget",
      "outputs": [],
      "stateMutability": "nonpayable",
      "type": "function"
    },
    {
      "inputs": [
        {
          "internalType": "bytes",
          "name": "initializeParams",
          "type": "bytes"
        }
      ],
      "name": "setUp",
      "outputs": [],
      "stateMutability": "nonpayable",
      "type": "function"
    },
    {
      "inputs": [],
      "name": "sync",
      "outputs": [],
      "stateMutability": "nonpayable",
      "type": "function"
    },
    {
      "inputs": [],
      "name": "target",
      "outputs": [
        {
          "internalType": "address",
          "name": "",
          "type": "address"
        }
      ],
      "stateMutability": "view",
      "type": "function"
    },
    {
      "inputs": [
        {
          "internalType": "address",
          "name": "newOwner",
          "type": "address"
        }
      ],
      "name": "transferOwnership",
      "outputs": [],
      "stateMutability": "nonpayable",
      "type": "function"
    }
  ],
  "bytecode": "0x60a06040523480156200001157600080fd5b506040516200555538038062005555833981016040819052620000349162000e35565b6067805460ff60a01b1916600160a01b179055604051600090620000679088908890889088908890889060200162000edc565b60408051601f1981840301815291905290506001600160a01b038816620000d55760405162461bcd60e51b815260206004820152601f60248201527f66696e64657220616464726573732063616e206e6f7420626520656d7074790060448201526064015b60405180910390fd5b6001600160a01b038816608052620000ed81620000fb565b505050505050505062001080565b600054610100900460ff16620001185760005460ff161562000122565b62000122620002a5565b620001875760405162461bcd60e51b815260206004820152602e60248201527f496e697469616c697a61626c653a20636f6e747261637420697320616c72656160448201526d191e481a5b9a5d1a585b1a5e995960921b6064820152608401620000cc565b600054610100900460ff16158015620001aa576000805461ffff19166101011790555b620001b4620002c3565b60008060008060008087806020019051810190620001d3919062000f4a565b955095509550955095509550620001f185856200032b60201b60201c565b620001fc83620004a0565b620002078262000597565b6200021281620006ef565b6200021d8662000857565b6200022886620008f4565b620002338662000991565b6200023d62000a51565b6066546067546040516001600160a01b03918216815291811691908816907f268908d64ce6f0c721a4acf6ea8202edcdd077d5fee9976a9ce604f5bf30098f9060200160405180910390a35050505050508015620002a1576000805461ff00191690555b5050565b6000620002bd3062000a7d60201b620028f51760201c565b15905090565b600054610100900460ff166200031f5760405162461bcd60e51b815260206004820152602b60248201526000805160206200551583398151915260448201526a6e697469616c697a696e6760a81b6064820152608401620000cc565b6200032962000a8c565b565b6033546001600160a01b03163314620003765760405162461bcd60e51b81526020600482018190526024820152600080516020620055358339815191526044820152606401620000cc565b6200038062000af3565b604051631d1d5b3960e11b81526001600160a01b0384811660048301529190911690633a3ab6729060240160206040518083038186803b158015620003c457600080fd5b505afa158015620003d9573d6000803e3d6000fd5b505050506040513d601f19601f82011682018060405250810190620003ff919062000fda565b6200044d5760405162461bcd60e51b815260206004820152601860248201527f626f6e6420746f6b656e206e6f7420737570706f7274656400000000000000006044820152606401620000cc565b606880546001600160a01b0319166001600160a01b03841690811790915560698290556040518291907f6d99292521faedf161a1edd828ddef955afcb227fa80a42c65e5ac25dba40c0990600090a35050565b6033546001600160a01b03163314620004eb5760405162461bcd60e51b81526020600482018190526024820152600080516020620055358339815191526044820152606401620000cc565b60008151116200053e5760405162461bcd60e51b815260206004820152601660248201527f72756c65732063616e206e6f7420626520656d707479000000000000000000006044820152606401620000cc565b80516200055390606a90602084019062000c82565b508060405162000564919062001005565b604051908190038120907fd126aed3fefb9793c6164dec52a0cd8fed9bd9a8867f4d7b41dbd6c7134ebf3090600090a250565b6033546001600160a01b03163314620005e25760405162461bcd60e51b81526020600482018190526024820152600080516020620055358339815191526044820152606401620000cc565b620005ec62000b99565b6001600160a01b03166390978d1b826040518263ffffffff1660e01b81526004016200061a91815260200190565b60206040518083038186803b1580156200063357600080fd5b505afa15801562000648573d6000803e3d6000fd5b505050506040513d601f19601f820116820180604052508101906200066e919062000fda565b620006bc5760405162461bcd60e51b815260206004820152601860248201527f6964656e746966696572206e6f7420737570706f7274656400000000000000006044820152606401620000cc565b606b81905560405181907ff35b61cf27d8ae21648935573dbd9eefad145ebc7dfe806273e3f93d9896ab9c90600090a250565b6033546001600160a01b031633146200073a5760405162461bcd60e51b81526020600482018190526024820152600080516020620055358339815191526044820152606401620000cc565b6000816001600160401b031611620007955760405162461bcd60e51b815260206004820152601360248201527f6c6976656e6573732063616e27742062652030000000000000000000000000006044820152606401620000cc565b63bb744800816001600160401b031610620008015760405162461bcd60e51b815260206004820152602560248201527f6c6976656e657373206d757374206265206c657373207468616e2035323030206044820152647765656b7360d81b6064820152608401620000cc565b60688054600160a01b600160e01b031916600160a01b6001600160401b038416908102919091179091556040517f0ccc3b904401a4ffd81153f4acf19daaa09629a146f2642dc4785ff2d243d3aa90600090a250565b6033546001600160a01b03163314620008a25760405162461bcd60e51b81526020600482018190526024820152600080516020620055358339815191526044820152606401620000cc565b606680546001600160a01b038381166001600160a01b0319831681179093556040519116919082907f52ae88b092de36f87fb43fe794eb1381023b9c1bce563a871154022c63dce34290600090a35050565b6033546001600160a01b031633146200093f5760405162461bcd60e51b81526020600482018190526024820152600080516020620055358339815191526044820152606401620000cc565b606780546001600160a01b038381166001600160a01b0319831681179093556040519116919082907f90cc2f570a6eb594b1580ea3e41247d2d73a55281889e86bd4ec2fc29c7e62d690600090a35050565b6033546001600160a01b03163314620009dc5760405162461bcd60e51b81526020600482018190526024820152600080516020620055358339815191526044820152606401620000cc565b6001600160a01b03811662000a435760405162461bcd60e51b815260206004820152602660248201527f4f776e61626c653a206e6577206f776e657220697320746865207a65726f206160448201526564647265737360d01b6064820152608401620000cc565b62000a4e8162000beb565b50565b62000a5b62000c3d565b606c80546001600160a01b0319166001600160a01b0392909216919091179055565b6001600160a01b03163b151590565b600054610100900460ff1662000ae85760405162461bcd60e51b815260206004820152602b60248201526000805160206200551583398151915260448201526a6e697469616c697a696e6760a81b6064820152608401620000cc565b620003293362000beb565b6080516040516302abf57960e61b81527f436f6c6c61746572616c57686974656c6973740000000000000000000000000060048201526000916001600160a01b03169063aafd5e40906024015b60206040518083038186803b15801562000b5957600080fd5b505afa15801562000b6e573d6000803e3d6000fd5b505050506040513d601f19601f8201168201806040525081019062000b94919062001023565b905090565b6080516040516302abf57960e61b81527f4964656e74696669657257686974656c6973740000000000000000000000000060048201526000916001600160a01b03169063aafd5e409060240162000b40565b603380546001600160a01b038381166001600160a01b0319831681179093556040519116919082907f8be0079c531659141344cd1fd0a4f28419497f9722a3daafe3b4186f6b6457e090600090a35050565b6080516040516302abf57960e61b81526f4f7074696d69737469634f7261636c6560801b60048201526000916001600160a01b03169063aafd5e409060240162000b40565b82805462000c909062001043565b90600052602060002090601f01602090048101928262000cb4576000855562000cff565b82601f1062000ccf57805160ff191683800117855562000cff565b8280016001018555821562000cff579182015b8281111562000cff57825182559160200191906001019062000ce2565b5062000d0d92915062000d11565b5090565b5b8082111562000d0d576000815560010162000d12565b6001600160a01b038116811462000a4e57600080fd5b634e487b7160e01b600052604160045260246000fd5b60005b8381101562000d7157818101518382015260200162000d57565b8381111562000d81576000848401525b50505050565b600082601f83011262000d9957600080fd5b81516001600160401b038082111562000db65762000db662000d3e565b604051601f8301601f19908116603f0116810190828211818310171562000de15762000de162000d3e565b8160405283815286602085880101111562000dfb57600080fd5b62000e0e84602083016020890162000d54565b9695505050505050565b80516001600160401b038116811462000e3057600080fd5b919050565b600080600080600080600060e0888a03121562000e5157600080fd5b875162000e5e8162000d28565b602089015190975062000e718162000d28565b604089015190965062000e848162000d28565b606089015160808a015191965094506001600160401b0381111562000ea857600080fd5b62000eb68a828b0162000d87565b93505060a0880151915062000ece60c0890162000e18565b905092959891949750929550565b600060018060a01b03808916835280881660208401525085604083015260c0606083015284518060c084015262000f1b8160e085016020890162000d54565b6080830194909452506001600160401b039190911660a082015260e0601f909201601f19160101949350505050565b60008060008060008060c0878903121562000f6457600080fd5b865162000f718162000d28565b602088015190965062000f848162000d28565b6040880151606089015191965094506001600160401b0381111562000fa857600080fd5b62000fb689828a0162000d87565b9350506080870151915062000fce60a0880162000e18565b90509295509295509295565b60006020828403121562000fed57600080fd5b8151801515811462000ffe57600080fd5b9392505050565b600082516200101981846020870162000d54565b9190910192915050565b6000602082840312156200103657600080fd5b815162000ffe8162000d28565b600181811c908216806200105857607f821691505b602082108114156200107a57634e487b7160e01b600052602260045260246000fd5b50919050565b608051614464620010b1600039600081816105050152818161296201528181612dfd015261329701526144646000f3fe6080604052600436106101e25760003560e01c806380f323a711610102578063d4b8399211610095578063edc4569a11610064578063edc4569a1461060c578063f2fde38b1461062c578063f913f33a1461064c578063fff6cae91461069557600080fd5b8063d4b8399214610572578063d8dfeb451461059f578063e19a9dd9146105cc578063e20dac00146105ec57600080fd5b8063b460b46b116100d1578063b460b46b146104d3578063b9a3c84c146104f3578063c910638914610527578063ce0d8d201461055257600080fd5b806380f323a7146104525780638da5cb5b14610468578063a4f9edbf14610493578063b3d39e63146104b357600080fd5b80635aef7de61161017a57806375e0fc391161014957806375e0fc39146103cf578063776d1a01146103ef5780637998a1c41461040f5780637ceab3b11461042557600080fd5b80635aef7de61461031f578063636c06581461034c5780636ad0690a14610368578063715018a6146103ba57600080fd5b806329cb924d116101b657806329cb924d146102935780633c4432f1146102b057806350564e19146102d057806352f6747a146102fd57600080fd5b8062c99206146101e7578063086cfca814610209578063210f68ae14610229578063223029221461023c575b600080fd5b3480156101f357600080fd5b50610207610202366004613773565b6106aa565b005b34801561021557600080fd5b506102076102243660046137ae565b61085b565b610207610237366004613a63565b610953565b34801561024857600080fd5b50606c546102699073ffffffffffffffffffffffffffffffffffffffff1681565b60405173ffffffffffffffffffffffffffffffffffffffff90911681526020015b60405180910390f35b34801561029f57600080fd5b50425b60405190815260200161028a565b3480156102bc57600080fd5b506102076102cb366004613aae565b610e74565b3480156102dc57600080fd5b506102a26102eb366004613773565b606d6020526000908152604090205481565b34801561030957600080fd5b50610312611083565b60405161028a9190613b41565b34801561032b57600080fd5b506066546102699073ffffffffffffffffffffffffffffffffffffffff1681565b34801561035857600080fd5b506102a2670de0b6b3a764000081565b34801561037457600080fd5b506068546103a19074010000000000000000000000000000000000000000900467ffffffffffffffff1681565b60405167ffffffffffffffff909116815260200161028a565b3480156103c657600080fd5b50610207611111565b3480156103db57600080fd5b506102076103ea366004613b54565b61119e565b3480156103fb57600080fd5b5061020761040a3660046137ae565b6113a6565b34801561041b57600080fd5b506102a2606b5481565b34801561043157600080fd5b506065546102699073ffffffffffffffffffffffffffffffffffffffff1681565b34801561045e57600080fd5b506102a260695481565b34801561047457600080fd5b5060335473ffffffffffffffffffffffffffffffffffffffff16610269565b34801561049f57600080fd5b506102076104ae366004613b80565b61149e565b3480156104bf57600080fd5b506102076104ce366004613773565b611692565b3480156104df57600080fd5b506102076104ee366004613773565b6117e7565b3480156104ff57600080fd5b506102697f000000000000000000000000000000000000000000000000000000000000000081565b34801561053357600080fd5b5060655473ffffffffffffffffffffffffffffffffffffffff16610269565b34801561055e57600080fd5b5061020761056d366004613bb5565b611a45565b34801561057e57600080fd5b506067546102699073ffffffffffffffffffffffffffffffffffffffff1681565b3480156105ab57600080fd5b506068546102699073ffffffffffffffffffffffffffffffffffffffff1681565b3480156105d857600080fd5b506102076105e73660046137ae565b611b86565b3480156105f857600080fd5b50610207610607366004613bfe565b611dbf565b34801561061857600080fd5b50610207610627366004613773565b6124d9565b34801561063857600080fd5b506102076106473660046137ae565b612747565b34801561065857600080fd5b506103126040518060400160405280600c81526020017f70726f706f73616c48617368000000000000000000000000000000000000000081525081565b3480156106a157600080fd5b50610207612874565b60335473ffffffffffffffffffffffffffffffffffffffff163314610730576040517f08c379a000000000000000000000000000000000000000000000000000000000815260206004820181905260248201527f4f776e61626c653a2063616c6c6572206973206e6f7420746865206f776e657260448201526064015b60405180910390fd5b610738612911565b73ffffffffffffffffffffffffffffffffffffffff166390978d1b826040518263ffffffff1660e01b815260040161077291815260200190565b60206040518083038186803b15801561078a57600080fd5b505afa15801561079e573d6000803e3d6000fd5b505050506040513d601f19601f820116820180604052508101906107c29190613c77565b610828576040517f08c379a000000000000000000000000000000000000000000000000000000000815260206004820152601860248201527f6964656e746966696572206e6f7420737570706f7274656400000000000000006044820152606401610727565b606b81905560405181907ff35b61cf27d8ae21648935573dbd9eefad145ebc7dfe806273e3f93d9896ab9c90600090a250565b60335473ffffffffffffffffffffffffffffffffffffffff1633146108dc576040517f08c379a000000000000000000000000000000000000000000000000000000000815260206004820181905260248201527f4f776e61626c653a2063616c6c6572206973206e6f7420746865206f776e65726044820152606401610727565b6066805473ffffffffffffffffffffffffffffffffffffffff8381167fffffffffffffffffffffffff0000000000000000000000000000000000000000831681179093556040519116919082907f52ae88b092de36f87fb43fe794eb1381023b9c1bce563a871154022c63dce34290600090a35050565b61095b6129f7565b610988606780547fffffffffffffffffffffff00ffffffffffffffffffffffffffffffffffffffff169055565b60008160405160200161099b9190613d6a565b6040516020818303038152906040528051906020012090506000610a04604051806020016040528060008152506040518060400160405280600c81526020017f70726f706f73616c48617368000000000000000000000000000000000000000081525084612a7b565b6000838152606d6020526040902054909150610a7c576040517f08c379a000000000000000000000000000000000000000000000000000000000815260206004820152601c60248201527f70726f706f73616c206861736820646f6573206e6f74206578697374000000006044820152606401610727565b6000828152606d602052604080822054606c54606b5492517fa9904f9b00000000000000000000000000000000000000000000000000000000815291939273ffffffffffffffffffffffffffffffffffffffff9091169163a9904f9b91610aec9130919087908990600401613d7d565b6101806040518083038186803b158015610b0557600080fd5b505afa158015610b19573d6000803e3d6000fd5b505050506040513d601f19601f82011682018060405250810190610b3d9190613dcd565b6020015173ffffffffffffffffffffffffffffffffffffffff1614610be4576040517f08c379a000000000000000000000000000000000000000000000000000000000815260206004820152602860248201527f4d7573742063616c6c2064656c657465446973707574656450726f706f73616c60448201527f20696e73746561640000000000000000000000000000000000000000000000006064820152608401610727565b6000838152606d6020526040808220829055606c54606b5491517f53b5923900000000000000000000000000000000000000000000000000000000815273ffffffffffffffffffffffffffffffffffffffff909116916353b5923991610c51919086908890600401613e8a565b602060405180830381600087803b158015610c6b57600080fd5b505af1158015610c7f573d6000803e3d6000fd5b505050506040513d601f19601f82011682018060405250810190610ca39190613eb2565b9050670de0b6b3a76400008114610d16576040517f08c379a000000000000000000000000000000000000000000000000000000000815260206004820152601560248201527f50726f706f73616c207761732072656a656374656400000000000000000000006044820152606401610727565b60005b8551811015610e28576000868281518110610d3657610d36613ecb565b60200260200101519050610d5c8160000151826040015183606001518460200151612ac2565b610de8576040517f08c379a000000000000000000000000000000000000000000000000000000000815260206004820152602160248201527f4661696c656420746f206578656375746520746865207472616e73616374696f60448201527f6e000000000000000000000000000000000000000000000000000000000000006064820152608401610727565b604051829087907fd9a0df418868c38712b1f6eab685bc77a2e49596edd77667ab34d5448f5f941c90600090a35080610e2081613f29565b915050610d19565b5050505050610e71606780547fffffffffffffffffffffff00ffffffffffffffffffffffffffffffffffffffff1674010000000000000000000000000000000000000000179055565b50565b60335473ffffffffffffffffffffffffffffffffffffffff163314610ef5576040517f08c379a000000000000000000000000000000000000000000000000000000000815260206004820181905260248201527f4f776e61626c653a2063616c6c6572206973206e6f7420746865206f776e65726044820152606401610727565b60008167ffffffffffffffff1611610f69576040517f08c379a000000000000000000000000000000000000000000000000000000000815260206004820152601360248201527f6c6976656e6573732063616e27742062652030000000000000000000000000006044820152606401610727565b63bb7448008167ffffffffffffffff1610611006576040517f08c379a000000000000000000000000000000000000000000000000000000000815260206004820152602560248201527f6c6976656e657373206d757374206265206c657373207468616e20353230302060448201527f7765656b730000000000000000000000000000000000000000000000000000006064820152608401610727565b606880547fffffffff0000000000000000ffffffffffffffffffffffffffffffffffffffff167401000000000000000000000000000000000000000067ffffffffffffffff8416908102919091179091556040517f0ccc3b904401a4ffd81153f4acf19daaa09629a146f2642dc4785ff2d243d3aa90600090a250565b606a805461109090613f62565b80601f01602080910402602001604051908101604052809291908181526020018280546110bc90613f62565b80156111095780601f106110de57610100808354040283529160200191611109565b820191906000526020600020905b8154815290600101906020018083116110ec57829003601f168201915b505050505081565b60335473ffffffffffffffffffffffffffffffffffffffff163314611192576040517f08c379a000000000000000000000000000000000000000000000000000000000815260206004820181905260248201527f4f776e61626c653a2063616c6c6572206973206e6f7420746865206f776e65726044820152606401610727565b61119c6000612d35565b565b60335473ffffffffffffffffffffffffffffffffffffffff16331461121f576040517f08c379a000000000000000000000000000000000000000000000000000000000815260206004820181905260248201527f4f776e61626c653a2063616c6c6572206973206e6f7420746865206f776e65726044820152606401610727565b611227612dac565b6040517f3a3ab67200000000000000000000000000000000000000000000000000000000815273ffffffffffffffffffffffffffffffffffffffff84811660048301529190911690633a3ab6729060240160206040518083038186803b15801561129057600080fd5b505afa1580156112a4573d6000803e3d6000fd5b505050506040513d601f19601f820116820180604052508101906112c89190613c77565b61132e576040517f08c379a000000000000000000000000000000000000000000000000000000000815260206004820152601860248201527f626f6e6420746f6b656e206e6f7420737570706f7274656400000000000000006044820152606401610727565b606880547fffffffffffffffffffffffff00000000000000000000000000000000000000001673ffffffffffffffffffffffffffffffffffffffff841690811790915560698290556040518291907f6d99292521faedf161a1edd828ddef955afcb227fa80a42c65e5ac25dba40c0990600090a35050565b60335473ffffffffffffffffffffffffffffffffffffffff163314611427576040517f08c379a000000000000000000000000000000000000000000000000000000000815260206004820181905260248201527f4f776e61626c653a2063616c6c6572206973206e6f7420746865206f776e65726044820152606401610727565b6067805473ffffffffffffffffffffffffffffffffffffffff8381167fffffffffffffffffffffffff0000000000000000000000000000000000000000831681179093556040519116919082907f90cc2f570a6eb594b1580ea3e41247d2d73a55281889e86bd4ec2fc29c7e62d690600090a35050565b600054610100900460ff166114b95760005460ff16156114bd565b303b155b611549576040517f08c379a000000000000000000000000000000000000000000000000000000000815260206004820152602e60248201527f496e697469616c697a61626c653a20636f6e747261637420697320616c72656160448201527f647920696e697469616c697a65640000000000000000000000000000000000006064820152608401610727565b600054610100900460ff1615801561158857600080547fffffffffffffffffffffffffffffffffffffffffffffffffffffffffffff0000166101011790555b611590612e41565b600080600080600080878060200190518101906115ad9190613fc1565b9550955095509550955095506115c3858561119e565b6115cc83611a45565b6115d5826106aa565b6115de81610e74565b6115e78661085b565b6115f0866113a6565b6115f986612747565b611601612ee0565b60665460675460405173ffffffffffffffffffffffffffffffffffffffff918216815291811691908816907f268908d64ce6f0c721a4acf6ea8202edcdd077d5fee9976a9ce604f5bf30098f9060200160405180910390a3505050505050801561168e57600080547fffffffffffffffffffffffffffffffffffffffffffffffffffffffffffff00ff1690555b5050565b60335473ffffffffffffffffffffffffffffffffffffffff163314611713576040517f08c379a000000000000000000000000000000000000000000000000000000000815260206004820181905260248201527f4f776e61626c653a2063616c6c6572206973206e6f7420746865206f776e65726044820152606401610727565b6000818152606d6020526040902054611788576040517f08c379a000000000000000000000000000000000000000000000000000000000815260206004820152601760248201527f50726f706f73616c20646f6573206e6f742065786973740000000000000000006044820152606401610727565b6000818152606d6020526040808220829055517f44656c6574656442794f776e657200000000000000000000000000000000000091339184917f2e196fb594ee89cd4c7053ad70d90963696393c9bf5b8fb46d2cea0143107ef591a450565b6000818152606d602052604090205461185c576040517f08c379a000000000000000000000000000000000000000000000000000000000815260206004820152601760248201527f50726f706f73616c20646f6573206e6f742065786973740000000000000000006044820152606401610727565b60006118ad604051806020016040528060008152506040518060400160405280600c81526020017f70726f706f73616c48617368000000000000000000000000000000000000000081525084612a7b565b6000838152606d602052604080822054606c54606b5492517f53b59239000000000000000000000000000000000000000000000000000000008152949550909373ffffffffffffffffffffffffffffffffffffffff909116916353b592399161191d919086908890600401613e8a565b602060405180830381600087803b15801561193757600080fd5b505af115801561194b573d6000803e3d6000fd5b505050506040513d601f19601f8201168201806040525081019061196f9190613eb2565b9050670de0b6b3a76400008114156119e3576040517f08c379a000000000000000000000000000000000000000000000000000000000815260206004820152601960248201527f50726f706f73616c20776173206e6f742072656a6563746564000000000000006044820152606401610727565b6000848152606d6020526040808220829055517f52656a656374656400000000000000000000000000000000000000000000000091339187917f2e196fb594ee89cd4c7053ad70d90963696393c9bf5b8fb46d2cea0143107ef591a450505050565b60335473ffffffffffffffffffffffffffffffffffffffff163314611ac6576040517f08c379a000000000000000000000000000000000000000000000000000000000815260206004820181905260248201527f4f776e61626c653a2063616c6c6572206973206e6f7420746865206f776e65726044820152606401610727565b6000815111611b31576040517f08c379a000000000000000000000000000000000000000000000000000000000815260206004820152601660248201527f72756c65732063616e206e6f7420626520656d707479000000000000000000006044820152606401610727565b8051611b4490606a9060208401906136da565b5080604051611b539190614084565b604051908190038120907fd126aed3fefb9793c6164dec52a0cd8fed9bd9a8867f4d7b41dbd6c7134ebf3090600090a250565b60335473ffffffffffffffffffffffffffffffffffffffff163314611c07576040517f08c379a000000000000000000000000000000000000000000000000000000000815260206004820181905260248201527f4f776e61626c653a2063616c6c6572206973206e6f7420746865206f776e65726044820152606401610727565b73ffffffffffffffffffffffffffffffffffffffff811615611d46576040517f01ffc9a70000000000000000000000000000000000000000000000000000000081527fe6d7a83a00000000000000000000000000000000000000000000000000000000600482015273ffffffffffffffffffffffffffffffffffffffff8216906301ffc9a79060240160206040518083038186803b158015611ca857600080fd5b505afa158015611cbc573d6000803e3d6000fd5b505050506040513d601f19601f82011682018060405250810190611ce09190613c77565b611d46576040517f08c379a000000000000000000000000000000000000000000000000000000000815260206004820181905260248201527f477561726420646f6573206e6f7420696d706c656d656e7420494552433136356044820152606401610727565b606580547fffffffffffffffffffffffff00000000000000000000000000000000000000001673ffffffffffffffffffffffffffffffffffffffff83169081179091556040519081527f1151116914515bc0891ff9047a6cb32cf902546f83066499bcf8ba33d2353fa29060200160405180910390a150565b611dc76129f7565b611df4606780547fffffffffffffffffffffff00ffffffffffffffffffffffffffffffffffffffff169055565b6040805180820190915260608152426020820181905290339060005b8551811015611fa957600073ffffffffffffffffffffffffffffffffffffffff16868281518110611e4357611e43613ecb565b60200260200101516000015173ffffffffffffffffffffffffffffffffffffffff161415611ecd576040517f08c379a000000000000000000000000000000000000000000000000000000000815260206004820152601e60248201527f5468652060746f6020616464726573732063616e6e6f742062652030783000006044820152606401610727565b6000868281518110611ee157611ee1613ecb565b602002602001015160600151511115611f9757611f31868281518110611f0957611f09613ecb565b60200260200101516000015173ffffffffffffffffffffffffffffffffffffffff163b151590565b611f97576040517f08c379a000000000000000000000000000000000000000000000000000000000815260206004820152601d60248201527f454f412063616e277420616363657074207478207769746820646174610000006044820152606401610727565b80611fa181613f29565b915050611e10565b50848152604051600090611fc1908790602001613d6a565b604051602081830303815290604052805190602001209050600061202a604051806020016040528060008152506040518060400160405280600c81526020017f70726f706f73616c48617368000000000000000000000000000000000000000081525084612a7b565b6000838152606d6020526040902054909150156120c9576040517f08c379a000000000000000000000000000000000000000000000000000000000815260206004820152602360248201527f4475706c69636174652070726f706f73616c7320617265206e6f7420616c6c6f60448201527f77656400000000000000000000000000000000000000000000000000000000006064820152608401610727565b6000828152606d6020526040808220879055606c54606b5460685492517f11df92f100000000000000000000000000000000000000000000000000000000815273ffffffffffffffffffffffffffffffffffffffff928316946311df92f19461213d948c93899391909216916004016140a0565b602060405180830381600087803b15801561215757600080fd5b505af115801561216b573d6000803e3d6000fd5b505050506040513d601f19601f8201168201806040525081019061218f9190613eb2565b50606c54606b546069546040517fad5a755a00000000000000000000000000000000000000000000000000000000815260009373ffffffffffffffffffffffffffffffffffffffff169263ad5a755a926121ef928b9188916004016140e9565b602060405180830381600087803b15801561220957600080fd5b505af115801561221d573d6000803e3d6000fd5b505050506040513d601f19601f820116820180604052508101906122419190613eb2565b606c54606b546068546040517f473c45fe00000000000000000000000000000000000000000000000000000000815293945073ffffffffffffffffffffffffffffffffffffffff9092169263473c45fe926122c792918b9188917401000000000000000000000000000000000000000090910467ffffffffffffffff1690600401614119565b600060405180830381600087803b1580156122e157600080fd5b505af11580156122f5573d6000803e3d6000fd5b505060685461231f925073ffffffffffffffffffffffffffffffffffffffff169050333084612f2f565b606c546068546123499173ffffffffffffffffffffffffffffffffffffffff918216911683613011565b606c54606b546040517f7c82288f00000000000000000000000000000000000000000000000000000000815273ffffffffffffffffffffffffffffffffffffffff90921691637c82288f916123b291339130918c908990670de0b6b3a764000090600401614153565b602060405180830381600087803b1580156123cc57600080fd5b505af11580156123e0573d6000803e3d6000fd5b505050506040513d601f19601f820116820180604052508101906124049190613eb2565b506068546000906124379074010000000000000000000000000000000000000000900467ffffffffffffffff16886141ab565b9050868673ffffffffffffffffffffffffffffffffffffffff167fed77d009499d5ef2cab953d5f77b8feb4c4d68fc8e468feb226c7736a06df6c187878c8660405161248694939291906141c3565b60405180910390a35050505050505061168e606780547fffffffffffffffffffffff00ffffffffffffffffffffffffffffffffffffffff1674010000000000000000000000000000000000000000179055565b6000818152606d602052604090205461254e576040517f08c379a000000000000000000000000000000000000000000000000000000000815260206004820152601760248201527f50726f706f73616c20646f6573206e6f742065786973740000000000000000006044820152606401610727565b600061259f604051806020016040528060008152506040518060400160405280600c81526020017f70726f706f73616c48617368000000000000000000000000000000000000000081525084612a7b565b6000838152606d602052604080822054606c54606b5492517fa9904f9b000000000000000000000000000000000000000000000000000000008152949550909373ffffffffffffffffffffffffffffffffffffffff9091169163a9904f9b9161261091309187908990600401613d7d565b6101806040518083038186803b15801561262957600080fd5b505afa15801561263d573d6000803e3d6000fd5b505050506040513d601f19601f820116820180604052508101906126619190613dcd565b602081015190915073ffffffffffffffffffffffffffffffffffffffff166126e5576040517f08c379a000000000000000000000000000000000000000000000000000000000815260206004820152601960248201527f50726f706f73616c20776173206e6f74206469737075746564000000000000006044820152606401610727565b6000848152606d6020526040808220829055517f446973707574656400000000000000000000000000000000000000000000000091339187917f2e196fb594ee89cd4c7053ad70d90963696393c9bf5b8fb46d2cea0143107ef591a450505050565b60335473ffffffffffffffffffffffffffffffffffffffff1633146127c8576040517f08c379a000000000000000000000000000000000000000000000000000000000815260206004820181905260248201527f4f776e61626c653a2063616c6c6572206973206e6f7420746865206f776e65726044820152606401610727565b73ffffffffffffffffffffffffffffffffffffffff811661286b576040517f08c379a000000000000000000000000000000000000000000000000000000000815260206004820152602660248201527f4f776e61626c653a206e6577206f776e657220697320746865207a65726f206160448201527f64647265737300000000000000000000000000000000000000000000000000006064820152608401610727565b610e7181612d35565b61287c6129f7565b6128a9606780547fffffffffffffffffffffff00ffffffffffffffffffffffffffffffffffffffff169055565b6128b1612ee0565b61119c606780547fffffffffffffffffffffff00ffffffffffffffffffffffffffffffffffffffff1674010000000000000000000000000000000000000000179055565b73ffffffffffffffffffffffffffffffffffffffff163b151590565b6040517faafd5e400000000000000000000000000000000000000000000000000000000081527f4964656e74696669657257686974656c6973740000000000000000000000000060048201526000907f000000000000000000000000000000000000000000000000000000000000000073ffffffffffffffffffffffffffffffffffffffff169063aafd5e40906024015b60206040518083038186803b1580156129ba57600080fd5b505afa1580156129ce573d6000803e3d6000fd5b505050506040513d601f19601f820116820180604052508101906129f29190614215565b905090565b60675474010000000000000000000000000000000000000000900460ff1661119c576040517f08c379a000000000000000000000000000000000000000000000000000000000815260206004820152601f60248201527f5265656e7472616e637947756172643a207265656e7472616e742063616c6c006044820152606401610727565b60606000612a89858561311e565b90508481612a9685613166565b604051602001612aa893929190614232565b6040516020818303038152906040529150505b9392505050565b60655460009073ffffffffffffffffffffffffffffffffffffffff1615612bb257606554604080518082018252600281527f3078000000000000000000000000000000000000000000000000000000000000602082015290517f75f0bb5200000000000000000000000000000000000000000000000000000000815273ffffffffffffffffffffffffffffffffffffffff909216916375f0bb5291612b7f9189918991899189916000918291829182918291908290600401614275565b600060405180830381600087803b158015612b9957600080fd5b505af1158015612bad573d6000803e3d6000fd5b505050505b6067546040517f468721a700000000000000000000000000000000000000000000000000000000815273ffffffffffffffffffffffffffffffffffffffff9091169063468721a790612c0e90889088908890889060040161430e565b602060405180830381600087803b158015612c2857600080fd5b505af1158015612c3c573d6000803e3d6000fd5b505050506040513d601f19601f82011682018060405250810190612c609190613c77565b60655490915073ffffffffffffffffffffffffffffffffffffffff1615612d2d576065546040517f932713680000000000000000000000000000000000000000000000000000000081527f30780000000000000000000000000000000000000000000000000000000000006004820152821515602482015273ffffffffffffffffffffffffffffffffffffffff90911690639327136890604401600060405180830381600087803b158015612d1457600080fd5b505af1158015612d28573d6000803e3d6000fd5b505050505b949350505050565b6033805473ffffffffffffffffffffffffffffffffffffffff8381167fffffffffffffffffffffffff0000000000000000000000000000000000000000831681179093556040519116919082907f8be0079c531659141344cd1fd0a4f28419497f9722a3daafe3b4186f6b6457e090600090a35050565b6040517faafd5e400000000000000000000000000000000000000000000000000000000081527f436f6c6c61746572616c57686974656c6973740000000000000000000000000060048201526000907f000000000000000000000000000000000000000000000000000000000000000073ffffffffffffffffffffffffffffffffffffffff169063aafd5e40906024016129a2565b600054610100900460ff16612ed8576040517f08c379a000000000000000000000000000000000000000000000000000000000815260206004820152602b60248201527f496e697469616c697a61626c653a20636f6e7472616374206973206e6f74206960448201527f6e697469616c697a696e670000000000000000000000000000000000000000006064820152608401610727565b61119c6131a6565b612ee8613246565b606c80547fffffffffffffffffffffffff00000000000000000000000000000000000000001673ffffffffffffffffffffffffffffffffffffffff92909216919091179055565b60405173ffffffffffffffffffffffffffffffffffffffff8085166024830152831660448201526064810182905261300b9085907f23b872dd00000000000000000000000000000000000000000000000000000000906084015b604080517fffffffffffffffffffffffffffffffffffffffffffffffffffffffffffffffe08184030181529190526020810180517bffffffffffffffffffffffffffffffffffffffffffffffffffffffff167fffffffff00000000000000000000000000000000000000000000000000000000909316929092179091526132db565b50505050565b6040517fdd62ed3e00000000000000000000000000000000000000000000000000000000815230600482015273ffffffffffffffffffffffffffffffffffffffff8381166024830152600091839186169063dd62ed3e9060440160206040518083038186803b15801561308357600080fd5b505afa158015613097573d6000803e3d6000fd5b505050506040513d601f19601f820116820180604052508101906130bb9190613eb2565b6130c591906141ab565b60405173ffffffffffffffffffffffffffffffffffffffff851660248201526044810182905290915061300b9085907f095ea7b30000000000000000000000000000000000000000000000000000000090606401612f89565b81516060901561314f57816040516020016131399190614352565b6040516020818303038152906040529050613160565b8160405160200161313991906143be565b92915050565b6060613175608083901c6133ec565b61317e836133ec565b6040805160208101939093528201526060016040516020818303038152906040529050919050565b600054610100900460ff1661323d576040517f08c379a000000000000000000000000000000000000000000000000000000000815260206004820152602b60248201527f496e697469616c697a61626c653a20636f6e7472616374206973206e6f74206960448201527f6e697469616c697a696e670000000000000000000000000000000000000000006064820152608401610727565b61119c33612d35565b6040517faafd5e400000000000000000000000000000000000000000000000000000000081527f4f7074696d69737469634f7261636c650000000000000000000000000000000060048201526000907f000000000000000000000000000000000000000000000000000000000000000073ffffffffffffffffffffffffffffffffffffffff169063aafd5e40906024016129a2565b600061333d826040518060400160405280602081526020017f5361666545524332303a206c6f772d6c6576656c2063616c6c206661696c65648152508573ffffffffffffffffffffffffffffffffffffffff1661358e9092919063ffffffff16565b8051909150156133e7578080602001905181019061335b9190613c77565b6133e7576040517f08c379a000000000000000000000000000000000000000000000000000000000815260206004820152602a60248201527f5361666545524332303a204552433230206f7065726174696f6e20646964206e60448201527f6f742073756363656564000000000000000000000000000000000000000000006064820152608401610727565b505050565b6000808260001c9050806fffffffffffffffffffffffffffffffff169050806801000000000000000002811777ffffffffffffffff0000000000000000ffffffffffffffff169050806401000000000281177bffffffff00000000ffffffff00000000ffffffff00000000ffffffff16905080620100000281177dffff0000ffff0000ffff0000ffff0000ffff0000ffff0000ffff0000ffff169050806101000281177eff00ff00ff00ff00ff00ff00ff00ff00ff00ff00ff00ff00ff00ff00ff00ff1690508060100281177f0f0f0f0f0f0f0f0f0f0f0f0f0f0f0f0f0f0f0f0f0f0f0f0f0f0f0f0f0f0f0f0f16905060006008827f08080808080808080808080808080808080808080808080808080808080808081681613510576135106143ff565b0460047f040404040404040404040404040404040404040404040404040404040404040484160460027f020202020202020202020202020202020202020202020202020202020202020285160417166027029091017f3030303030303030303030303030303030303030303030303030303030303030019392505050565b6060612d2d848460008585843b613601576040517f08c379a000000000000000000000000000000000000000000000000000000000815260206004820152601d60248201527f416464726573733a2063616c6c20746f206e6f6e2d636f6e74726163740000006044820152606401610727565b6000808673ffffffffffffffffffffffffffffffffffffffff16858760405161362a9190614084565b60006040518083038185875af1925050503d8060008114613667576040519150601f19603f3d011682016040523d82523d6000602084013e61366c565b606091505b509150915061367c828286613687565b979650505050505050565b60608315613696575081612abb565b8251156136a65782518084602001fd5b816040517f08c379a00000000000000000000000000000000000000000000000000000000081526004016107279190613b41565b8280546136e690613f62565b90600052602060002090601f016020900481019282613708576000855561374e565b82601f1061372157805160ff191683800117855561374e565b8280016001018555821561374e579182015b8281111561374e578251825591602001919060010190613733565b5061375a92915061375e565b5090565b5b8082111561375a576000815560010161375f565b60006020828403121561378557600080fd5b5035919050565b73ffffffffffffffffffffffffffffffffffffffff81168114610e7157600080fd5b6000602082840312156137c057600080fd5b8135612abb8161378c565b7f4e487b7100000000000000000000000000000000000000000000000000000000600052604160045260246000fd5b6040516080810167ffffffffffffffff8111828210171561381d5761381d6137cb565b60405290565b604051610180810167ffffffffffffffff8111828210171561381d5761381d6137cb565b604051601f82017fffffffffffffffffffffffffffffffffffffffffffffffffffffffffffffffe016810167ffffffffffffffff8111828210171561388e5761388e6137cb565b604052919050565b600067ffffffffffffffff8211156138b0576138b06137cb565b50601f017fffffffffffffffffffffffffffffffffffffffffffffffffffffffffffffffe01660200190565b60006138ef6138ea84613896565b613847565b905082815283838301111561390357600080fd5b828260208301376000602084830101529392505050565b600082601f83011261392b57600080fd5b612abb838335602085016138dc565b600082601f83011261394b57600080fd5b8135602067ffffffffffffffff80831115613968576139686137cb565b8260051b613977838201613847565b938452858101830193838101908886111561399157600080fd5b84880192505b85831015613a57578235848111156139af5760008081fd5b88016080818b037fffffffffffffffffffffffffffffffffffffffffffffffffffffffffffffffe0018113156139e55760008081fd5b6139ed6137fa565b878301356139fa8161378c565b815260408381013560028110613a105760008081fd5b828a015260608481013582840152928401359288841115613a3357600091508182fd5b613a418e8b8688010161391a565b9083015250845250509184019190840190613997565b98975050505050505050565b600060208284031215613a7557600080fd5b813567ffffffffffffffff811115613a8c57600080fd5b612d2d8482850161393a565b67ffffffffffffffff81168114610e7157600080fd5b600060208284031215613ac057600080fd5b8135612abb81613a98565b60005b83811015613ae6578181015183820152602001613ace565b8381111561300b5750506000910152565b60008151808452613b0f816020860160208601613acb565b601f017fffffffffffffffffffffffffffffffffffffffffffffffffffffffffffffffe0169290920160200192915050565b602081526000612abb6020830184613af7565b60008060408385031215613b6757600080fd5b8235613b728161378c565b946020939093013593505050565b600060208284031215613b9257600080fd5b813567ffffffffffffffff811115613ba957600080fd5b612d2d8482850161391a565b600060208284031215613bc757600080fd5b813567ffffffffffffffff811115613bde57600080fd5b8201601f81018413613bef57600080fd5b612d2d848235602084016138dc565b60008060408385031215613c1157600080fd5b823567ffffffffffffffff80821115613c2957600080fd5b613c358683870161393a565b93506020850135915080821115613c4b57600080fd5b50613c588582860161391a565b9150509250929050565b80518015158114613c7257600080fd5b919050565b600060208284031215613c8957600080fd5b612abb82613c62565b60028110613cc9577f4e487b7100000000000000000000000000000000000000000000000000000000600052602160045260246000fd5b9052565b600081518084526020808501808196508360051b8101915082860160005b85811015613d5d5782840389528151608073ffffffffffffffffffffffffffffffffffffffff825116865286820151613d2688880182613c92565b5060408281015190870152606091820151918601819052613d4981870183613af7565b9a87019a9550505090840190600101613ceb565b5091979650505050505050565b602081526000612abb6020830184613ccd565b73ffffffffffffffffffffffffffffffffffffffff85168152836020820152826040820152608060608201526000613db86080830184613af7565b9695505050505050565b8051613c728161378c565b60006101808284031215613de057600080fd5b613de8613823565b613df183613dc2565b8152613dff60208401613dc2565b6020820152613e1060408401613dc2565b6040820152613e2160608401613c62565b6060820152613e3260808401613c62565b608082015260a0838101519082015260c0808401519082015260e08084015190820152610100808401519082015261012080840151908201526101408084015190820152610160928301519281019290925250919050565b838152826020820152606060408201526000613ea96060830184613af7565b95945050505050565b600060208284031215613ec457600080fd5b5051919050565b7f4e487b7100000000000000000000000000000000000000000000000000000000600052603260045260246000fd5b7f4e487b7100000000000000000000000000000000000000000000000000000000600052601160045260246000fd5b60007fffffffffffffffffffffffffffffffffffffffffffffffffffffffffffffffff821415613f5b57613f5b613efa565b5060010190565b600181811c90821680613f7657607f821691505b60208210811415613fb0577f4e487b7100000000000000000000000000000000000000000000000000000000600052602260045260246000fd5b50919050565b8051613c7281613a98565b60008060008060008060c08789031215613fda57600080fd5b8651613fe58161378c565b6020880151909650613ff68161378c565b60408801516060890151919650945067ffffffffffffffff81111561401a57600080fd5b8701601f8101891361402b57600080fd5b80516140396138ea82613896565b8181528a602083850101111561404e57600080fd5b61405f826020830160208601613acb565b8095505050506080870151915061407860a08801613fb6565b90509295509295509295565b60008251614096818460208701613acb565b9190910192915050565b85815284602082015260a0604082015260006140bf60a0830186613af7565b73ffffffffffffffffffffffffffffffffffffffff94909416606083015250608001529392505050565b8481528360208201526080604082015260006141086080830185613af7565b905082606083015295945050505050565b8481528360208201526080604082015260006141386080830185613af7565b905067ffffffffffffffff8316606083015295945050505050565b600073ffffffffffffffffffffffffffffffffffffffff808916835280881660208401525085604083015284606083015260c0608083015261419860c0830185613af7565b90508260a0830152979650505050505050565b600082198211156141be576141be613efa565b500190565b6080815260008551604060808401526141df60c0840182613ccd565b9050602087015160a084015285602084015282810360408401526142038186613af7565b91505082606083015295945050505050565b60006020828403121561422757600080fd5b8151612abb8161378c565b60008451614244818460208901613acb565b845190830190614258818360208901613acb565b845191019061426b818360208801613acb565b0195945050505050565b600061016073ffffffffffffffffffffffffffffffffffffffff808f1684528d60208501528160408501526142ac8285018e613af7565b91506142bb606085018d613c92565b8a60808501528960a08501528860c085015280881660e08501528087166101008501528382036101208501526142f18287613af7565b925080851661014085015250509c9b505050505050505050505050565b73ffffffffffffffffffffffffffffffffffffffff851681528360208201526080604082015260006143436080830185613af7565b9050613ea96060830184613c92565b7f2c0000000000000000000000000000000000000000000000000000000000000081526000825161438a816001850160208701613acb565b7f3a000000000000000000000000000000000000000000000000000000000000006001939091019283015250600201919050565b600082516143d0818460208701613acb565b7f3a00000000000000000000000000000000000000000000000000000000000000920191825250600101919050565b7f4e487b7100000000000000000000000000000000000000000000000000000000600052601260045260246000fdfea2646970667358221220f677b61ec779d41f2a6ecb385e002e6468aff17e814bad9a37b35d1a286b0c3364736f6c63430008090033496e697469616c697a61626c653a20636f6e7472616374206973206e6f7420694f776e61626c653a2063616c6c6572206973206e6f7420746865206f776e6572",
  "linkReferences": {},
  "deployedLinkReferences": {}
}