{
  "_format": "hh-sol-artifact-1",
  "contractName": "Roles",
  "sourceName": "contracts/Roles.sol",
  "abi": [
    {
      "inputs": [
        {
          "internalType": "address",
          "name": "_owner",
          "type": "address"
        },
        {
          "internalType": "address",
          "name": "_avatar",
          "type": "address"
        },
        {
          "internalType": "address",
          "name": "_target",
          "type": "address"
        }
      ],
      "stateMutability": "nonpayable",
      "type": "constructor"
    },
    {
      "inputs": [],
      "name": "ArraysDifferentLength",
      "type": "error"
    },
    {
      "inputs": [],
      "name": "ModuleTransactionFailed",
      "type": "error"
    },
    {
      "inputs": [],
      "name": "NoMembership",
      "type": "error"
    },
    {
      "inputs": [],
      "name": "SetUpModulesAlreadyCalled",
      "type": "error"
    },
    {
      "anonymous": false,
      "inputs": [
        {
          "indexed": false,
          "internalType": "uint16",
          "name": "role",
          "type": "uint16"
        },
        {
          "indexed": false,
          "internalType": "address",
          "name": "targetAddress",
          "type": "address"
        },
        {
          "indexed": false,
          "internalType": "bool",
          "name": "canSend",
          "type": "bool"
        },
        {
          "indexed": false,
          "internalType": "bool",
          "name": "canDelegate",
          "type": "bool"
        }
      ],
      "name": "AllowTarget",
      "type": "event"
    },
    {
      "anonymous": false,
      "inputs": [
        {
          "indexed": false,
          "internalType": "uint16",
          "name": "role",
          "type": "uint16"
        },
        {
          "indexed": false,
          "internalType": "address",
          "name": "targetAddress",
          "type": "address"
        },
        {
          "indexed": false,
          "internalType": "bool",
          "name": "canSend",
          "type": "bool"
        },
        {
          "indexed": false,
          "internalType": "bool",
          "name": "canDelegate",
          "type": "bool"
        }
      ],
      "name": "AllowTargetPartially",
      "type": "event"
    },
    {
      "anonymous": false,
      "inputs": [
        {
          "indexed": false,
          "internalType": "address",
          "name": "module",
          "type": "address"
        },
        {
          "indexed": false,
          "internalType": "uint16[]",
          "name": "roles",
          "type": "uint16[]"
        }
      ],
      "name": "AssignRoles",
      "type": "event"
    },
    {
      "anonymous": false,
      "inputs": [
        {
          "indexed": true,
          "internalType": "address",
          "name": "previousAvatar",
          "type": "address"
        },
        {
          "indexed": true,
          "internalType": "address",
          "name": "newAvatar",
          "type": "address"
        }
      ],
      "name": "AvatarSet",
      "type": "event"
    },
    {
      "anonymous": false,
      "inputs": [
        {
          "indexed": false,
          "internalType": "address",
          "name": "guard",
          "type": "address"
        }
      ],
      "name": "ChangedGuard",
      "type": "event"
    },
    {
      "anonymous": false,
      "inputs": [
        {
          "indexed": false,
          "internalType": "address",
          "name": "module",
          "type": "address"
        }
      ],
      "name": "DisabledModule",
      "type": "event"
    },
    {
      "anonymous": false,
      "inputs": [
        {
          "indexed": false,
          "internalType": "address",
          "name": "module",
          "type": "address"
        }
      ],
      "name": "EnabledModule",
      "type": "event"
    },
    {
      "anonymous": false,
      "inputs": [
        {
          "indexed": true,
          "internalType": "address",
          "name": "previousOwner",
          "type": "address"
        },
        {
          "indexed": true,
          "internalType": "address",
          "name": "newOwner",
          "type": "address"
        }
      ],
      "name": "OwnershipTransferred",
      "type": "event"
    },
    {
      "anonymous": false,
      "inputs": [
        {
          "indexed": false,
          "internalType": "uint16",
          "name": "role",
          "type": "uint16"
        },
        {
          "indexed": false,
          "internalType": "address",
          "name": "targetAddress",
          "type": "address"
        }
      ],
      "name": "RevokeTarget",
      "type": "event"
    },
    {
      "anonymous": false,
      "inputs": [
        {
          "indexed": true,
          "internalType": "address",
          "name": "initiator",
          "type": "address"
        },
        {
          "indexed": true,
          "internalType": "address",
          "name": "owner",
          "type": "address"
        },
        {
          "indexed": true,
          "internalType": "address",
          "name": "avatar",
          "type": "address"
        },
        {
          "indexed": false,
          "internalType": "address",
          "name": "target",
          "type": "address"
        }
      ],
      "name": "RolesModSetup",
      "type": "event"
    },
    {
      "anonymous": false,
      "inputs": [
        {
          "indexed": false,
          "internalType": "uint16",
          "name": "role",
          "type": "uint16"
        },
        {
          "indexed": false,
          "internalType": "address",
          "name": "targetAddress",
          "type": "address"
        },
        {
          "indexed": false,
          "internalType": "bytes4",
          "name": "selector",
          "type": "bytes4"
        }
      ],
      "name": "ScopeAllowFunction",
      "type": "event"
    },
    {
      "anonymous": false,
      "inputs": [
        {
          "indexed": false,
          "internalType": "uint16",
          "name": "role",
          "type": "uint16"
        },
        {
          "indexed": false,
          "internalType": "address",
          "name": "targetAddress",
          "type": "address"
        },
        {
          "indexed": false,
          "internalType": "bytes4",
          "name": "functionSig",
          "type": "bytes4"
        },
        {
          "indexed": false,
          "internalType": "bool[]",
          "name": "paramIsScoped",
          "type": "bool[]"
        },
        {
          "indexed": false,
          "internalType": "bool[]",
          "name": "paramIsDynamic",
          "type": "bool[]"
        },
        {
          "indexed": false,
          "internalType": "enum Comparison[]",
          "name": "paramCompType",
          "type": "uint8[]"
        },
        {
          "indexed": false,
          "internalType": "bytes[]",
          "name": "paramCompValue",
          "type": "bytes[]"
        }
      ],
      "name": "ScopeFunction",
      "type": "event"
    },
    {
      "anonymous": false,
      "inputs": [
        {
          "indexed": false,
          "internalType": "uint16",
          "name": "role",
          "type": "uint16"
        },
        {
          "indexed": false,
          "internalType": "address",
          "name": "targetAddress",
          "type": "address"
        },
        {
          "indexed": false,
          "internalType": "bytes4",
          "name": "functionSig",
          "type": "bytes4"
        },
        {
          "indexed": false,
          "internalType": "uint8",
          "name": "paramIndex",
          "type": "uint8"
        },
        {
          "indexed": false,
          "internalType": "bool",
          "name": "isDynamic",
          "type": "bool"
        },
        {
          "indexed": false,
          "internalType": "enum Comparison",
          "name": "compType",
          "type": "uint8"
        },
        {
          "indexed": false,
          "internalType": "bytes",
          "name": "compValue",
          "type": "bytes"
        }
      ],
      "name": "ScopeParameter",
      "type": "event"
    },
    {
      "anonymous": false,
      "inputs": [
        {
          "indexed": false,
          "internalType": "uint16",
          "name": "role",
          "type": "uint16"
        },
        {
          "indexed": false,
          "internalType": "address",
          "name": "targetAddress",
          "type": "address"
        },
        {
          "indexed": false,
          "internalType": "bytes4",
          "name": "functionSig",
          "type": "bytes4"
        },
        {
          "indexed": false,
          "internalType": "uint8",
          "name": "paramIndex",
          "type": "uint8"
        },
        {
          "indexed": false,
          "internalType": "bool",
          "name": "isDynamic",
          "type": "bool"
        },
        {
          "indexed": false,
          "internalType": "bytes[]",
          "name": "compValues",
          "type": "bytes[]"
        }
      ],
      "name": "ScopeParameterAsOneOf",
      "type": "event"
    },
    {
      "anonymous": false,
      "inputs": [
        {
          "indexed": false,
          "internalType": "uint16",
          "name": "role",
          "type": "uint16"
        },
        {
          "indexed": false,
          "internalType": "address",
          "name": "targetAddress",
          "type": "address"
        },
        {
          "indexed": false,
          "internalType": "bytes4",
          "name": "selector",
          "type": "bytes4"
        }
      ],
      "name": "ScopeRevokeFunction",
      "type": "event"
    },
    {
      "anonymous": false,
      "inputs": [
        {
          "indexed": false,
          "internalType": "address",
          "name": "module",
          "type": "address"
        },
        {
          "indexed": false,
          "internalType": "uint16",
          "name": "defaultRole",
          "type": "uint16"
        }
      ],
      "name": "SetDefaultRole",
      "type": "event"
    },
    {
      "anonymous": false,
      "inputs": [
        {
          "indexed": false,
          "internalType": "address",
          "name": "multiSendAddress",
          "type": "address"
        }
      ],
      "name": "SetMulitSendAddress",
      "type": "event"
    },
    {
      "anonymous": false,
      "inputs": [
        {
          "indexed": true,
          "internalType": "address",
          "name": "previousTarget",
          "type": "address"
        },
        {
          "indexed": true,
          "internalType": "address",
          "name": "newTarget",
          "type": "address"
        }
      ],
      "name": "TargetSet",
      "type": "event"
    },
    {
      "anonymous": false,
      "inputs": [
        {
          "indexed": false,
          "internalType": "uint16",
          "name": "role",
          "type": "uint16"
        },
        {
          "indexed": false,
          "internalType": "address",
          "name": "targetAddress",
          "type": "address"
        },
        {
          "indexed": false,
          "internalType": "bytes4",
          "name": "functionSig",
          "type": "bytes4"
        },
        {
          "indexed": false,
          "internalType": "uint8",
          "name": "paramIndex",
          "type": "uint8"
        }
      ],
      "name": "UnscopeParameter",
      "type": "event"
    },
    {
      "inputs": [
        {
          "internalType": "uint16",
          "name": "role",
          "type": "uint16"
        },
        {
          "internalType": "address",
          "name": "targetAddress",
          "type": "address"
        },
        {
          "internalType": "bool",
          "name": "canSend",
          "type": "bool"
        },
        {
          "internalType": "bool",
          "name": "canDelegate",
          "type": "bool"
        }
      ],
      "name": "allowTarget",
      "outputs": [],
      "stateMutability": "nonpayable",
      "type": "function"
    },
    {
      "inputs": [
        {
          "internalType": "uint16",
          "name": "role",
          "type": "uint16"
        },
        {
          "internalType": "address",
          "name": "targetAddress",
          "type": "address"
        },
        {
          "internalType": "bool",
          "name": "canSend",
          "type": "bool"
        },
        {
          "internalType": "bool",
          "name": "canDelegate",
          "type": "bool"
        }
      ],
      "name": "allowTargetPartially",
      "outputs": [],
      "stateMutability": "nonpayable",
      "type": "function"
    },
    {
      "inputs": [
        {
          "internalType": "address",
          "name": "module",
          "type": "address"
        },
        {
          "internalType": "uint16[]",
          "name": "_roles",
          "type": "uint16[]"
        },
        {
          "internalType": "bool[]",
          "name": "memberOf",
          "type": "bool[]"
        }
      ],
      "name": "assignRoles",
      "outputs": [],
      "stateMutability": "nonpayable",
      "type": "function"
    },
    {
      "inputs": [],
      "name": "avatar",
      "outputs": [
        {
          "internalType": "address",
          "name": "",
          "type": "address"
        }
      ],
      "stateMutability": "view",
      "type": "function"
    },
    {
      "inputs": [
        {
          "internalType": "address",
          "name": "",
          "type": "address"
        }
      ],
      "name": "defaultRoles",
      "outputs": [
        {
          "internalType": "uint16",
          "name": "",
          "type": "uint16"
        }
      ],
      "stateMutability": "view",
      "type": "function"
    },
    {
      "inputs": [
        {
          "internalType": "address",
          "name": "prevModule",
          "type": "address"
        },
        {
          "internalType": "address",
          "name": "module",
          "type": "address"
        }
      ],
      "name": "disableModule",
      "outputs": [],
      "stateMutability": "nonpayable",
      "type": "function"
    },
    {
      "inputs": [
        {
          "internalType": "address",
          "name": "module",
          "type": "address"
        }
      ],
      "name": "enableModule",
      "outputs": [],
      "stateMutability": "nonpayable",
      "type": "function"
    },
    {
      "inputs": [
        {
          "internalType": "address",
          "name": "to",
          "type": "address"
        },
        {
          "internalType": "uint256",
          "name": "value",
          "type": "uint256"
        },
        {
          "internalType": "bytes",
          "name": "data",
          "type": "bytes"
        },
        {
          "internalType": "enum Enum.Operation",
          "name": "operation",
          "type": "uint8"
        }
      ],
      "name": "execTransactionFromModule",
      "outputs": [
        {
          "internalType": "bool",
          "name": "success",
          "type": "bool"
        }
      ],
      "stateMutability": "nonpayable",
      "type": "function"
    },
    {
      "inputs": [
        {
          "internalType": "address",
          "name": "to",
          "type": "address"
        },
        {
          "internalType": "uint256",
          "name": "value",
          "type": "uint256"
        },
        {
          "internalType": "bytes",
          "name": "data",
          "type": "bytes"
        },
        {
          "internalType": "enum Enum.Operation",
          "name": "operation",
          "type": "uint8"
        }
      ],
      "name": "execTransactionFromModuleReturnData",
      "outputs": [
        {
          "internalType": "bool",
          "name": "",
          "type": "bool"
        },
        {
          "internalType": "bytes",
          "name": "",
          "type": "bytes"
        }
      ],
      "stateMutability": "nonpayable",
      "type": "function"
    },
    {
      "inputs": [
        {
          "internalType": "address",
          "name": "to",
          "type": "address"
        },
        {
          "internalType": "uint256",
          "name": "value",
          "type": "uint256"
        },
        {
          "internalType": "bytes",
          "name": "data",
          "type": "bytes"
        },
        {
          "internalType": "enum Enum.Operation",
          "name": "operation",
          "type": "uint8"
        },
        {
          "internalType": "uint16",
          "name": "role",
          "type": "uint16"
        },
        {
          "internalType": "bool",
          "name": "shouldRevert",
          "type": "bool"
        }
      ],
      "name": "execTransactionWithRole",
      "outputs": [
        {
          "internalType": "bool",
          "name": "success",
          "type": "bool"
        }
      ],
      "stateMutability": "nonpayable",
      "type": "function"
    },
    {
      "inputs": [
        {
          "internalType": "address",
          "name": "to",
          "type": "address"
        },
        {
          "internalType": "uint256",
          "name": "value",
          "type": "uint256"
        },
        {
          "internalType": "bytes",
          "name": "data",
          "type": "bytes"
        },
        {
          "internalType": "enum Enum.Operation",
          "name": "operation",
          "type": "uint8"
        },
        {
          "internalType": "uint16",
          "name": "role",
          "type": "uint16"
        },
        {
          "internalType": "bool",
          "name": "shouldRevert",
          "type": "bool"
        }
      ],
      "name": "execTransactionWithRoleReturnData",
      "outputs": [
        {
          "internalType": "bool",
          "name": "success",
          "type": "bool"
        },
        {
          "internalType": "bytes",
          "name": "returnData",
          "type": "bytes"
        }
      ],
      "stateMutability": "nonpayable",
      "type": "function"
    },
    {
      "inputs": [],
      "name": "getGuard",
      "outputs": [
        {
          "internalType": "address",
          "name": "_guard",
          "type": "address"
        }
      ],
      "stateMutability": "view",
      "type": "function"
    },
    {
      "inputs": [
        {
          "internalType": "address",
          "name": "start",
          "type": "address"
        },
        {
          "internalType": "uint256",
          "name": "pageSize",
          "type": "uint256"
        }
      ],
      "name": "getModulesPaginated",
      "outputs": [
        {
          "internalType": "address[]",
          "name": "array",
          "type": "address[]"
        },
        {
          "internalType": "address",
          "name": "next",
          "type": "address"
        }
      ],
      "stateMutability": "view",
      "type": "function"
    },
    {
      "inputs": [],
      "name": "guard",
      "outputs": [
        {
          "internalType": "address",
          "name": "",
          "type": "address"
        }
      ],
      "stateMutability": "view",
      "type": "function"
    },
    {
      "inputs": [
        {
          "internalType": "address",
          "name": "_module",
          "type": "address"
        }
      ],
      "name": "isModuleEnabled",
      "outputs": [
        {
          "internalType": "bool",
          "name": "",
          "type": "bool"
        }
      ],
      "stateMutability": "view",
      "type": "function"
    },
    {
      "inputs": [],
      "name": "multiSend",
      "outputs": [
        {
          "internalType": "address",
          "name": "",
          "type": "address"
        }
      ],
      "stateMutability": "view",
      "type": "function"
    },
    {
      "inputs": [],
      "name": "owner",
      "outputs": [
        {
          "internalType": "address",
          "name": "",
          "type": "address"
        }
      ],
      "stateMutability": "view",
      "type": "function"
    },
    {
      "inputs": [],
      "name": "renounceOwnership",
      "outputs": [],
      "stateMutability": "nonpayable",
      "type": "function"
    },
    {
      "inputs": [
        {
          "internalType": "uint16",
          "name": "role",
          "type": "uint16"
        },
        {
          "internalType": "address",
          "name": "targetAddress",
          "type": "address"
        }
      ],
      "name": "revokeTarget",
      "outputs": [],
      "stateMutability": "nonpayable",
      "type": "function"
    },
    {
      "inputs": [
        {
          "internalType": "uint16",
          "name": "role",
          "type": "uint16"
        },
        {
          "internalType": "address",
          "name": "targetAddress",
          "type": "address"
        },
        {
          "internalType": "bytes4",
          "name": "functionSig",
          "type": "bytes4"
        }
      ],
      "name": "scopeAllowFunction",
      "outputs": [],
      "stateMutability": "nonpayable",
      "type": "function"
    },
    {
      "inputs": [
        {
          "internalType": "uint16",
          "name": "role",
          "type": "uint16"
        },
        {
          "internalType": "address",
          "name": "targetAddress",
          "type": "address"
        },
        {
          "internalType": "bytes4",
          "name": "functionSig",
          "type": "bytes4"
        },
        {
          "internalType": "bool[]",
          "name": "isParamScoped",
          "type": "bool[]"
        },
        {
          "internalType": "bool[]",
          "name": "isParamDynamic",
          "type": "bool[]"
        },
        {
          "internalType": "enum Comparison[]",
          "name": "paramCompType",
          "type": "uint8[]"
        },
        {
          "internalType": "bytes[]",
          "name": "paramCompValue",
          "type": "bytes[]"
        }
      ],
      "name": "scopeFunction",
      "outputs": [],
      "stateMutability": "nonpayable",
      "type": "function"
    },
    {
      "inputs": [
        {
          "internalType": "uint16",
          "name": "role",
          "type": "uint16"
        },
        {
          "internalType": "address",
          "name": "targetAddress",
          "type": "address"
        },
        {
          "internalType": "bytes4",
          "name": "functionSig",
          "type": "bytes4"
        },
        {
          "internalType": "uint8",
          "name": "paramIndex",
          "type": "uint8"
        },
        {
          "internalType": "bool",
          "name": "isDynamic",
          "type": "bool"
        },
        {
          "internalType": "enum Comparison",
          "name": "compType",
          "type": "uint8"
        },
        {
          "internalType": "bytes",
          "name": "compValue",
          "type": "bytes"
        }
      ],
      "name": "scopeParameter",
      "outputs": [],
      "stateMutability": "nonpayable",
      "type": "function"
    },
    {
      "inputs": [
        {
          "internalType": "uint16",
          "name": "role",
          "type": "uint16"
        },
        {
          "internalType": "address",
          "name": "targetAddress",
          "type": "address"
        },
        {
          "internalType": "bytes4",
          "name": "functionSig",
          "type": "bytes4"
        },
        {
          "internalType": "uint8",
          "name": "paramIndex",
          "type": "uint8"
        },
        {
          "internalType": "bool",
          "name": "isDynamic",
          "type": "bool"
        },
        {
          "internalType": "bytes[]",
          "name": "compValues",
          "type": "bytes[]"
        }
      ],
      "name": "scopeParameterAsOneOf",
      "outputs": [],
      "stateMutability": "nonpayable",
      "type": "function"
    },
    {
      "inputs": [
        {
          "internalType": "uint16",
          "name": "role",
          "type": "uint16"
        },
        {
          "internalType": "address",
          "name": "targetAddress",
          "type": "address"
        },
        {
          "internalType": "bytes4",
          "name": "functionSig",
          "type": "bytes4"
        }
      ],
      "name": "scopeRevokeFunction",
      "outputs": [],
      "stateMutability": "nonpayable",
      "type": "function"
    },
    {
      "inputs": [
        {
          "internalType": "address",
          "name": "_avatar",
          "type": "address"
        }
      ],
      "name": "setAvatar",
      "outputs": [],
      "stateMutability": "nonpayable",
      "type": "function"
    },
    {
      "inputs": [
        {
          "internalType": "address",
          "name": "module",
          "type": "address"
        },
        {
          "internalType": "uint16",
          "name": "role",
          "type": "uint16"
        }
      ],
      "name": "setDefaultRole",
      "outputs": [],
      "stateMutability": "nonpayable",
      "type": "function"
    },
    {
      "inputs": [
        {
          "internalType": "address",
          "name": "_guard",
          "type": "address"
        }
      ],
      "name": "setGuard",
      "outputs": [],
      "stateMutability": "nonpayable",
      "type": "function"
    },
    {
      "inputs": [
        {
          "internalType": "address",
          "name": "_multiSend",
          "type": "address"
        }
      ],
      "name": "setMultiSend",
      "outputs": [],
      "stateMutability": "nonpayable",
      "type": "function"
    },
    {
      "inputs": [
        {
          "internalType": "address",
          "name": "_target",
          "type": "address"
        }
      ],
      "name": "setTarget",
      "outputs": [],
      "stateMutability": "nonpayable",
      "type": "function"
    },
    {
      "inputs": [
        {
          "internalType": "bytes",
          "name": "initParams",
          "type": "bytes"
        }
      ],
      "name": "setUp",
      "outputs": [],
      "stateMutability": "nonpayable",
      "type": "function"
    },
    {
      "inputs": [],
      "name": "target",
      "outputs": [
        {
          "internalType": "address",
          "name": "",
          "type": "address"
        }
      ],
      "stateMutability": "view",
      "type": "function"
    },
    {
      "inputs": [
        {
          "internalType": "address",
          "name": "newOwner",
          "type": "address"
        }
      ],
      "name": "transferOwnership",
      "outputs": [],
      "stateMutability": "nonpayable",
      "type": "function"
    },
    {
      "inputs": [
        {
          "internalType": "uint16",
          "name": "role",
          "type": "uint16"
        },
        {
          "internalType": "address",
          "name": "targetAddress",
          "type": "address"
        },
        {
          "internalType": "bytes4",
          "name": "functionSig",
          "type": "bytes4"
        },
        {
          "internalType": "uint8",
          "name": "paramIndex",
          "type": "uint8"
        }
      ],
      "name": "unscopeParameter",
      "outputs": [],
      "stateMutability": "nonpayable",
      "type": "function"
    }
  ],
  "bytecode": "0x60806040523480156200001157600080fd5b5060405162006b3f38038062006b3f833981810160405281019062000037919062000892565b6000838383604051602001620000509392919062000991565b604051602081830303815290604052905062000072816200007c60201b60201c565b5050505062000b8d565b60008060008380602001905181019062000097919062000836565b925092509250620000ad620001d460201b60201c565b81606660006101000a81548173ffffffffffffffffffffffffffffffffffffffff021916908373ffffffffffffffffffffffffffffffffffffffff16021790555080606760006101000a81548173ffffffffffffffffffffffffffffffffffffffff021916908373ffffffffffffffffffffffffffffffffffffffff1602179055506200014083620002d360201b60201c565b62000150620003e960201b60201c565b8173ffffffffffffffffffffffffffffffffffffffff168373ffffffffffffffffffffffffffffffffffffffff163373ffffffffffffffffffffffffffffffffffffffff167f34d3b96a088381c6843a1f9d94d251afa88f83cc7a0d17fc23a7057506a3fc6d84604051620001c6919062000974565b60405180910390a450505050565b600060019054906101000a900460ff1680620001fb575060008054906101000a900460ff16155b6200023d576040517f08c379a00000000000000000000000000000000000000000000000000000000081526004016200023490620009f0565b60405180910390fd5b60008060019054906101000a900460ff1615905080156200028e576001600060016101000a81548160ff02191690831515021790555060016000806101000a81548160ff0219169083151502179055505b6200029e6200053260201b60201c565b620002ae6200061160201b60201c565b8015620002d05760008060016101000a81548160ff0219169083151502179055505b50565b620002e36200071060201b60201c565b73ffffffffffffffffffffffffffffffffffffffff16620003096200071860201b60201c565b73ffffffffffffffffffffffffffffffffffffffff161462000362576040517f08c379a0000000000000000000000000000000000000000000000000000000008152600401620003599062000a12565b60405180910390fd5b600073ffffffffffffffffffffffffffffffffffffffff168173ffffffffffffffffffffffffffffffffffffffff161415620003d5576040517f08c379a0000000000000000000000000000000000000000000000000000000008152600401620003cc90620009ce565b60405180910390fd5b620003e6816200074260201b60201c565b50565b600073ffffffffffffffffffffffffffffffffffffffff1660686000600173ffffffffffffffffffffffffffffffffffffffff1673ffffffffffffffffffffffffffffffffffffffff16815260200190815260200160002060009054906101000a900473ffffffffffffffffffffffffffffffffffffffff1673ffffffffffffffffffffffffffffffffffffffff1614620004b0576040517ff736703400000000000000000000000000000000000000000000000000000000815260040160405180910390fd5b600160686000600173ffffffffffffffffffffffffffffffffffffffff1673ffffffffffffffffffffffffffffffffffffffff16815260200190815260200160002060006101000a81548173ffffffffffffffffffffffffffffffffffffffff021916908373ffffffffffffffffffffffffffffffffffffffff160217905550565b600060019054906101000a900460ff168062000559575060008054906101000a900460ff16155b6200059b576040517f08c379a00000000000000000000000000000000000000000000000000000000081526004016200059290620009f0565b60405180910390fd5b60008060019054906101000a900460ff161590508015620005ec576001600060016101000a81548160ff02191690831515021790555060016000806101000a81548160ff0219169083151502179055505b80156200060e5760008060016101000a81548160ff0219169083151502179055505b50565b600060019054906101000a900460ff168062000638575060008054906101000a900460ff16155b6200067a576040517f08c379a00000000000000000000000000000000000000000000000000000000081526004016200067190620009f0565b60405180910390fd5b60008060019054906101000a900460ff161590508015620006cb576001600060016101000a81548160ff02191690831515021790555060016000806101000a81548160ff0219169083151502179055505b620006eb620006df6200071060201b60201c565b6200074260201b60201c565b80156200070d5760008060016101000a81548160ff0219169083151502179055505b50565b600033905090565b6000603360009054906101000a900473ffffffffffffffffffffffffffffffffffffffff16905090565b6000603360009054906101000a900473ffffffffffffffffffffffffffffffffffffffff16905081603360006101000a81548173ffffffffffffffffffffffffffffffffffffffff021916908373ffffffffffffffffffffffffffffffffffffffff1602179055508173ffffffffffffffffffffffffffffffffffffffff168173ffffffffffffffffffffffffffffffffffffffff167f8be0079c531659141344cd1fd0a4f28419497f9722a3daafe3b4186f6b6457e060405160405180910390a35050565b600081519050620008198162000b59565b92915050565b600081519050620008308162000b73565b92915050565b60008060006060848603121562000852576200085162000a8d565b5b600062000862868287016200081f565b935050602062000875868287016200081f565b925050604062000888868287016200081f565b9150509250925092565b600080600060608486031215620008ae57620008ad62000a8d565b5b6000620008be8682870162000808565b9350506020620008d18682870162000808565b9250506040620008e48682870162000808565b9150509250925092565b620008f98162000a45565b82525050565b60006200090e60268362000a34565b91506200091b8262000a92565b604082019050919050565b600062000935602e8362000a34565b9150620009428262000ae1565b604082019050919050565b60006200095c60208362000a34565b9150620009698262000b30565b602082019050919050565b60006020820190506200098b6000830184620008ee565b92915050565b6000606082019050620009a86000830186620008ee565b620009b76020830185620008ee565b620009c66040830184620008ee565b949350505050565b60006020820190508181036000830152620009e981620008ff565b9050919050565b6000602082019050818103600083015262000a0b8162000926565b9050919050565b6000602082019050818103600083015262000a2d816200094d565b9050919050565b600082825260208201905092915050565b600062000a528262000a6d565b9050919050565b600062000a668262000a6d565b9050919050565b600073ffffffffffffffffffffffffffffffffffffffff82169050919050565b600080fd5b7f4f776e61626c653a206e6577206f776e657220697320746865207a65726f206160008201527f6464726573730000000000000000000000000000000000000000000000000000602082015250565b7f496e697469616c697a61626c653a20636f6e747261637420697320616c72656160008201527f647920696e697469616c697a6564000000000000000000000000000000000000602082015250565b7f4f776e61626c653a2063616c6c6572206973206e6f7420746865206f776e6572600082015250565b62000b648162000a45565b811462000b7057600080fd5b50565b62000b7e8162000a59565b811462000b8a57600080fd5b50565b615fa28062000b9d6000396000f3fe608060405234801561001057600080fd5b50600436106101fb5760003560e01c8063889a54901161011a578063c9106389116100ad578063db8ac0921161007c578063db8ac09214610597578063e009cfde146105b3578063e19a9dd9146105cf578063e49cda08146105eb578063f2fde38b14610609576101fb565b8063c91063891461050e578063cc2f84521461052c578063d4b839921461055d578063d81456261461057b576101fb565b8063aa372cb2116100e9578063aa372cb214610489578063b0c19912146104a5578063c7a59cab146104d6578063c8672816146104f2576101fb565b8063889a5490146104175780638da5cb5b14610433578063a4f9edbf14610451578063a6edf38f1461046d576101fb565b806351fa1d73116101925780636928e74b116101615780636928e74b146103a3578063715018a6146103d3578063776d1a01146103dd5780637ceab3b1146103f9576101fb565b806351fa1d731461031c5780635229073f146103385780635aef7de614610369578063610b592514610387576101fb565b80632d3c2547116101ce5780632d3c2547146102705780632d9ad53d146102a05780632e506a48146102d0578063468721a7146102ec576101fb565b806307c7625214610200578063086cfca81461021c578063102b7fe6146102385780632933ef1c14610254575b600080fd5b61021a6004803603810190610215919061451c565b610625565b005b61023660048036038101906102319190613fea565b61078e565b005b610252600480360381019061024d919061413f565b6108d0565b005b61026e600480360381019061026991906144c9565b6109e3565b005b61028a60048036038101906102859190613fea565b610b24565b6040516102979190615523565b60405180910390f35b6102ba60048036038101906102b59190613fea565b610b45565b6040516102c79190615115565b60405180910390f35b6102ea60048036038101906102e59190614640565b610c17565b005b610306600480360381019061030191906141bf565b610d5d565b6040516103139190615115565b60405180910390f35b61033660048036038101906103319190614422565b610ee3565b005b610352600480360381019061034d91906141bf565b61109e565b604051610360929190615130565b60405180910390f35b61037161122a565b60405161037e9190614f6a565b60405180910390f35b6103a1600480360381019061039c9190613fea565b611250565b005b6103bd60048036038101906103b89190614247565b6115da565b6040516103ca9190615115565b60405180910390f35b6103db611757565b005b6103f760048036038101906103f29190613fea565b6117df565b005b610401611921565b60405161040e9190614f6a565b60405180910390f35b610431600480360381019061042c9190614462565b611947565b005b61043b611b05565b6040516104489190614f6a565b60405180910390f35b61046b600480360381019061046691906143ac565b611b2f565b005b610487600480360381019061048291906140aa565b611c6b565b005b6104a3600480360381019061049e9190614462565b611e6e565b005b6104bf60048036038101906104ba9190614247565b61202d565b6040516104cd929190615130565b60405180910390f35b6104f060048036038101906104eb91906146a7565b6121b4565b005b61050c60048036038101906105079190614756565b612309565b005b610516612463565b6040516105239190614f6a565b60405180910390f35b6105466004803603810190610541919061417f565b61248d565b6040516105549291906150e5565b60405180910390f35b61056561268e565b6040516105729190614f6a565b60405180910390f35b61059560048036038101906105909190613fea565b6126b4565b005b6105b160048036038101906105ac91906144c9565b6127cd565b005b6105cd60048036038101906105c8919061406a565b61290e565b005b6105e960048036038101906105e49190613fea565b612c97565b005b6105f3612ecd565b6040516106009190614f6a565b60405180910390f35b610623600480360381019061061e9190613fea565b612ef3565b005b61062d612feb565b73ffffffffffffffffffffffffffffffffffffffff1661064b611b05565b73ffffffffffffffffffffffffffffffffffffffff16146106a1576040517f08c379a000000000000000000000000000000000000000000000000000000000815260040161069890615204565b60405180910390fd5b73__$26c8ee7675adcd4387514ebc7646e15ffa$__63627db127606b60008e61ffff1661ffff1681526020019081526020016000208c8c8c8c8c8c8c8c8c8c6040518c63ffffffff1660e01b81526004016107069b9a99989796959493929190615369565b60006040518083038186803b15801561071e57600080fd5b505af4158015610732573d6000803e3d6000fd5b505050507f4080658bd998344ace29994c498ebcfe175635bd2bdffb1a8087af0a306e66718b8b8b8b8b8b8b8b8b8b8b6040516107799b9a999897969594939291906155e3565b60405180910390a15050505050505050505050565b610796612feb565b73ffffffffffffffffffffffffffffffffffffffff166107b4611b05565b73ffffffffffffffffffffffffffffffffffffffff161461080a576040517f08c379a000000000000000000000000000000000000000000000000000000000815260040161080190615204565b60405180910390fd5b6000606660009054906101000a900473ffffffffffffffffffffffffffffffffffffffff16905081606660006101000a81548173ffffffffffffffffffffffffffffffffffffffff021916908373ffffffffffffffffffffffffffffffffffffffff1602179055508173ffffffffffffffffffffffffffffffffffffffff168173ffffffffffffffffffffffffffffffffffffffff167f52ae88b092de36f87fb43fe794eb1381023b9c1bce563a871154022c63dce34260405160405180910390a35050565b6108d8612feb565b73ffffffffffffffffffffffffffffffffffffffff166108f6611b05565b73ffffffffffffffffffffffffffffffffffffffff161461094c576040517f08c379a000000000000000000000000000000000000000000000000000000000815260040161094390615204565b60405180910390fd5b80606a60008473ffffffffffffffffffffffffffffffffffffffff1673ffffffffffffffffffffffffffffffffffffffff16815260200190815260200160002060006101000a81548161ffff021916908361ffff1602179055507f197e61bb67ba4b0f657afcb5d2dbed385d50b697c51090f466cdbcc4c30a21ce82826040516109d7929190614fb7565b60405180910390a15050565b6109eb612feb565b73ffffffffffffffffffffffffffffffffffffffff16610a09611b05565b73ffffffffffffffffffffffffffffffffffffffff1614610a5f576040517f08c379a0000000000000000000000000000000000000000000000000000000008152600401610a5690615204565b60405180910390fd5b73__$26c8ee7675adcd4387514ebc7646e15ffa$__633ecb5a30606b60008661ffff1661ffff16815260200190815260200160002084846040518463ffffffff1660e01b8152600401610ab493929190615332565b60006040518083038186803b158015610acc57600080fd5b505af4158015610ae0573d6000803e3d6000fd5b505050507ffb4cc31663fabdd12bfe539158fc4e8f4f0c62c3546e1364046ca91c8ecb8c6b838383604051610b17939291906155ac565b60405180910390a1505050565b606a6020528060005260406000206000915054906101000a900461ffff1681565b60008173ffffffffffffffffffffffffffffffffffffffff16600173ffffffffffffffffffffffffffffffffffffffff1614158015610c105750600073ffffffffffffffffffffffffffffffffffffffff16606860008473ffffffffffffffffffffffffffffffffffffffff1673ffffffffffffffffffffffffffffffffffffffff16815260200190815260200160002060009054906101000a900473ffffffffffffffffffffffffffffffffffffffff1673ffffffffffffffffffffffffffffffffffffffff1614155b9050919050565b610c1f612feb565b73ffffffffffffffffffffffffffffffffffffffff16610c3d611b05565b73ffffffffffffffffffffffffffffffffffffffff1614610c93576040517f08c379a0000000000000000000000000000000000000000000000000000000008152600401610c8a90615204565b60405180910390fd5b73__$26c8ee7675adcd4387514ebc7646e15ffa$__634ca69c58606b60008761ffff1661ffff1681526020019081526020016000208585856040518563ffffffff1660e01b8152600401610cea94939291906153fc565b60006040518083038186803b158015610d0257600080fd5b505af4158015610d16573d6000803e3d6000fd5b505050507f358ef11d5489e8930893f0596089ebd29cfaadc5cf1b795d91569238ffe489e984848484604051610d4f9493929190615676565b60405180910390a150505050565b60008073ffffffffffffffffffffffffffffffffffffffff16606860003373ffffffffffffffffffffffffffffffffffffffff1673ffffffffffffffffffffffffffffffffffffffff16815260200190815260200160002060009054906101000a900473ffffffffffffffffffffffffffffffffffffffff1673ffffffffffffffffffffffffffffffffffffffff161415610e2d576040517f08c379a0000000000000000000000000000000000000000000000000000000008152600401610e2490615224565b60405180910390fd5b610e888686868686606a60003373ffffffffffffffffffffffffffffffffffffffff1673ffffffffffffffffffffffffffffffffffffffff16815260200190815260200160002060009054906101000a900461ffff16612ff3565b610ed8868686868080601f016020809104026020016040519081016040528093929190818152602001838380828437600081840152601f19601f82011690508083019250505050505050856131d8565b905095945050505050565b610eeb612feb565b73ffffffffffffffffffffffffffffffffffffffff16610f09611b05565b73ffffffffffffffffffffffffffffffffffffffff1614610f5f576040517f08c379a0000000000000000000000000000000000000000000000000000000008152600401610f5690615204565b60405180910390fd5b604051806060016040528060006002811115610f7e57610f7d615c24565b5b815260200160001515815260200160001515815250606b60008461ffff1661ffff16815260200190815260200160002060010160008373ffffffffffffffffffffffffffffffffffffffff1673ffffffffffffffffffffffffffffffffffffffff16815260200190815260200160002060008201518160000160006101000a81548160ff0219169083600281111561101957611018615c24565b5b021790555060208201518160000160016101000a81548160ff02191690831515021790555060408201518160000160026101000a81548160ff0219169083151502179055509050507fa2d99ec680ea38c710727c0f6ed5a206ab27a6048956778ae57475eb92beb03b828260405161109292919061553e565b60405180910390a15050565b60006060600073ffffffffffffffffffffffffffffffffffffffff16606860003373ffffffffffffffffffffffffffffffffffffffff1673ffffffffffffffffffffffffffffffffffffffff16815260200190815260200160002060009054906101000a900473ffffffffffffffffffffffffffffffffffffffff1673ffffffffffffffffffffffffffffffffffffffff161415611171576040517f08c379a000000000000000000000000000000000000000000000000000000000815260040161116890615224565b60405180910390fd5b6111cc8787878787606a60003373ffffffffffffffffffffffffffffffffffffffff1673ffffffffffffffffffffffffffffffffffffffff16815260200190815260200160002060009054906101000a900461ffff16612ff3565b61121c878787878080601f016020809104026020016040519081016040528093929190818152602001838380828437600081840152601f19601f82011690508083019250505050505050866134cd565b915091509550959350505050565b606660009054906101000a900473ffffffffffffffffffffffffffffffffffffffff1681565b611258612feb565b73ffffffffffffffffffffffffffffffffffffffff16611276611b05565b73ffffffffffffffffffffffffffffffffffffffff16146112cc576040517f08c379a00000000000000000000000000000000000000000000000000000000081526004016112c390615204565b60405180910390fd5b600073ffffffffffffffffffffffffffffffffffffffff168173ffffffffffffffffffffffffffffffffffffffff16141580156113365750600173ffffffffffffffffffffffffffffffffffffffff168173ffffffffffffffffffffffffffffffffffffffff1614155b611375576040517f08c379a000000000000000000000000000000000000000000000000000000000815260040161136c90615284565b60405180910390fd5b600073ffffffffffffffffffffffffffffffffffffffff16606860008373ffffffffffffffffffffffffffffffffffffffff1673ffffffffffffffffffffffffffffffffffffffff16815260200190815260200160002060009054906101000a900473ffffffffffffffffffffffffffffffffffffffff1673ffffffffffffffffffffffffffffffffffffffff1614611443576040517f08c379a000000000000000000000000000000000000000000000000000000000815260040161143a90615264565b60405180910390fd5b60686000600173ffffffffffffffffffffffffffffffffffffffff1673ffffffffffffffffffffffffffffffffffffffff16815260200190815260200160002060009054906101000a900473ffffffffffffffffffffffffffffffffffffffff16606860008373ffffffffffffffffffffffffffffffffffffffff1673ffffffffffffffffffffffffffffffffffffffff16815260200190815260200160002060006101000a81548173ffffffffffffffffffffffffffffffffffffffff021916908373ffffffffffffffffffffffffffffffffffffffff1602179055508060686000600173ffffffffffffffffffffffffffffffffffffffff1673ffffffffffffffffffffffffffffffffffffffff16815260200190815260200160002060006101000a81548173ffffffffffffffffffffffffffffffffffffffff021916908373ffffffffffffffffffffffffffffffffffffffff1602179055507fecdf3a3effea5783a3c4c2140e677577666428d44ed9d474a0b3a4c9943f8440816040516115cf9190614f6a565b60405180910390a150565b60008073ffffffffffffffffffffffffffffffffffffffff16606860003373ffffffffffffffffffffffffffffffffffffffff1673ffffffffffffffffffffffffffffffffffffffff16815260200190815260200160002060009054906101000a900473ffffffffffffffffffffffffffffffffffffffff1673ffffffffffffffffffffffffffffffffffffffff1614156116aa576040517f08c379a00000000000000000000000000000000000000000000000000000000081526004016116a190615224565b60405180910390fd5b6116b8888888888888612ff3565b611708888888888080601f016020809104026020016040519081016040528093929190818152602001838380828437600081840152601f19601f82011690508083019250505050505050876131d8565b9050818015611715575080155b1561174c576040517fd27b44a900000000000000000000000000000000000000000000000000000000815260040160405180910390fd5b979650505050505050565b61175f612feb565b73ffffffffffffffffffffffffffffffffffffffff1661177d611b05565b73ffffffffffffffffffffffffffffffffffffffff16146117d3576040517f08c379a00000000000000000000000000000000000000000000000000000000081526004016117ca90615204565b60405180910390fd5b6117dd60006137d1565b565b6117e7612feb565b73ffffffffffffffffffffffffffffffffffffffff16611805611b05565b73ffffffffffffffffffffffffffffffffffffffff161461185b576040517f08c379a000000000000000000000000000000000000000000000000000000000815260040161185290615204565b60405180910390fd5b6000606760009054906101000a900473ffffffffffffffffffffffffffffffffffffffff16905081606760006101000a81548173ffffffffffffffffffffffffffffffffffffffff021916908373ffffffffffffffffffffffffffffffffffffffff1602179055508173ffffffffffffffffffffffffffffffffffffffff168173ffffffffffffffffffffffffffffffffffffffff167f90cc2f570a6eb594b1580ea3e41247d2d73a55281889e86bd4ec2fc29c7e62d660405160405180910390a35050565b606560009054906101000a900473ffffffffffffffffffffffffffffffffffffffff1681565b61194f612feb565b73ffffffffffffffffffffffffffffffffffffffff1661196d611b05565b73ffffffffffffffffffffffffffffffffffffffff16146119c3576040517f08c379a00000000000000000000000000000000000000000000000000000000081526004016119ba90615204565b60405180910390fd5b60405180606001604052806002808111156119e1576119e0615c24565b5b81526020018315158152602001821515815250606b60008661ffff1661ffff16815260200190815260200160002060010160008573ffffffffffffffffffffffffffffffffffffffff1673ffffffffffffffffffffffffffffffffffffffff16815260200190815260200160002060008201518160000160006101000a81548160ff02191690836002811115611a7a57611a79615c24565b5b021790555060208201518160000160016101000a81548160ff02191690831515021790555060408201518160000160026101000a81548160ff0219169083151502179055509050507f9c4a93d9027aebb6663ac0e2e9fd1dcd02ae2df820ba26da11b88e07dcd2618e84848484604051611af79493929190615567565b60405180910390a150505050565b6000603360009054906101000a900473ffffffffffffffffffffffffffffffffffffffff16905090565b600080600083806020019051810190611b489190614017565b925092509250611b56613897565b81606660006101000a81548173ffffffffffffffffffffffffffffffffffffffff021916908373ffffffffffffffffffffffffffffffffffffffff16021790555080606760006101000a81548173ffffffffffffffffffffffffffffffffffffffff021916908373ffffffffffffffffffffffffffffffffffffffff160217905550611be183612ef3565b611be9613980565b8173ffffffffffffffffffffffffffffffffffffffff168373ffffffffffffffffffffffffffffffffffffffff163373ffffffffffffffffffffffffffffffffffffffff167f34d3b96a088381c6843a1f9d94d251afa88f83cc7a0d17fc23a7057506a3fc6d84604051611c5d9190614f6a565b60405180910390a450505050565b611c73612feb565b73ffffffffffffffffffffffffffffffffffffffff16611c91611b05565b73ffffffffffffffffffffffffffffffffffffffff1614611ce7576040517f08c379a0000000000000000000000000000000000000000000000000000000008152600401611cde90615204565b60405180910390fd5b818190508484905014611d26576040517f74f4d53700000000000000000000000000000000000000000000000000000000815260040160405180910390fd5b60005b848490508161ffff161015611e145782828261ffff16818110611d4f57611d4e615c53565b5b9050602002016020810190611d6491906142f6565b606b600087878561ffff16818110611d7f57611d7e615c53565b5b9050602002016020810190611d9491906143f5565b61ffff1661ffff16815260200190815260200160002060000160008873ffffffffffffffffffffffffffffffffffffffff1673ffffffffffffffffffffffffffffffffffffffff16815260200190815260200160002060006101000a81548160ff0219169083151502179055508080611e0c90615b81565b915050611d29565b50611e1e85610b45565b611e2c57611e2b85611250565b5b7fdd74cea8141be12b4f390db73f5a2408c62bd620e2a0f3e09bf71e275fcf22af858585604051611e5f93929190614f85565b60405180910390a15050505050565b611e76612feb565b73ffffffffffffffffffffffffffffffffffffffff16611e94611b05565b73ffffffffffffffffffffffffffffffffffffffff1614611eea576040517f08c379a0000000000000000000000000000000000000000000000000000000008152600401611ee190615204565b60405180910390fd5b604051806060016040528060016002811115611f0957611f08615c24565b5b81526020018315158152602001821515815250606b60008661ffff1661ffff16815260200190815260200160002060010160008573ffffffffffffffffffffffffffffffffffffffff1673ffffffffffffffffffffffffffffffffffffffff16815260200190815260200160002060008201518160000160006101000a81548160ff02191690836002811115611fa257611fa1615c24565b5b021790555060208201518160000160016101000a81548160ff02191690831515021790555060408201518160000160026101000a81548160ff0219169083151502179055509050507f70d103205f6b4221560e942ae0d0b205927eeeed96de7c0bf2104de43d453e278484848460405161201f9493929190615567565b60405180910390a150505050565b60006060600073ffffffffffffffffffffffffffffffffffffffff16606860003373ffffffffffffffffffffffffffffffffffffffff1673ffffffffffffffffffffffffffffffffffffffff16815260200190815260200160002060009054906101000a900473ffffffffffffffffffffffffffffffffffffffff1673ffffffffffffffffffffffffffffffffffffffff161415612100576040517f08c379a00000000000000000000000000000000000000000000000000000000081526004016120f790615224565b60405180910390fd5b61210e898989898989612ff3565b61215e898989898080601f016020809104026020016040519081016040528093929190818152602001838380828437600081840152601f19601f82011690508083019250505050505050886134cd565b8092508193505050828015612171575081155b156121a8576040517fd27b44a900000000000000000000000000000000000000000000000000000000815260040160405180910390fd5b97509795505050505050565b6121bc612feb565b73ffffffffffffffffffffffffffffffffffffffff166121da611b05565b73ffffffffffffffffffffffffffffffffffffffff1614612230576040517f08c379a000000000000000000000000000000000000000000000000000000000815260040161222790615204565b60405180910390fd5b73__$26c8ee7675adcd4387514ebc7646e15ffa$__63c7ca2bbd606b60008a61ffff1661ffff1681526020019081526020016000208888888888886040518863ffffffff1660e01b815260040161228d9796959493929190615441565b60006040518083038186803b1580156122a557600080fd5b505af41580156122b9573d6000803e3d6000fd5b505050507f4ea6b236d725a83f03acaca3b78ba0bb23b74734d2bae7ebf941dbf4b0b4b28b878787878787876040516122f897969594939291906156bb565b60405180910390a150505050505050565b612311612feb565b73ffffffffffffffffffffffffffffffffffffffff1661232f611b05565b73ffffffffffffffffffffffffffffffffffffffff1614612385576040517f08c379a000000000000000000000000000000000000000000000000000000000815260040161237c90615204565b60405180910390fd5b73__$26c8ee7675adcd4387514ebc7646e15ffa$__63e3498ab0606b60008b61ffff1661ffff168152602001908152602001600020898989898989896040518963ffffffff1660e01b81526004016123e49897969594939291906154ab565b60006040518083038186803b1580156123fc57600080fd5b505af4158015612410573d6000803e3d6000fd5b505050507ff883533bebb8825a3a99406202d36bc832a099b17b59bcac9b717b17b34dcc958888888888888888604051612451989796959493929190615725565b60405180910390a15050505050505050565b6000606560009054906101000a900473ffffffffffffffffffffffffffffffffffffffff16905090565b606060008267ffffffffffffffff8111156124ab576124aa615c82565b5b6040519080825280602002602001820160405280156124d95781602001602082028036833780820191505090505b509150600080606860008773ffffffffffffffffffffffffffffffffffffffff1673ffffffffffffffffffffffffffffffffffffffff16815260200190815260200160002060009054906101000a900473ffffffffffffffffffffffffffffffffffffffff1690505b600073ffffffffffffffffffffffffffffffffffffffff168173ffffffffffffffffffffffffffffffffffffffff16141580156125ac5750600173ffffffffffffffffffffffffffffffffffffffff168173ffffffffffffffffffffffffffffffffffffffff1614155b80156125b757508482105b1561267f57808483815181106125d0576125cf615c53565b5b602002602001019073ffffffffffffffffffffffffffffffffffffffff16908173ffffffffffffffffffffffffffffffffffffffff1681525050606860008273ffffffffffffffffffffffffffffffffffffffff1673ffffffffffffffffffffffffffffffffffffffff16815260200190815260200160002060009054906101000a900473ffffffffffffffffffffffffffffffffffffffff169050818061267790615bac565b925050612542565b80925081845250509250929050565b606760009054906101000a900473ffffffffffffffffffffffffffffffffffffffff1681565b6126bc612feb565b73ffffffffffffffffffffffffffffffffffffffff166126da611b05565b73ffffffffffffffffffffffffffffffffffffffff1614612730576040517f08c379a000000000000000000000000000000000000000000000000000000000815260040161272790615204565b60405180910390fd5b80606960006101000a81548173ffffffffffffffffffffffffffffffffffffffff021916908373ffffffffffffffffffffffffffffffffffffffff1602179055507ffcb388e03864436b469e9e0ab21aaf6d7c792e54b839d34caea833e8481ef952606960009054906101000a900473ffffffffffffffffffffffffffffffffffffffff166040516127c29190614f6a565b60405180910390a150565b6127d5612feb565b73ffffffffffffffffffffffffffffffffffffffff166127f3611b05565b73ffffffffffffffffffffffffffffffffffffffff1614612849576040517f08c379a000000000000000000000000000000000000000000000000000000000815260040161284090615204565b60405180910390fd5b73__$26c8ee7675adcd4387514ebc7646e15ffa$__63dd812a9a606b60008661ffff1661ffff16815260200190815260200160002084846040518463ffffffff1660e01b815260040161289e93929190615332565b60006040518083038186803b1580156128b657600080fd5b505af41580156128ca573d6000803e3d6000fd5b505050507fd9c6fdb3c2b757b8ec794bda453bfb69fbe790d951ec67281ed991c40d1ef672838383604051612901939291906155ac565b60405180910390a1505050565b612916612feb565b73ffffffffffffffffffffffffffffffffffffffff16612934611b05565b73ffffffffffffffffffffffffffffffffffffffff161461298a576040517f08c379a000000000000000000000000000000000000000000000000000000000815260040161298190615204565b60405180910390fd5b600073ffffffffffffffffffffffffffffffffffffffff168173ffffffffffffffffffffffffffffffffffffffff16141580156129f45750600173ffffffffffffffffffffffffffffffffffffffff168173ffffffffffffffffffffffffffffffffffffffff1614155b612a33576040517f08c379a0000000000000000000000000000000000000000000000000000000008152600401612a2a90615284565b60405180910390fd5b8073ffffffffffffffffffffffffffffffffffffffff16606860008473ffffffffffffffffffffffffffffffffffffffff1673ffffffffffffffffffffffffffffffffffffffff16815260200190815260200160002060009054906101000a900473ffffffffffffffffffffffffffffffffffffffff1673ffffffffffffffffffffffffffffffffffffffff1614612b00576040517f08c379a0000000000000000000000000000000000000000000000000000000008152600401612af7906151a4565b60405180910390fd5b606860008273ffffffffffffffffffffffffffffffffffffffff1673ffffffffffffffffffffffffffffffffffffffff16815260200190815260200160002060009054906101000a900473ffffffffffffffffffffffffffffffffffffffff16606860008473ffffffffffffffffffffffffffffffffffffffff1673ffffffffffffffffffffffffffffffffffffffff16815260200190815260200160002060006101000a81548173ffffffffffffffffffffffffffffffffffffffff021916908373ffffffffffffffffffffffffffffffffffffffff1602179055506000606860008373ffffffffffffffffffffffffffffffffffffffff1673ffffffffffffffffffffffffffffffffffffffff16815260200190815260200160002060006101000a81548173ffffffffffffffffffffffffffffffffffffffff021916908373ffffffffffffffffffffffffffffffffffffffff1602179055507faab4fa2b463f581b2b32cb3b7e3b704b9ce37cc209b5fb4d77e593ace405427681604051612c8b9190614f6a565b60405180910390a15050565b612c9f612feb565b73ffffffffffffffffffffffffffffffffffffffff16612cbd611b05565b73ffffffffffffffffffffffffffffffffffffffff1614612d13576040517f08c379a0000000000000000000000000000000000000000000000000000000008152600401612d0a90615204565b60405180910390fd5b600073ffffffffffffffffffffffffffffffffffffffff168173ffffffffffffffffffffffffffffffffffffffff1614612e30578073ffffffffffffffffffffffffffffffffffffffff166301ffc9a77fe6d7a83a000000000000000000000000000000000000000000000000000000006040518263ffffffff1660e01b8152600401612da09190615189565b60206040518083038186803b158015612db857600080fd5b505afa158015612dcc573d6000803e3d6000fd5b505050506040513d601f19601f82011682018060405250810190612df09190614323565b612e2f576040517f08c379a0000000000000000000000000000000000000000000000000000000008152600401612e2690615244565b60405180910390fd5b5b80606560006101000a81548173ffffffffffffffffffffffffffffffffffffffff021916908373ffffffffffffffffffffffffffffffffffffffff1602179055507f1151116914515bc0891ff9047a6cb32cf902546f83066499bcf8ba33d2353fa2606560009054906101000a900473ffffffffffffffffffffffffffffffffffffffff16604051612ec29190614f6a565b60405180910390a150565b606960009054906101000a900473ffffffffffffffffffffffffffffffffffffffff1681565b612efb612feb565b73ffffffffffffffffffffffffffffffffffffffff16612f19611b05565b73ffffffffffffffffffffffffffffffffffffffff1614612f6f576040517f08c379a0000000000000000000000000000000000000000000000000000000008152600401612f6690615204565b60405180910390fd5b600073ffffffffffffffffffffffffffffffffffffffff168173ffffffffffffffffffffffffffffffffffffffff161415612fdf576040517f08c379a0000000000000000000000000000000000000000000000000000000008152600401612fd6906151c4565b60405180910390fd5b612fe8816137d1565b50565b600033905090565b6000606b60008361ffff1661ffff16815260200190815260200160002090508060000160003373ffffffffffffffffffffffffffffffffffffffff1673ffffffffffffffffffffffffffffffffffffffff16815260200190815260200160002060009054906101000a900460ff16613097576040517ffd8e9f2800000000000000000000000000000000000000000000000000000000815260040160405180910390fd5b606960009054906101000a900473ffffffffffffffffffffffffffffffffffffffff1673ffffffffffffffffffffffffffffffffffffffff168773ffffffffffffffffffffffffffffffffffffffff16141561315d5773__$26c8ee7675adcd4387514ebc7646e15ffa$__632c6574e98287876040518463ffffffff1660e01b815260040161312893929190615300565b60006040518083038186803b15801561314057600080fd5b505af4158015613154573d6000803e3d6000fd5b505050506131cf565b73__$26c8ee7675adcd4387514ebc7646e15ffa$__63ec932d128289898989896040518763ffffffff1660e01b815260040161319e969594939291906152a4565b60006040518083038186803b1580156131b657600080fd5b505af41580156131ca573d6000803e3d6000fd5b505050505b50505050505050565b60008073ffffffffffffffffffffffffffffffffffffffff16606560009054906101000a900473ffffffffffffffffffffffffffffffffffffffff1673ffffffffffffffffffffffffffffffffffffffff161461330a57606560009054906101000a900473ffffffffffffffffffffffffffffffffffffffff1673ffffffffffffffffffffffffffffffffffffffff166375f0bb528686868660008060008060006040518060400160405280600281526020017f307800000000000000000000000000000000000000000000000000000000000081525060006040518c63ffffffff1660e01b81526004016132d79b9a9998979695949392919061502c565b600060405180830381600087803b1580156132f157600080fd5b505af1158015613305573d6000803e3d6000fd5b505050505b606760009054906101000a900473ffffffffffffffffffffffffffffffffffffffff1673ffffffffffffffffffffffffffffffffffffffff1663468721a7868686866040518563ffffffff1660e01b815260040161336b9493929190614fe0565b602060405180830381600087803b15801561338557600080fd5b505af1158015613399573d6000803e3d6000fd5b505050506040513d601f19601f820116820180604052508101906133bd9190614323565b9050600073ffffffffffffffffffffffffffffffffffffffff16606560009054906101000a900473ffffffffffffffffffffffffffffffffffffffff1673ffffffffffffffffffffffffffffffffffffffff16146134c557606560009054906101000a900473ffffffffffffffffffffffffffffffffffffffff1673ffffffffffffffffffffffffffffffffffffffff1663932713687f3078000000000000000000000000000000000000000000000000000000000000836040518363ffffffff1660e01b8152600401613492929190615160565b600060405180830381600087803b1580156134ac57600080fd5b505af11580156134c0573d6000803e3d6000fd5b505050505b949350505050565b60006060600073ffffffffffffffffffffffffffffffffffffffff16606560009054906101000a900473ffffffffffffffffffffffffffffffffffffffff1673ffffffffffffffffffffffffffffffffffffffff161461360257606560009054906101000a900473ffffffffffffffffffffffffffffffffffffffff1673ffffffffffffffffffffffffffffffffffffffff166375f0bb528787878760008060008060006040518060400160405280600281526020017f307800000000000000000000000000000000000000000000000000000000000081525060006040518c63ffffffff1660e01b81526004016135cf9b9a9998979695949392919061502c565b600060405180830381600087803b1580156135e957600080fd5b505af11580156135fd573d6000803e3d6000fd5b505050505b606760009054906101000a900473ffffffffffffffffffffffffffffffffffffffff1673ffffffffffffffffffffffffffffffffffffffff16635229073f878787876040518563ffffffff1660e01b81526004016136639493929190614fe0565b600060405180830381600087803b15801561367d57600080fd5b505af1158015613691573d6000803e3d6000fd5b505050506040513d6000823e3d601f19601f820116820180604052508101906136ba9190614350565b8092508193505050600073ffffffffffffffffffffffffffffffffffffffff16606560009054906101000a900473ffffffffffffffffffffffffffffffffffffffff1673ffffffffffffffffffffffffffffffffffffffff16146137c857606560009054906101000a900473ffffffffffffffffffffffffffffffffffffffff1673ffffffffffffffffffffffffffffffffffffffff1663932713687f3078000000000000000000000000000000000000000000000000000000000000846040518363ffffffff1660e01b8152600401613795929190615160565b600060405180830381600087803b1580156137af57600080fd5b505af11580156137c3573d6000803e3d6000fd5b505050505b94509492505050565b6000603360009054906101000a900473ffffffffffffffffffffffffffffffffffffffff16905081603360006101000a81548173ffffffffffffffffffffffffffffffffffffffff021916908373ffffffffffffffffffffffffffffffffffffffff1602179055508173ffffffffffffffffffffffffffffffffffffffff168173ffffffffffffffffffffffffffffffffffffffff167f8be0079c531659141344cd1fd0a4f28419497f9722a3daafe3b4186f6b6457e060405160405180910390a35050565b600060019054906101000a900460ff16806138bd575060008054906101000a900460ff16155b6138fc576040517f08c379a00000000000000000000000000000000000000000000000000000000081526004016138f3906151e4565b60405180910390fd5b60008060019054906101000a900460ff16159050801561394c576001600060016101000a81548160ff02191690831515021790555060016000806101000a81548160ff0219169083151502179055505b613954613ac8565b61395c613ba1565b801561397d5760008060016101000a81548160ff0219169083151502179055505b50565b600073ffffffffffffffffffffffffffffffffffffffff1660686000600173ffffffffffffffffffffffffffffffffffffffff1673ffffffffffffffffffffffffffffffffffffffff16815260200190815260200160002060009054906101000a900473ffffffffffffffffffffffffffffffffffffffff1673ffffffffffffffffffffffffffffffffffffffff1614613a46576040517ff736703400000000000000000000000000000000000000000000000000000000815260040160405180910390fd5b600160686000600173ffffffffffffffffffffffffffffffffffffffff1673ffffffffffffffffffffffffffffffffffffffff16815260200190815260200160002060006101000a81548173ffffffffffffffffffffffffffffffffffffffff021916908373ffffffffffffffffffffffffffffffffffffffff160217905550565b600060019054906101000a900460ff1680613aee575060008054906101000a900460ff16155b613b2d576040517f08c379a0000000000000000000000000000000000000000000000000000000008152600401613b24906151e4565b60405180910390fd5b60008060019054906101000a900460ff161590508015613b7d576001600060016101000a81548160ff02191690831515021790555060016000806101000a81548160ff0219169083151502179055505b8015613b9e5760008060016101000a81548160ff0219169083151502179055505b50565b600060019054906101000a900460ff1680613bc7575060008054906101000a900460ff16155b613c06576040517f08c379a0000000000000000000000000000000000000000000000000000000008152600401613bfd906151e4565b60405180910390fd5b60008060019054906101000a900460ff161590508015613c56576001600060016101000a81548160ff02191690831515021790555060016000806101000a81548160ff0219169083151502179055505b613c66613c61612feb565b6137d1565b8015613c875760008060016101000a81548160ff0219169083151502179055505b50565b6000613c9d613c98846157c2565b61579d565b905082815260208101848484011115613cb957613cb8615cca565b5b613cc4848285615b0e565b509392505050565b6000613cdf613cda846157c2565b61579d565b905082815260208101848484011115613cfb57613cfa615cca565b5b613d06848285615b1d565b509392505050565b600081359050613d1d81615eab565b92915050565b600081519050613d3281615ec2565b92915050565b60008083601f840112613d4e57613d4d615cbb565b5b8235905067ffffffffffffffff811115613d6b57613d6a615cb6565b5b602083019150836020820283011115613d8757613d86615cc5565b5b9250929050565b60008083601f840112613da457613da3615cbb565b5b8235905067ffffffffffffffff811115613dc157613dc0615cb6565b5b602083019150836020820283011115613ddd57613ddc615cc5565b5b9250929050565b60008083601f840112613dfa57613df9615cbb565b5b8235905067ffffffffffffffff811115613e1757613e16615cb6565b5b602083019150836020820283011115613e3357613e32615cc5565b5b9250929050565b60008083601f840112613e5057613e4f615cbb565b5b8235905067ffffffffffffffff811115613e6d57613e6c615cb6565b5b602083019150836020820283011115613e8957613e88615cc5565b5b9250929050565b600081359050613e9f81615ed9565b92915050565b600081519050613eb481615ed9565b92915050565b600081359050613ec981615ef0565b92915050565b60008083601f840112613ee557613ee4615cbb565b5b8235905067ffffffffffffffff811115613f0257613f01615cb6565b5b602083019150836001820283011115613f1e57613f1d615cc5565b5b9250929050565b600082601f830112613f3a57613f39615cbb565b5b8135613f4a848260208601613c8a565b91505092915050565b600082601f830112613f6857613f67615cbb565b5b8151613f78848260208601613ccc565b91505092915050565b600081359050613f9081615f07565b92915050565b600081359050613fa581615f17565b92915050565b600081359050613fba81615f27565b92915050565b600081359050613fcf81615f3e565b92915050565b600081359050613fe481615f55565b92915050565b60006020828403121561400057613fff615cd9565b5b600061400e84828501613d0e565b91505092915050565b6000806000606084860312156140305761402f615cd9565b5b600061403e86828701613d23565b935050602061404f86828701613d23565b925050604061406086828701613d23565b9150509250925092565b6000806040838503121561408157614080615cd9565b5b600061408f85828601613d0e565b92505060206140a085828601613d0e565b9150509250929050565b6000806000806000606086880312156140c6576140c5615cd9565b5b60006140d488828901613d0e565b955050602086013567ffffffffffffffff8111156140f5576140f4615ccf565b5b61410188828901613e3a565b9450945050604086013567ffffffffffffffff81111561412457614123615ccf565b5b61413088828901613d38565b92509250509295509295909350565b6000806040838503121561415657614155615cd9565b5b600061416485828601613d0e565b925050602061417585828601613fab565b9150509250929050565b6000806040838503121561419657614195615cd9565b5b60006141a485828601613d0e565b92505060206141b585828601613fc0565b9150509250929050565b6000806000806000608086880312156141db576141da615cd9565b5b60006141e988828901613d0e565b95505060206141fa88828901613fc0565b945050604086013567ffffffffffffffff81111561421b5761421a615ccf565b5b61422788828901613ecf565b9350935050606061423a88828901613f96565b9150509295509295909350565b600080600080600080600060c0888a03121561426657614265615cd9565b5b60006142748a828b01613d0e565b97505060206142858a828b01613fc0565b965050604088013567ffffffffffffffff8111156142a6576142a5615ccf565b5b6142b28a828b01613ecf565b955095505060606142c58a828b01613f96565b93505060806142d68a828b01613fab565b92505060a06142e78a828b01613e90565b91505092959891949750929550565b60006020828403121561430c5761430b615cd9565b5b600061431a84828501613e90565b91505092915050565b60006020828403121561433957614338615cd9565b5b600061434784828501613ea5565b91505092915050565b6000806040838503121561436757614366615cd9565b5b600061437585828601613ea5565b925050602083015167ffffffffffffffff81111561439657614395615ccf565b5b6143a285828601613f53565b9150509250929050565b6000602082840312156143c2576143c1615cd9565b5b600082013567ffffffffffffffff8111156143e0576143df615ccf565b5b6143ec84828501613f25565b91505092915050565b60006020828403121561440b5761440a615cd9565b5b600061441984828501613fab565b91505092915050565b6000806040838503121561443957614438615cd9565b5b600061444785828601613fab565b925050602061445885828601613d0e565b9150509250929050565b6000806000806080858703121561447c5761447b615cd9565b5b600061448a87828801613fab565b945050602061449b87828801613d0e565b93505060406144ac87828801613e90565b92505060606144bd87828801613e90565b91505092959194509250565b6000806000606084860312156144e2576144e1615cd9565b5b60006144f086828701613fab565b935050602061450186828701613d0e565b925050604061451286828701613eba565b9150509250925092565b600080600080600080600080600080600060e08c8e03121561454157614540615cd9565b5b600061454f8e828f01613fab565b9b505060206145608e828f01613d0e565b9a505060406145718e828f01613eba565b99505060608c013567ffffffffffffffff81111561459257614591615ccf565b5b61459e8e828f01613d38565b985098505060808c013567ffffffffffffffff8111156145c1576145c0615ccf565b5b6145cd8e828f01613d38565b965096505060a08c013567ffffffffffffffff8111156145f0576145ef615ccf565b5b6145fc8e828f01613de4565b945094505060c08c013567ffffffffffffffff81111561461f5761461e615ccf565b5b61462b8e828f01613d8e565b92509250509295989b509295989b9093969950565b6000806000806080858703121561465a57614659615cd9565b5b600061466887828801613fab565b945050602061467987828801613d0e565b935050604061468a87828801613eba565b925050606061469b87828801613fd5565b91505092959194509250565b600080600080600080600060c0888a0312156146c6576146c5615cd9565b5b60006146d48a828b01613fab565b97505060206146e58a828b01613d0e565b96505060406146f68a828b01613eba565b95505060606147078a828b01613fd5565b94505060806147188a828b01613e90565b93505060a088013567ffffffffffffffff81111561473957614738615ccf565b5b6147458a828b01613d8e565b925092505092959891949750929550565b60008060008060008060008060e0898b03121561477657614775615cd9565b5b60006147848b828c01613fab565b98505060206147958b828c01613d0e565b97505060406147a68b828c01613eba565b96505060606147b78b828c01613fd5565b95505060806147c88b828c01613e90565b94505060a06147d98b828c01613f81565b93505060c089013567ffffffffffffffff8111156147fa576147f9615ccf565b5b6148068b828c01613ecf565b92509250509295985092959890939650565b600061482483836148e3565b60208301905092915050565b600061483c8383614c2b565b60208301905092915050565b60006148548383614c58565b60208301905092915050565b600061486d848484614c94565b90509392505050565b6000614883848484614d1b565b90509392505050565b60006148988383614dae565b60208301905092915050565b60006148b08383614d81565b60208301905092915050565b60006148c88383614f10565b60208301905092915050565b6148dd81615a19565b82525050565b6148ec81615a07565b82525050565b6148fb81615a07565b82525050565b61490a81615a07565b82525050565b600061491b8261582b565b6149258185615882565b9350614930836157f3565b8060005b838110156149615781516149488882614818565b975061495383615841565b925050600181019050614934565b5085935050505092915050565b600061497a8385615893565b935061498582615803565b8060005b858110156149be5761499b828461595f565b6149a58882614830565b97506149b08361584e565b925050600181019050614989565b5085925050509392505050565b60006149d783856158a4565b93506149e282615803565b8060005b85811015614a1b576149f8828461595f565b614a028882614848565b9750614a0d8361584e565b9250506001810190506149e6565b5085925050509392505050565b6000614a3483856158b5565b935083602084028501614a468461580d565b8060005b87811015614a8c578484038952614a618284615976565b614a6c868284614860565b9550614a778461585b565b935060208b019a505050600181019050614a4a565b50829750879450505050509392505050565b6000614aaa83856158c6565b935083602084028501614abc8461580d565b8060005b87811015614b02578484038952614ad78284615976565b614ae2868284614876565b9550614aed8461585b565b935060208b019a505050600181019050614ac0565b50829750879450505050509392505050565b6000614b2083856158d7565b9350614b2b82615817565b8060005b85811015614b6457614b4182846159d9565b614b4b888261488c565b9750614b5683615868565b925050600181019050614b2f565b5085925050509392505050565b6000614b7d83856158f9565b9350614b8882615817565b8060005b85811015614bc157614b9e82846159d9565b614ba888826148a4565b9750614bb383615868565b925050600181019050614b8c565b5085925050509392505050565b6000614bda83856158e8565b9350614be582615821565b8060005b85811015614c1e57614bfb82846159f0565b614c0588826148bc565b9750614c1083615875565b925050600181019050614be9565b5085925050509392505050565b614c3481615a2b565b82525050565b614c4381615a2b565b82525050565b614c5281615a2b565b82525050565b614c6181615a2b565b82525050565b614c7081615a37565b82525050565b614c7f81615a41565b82525050565b614c8e81615a41565b82525050565b6000614ca0838561590a565b9350614cad838584615b0e565b614cb683615cde565b840190509392505050565b6000614ccd838561591b565b9350614cda838584615b0e565b614ce383615cde565b840190509392505050565b6000614cfa838561592c565b9350614d07838584615b0e565b614d1083615cde565b840190509392505050565b6000614d27838561593d565b9350614d34838584615b0e565b614d3d83615cde565b840190509392505050565b6000614d5382615836565b614d5d818561591b565b9350614d6d818560208601615b1d565b614d7681615cde565b840191505092915050565b614d8a81615ad8565b82525050565b614d9981615ad8565b82525050565b614da881615ad8565b82525050565b614db781615ad8565b82525050565b614dc681615aea565b82525050565b614dd581615aea565b82525050565b614de481615afc565b82525050565b6000614df760178361594e565b9150614e0282615cef565b602082019050919050565b6000614e1a60268361594e565b9150614e2582615d18565b604082019050919050565b6000614e3d602e8361594e565b9150614e4882615d67565b604082019050919050565b6000614e6060208361594e565b9150614e6b82615db6565b602082019050919050565b6000614e8360158361594e565b9150614e8e82615ddf565b602082019050919050565b6000614ea660208361594e565b9150614eb182615e08565b602082019050919050565b6000614ec960168361594e565b9150614ed482615e31565b602082019050919050565b6000614eec600e8361594e565b9150614ef782615e5a565b602082019050919050565b8082525050565b8082525050565b614f1981615a93565b82525050565b614f2881615a93565b82525050565b614f3781615ac1565b82525050565b614f4681615ac1565b82525050565b614f5581615acb565b82525050565b614f6481615acb565b82525050565b6000602082019050614f7f60008301846148f2565b92915050565b6000604082019050614f9a60008301866148f2565b8181036020830152614fad818486614bce565b9050949350505050565b6000604082019050614fcc60008301856148f2565b614fd96020830184614f1f565b9392505050565b6000608082019050614ff560008301876148f2565b6150026020830186614f2e565b81810360408301526150148185614d48565b90506150236060830184614dbd565b95945050505050565b600061016082019050615042600083018e6148f2565b61504f602083018d614f2e565b8181036040830152615061818c614d48565b9050615070606083018b614dbd565b61507d608083018a614ddb565b61508a60a0830189614ddb565b61509760c0830188614ddb565b6150a460e08301876148f2565b6150b26101008301866148d4565b8181036101208301526150c58185614d48565b90506150d56101408301846148f2565b9c9b505050505050505050505050565b600060408201905081810360008301526150ff8185614910565b905061510e60208301846148f2565b9392505050565b600060208201905061512a6000830184614c3a565b92915050565b60006040820190506151456000830185614c3a565b81810360208301526151578184614d48565b90509392505050565b60006040820190506151756000830185614c67565b6151826020830184614c3a565b9392505050565b600060208201905061519e6000830184614c76565b92915050565b600060208201905081810360008301526151bd81614dea565b9050919050565b600060208201905081810360008301526151dd81614e0d565b9050919050565b600060208201905081810360008301526151fd81614e30565b9050919050565b6000602082019050818103600083015261521d81614e53565b9050919050565b6000602082019050818103600083015261523d81614e76565b9050919050565b6000602082019050818103600083015261525d81614e99565b9050919050565b6000602082019050818103600083015261527d81614ebc565b9050919050565b6000602082019050818103600083015261529d81614edf565b9050919050565b600060a0820190506152b96000830189614f02565b6152c66020830188614901565b6152d36040830187614f3d565b81810360608301526152e6818587614cee565b90506152f56080830184614dcc565b979650505050505050565b60006040820190506153156000830186614f02565b8181036020830152615328818486614cee565b9050949350505050565b60006060820190506153476000830186614f09565b6153546020830185614901565b6153616040830184614c85565b949350505050565b600060e08201905061537e600083018e614f09565b61538b602083018d614901565b615398604083018c614c85565b81810360608301526153ab818a8c6149cb565b905081810360808301526153c081888a6149cb565b905081810360a08301526153d5818688614b14565b905081810360c08301526153ea818486614a9e565b90509c9b505050505050505050505050565b60006080820190506154116000830187614f09565b61541e6020830186614901565b61542b6040830185614c85565b6154386060830184614f5b565b95945050505050565b600060c082019050615456600083018a614f09565b6154636020830189614901565b6154706040830188614c85565b61547d6060830187614f5b565b61548a6080830186614c49565b81810360a083015261549d818486614a9e565b905098975050505050505050565b600060e0820190506154c0600083018b614f09565b6154cd602083018a614901565b6154da6040830189614c85565b6154e76060830188614f5b565b6154f46080830187614c49565b61550160a0830186614d9f565b81810360c0830152615514818486614cee565b90509998505050505050505050565b60006020820190506155386000830184614f1f565b92915050565b60006040820190506155536000830185614f1f565b61556060208301846148f2565b9392505050565b600060808201905061557c6000830187614f1f565b61558960208301866148f2565b6155966040830185614c3a565b6155a36060830184614c3a565b95945050505050565b60006060820190506155c16000830186614f1f565b6155ce60208301856148f2565b6155db6040830184614c76565b949350505050565b600060e0820190506155f8600083018e614f1f565b615605602083018d6148f2565b615612604083018c614c76565b8181036060830152615625818a8c61496e565b9050818103608083015261563a81888a61496e565b905081810360a083015261564f818688614b71565b905081810360c0830152615664818486614a28565b90509c9b505050505050505050505050565b600060808201905061568b6000830187614f1f565b61569860208301866148f2565b6156a56040830185614c76565b6156b26060830184614f4c565b95945050505050565b600060c0820190506156d0600083018a614f1f565b6156dd60208301896148f2565b6156ea6040830188614c76565b6156f76060830187614f4c565b6157046080830186614c3a565b81810360a0830152615717818486614a28565b905098975050505050505050565b600060e08201905061573a600083018b614f1f565b615747602083018a6148f2565b6157546040830189614c76565b6157616060830188614f4c565b61576e6080830187614c3a565b61577b60a0830186614d90565b81810360c083015261578e818486614cc1565b90509998505050505050505050565b60006157a76157b8565b90506157b38282615b50565b919050565b6000604051905090565b600067ffffffffffffffff8211156157dd576157dc615c82565b5b6157e682615cde565b9050602081019050919050565b6000819050602082019050919050565b6000819050919050565b6000819050919050565b6000819050919050565b6000819050919050565b600081519050919050565b600081519050919050565b6000602082019050919050565b6000602082019050919050565b6000602082019050919050565b6000602082019050919050565b6000602082019050919050565b600082825260208201905092915050565b600082825260208201905092915050565b600082825260208201905092915050565b600082825260208201905092915050565b600082825260208201905092915050565b600082825260208201905092915050565b600082825260208201905092915050565b600082825260208201905092915050565b600082825260208201905092915050565b600082825260208201905092915050565b600082825260208201905092915050565b600082825260208201905092915050565b600082825260208201905092915050565b600061596e6020840184613e90565b905092915050565b6000808335600160200384360303811261599357615992615cd4565b5b83810192508235915060208301925067ffffffffffffffff8211156159bb576159ba615cb1565b5b6001820236038413156159d1576159d0615cc0565b5b509250929050565b60006159e86020840184613f81565b905092915050565b60006159ff6020840184613fab565b905092915050565b6000615a1282615aa1565b9050919050565b6000615a2482615aa1565b9050919050565b60008115159050919050565b6000819050919050565b60007fffffffff0000000000000000000000000000000000000000000000000000000082169050919050565b6000819050615a7b82615e83565b919050565b6000819050615a8e82615e97565b919050565b600061ffff82169050919050565b600073ffffffffffffffffffffffffffffffffffffffff82169050919050565b6000819050919050565b600060ff82169050919050565b6000615ae382615a6d565b9050919050565b6000615af582615a80565b9050919050565b6000615b0782615ac1565b9050919050565b82818337600083830152505050565b60005b83811015615b3b578082015181840152602081019050615b20565b83811115615b4a576000848401525b50505050565b615b5982615cde565b810181811067ffffffffffffffff82111715615b7857615b77615c82565b5b80604052505050565b6000615b8c82615a93565b915061ffff821415615ba157615ba0615bf5565b5b600182019050919050565b6000615bb782615ac1565b91507fffffffffffffffffffffffffffffffffffffffffffffffffffffffffffffffff821415615bea57615be9615bf5565b5b600182019050919050565b7f4e487b7100000000000000000000000000000000000000000000000000000000600052601160045260246000fd5b7f4e487b7100000000000000000000000000000000000000000000000000000000600052602160045260246000fd5b7f4e487b7100000000000000000000000000000000000000000000000000000000600052603260045260246000fd5b7f4e487b7100000000000000000000000000000000000000000000000000000000600052604160045260246000fd5b600080fd5b600080fd5b600080fd5b600080fd5b600080fd5b600080fd5b600080fd5b600080fd5b600080fd5b6000601f19601f8301169050919050565b7f4d6f64756c6520616c72656164792064697361626c6564000000000000000000600082015250565b7f4f776e61626c653a206e6577206f776e657220697320746865207a65726f206160008201527f6464726573730000000000000000000000000000000000000000000000000000602082015250565b7f496e697469616c697a61626c653a20636f6e747261637420697320616c72656160008201527f647920696e697469616c697a6564000000000000000000000000000000000000602082015250565b7f4f776e61626c653a2063616c6c6572206973206e6f7420746865206f776e6572600082015250565b7f4d6f64756c65206e6f7420617574686f72697a65640000000000000000000000600082015250565b7f477561726420646f6573206e6f7420696d706c656d656e742049455243313635600082015250565b7f4d6f64756c6520616c726561647920656e61626c656400000000000000000000600082015250565b7f496e76616c6964206d6f64756c65000000000000000000000000000000000000600082015250565b60048110615e9457615e93615c24565b5b50565b60028110615ea857615ea7615c24565b5b50565b615eb481615a07565b8114615ebf57600080fd5b50565b615ecb81615a19565b8114615ed657600080fd5b50565b615ee281615a2b565b8114615eed57600080fd5b50565b615ef981615a41565b8114615f0457600080fd5b50565b60048110615f1457600080fd5b50565b60028110615f2457600080fd5b50565b615f3081615a93565b8114615f3b57600080fd5b50565b615f4781615ac1565b8114615f5257600080fd5b50565b615f5e81615acb565b8114615f6957600080fd5b5056fea2646970667358221220583082eb2897dc1391ad31d4b37cfcb5b76716e4f17538fc45d899d07f81d44264736f6c63430008060033",
  "linkReferences": {
    "contracts/Permissions.sol": {
      "Permissions": [
        {
          "length": 20,
          "start": 4672
        },
        {
          "length": 20,
          "start": 5630
        },
        {
          "length": 20,
          "start": 6194
        },
        {
          "length": 20,
          "start": 11727
        },
        {
          "length": 20,
          "start": 12068
        },
        {
          "length": 20,
          "start": 13288
        },
        {
          "length": 20,
          "start": 15500
        },
        {
          "length": 20,
          "start": 15612
        }
      ]
    }
  },
  "deployedLinkReferences": {
    "contracts/Permissions.sol": {
      "Permissions": [
        {
          "length": 20,
          "start": 1699
        },
        {
          "length": 20,
          "start": 2657
        },
        {
          "length": 20,
          "start": 3221
        },
        {
          "length": 20,
          "start": 8754
        },
        {
          "length": 20,
          "start": 9095
        },
        {
          "length": 20,
          "start": 10315
        },
        {
          "length": 20,
          "start": 12527
        },
        {
          "length": 20,
          "start": 12639
        }
      ]
    }
  }
}