{
    "_format": "hh-sol-artifact-1",
    "contractName": "TellorModule",
    "sourceName": "contracts/TellorModule.sol",
    "abi": [
        {
            "inputs": [
                {
                    "internalType": "address",
                    "name": "_owner",
                    "type": "address"
                },
                {
                    "internalType": "address",
                    "name": "_avatar",
                    "type": "address"
                },
                {
                    "internalType": "address",
                    "name": "_target",
                    "type": "address"
                },
                {
                    "internalType": "address payable",
                    "name": "_tellorAddress",
                    "type": "address"
                },
                {
                    "internalType": "uint32",
                    "name": "_cooldown",
                    "type": "uint32"
                },
                {
                    "internalType": "uint32",
                    "name": "_expiration",
                    "type": "uint32"
                }
            ],
            "stateMutability": "nonpayable",
            "type": "constructor"
        },
        {
            "anonymous": false,
            "inputs": [
                {
                    "indexed": true,
                    "internalType": "address",
                    "name": "previousAvatar",
                    "type": "address"
                },
                {
                    "indexed": true,
                    "internalType": "address",
                    "name": "newAvatar",
                    "type": "address"
                }
            ],
            "name": "AvatarSet",
            "type": "event"
        },
        {
            "anonymous": false,
            "inputs": [
                {
                    "indexed": false,
                    "internalType": "address",
                    "name": "guard",
                    "type": "address"
                }
            ],
            "name": "ChangedGuard",
            "type": "event"
        },
        {
            "anonymous": false,
            "inputs": [
                {
                    "indexed": true,
                    "internalType": "address",
                    "name": "previousOwner",
                    "type": "address"
                },
                {
                    "indexed": true,
                    "internalType": "address",
                    "name": "newOwner",
                    "type": "address"
                }
            ],
            "name": "OwnershipTransferred",
            "type": "event"
        },
        {
            "anonymous": false,
            "inputs": [
                {
                    "indexed": true,
                    "internalType": "bytes32",
                    "name": "queryId",
                    "type": "bytes32"
                },
                {
                    "indexed": true,
                    "internalType": "string",
                    "name": "proposalId",
                    "type": "string"
                }
            ],
            "name": "ProposalAdded",
            "type": "event"
        },
        {
            "anonymous": false,
            "inputs": [
                {
                    "indexed": true,
                    "internalType": "address",
                    "name": "previousTarget",
                    "type": "address"
                },
                {
                    "indexed": true,
                    "internalType": "address",
                    "name": "newTarget",
                    "type": "address"
                }
            ],
            "name": "TargetSet",
            "type": "event"
        },
        {
            "anonymous": false,
            "inputs": [
                {
                    "indexed": true,
                    "internalType": "address",
                    "name": "initiator",
                    "type": "address"
                },
                {
                    "indexed": true,
                    "internalType": "address",
                    "name": "owner",
                    "type": "address"
                },
                {
                    "indexed": true,
                    "internalType": "address",
                    "name": "avatar",
                    "type": "address"
                },
                {
                    "indexed": false,
                    "internalType": "address",
                    "name": "target",
                    "type": "address"
                }
            ],
            "name": "TellorModuleSetup",
            "type": "event"
        },
        {
            "inputs": [],
            "name": "DOMAIN_SEPARATOR_TYPEHASH",
            "outputs": [
                {
                    "internalType": "bytes32",
                    "name": "",
                    "type": "bytes32"
                }
            ],
            "stateMutability": "view",
            "type": "function"
        },
        {
            "inputs": [],
            "name": "INVALIDATED",
            "outputs": [
                {
                    "internalType": "bytes32",
                    "name": "",
                    "type": "bytes32"
                }
            ],
            "stateMutability": "view",
            "type": "function"
        },
        {
            "inputs": [],
            "name": "TRANSACTION_TYPEHASH",
            "outputs": [
                {
                    "internalType": "bytes32",
                    "name": "",
                    "type": "bytes32"
                }
            ],
            "stateMutability": "view",
            "type": "function"
        },
        {
            "inputs": [
                {
                    "internalType": "string",
                    "name": "_proposalId",
                    "type": "string"
                },
                {
                    "internalType": "bytes32[]",
                    "name": "_txHashes",
                    "type": "bytes32[]"
                }
            ],
            "name": "addProposal",
            "outputs": [],
            "stateMutability": "nonpayable",
            "type": "function"
        },
        {
            "inputs": [],
            "name": "avatar",
            "outputs": [
                {
                    "internalType": "address",
                    "name": "",
                    "type": "address"
                }
            ],
            "stateMutability": "view",
            "type": "function"
        },
        {
            "inputs": [
                {
                    "internalType": "string",
                    "name": "_proposalId",
                    "type": "string"
                },
                {
                    "internalType": "bytes32[]",
                    "name": "_txHashes",
                    "type": "bytes32[]"
                }
            ],
            "name": "buildProposal",
            "outputs": [
                {
                    "internalType": "string",
                    "name": "",
                    "type": "string"
                }
            ],
            "stateMutability": "pure",
            "type": "function"
        },
        {
            "inputs": [],
            "name": "cooldown",
            "outputs": [
                {
                    "internalType": "uint32",
                    "name": "",
                    "type": "uint32"
                }
            ],
            "stateMutability": "view",
            "type": "function"
        },
        {
            "inputs": [
                {
                    "internalType": "string",
                    "name": "_proposalId",
                    "type": "string"
                },
                {
                    "internalType": "bytes32[]",
                    "name": "_txHashes",
                    "type": "bytes32[]"
                },
                {
                    "internalType": "address",
                    "name": "_to",
                    "type": "address"
                },
                {
                    "internalType": "uint256",
                    "name": "_value",
                    "type": "uint256"
                },
                {
                    "internalType": "bytes",
                    "name": "_data",
                    "type": "bytes"
                },
                {
                    "internalType": "enum Enum.Operation",
                    "name": "_operation",
                    "type": "uint8"
                }
            ],
            "name": "executeProposal",
            "outputs": [],
            "stateMutability": "nonpayable",
            "type": "function"
        },
        {
            "inputs": [
                {
                    "internalType": "string",
                    "name": "_proposalId",
                    "type": "string"
                },
                {
                    "internalType": "bytes32[]",
                    "name": "_txHashes",
                    "type": "bytes32[]"
                },
                {
                    "internalType": "address",
                    "name": "_to",
                    "type": "address"
                },
                {
                    "internalType": "uint256",
                    "name": "_value",
                    "type": "uint256"
                },
                {
                    "internalType": "bytes",
                    "name": "_data",
                    "type": "bytes"
                },
                {
                    "internalType": "enum Enum.Operation",
                    "name": "_operation",
                    "type": "uint8"
                },
                {
                    "internalType": "uint256",
                    "name": "_txIndex",
                    "type": "uint256"
                }
            ],
            "name": "executeProposalWithIndex",
            "outputs": [],
            "stateMutability": "nonpayable",
            "type": "function"
        },
        {
            "inputs": [
                {
                    "internalType": "bytes32",
                    "name": "",
                    "type": "bytes32"
                },
                {
                    "internalType": "bytes32",
                    "name": "",
                    "type": "bytes32"
                }
            ],
            "name": "executedProposalTransactions",
            "outputs": [
                {
                    "internalType": "bool",
                    "name": "",
                    "type": "bool"
                }
            ],
            "stateMutability": "view",
            "type": "function"
        },
        {
            "inputs": [
                {
                    "internalType": "address",
                    "name": "_to",
                    "type": "address"
                },
                {
                    "internalType": "uint256",
                    "name": "_value",
                    "type": "uint256"
                },
                {
                    "internalType": "bytes",
                    "name": "_data",
                    "type": "bytes"
                },
                {
                    "internalType": "enum Enum.Operation",
                    "name": "_operation",
                    "type": "uint8"
                },
                {
                    "internalType": "uint256",
                    "name": "_nonce",
                    "type": "uint256"
                }
            ],
            "name": "generateTransactionHashData",
            "outputs": [
                {
                    "internalType": "bytes",
                    "name": "",
                    "type": "bytes"
                }
            ],
            "stateMutability": "view",
            "type": "function"
        },
        {
            "inputs": [],
            "name": "getChainId",
            "outputs": [
                {
                    "internalType": "uint256",
                    "name": "",
                    "type": "uint256"
                }
            ],
            "stateMutability": "view",
            "type": "function"
        },
        {
            "inputs": [
                {
                    "internalType": "bytes32",
                    "name": "_queryId",
                    "type": "bytes32"
                }
            ],
            "name": "getCurrentValue",
            "outputs": [
                {
                    "internalType": "bool",
                    "name": "_ifRetrieve",
                    "type": "bool"
                },
                {
                    "internalType": "bytes",
                    "name": "_value",
                    "type": "bytes"
                },
                {
                    "internalType": "uint256",
                    "name": "_timestampRetrieved",
                    "type": "uint256"
                }
            ],
            "stateMutability": "view",
            "type": "function"
        },
        {
            "inputs": [
                {
                    "internalType": "bytes32",
                    "name": "_queryId",
                    "type": "bytes32"
                },
                {
                    "internalType": "uint256",
                    "name": "_timestamp",
                    "type": "uint256"
                }
            ],
            "name": "getDataBefore",
            "outputs": [
                {
                    "internalType": "bool",
                    "name": "_ifRetrieve",
                    "type": "bool"
                },
                {
                    "internalType": "bytes",
                    "name": "_value",
                    "type": "bytes"
                },
                {
                    "internalType": "uint256",
                    "name": "_timestampRetrieved",
                    "type": "uint256"
                }
            ],
            "stateMutability": "view",
            "type": "function"
        },
        {
            "inputs": [],
            "name": "getGuard",
            "outputs": [
                {
                    "internalType": "address",
                    "name": "_guard",
                    "type": "address"
                }
            ],
            "stateMutability": "view",
            "type": "function"
        },
        {
            "inputs": [
                {
                    "internalType": "bytes32",
                    "name": "_queryId",
                    "type": "bytes32"
                },
                {
                    "internalType": "uint256",
                    "name": "_timestamp",
                    "type": "uint256"
                }
            ],
            "name": "getIndexForDataBefore",
            "outputs": [
                {
                    "internalType": "bool",
                    "name": "_found",
                    "type": "bool"
                },
                {
                    "internalType": "uint256",
                    "name": "_index",
                    "type": "uint256"
                }
            ],
            "stateMutability": "view",
            "type": "function"
        },
        {
            "inputs": [
                {
                    "internalType": "bytes32",
                    "name": "_queryId",
                    "type": "bytes32"
                }
            ],
            "name": "getNewValueCountbyQueryId",
            "outputs": [
                {
                    "internalType": "uint256",
                    "name": "",
                    "type": "uint256"
                }
            ],
            "stateMutability": "view",
            "type": "function"
        },
        {
            "inputs": [
                {
                    "internalType": "string",
                    "name": "_proposalId",
                    "type": "string"
                }
            ],
            "name": "getQueryId",
            "outputs": [
                {
                    "internalType": "bytes32",
                    "name": "",
                    "type": "bytes32"
                }
            ],
            "stateMutability": "pure",
            "type": "function"
        },
        {
            "inputs": [
                {
                    "internalType": "bytes32",
                    "name": "_queryId",
                    "type": "bytes32"
                },
                {
                    "internalType": "uint256",
                    "name": "_index",
                    "type": "uint256"
                }
            ],
            "name": "getTimestampbyQueryIdandIndex",
            "outputs": [
                {
                    "internalType": "uint256",
                    "name": "",
                    "type": "uint256"
                }
            ],
            "stateMutability": "view",
            "type": "function"
        },
        {
            "inputs": [
                {
                    "internalType": "address",
                    "name": "_to",
                    "type": "address"
                },
                {
                    "internalType": "uint256",
                    "name": "_value",
                    "type": "uint256"
                },
                {
                    "internalType": "bytes",
                    "name": "_data",
                    "type": "bytes"
                },
                {
                    "internalType": "enum Enum.Operation",
                    "name": "_operation",
                    "type": "uint8"
                },
                {
                    "internalType": "uint256",
                    "name": "_nonce",
                    "type": "uint256"
                }
            ],
            "name": "getTransactionHash",
            "outputs": [
                {
                    "internalType": "bytes32",
                    "name": "",
                    "type": "bytes32"
                }
            ],
            "stateMutability": "view",
            "type": "function"
        },
        {
            "inputs": [],
            "name": "guard",
            "outputs": [
                {
                    "internalType": "address",
                    "name": "",
                    "type": "address"
                }
            ],
            "stateMutability": "view",
            "type": "function"
        },
        {
            "inputs": [
                {
                    "internalType": "bytes32",
                    "name": "_queryId",
                    "type": "bytes32"
                },
                {
                    "internalType": "uint256",
                    "name": "_timestamp",
                    "type": "uint256"
                }
            ],
            "name": "isInDispute",
            "outputs": [
                {
                    "internalType": "bool",
                    "name": "",
                    "type": "bool"
                }
            ],
            "stateMutability": "view",
            "type": "function"
        },
        {
            "inputs": [
                {
                    "internalType": "string",
                    "name": "_proposalId",
                    "type": "string"
                },
                {
                    "internalType": "bytes32[]",
                    "name": "_txHashes",
                    "type": "bytes32[]"
                }
            ],
            "name": "markProposalAsInvalid",
            "outputs": [],
            "stateMutability": "nonpayable",
            "type": "function"
        },
        {
            "inputs": [
                {
                    "internalType": "bytes32",
                    "name": "_proposalHash",
                    "type": "bytes32"
                }
            ],
            "name": "markProposalAsInvalidByHash",
            "outputs": [],
            "stateMutability": "nonpayable",
            "type": "function"
        },
        {
            "inputs": [
                {
                    "internalType": "bytes32",
                    "name": "_proposalHash",
                    "type": "bytes32"
                }
            ],
            "name": "markProposalWithExpiredResultAsInvalid",
            "outputs": [],
            "stateMutability": "nonpayable",
            "type": "function"
        },
        {
            "inputs": [],
            "name": "owner",
            "outputs": [
                {
                    "internalType": "address",
                    "name": "",
                    "type": "address"
                }
            ],
            "stateMutability": "view",
            "type": "function"
        },
        {
            "inputs": [
                {
                    "internalType": "bytes32",
                    "name": "",
                    "type": "bytes32"
                }
            ],
            "name": "queryIds",
            "outputs": [
                {
                    "internalType": "bytes32",
                    "name": "",
                    "type": "bytes32"
                }
            ],
            "stateMutability": "view",
            "type": "function"
        },
        {
            "inputs": [],
            "name": "renounceOwnership",
            "outputs": [],
            "stateMutability": "nonpayable",
            "type": "function"
        },
        {
            "inputs": [],
            "name": "resultExpiration",
            "outputs": [
                {
                    "internalType": "uint32",
                    "name": "",
                    "type": "uint32"
                }
            ],
            "stateMutability": "view",
            "type": "function"
        },
        {
            "inputs": [
                {
                    "internalType": "bytes32",
                    "name": "_queryId",
                    "type": "bytes32"
                },
                {
                    "internalType": "uint256",
                    "name": "_timestamp",
                    "type": "uint256"
                }
            ],
            "name": "retrieveData",
            "outputs": [
                {
                    "internalType": "bytes",
                    "name": "",
                    "type": "bytes"
                }
            ],
            "stateMutability": "view",
            "type": "function"
        },
        {
            "inputs": [
                {
                    "internalType": "address",
                    "name": "_avatar",
                    "type": "address"
                }
            ],
            "name": "setAvatar",
            "outputs": [],
            "stateMutability": "nonpayable",
            "type": "function"
        },
        {
            "inputs": [
                {
                    "internalType": "address",
                    "name": "_guard",
                    "type": "address"
                }
            ],
            "name": "setGuard",
            "outputs": [],
            "stateMutability": "nonpayable",
            "type": "function"
        },
        {
            "inputs": [
                {
                    "internalType": "uint32",
                    "name": "_expiration",
                    "type": "uint32"
                }
            ],
            "name": "setResultExpiration",
            "outputs": [],
            "stateMutability": "nonpayable",
            "type": "function"
        },
        {
            "inputs": [
                {
                    "internalType": "address",
                    "name": "_target",
                    "type": "address"
                }
            ],
            "name": "setTarget",
            "outputs": [],
            "stateMutability": "nonpayable",
            "type": "function"
        },
        {
            "inputs": [
                {
                    "internalType": "bytes",
                    "name": "_initParams",
                    "type": "bytes"
                }
            ],
            "name": "setUp",
            "outputs": [],
            "stateMutability": "nonpayable",
            "type": "function"
        },
        {
            "inputs": [],
            "name": "target",
            "outputs": [
                {
                    "internalType": "address",
                    "name": "",
                    "type": "address"
                }
            ],
            "stateMutability": "view",
            "type": "function"
        },
        {
            "inputs": [],
            "name": "tellor",
            "outputs": [
                {
                    "internalType": "contract ITellor",
                    "name": "",
                    "type": "address"
                }
            ],
            "stateMutability": "view",
            "type": "function"
        },
        {
            "inputs": [
                {
                    "internalType": "address",
                    "name": "newOwner",
                    "type": "address"
                }
            ],
            "name": "transferOwnership",
            "outputs": [],
            "stateMutability": "nonpayable",
            "type": "function"
        }
    ],
    "bytecode": "0x60806040523480156200001157600080fd5b506040516200625a3803806200625a83398181016040528101906200003791906200095d565b8280606860006101000a81548173ffffffffffffffffffffffffffffffffffffffff021916908373ffffffffffffffffffffffffffffffffffffffff16021790555050600086868685856040516020016200009795949392919062000c56565b6040516020818303038152906040529050620000b981620000c660201b60201c565b5050505050505062000ea0565b600080600080600085806020019051810190620000e49190620008db565b94509450945094509450620000fe620003ab60201b60201c565b600073ffffffffffffffffffffffffffffffffffffffff168473ffffffffffffffffffffffffffffffffffffffff16141562000171576040517f08c379a0000000000000000000000000000000000000000000000000000000008152600401620001689062000d5d565b60405180910390fd5b600073ffffffffffffffffffffffffffffffffffffffff168373ffffffffffffffffffffffffffffffffffffffff161415620001e4576040517f08c379a0000000000000000000000000000000000000000000000000000000008152600401620001db9062000cd5565b60405180910390fd5b60008163ffffffff1614806200020e5750603c828262000205919062000d90565b63ffffffff1610155b62000250576040517f08c379a0000000000000000000000000000000000000000000000000000000008152600401620002479062000d19565b60405180910390fd5b83606660006101000a81548173ffffffffffffffffffffffffffffffffffffffff021916908373ffffffffffffffffffffffffffffffffffffffff16021790555082606760006101000a81548173ffffffffffffffffffffffffffffffffffffffff021916908373ffffffffffffffffffffffffffffffffffffffff16021790555080606860146101000a81548163ffffffff021916908363ffffffff16021790555081606a60006101000a81548163ffffffff021916908363ffffffff1602179055506200032585620004aa60201b60201c565b8373ffffffffffffffffffffffffffffffffffffffff168573ffffffffffffffffffffffffffffffffffffffff163373ffffffffffffffffffffffffffffffffffffffff167fe778768f3eb9192e1211bb267a4ecc73dd1120cb72b45c562ddcb2dc8141b9d9866040516200039b919062000c39565b60405180910390a4505050505050565b600060019054906101000a900460ff1680620003d2575060008054906101000a900460ff16155b62000414576040517f08c379a00000000000000000000000000000000000000000000000000000000081526004016200040b9062000cf7565b60405180910390fd5b60008060019054906101000a900460ff16159050801562000465576001600060016101000a81548160ff02191690831515021790555060016000806101000a81548160ff0219169083151502179055505b62000475620005c060201b60201c565b620004856200069f60201b60201c565b8015620004a75760008060016101000a81548160ff0219169083151502179055505b50565b620004ba6200079e60201b60201c565b73ffffffffffffffffffffffffffffffffffffffff16620004e0620007a660201b60201c565b73ffffffffffffffffffffffffffffffffffffffff161462000539576040517f08c379a0000000000000000000000000000000000000000000000000000000008152600401620005309062000d3b565b60405180910390fd5b600073ffffffffffffffffffffffffffffffffffffffff168173ffffffffffffffffffffffffffffffffffffffff161415620005ac576040517f08c379a0000000000000000000000000000000000000000000000000000000008152600401620005a39062000cb3565b60405180910390fd5b620005bd81620007d060201b60201c565b50565b600060019054906101000a900460ff1680620005e7575060008054906101000a900460ff16155b62000629576040517f08c379a0000000000000000000000000000000000000000000000000000000008152600401620006209062000cf7565b60405180910390fd5b60008060019054906101000a900460ff1615905080156200067a576001600060016101000a81548160ff02191690831515021790555060016000806101000a81548160ff0219169083151502179055505b80156200069c5760008060016101000a81548160ff0219169083151502179055505b50565b600060019054906101000a900460ff1680620006c6575060008054906101000a900460ff16155b62000708576040517f08c379a0000000000000000000000000000000000000000000000000000000008152600401620006ff9062000cf7565b60405180910390fd5b60008060019054906101000a900460ff16159050801562000759576001600060016101000a81548160ff02191690831515021790555060016000806101000a81548160ff0219169083151502179055505b620007796200076d6200079e60201b60201c565b620007d060201b60201c565b80156200079b5760008060016101000a81548160ff0219169083151502179055505b50565b600033905090565b6000603360009054906101000a900473ffffffffffffffffffffffffffffffffffffffff16905090565b6000603360009054906101000a900473ffffffffffffffffffffffffffffffffffffffff16905081603360006101000a81548173ffffffffffffffffffffffffffffffffffffffff021916908373ffffffffffffffffffffffffffffffffffffffff1602179055508173ffffffffffffffffffffffffffffffffffffffff168173ffffffffffffffffffffffffffffffffffffffff167f8be0079c531659141344cd1fd0a4f28419497f9722a3daafe3b4186f6b6457e060405160405180910390a35050565b600081519050620008a78162000e52565b92915050565b600081519050620008be8162000e6c565b92915050565b600081519050620008d58162000e86565b92915050565b600080600080600060a08688031215620008f457600080fd5b60006200090488828901620008ad565b95505060206200091788828901620008ad565b94505060406200092a88828901620008ad565b93505060606200093d88828901620008c4565b92505060806200095088828901620008c4565b9150509295509295909350565b60008060008060008060c087890312156200097757600080fd5b60006200098789828a0162000896565b96505060206200099a89828a0162000896565b9550506040620009ad89828a0162000896565b9450506060620009c089828a01620008ad565b9350506080620009d389828a01620008c4565b92505060a0620009e689828a01620008c4565b9150509295509295509295565b620009fe8162000dcb565b82525050565b600062000a1360268362000d7f565b91507f4f776e61626c653a206e6577206f776e657220697320746865207a65726f206160008301527f64647265737300000000000000000000000000000000000000000000000000006020830152604082019050919050565b600062000a7b601e8362000d7f565b91507f5461726765742063616e206e6f74206265207a65726f206164647265737300006000830152602082019050919050565b600062000abd602e8362000d7f565b91507f496e697469616c697a61626c653a20636f6e747261637420697320616c72656160008301527f647920696e697469616c697a65640000000000000000000000000000000000006020830152604082019050919050565b600062000b2560448362000d7f565b91507f5468657265206e65656420746f206265206174206c656173742036307320626560008301527f747765656e20656e64206f6620636f6f6c646f776e20616e642065787069726160208301527f74696f6e000000000000000000000000000000000000000000000000000000006040830152606082019050919050565b600062000bb360208362000d7f565b91507f4f776e61626c653a2063616c6c6572206973206e6f7420746865206f776e65726000830152602082019050919050565b600062000bf5601e8362000d7f565b91507f4176617461722063616e206e6f74206265207a65726f206164647265737300006000830152602082019050919050565b62000c338162000e13565b82525050565b600060208201905062000c506000830184620009f3565b92915050565b600060a08201905062000c6d6000830188620009f3565b62000c7c6020830187620009f3565b62000c8b6040830186620009f3565b62000c9a606083018562000c28565b62000ca9608083018462000c28565b9695505050505050565b6000602082019050818103600083015262000cce8162000a04565b9050919050565b6000602082019050818103600083015262000cf08162000a6c565b9050919050565b6000602082019050818103600083015262000d128162000aae565b9050919050565b6000602082019050818103600083015262000d348162000b16565b9050919050565b6000602082019050818103600083015262000d568162000ba4565b9050919050565b6000602082019050818103600083015262000d788162000be6565b9050919050565b600082825260208201905092915050565b600062000d9d8262000e13565b915062000daa8362000e13565b92508282101562000dc05762000dbf62000e23565b5b828203905092915050565b600062000dd88262000df3565b9050919050565b600062000dec8262000df3565b9050919050565b600073ffffffffffffffffffffffffffffffffffffffff82169050919050565b600063ffffffff82169050919050565b7f4e487b7100000000000000000000000000000000000000000000000000000000600052601160045260246000fd5b62000e5d8162000dcb565b811462000e6957600080fd5b50565b62000e778162000ddf565b811462000e8357600080fd5b50565b62000e918162000e13565b811462000e9d57600080fd5b50565b6153aa8062000eb06000396000f3fe608060405234801561001057600080fd5b50600436106102325760003560e01c8063715018a611610130578063a792765f116100b8578063d4b839921161007c578063d4b83992146106ca578063e19a9dd9146106e8578063ea0b9c3a14610704578063f2fde38b14610734578063ff0394eb1461075057610232565b8063a792765f146105e8578063adf1639d1461061a578063c5958af91461064c578063c91063891461067c578063ce5e11bf1461069a57610232565b80637ceab3b1116100ff5780637ceab3b11461055657806388633b7b146105745780638da5cb5b146105925780638dcd2661146105b0578063a4f9edbf146105cc57610232565b8063715018a6146104e2578063776d1a01146104ec57806377b03e0d14610508578063787a08a61461053857610232565b80632bf2e8c7116101be578063425a2a3c11610182578063425a2a3c1461041857806344e87f911461044857806345c7980e146104785780634e1b8374146104945780635aef7de6146104c457610232565b80632bf2e8c7146103625780632bf87cc01461037e57806331460e3d146103ae5780633408e470146103de5780633ea3c146146103fc57610232565b806322617d971161020557806322617d97146102ab5780632351a877146102c7578063276e832a146102e357806329449085146103015780632b5000411461033257610232565b8063086cfca81461023757806314604b8c146102535780631959ad5b1461026f5780631db61b541461028d575b600080fd5b610251600480360381019061024c91906136cf565b61076e565b005b61026d60048036038101906102689190613b32565b6108b0565b005b610277610d7d565b60405161028491906148ed565b60405180910390f35b610295610da3565b6040516102a291906147ab565b60405180910390f35b6102c560048036038101906102c09190613891565b610dca565b005b6102e160048036038101906102dc9190613a61565b611032565b005b6102eb61104a565b6040516102f89190614c35565b60405180910390f35b61031b600480360381019061031691906138f6565b611060565b604051610329929190614782565b60405180910390f35b61034c60048036038101906103479190613798565b6111db565b60405161035991906147ab565b60405180910390f35b61037c60048036038101906103779190613c41565b6111fc565b005b610398600480360381019061039391906139b4565b611314565b6040516103a591906147ab565b60405180910390f35b6103c860048036038101906103c39190613891565b611368565b6040516103d591906147ab565b60405180910390f35b6103e6611380565b6040516103f39190614c1a565b60405180910390f35b61041660048036038101906104119190613891565b61138d565b005b610432600480360381019061042d9190613798565b611447565b60405161043f91906148cb565b60405180910390f35b610462600480360381019061045d91906138f6565b611542565b60405161046f9190614729565b60405180910390f35b610492600480360381019061048d91906139f5565b61184b565b005b6104ae60048036038101906104a991906138ba565b611874565b6040516104bb9190614729565b60405180910390f35b6104cc6118a3565b6040516104d99190614609565b60405180910390f35b6104ea6118c9565b005b610506600480360381019061050191906136cf565b611951565b005b610522600480360381019061051d9190613891565b611a93565b60405161052f9190614c1a565b60405180910390f35b610540611cd0565b60405161054d9190614c35565b60405180910390f35b61055e611ce6565b60405161056b9190614609565b60405180910390f35b61057c611d0c565b60405161058991906147ab565b60405180910390f35b61059a611d33565b6040516105a79190614609565b60405180910390f35b6105ca60048036038101906105c591906139f5565b611d5d565b005b6105e660048036038101906105e19190613932565b611e3e565b005b61060260048036038101906105fd91906138f6565b612103565b60405161061193929190614744565b60405180910390f35b610634600480360381019061062f9190613891565b6121b5565b60405161064393929190614744565b60405180910390f35b610666600480360381019061066191906138f6565b61226e565b60405161067391906148cb565b60405180910390f35b6106846124ba565b6040516106919190614609565b60405180910390f35b6106b460048036038101906106af91906138f6565b6124e4565b6040516106c19190614c1a565b60405180910390f35b6106d2612726565b6040516106df9190614609565b60405180910390f35b61070260048036038101906106fd91906136cf565b61274c565b005b61071e600480360381019061071991906139f5565b612982565b60405161072b9190614923565b60405180910390f35b61074e600480360381019061074991906136cf565b6129ea565b005b610758612ae2565b60405161076591906147ab565b60405180910390f35b610776612b09565b73ffffffffffffffffffffffffffffffffffffffff16610794611d33565b73ffffffffffffffffffffffffffffffffffffffff16146107ea576040517f08c379a00000000000000000000000000000000000000000000000000000000081526004016107e190614ada565b60405180910390fd5b6000606660009054906101000a900473ffffffffffffffffffffffffffffffffffffffff16905081606660006101000a81548173ffffffffffffffffffffffffffffffffffffffff021916908373ffffffffffffffffffffffffffffffffffffffff1602179055508173ffffffffffffffffffffffffffffffffffffffff168173ffffffffffffffffffffffffffffffffffffffff167f52ae88b092de36f87fb43fe794eb1381023b9c1bce563a871154022c63dce34260405160405180910390a35050565b60006108bc8888612982565b8051906020012090506000606b60008381526020019081526020016000205490506000801b811415610923576040517f08c379a000000000000000000000000000000000000000000000000000000000815260040161091a90614b7a565b60405180910390fd5b7fffffffffffffffffffffffffffffffffffffffffffffffffffffffffffffffff60001b811415610989576040517f08c379a000000000000000000000000000000000000000000000000000000000815260040161098090614b9a565b60405180910390fd5b600061099888888888886111db565b9050808985815181106109d4577f4e487b7100000000000000000000000000000000000000000000000000000000600052603260045260246000fd5b602002602001015114610a1c576040517f08c379a0000000000000000000000000000000000000000000000000000000008152600401610a1390614bfa565b60405180910390fd5b6000806000610a2b8542612103565b92509250925082610a71576040517f08c379a0000000000000000000000000000000000000000000000000000000008152600401610a68906149ba565b60405180910390fd5b42606a60009054906101000a900463ffffffff1663ffffffff1682610a969190614daf565b10610ad6576040517f08c379a0000000000000000000000000000000000000000000000000000000008152600401610acd90614b5a565b60405180910390fd5b600082806020019051810190610aec9190613868565b905080610b2e576040517f08c379a0000000000000000000000000000000000000000000000000000000008152600401610b2590614bba565b60405180910390fd5b6000606860149054906101000a900463ffffffff16905060008163ffffffff161480610b6b5750428163ffffffff1684610b689190614daf565b10155b610baa576040517f08c379a0000000000000000000000000000000000000000000000000000000008152600401610ba190614a3a565b60405180910390fd5b6000891480610c3357506069600089815260200190815260200160002060008f60018c610bd79190614ef8565b81518110610c0e577f4e487b7100000000000000000000000000000000000000000000000000000000600052603260045260246000fd5b6020026020010151815260200190815260200160002060009054906101000a900460ff165b610c72576040517f08c379a0000000000000000000000000000000000000000000000000000000008152600401610c699061497a565b60405180910390fd5b60696000898152602001908152602001600020600087815260200190815260200160002060009054906101000a900460ff1615610ce4576040517f08c379a0000000000000000000000000000000000000000000000000000000008152600401610cdb90614b3a565b60405180910390fd5b6001606960008a8152602001908152602001600020600088815260200190815260200160002060006101000a81548160ff021916908315150217905550610d2d8d8d8d8d612b11565b610d6c576040517f08c379a0000000000000000000000000000000000000000000000000000000008152600401610d6390614bda565b60405180910390fd5b505050505050505050505050505050565b606860009054906101000a900473ffffffffffffffffffffffffffffffffffffffff1681565b7f47e79534a245952e8b16893a336b85a3d9ea9fa8c573f3d803afb92a7946921860001b81565b6000606860149054906101000a900463ffffffff16905060008163ffffffff1611610e2a576040517f08c379a0000000000000000000000000000000000000000000000000000000008152600401610e21906149da565b60405180910390fd5b6000606b60008481526020019081526020016000205490507fffffffffffffffffffffffffffffffffffffffffffffffffffffffffffffffff60001b811415610ea8576040517f08c379a0000000000000000000000000000000000000000000000000000000008152600401610e9f906149fa565b60405180910390fd5b6000801b811415610eee576040517f08c379a0000000000000000000000000000000000000000000000000000000008152600401610ee590614b7a565b60405180910390fd5b6000806000610efd8442612103565b92509250925082610f43576040517f08c379a0000000000000000000000000000000000000000000000000000000008152600401610f3a906149ba565b60405180910390fd5b600082806020019051810190610f599190613868565b905080610f9b576040517f08c379a0000000000000000000000000000000000000000000000000000000008152600401610f9290614bba565b60405180910390fd5b428663ffffffff1683610fae9190614daf565b10610fee576040517f08c379a0000000000000000000000000000000000000000000000000000000008152600401610fe590614aba565b60405180910390fd5b7fffffffffffffffffffffffffffffffffffffffffffffffffffffffffffffffff60001b606b60008981526020019081526020016000208190555050505050505050565b61104286868686868660006108b0565b505050505050565b606860149054906101000a900463ffffffff1681565b600080600061106e85611a93565b905060008111156111cb5760008060009050600060018461108f9190614ef8565b9050600061109d89846124e4565b90508781106110b7576000809650965050505050506111d4565b6110c189836124e4565b9050878110156110dc576001829650965050505050506111d4565b5b6001156111c657826001600285856110f59190614ef8565b6110ff9190614e3c565b6111099190614daf565b6111139190614daf565b935061111f89856124e4565b9050878110156111715760006111418a60018761113c9190614daf565b6124e4565b905088811061115c57600185975097505050505050506111d4565b6001856111699190614daf565b9350506111c1565b60006111898a6001876111849190614ef8565b6124e4565b9050888110156111b057600180866111a19190614ef8565b975097505050505050506111d4565b6001856111bd9190614ef8565b9250505b6110dd565b505050505b60008092509250505b9250929050565b60006111ea8686868686611447565b80519060200120905095945050505050565b611204612b09565b73ffffffffffffffffffffffffffffffffffffffff16611222611d33565b73ffffffffffffffffffffffffffffffffffffffff1614611278576040517f08c379a000000000000000000000000000000000000000000000000000000000815260040161126f90614ada565b60405180910390fd5b60008163ffffffff1614806112b15750603c606a60009054906101000a900463ffffffff16826112a89190614f2c565b63ffffffff1610155b6112f0576040517f08c379a00000000000000000000000000000000000000000000000000000000081526004016112e790614a9a565b60405180910390fd5b80606860146101000a81548163ffffffff021916908363ffffffff16021790555050565b600080826040516020016113289190614923565b6040516020818303038152906040526040516020016113479190614945565b60405160208183030381529060405280519060200120905080915050919050565b606b6020528060005260406000206000915090505481565b6000804690508091505090565b611395612b09565b73ffffffffffffffffffffffffffffffffffffffff166113b3611d33565b73ffffffffffffffffffffffffffffffffffffffff1614611409576040517f08c379a000000000000000000000000000000000000000000000000000000000815260040161140090614ada565b60405180910390fd5b7fffffffffffffffffffffffffffffffffffffffffffffffffffffffffffffffff60001b606b60008381526020019081526020016000208190555050565b60606000611453611380565b905060007f47e79534a245952e8b16893a336b85a3d9ea9fa8c573f3d803afb92a7946921860001b823060405160200161148f93929190614879565b60405160208183030381529060405280519060200120905060007f72e9670a7ee00f5fbf1049b8c38e3f22fab7e9b85029e85cf9412f17fdd5c2ad60001b8989898051906020012089896040516020016114ee969594939291906147c6565b604051602081830303815290604052805190602001209050601960f81b600160f81b83836040516020016115259493929190614543565b604051602081830303815290604052935050505095945050505050565b6000807318431fd88adf138e8b979a7246eb58ea7126ea1673ffffffffffffffffffffffffffffffffffffffff16606860009054906101000a900473ffffffffffffffffffffffffffffffffffffffff1673ffffffffffffffffffffffffffffffffffffffff161480611616575073e8218cacb0a5421bc6409e498d9f8cc8869945ea73ffffffffffffffffffffffffffffffffffffffff16606860009054906101000a900473ffffffffffffffffffffffffffffffffffffffff1673ffffffffffffffffffffffffffffffffffffffff16145b156116e55760007388df592f8eb5d7bd38bfef7deb0fbc02cf3778a090508073ffffffffffffffffffffffffffffffffffffffff1663699f200f7fefa19baa864049f50491093580c5433e97e8d5e41f8db1a61108b4fa44cacd936040518263ffffffff1660e01b815260040161168d9190614908565b60206040518083038186803b1580156116a557600080fd5b505afa1580156116b9573d6000803e3d6000fd5b505050506040513d601f19601f820116820180604052508101906116dd91906136f8565b915050611788565b606860009054906101000a900473ffffffffffffffffffffffffffffffffffffffff1673ffffffffffffffffffffffffffffffffffffffff16635aa6e6756040518163ffffffff1660e01b815260040160206040518083038186803b15801561174d57600080fd5b505afa158015611761573d6000803e3d6000fd5b505050506040513d601f19601f8201168201806040525081019061178591906136f8565b90505b60008173ffffffffffffffffffffffffffffffffffffffff1663248638e586866040516020016117b9929190614591565b604051602081830303815290604052805190602001206040518263ffffffff1660e01b81526004016117eb91906147ab565b60006040518083038186803b15801561180357600080fd5b505afa158015611817573d6000803e3d6000fd5b505050506040513d6000823e3d601f19601f820116820180604052508101906118409190613827565b511191505092915050565b60006118578383612982565b905060008180519060200120905061186e8161138d565b50505050565b60696020528160005260406000206020528060005260406000206000915091509054906101000a900460ff1681565b606660009054906101000a900473ffffffffffffffffffffffffffffffffffffffff1681565b6118d1612b09565b73ffffffffffffffffffffffffffffffffffffffff166118ef611d33565b73ffffffffffffffffffffffffffffffffffffffff1614611945576040517f08c379a000000000000000000000000000000000000000000000000000000000815260040161193c90614ada565b60405180910390fd5b61194f6000612e06565b565b611959612b09565b73ffffffffffffffffffffffffffffffffffffffff16611977611d33565b73ffffffffffffffffffffffffffffffffffffffff16146119cd576040517f08c379a00000000000000000000000000000000000000000000000000000000081526004016119c490614ada565b60405180910390fd5b6000606760009054906101000a900473ffffffffffffffffffffffffffffffffffffffff16905081606760006101000a81548173ffffffffffffffffffffffffffffffffffffffff021916908373ffffffffffffffffffffffffffffffffffffffff1602179055508173ffffffffffffffffffffffffffffffffffffffff168173ffffffffffffffffffffffffffffffffffffffff167f90cc2f570a6eb594b1580ea3e41247d2d73a55281889e86bd4ec2fc29c7e62d660405160405180910390a35050565b60007318431fd88adf138e8b979a7246eb58ea7126ea1673ffffffffffffffffffffffffffffffffffffffff16606860009054906101000a900473ffffffffffffffffffffffffffffffffffffffff1673ffffffffffffffffffffffffffffffffffffffff161480611b66575073e8218cacb0a5421bc6409e498d9f8cc8869945ea73ffffffffffffffffffffffffffffffffffffffff16606860009054906101000a900473ffffffffffffffffffffffffffffffffffffffff1673ffffffffffffffffffffffffffffffffffffffff16145b15611c1d57606860009054906101000a900473ffffffffffffffffffffffffffffffffffffffff1673ffffffffffffffffffffffffffffffffffffffff166335e72432836040518263ffffffff1660e01b8152600401611bc691906147ab565b60206040518083038186803b158015611bde57600080fd5b505afa158015611bf2573d6000803e3d6000fd5b505050506040513d601f19601f82011682018060405250810190611c169190613c18565b9050611ccb565b606860009054906101000a900473ffffffffffffffffffffffffffffffffffffffff1673ffffffffffffffffffffffffffffffffffffffff166377b03e0d836040518263ffffffff1660e01b8152600401611c7891906147ab565b60206040518083038186803b158015611c9057600080fd5b505afa158015611ca4573d6000803e3d6000fd5b505050506040513d601f19601f82011682018060405250810190611cc89190613c18565b90505b919050565b606a60009054906101000a900463ffffffff1681565b606560009054906101000a900473ffffffffffffffffffffffffffffffffffffffff1681565b7f72e9670a7ee00f5fbf1049b8c38e3f22fab7e9b85029e85cf9412f17fdd5c2ad60001b81565b6000603360009054906101000a900473ffffffffffffffffffffffffffffffffffffffff16905090565b6000611d698383612982565b90506000818051906020012090506000801b606b60008381526020019081526020016000205414611dcf576040517f08c379a0000000000000000000000000000000000000000000000000000000008152600401611dc690614a1a565b60405180910390fd5b6000611dda85611314565b905080606b60008481526020019081526020016000208190555084604051611e0291906145bd565b6040518091039020817fd017d7c85eb4d3d4fc8c875e7d272062ad7dd797ccdb7b46b9c749a4e4864e3860405160405180910390a35050505050565b600080600080600085806020019051810190611e5a9190613721565b94509450945094509450611e6c612ecc565b600073ffffffffffffffffffffffffffffffffffffffff168473ffffffffffffffffffffffffffffffffffffffff161415611edc576040517f08c379a0000000000000000000000000000000000000000000000000000000008152600401611ed390614afa565b60405180910390fd5b600073ffffffffffffffffffffffffffffffffffffffff168373ffffffffffffffffffffffffffffffffffffffff161415611f4c576040517f08c379a0000000000000000000000000000000000000000000000000000000008152600401611f4390614a5a565b60405180910390fd5b60008163ffffffff161480611f735750603c8282611f6a9190614f2c565b63ffffffff1610155b611fb2576040517f08c379a0000000000000000000000000000000000000000000000000000000008152600401611fa990614a9a565b60405180910390fd5b83606660006101000a81548173ffffffffffffffffffffffffffffffffffffffff021916908373ffffffffffffffffffffffffffffffffffffffff16021790555082606760006101000a81548173ffffffffffffffffffffffffffffffffffffffff021916908373ffffffffffffffffffffffffffffffffffffffff16021790555080606860146101000a81548163ffffffff021916908363ffffffff16021790555081606a60006101000a81548163ffffffff021916908363ffffffff16021790555061207f856129ea565b8373ffffffffffffffffffffffffffffffffffffffff168573ffffffffffffffffffffffffffffffffffffffff163373ffffffffffffffffffffffffffffffffffffffff167fe778768f3eb9192e1211bb267a4ecc73dd1120cb72b45c562ddcb2dc8141b9d9866040516120f39190614609565b60405180910390a4505050505050565b6000606060008060006121168787611060565b915091508161214057600060405180602001604052806000815250600094509450945050506121ae565b600061214c88836124e4565b9050612158888261226e565b9450604051806020016040528060008152508051906020012085805190602001201461219057600185829550955095505050506121ae565b60006040518060200160405280600081525060009550955095505050505b9250925092565b600060606000806121c585611a93565b905060008114156121f057600060405180602001604052806000815250600093509350935050612267565b6000612208866001846122039190614ef8565b6124e4565b9050612214868261226e565b9350604051806020016040528060008152508051906020012084805190602001201461224b57600184829450945094505050612267565b6000604051806020016040528060008152508294509450945050505b9193909250565b60607318431fd88adf138e8b979a7246eb58ea7126ea1673ffffffffffffffffffffffffffffffffffffffff16606860009054906101000a900473ffffffffffffffffffffffffffffffffffffffff1673ffffffffffffffffffffffffffffffffffffffff161480612341575073e8218cacb0a5421bc6409e498d9f8cc8869945ea73ffffffffffffffffffffffffffffffffffffffff16606860009054906101000a900473ffffffffffffffffffffffffffffffffffffffff1673ffffffffffffffffffffffffffffffffffffffff16145b156123ff57606860009054906101000a900473ffffffffffffffffffffffffffffffffffffffff1673ffffffffffffffffffffffffffffffffffffffff16630b2d2b0d84846040518363ffffffff1660e01b81526004016123a3929190614850565b60006040518083038186803b1580156123bb57600080fd5b505afa1580156123cf573d6000803e3d6000fd5b505050506040513d6000823e3d601f19601f820116820180604052508101906123f89190613973565b90506124b4565b606860009054906101000a900473ffffffffffffffffffffffffffffffffffffffff1673ffffffffffffffffffffffffffffffffffffffff1663c5958af984846040518363ffffffff1660e01b815260040161245c929190614850565b60006040518083038186803b15801561247457600080fd5b505afa158015612488573d6000803e3d6000fd5b505050506040513d6000823e3d601f19601f820116820180604052508101906124b19190613973565b90505b92915050565b6000606560009054906101000a900473ffffffffffffffffffffffffffffffffffffffff16905090565b60007318431fd88adf138e8b979a7246eb58ea7126ea1673ffffffffffffffffffffffffffffffffffffffff16606860009054906101000a900473ffffffffffffffffffffffffffffffffffffffff1673ffffffffffffffffffffffffffffffffffffffff1614806125b7575073e8218cacb0a5421bc6409e498d9f8cc8869945ea73ffffffffffffffffffffffffffffffffffffffff16606860009054906101000a900473ffffffffffffffffffffffffffffffffffffffff1673ffffffffffffffffffffffffffffffffffffffff16145b1561267057606860009054906101000a900473ffffffffffffffffffffffffffffffffffffffff1673ffffffffffffffffffffffffffffffffffffffff16637c37b8b484846040518363ffffffff1660e01b8152600401612619929190614850565b60206040518083038186803b15801561263157600080fd5b505afa158015612645573d6000803e3d6000fd5b505050506040513d601f19601f820116820180604052508101906126699190613c18565b9050612720565b606860009054906101000a900473ffffffffffffffffffffffffffffffffffffffff1673ffffffffffffffffffffffffffffffffffffffff1663ce5e11bf84846040518363ffffffff1660e01b81526004016126cd929190614850565b60206040518083038186803b1580156126e557600080fd5b505afa1580156126f9573d6000803e3d6000fd5b505050506040513d601f19601f8201168201806040525081019061271d9190613c18565b90505b92915050565b606760009054906101000a900473ffffffffffffffffffffffffffffffffffffffff1681565b612754612b09565b73ffffffffffffffffffffffffffffffffffffffff16612772611d33565b73ffffffffffffffffffffffffffffffffffffffff16146127c8576040517f08c379a00000000000000000000000000000000000000000000000000000000081526004016127bf90614ada565b60405180910390fd5b600073ffffffffffffffffffffffffffffffffffffffff168173ffffffffffffffffffffffffffffffffffffffff16146128e5578073ffffffffffffffffffffffffffffffffffffffff166301ffc9a77fe6d7a83a000000000000000000000000000000000000000000000000000000006040518263ffffffff1660e01b815260040161285591906148b0565b60206040518083038186803b15801561286d57600080fd5b505afa158015612881573d6000803e3d6000fd5b505050506040513d601f19601f820116820180604052508101906128a59190613868565b6128e4576040517f08c379a00000000000000000000000000000000000000000000000000000000081526004016128db90614b1a565b60405180910390fd5b5b80606560006101000a81548173ffffffffffffffffffffffffffffffffffffffff021916908373ffffffffffffffffffffffffffffffffffffffff1602179055507f1151116914515bc0891ff9047a6cb32cf902546f83066499bcf8ba33d2353fa2606560009054906101000a900473ffffffffffffffffffffffffffffffffffffffff166040516129779190614609565b60405180910390a150565b606060006129b58360405160200161299a919061452c565b60405160208183030381529060405280519060200120612fb5565b90508362e2909f60e81b826040516020016129d2939291906145d4565b60405160208183030381529060405291505092915050565b6129f2612b09565b73ffffffffffffffffffffffffffffffffffffffff16612a10611d33565b73ffffffffffffffffffffffffffffffffffffffff1614612a66576040517f08c379a0000000000000000000000000000000000000000000000000000000008152600401612a5d90614ada565b60405180910390fd5b600073ffffffffffffffffffffffffffffffffffffffff168173ffffffffffffffffffffffffffffffffffffffff161415612ad6576040517f08c379a0000000000000000000000000000000000000000000000000000000008152600401612acd9061499a565b60405180910390fd5b612adf81612e06565b50565b7fffffffffffffffffffffffffffffffffffffffffffffffffffffffffffffffff60001b81565b600033905090565b60008073ffffffffffffffffffffffffffffffffffffffff16606560009054906101000a900473ffffffffffffffffffffffffffffffffffffffff1673ffffffffffffffffffffffffffffffffffffffff1614612c4357606560009054906101000a900473ffffffffffffffffffffffffffffffffffffffff1673ffffffffffffffffffffffffffffffffffffffff166375f0bb528686868660008060008060006040518060400160405280600281526020017f307800000000000000000000000000000000000000000000000000000000000081525060006040518c63ffffffff1660e01b8152600401612c109b9a99989796959493929190614670565b600060405180830381600087803b158015612c2a57600080fd5b505af1158015612c3e573d6000803e3d6000fd5b505050505b606760009054906101000a900473ffffffffffffffffffffffffffffffffffffffff1673ffffffffffffffffffffffffffffffffffffffff1663468721a7868686866040518563ffffffff1660e01b8152600401612ca49493929190614624565b602060405180830381600087803b158015612cbe57600080fd5b505af1158015612cd2573d6000803e3d6000fd5b505050506040513d601f19601f82011682018060405250810190612cf69190613868565b9050600073ffffffffffffffffffffffffffffffffffffffff16606560009054906101000a900473ffffffffffffffffffffffffffffffffffffffff1673ffffffffffffffffffffffffffffffffffffffff1614612dfe57606560009054906101000a900473ffffffffffffffffffffffffffffffffffffffff1673ffffffffffffffffffffffffffffffffffffffff1663932713687f3078000000000000000000000000000000000000000000000000000000000000836040518363ffffffff1660e01b8152600401612dcb929190614827565b600060405180830381600087803b158015612de557600080fd5b505af1158015612df9573d6000803e3d6000fd5b505050505b949350505050565b6000603360009054906101000a900473ffffffffffffffffffffffffffffffffffffffff16905081603360006101000a81548173ffffffffffffffffffffffffffffffffffffffff021916908373ffffffffffffffffffffffffffffffffffffffff1602179055508173ffffffffffffffffffffffffffffffffffffffff168173ffffffffffffffffffffffffffffffffffffffff167f8be0079c531659141344cd1fd0a4f28419497f9722a3daafe3b4186f6b6457e060405160405180910390a35050565b600060019054906101000a900460ff1680612ef2575060008054906101000a900460ff16155b612f31576040517f08c379a0000000000000000000000000000000000000000000000000000000008152600401612f2890614a7a565b60405180910390fd5b60008060019054906101000a900460ff161590508015612f81576001600060016101000a81548160ff02191690831515021790555060016000806101000a81548160ff0219169083151502179055505b612f8961319a565b612f91613273565b8015612fb25760008060016101000a81548160ff0219169083151502179055505b50565b60606000604067ffffffffffffffff811115612ffa577f4e487b7100000000000000000000000000000000000000000000000000000000600052604160045260246000fd5b6040519080825280601f01601f19166020018201604052801561302c5781602001600182028036833780820191505090505b50905060005b602081101561319057600060088261304a9190614e9e565b85901b60f81c905060006010826130619190614e6d565b9050600060108361307291906151bb565b905061307d8261335c565b8585600261308b9190614e9e565b815181106130c2577f4e487b7100000000000000000000000000000000000000000000000000000000600052603260045260246000fd5b60200101907effffffffffffffffffffffffffffffffffffffffffffffffffffffffffffff1916908160001a9053506130fa8161335c565b85600186600261310a9190614e9e565b6131149190614daf565b8151811061314b577f4e487b7100000000000000000000000000000000000000000000000000000000600052603260045260246000fd5b60200101907effffffffffffffffffffffffffffffffffffffffffffffffffffffffffffff1916908160001a90535050505080806131889061514a565b915050613032565b5080915050919050565b600060019054906101000a900460ff16806131c0575060008054906101000a900460ff16155b6131ff576040517f08c379a00000000000000000000000000000000000000000000000000000000081526004016131f690614a7a565b60405180910390fd5b60008060019054906101000a900460ff16159050801561324f576001600060016101000a81548160ff02191690831515021790555060016000806101000a81548160ff0219169083151502179055505b80156132705760008060016101000a81548160ff0219169083151502179055505b50565b600060019054906101000a900460ff1680613299575060008054906101000a900460ff16155b6132d8576040517f08c379a00000000000000000000000000000000000000000000000000000000081526004016132cf90614a7a565b60405180910390fd5b60008060019054906101000a900460ff161590508015613328576001600060016101000a81548160ff02191690831515021790555060016000806101000a81548160ff0219169083151502179055505b613338613333612b09565b612e06565b80156133595760008060016101000a81548160ff0219169083151502179055505b50565b6000600a8260ff161015613381576030826133779190614e05565b60f81b9050613394565b60578261338e9190614e05565b60f81b90505b919050565b60006133ac6133a784614c81565b614c50565b905080838252602082019050828560208602820111156133cb57600080fd5b60005b858110156133fb57816133e188826135d3565b8452602084019350602083019250506001810190506133ce565b5050509392505050565b600061341861341384614cad565b614c50565b9050808382526020820190508285602086028201111561343757600080fd5b60005b85811015613467578161344d8882613690565b84526020840193506020830192505060018101905061343a565b5050509392505050565b600061348461347f84614cd9565b614c50565b90508281526020810184848401111561349c57600080fd5b6134a7848285615108565b509392505050565b60006134c26134bd84614cd9565b614c50565b9050828152602081018484840111156134da57600080fd5b6134e5848285615117565b509392505050565b60006135006134fb84614d09565b614c50565b90508281526020810184848401111561351857600080fd5b613523848285615108565b509392505050565b60008135905061353a816152da565b92915050565b60008151905061354f816152da565b92915050565b600081519050613564816152f1565b92915050565b600082601f83011261357b57600080fd5b813561358b848260208601613399565b91505092915050565b600082601f8301126135a557600080fd5b81516135b5848260208601613405565b91505092915050565b6000815190506135cd81615308565b92915050565b6000813590506135e28161531f565b92915050565b600082601f8301126135f957600080fd5b8135613609848260208601613471565b91505092915050565b600082601f83011261362357600080fd5b81516136338482602086016134af565b91505092915050565b60008135905061364b81615336565b92915050565b600082601f83011261366257600080fd5b81356136728482602086016134ed565b91505092915050565b60008135905061368a81615346565b92915050565b60008151905061369f81615346565b92915050565b6000813590506136b48161535d565b92915050565b6000815190506136c98161535d565b92915050565b6000602082840312156136e157600080fd5b60006136ef8482850161352b565b91505092915050565b60006020828403121561370a57600080fd5b600061371884828501613540565b91505092915050565b600080600080600060a0868803121561373957600080fd5b600061374788828901613555565b955050602061375888828901613555565b945050604061376988828901613555565b935050606061377a888289016136ba565b925050608061378b888289016136ba565b9150509295509295909350565b600080600080600060a086880312156137b057600080fd5b60006137be8882890161352b565b95505060206137cf8882890161367b565b945050604086013567ffffffffffffffff8111156137ec57600080fd5b6137f8888289016135e8565b93505060606138098882890161363c565b925050608061381a8882890161367b565b9150509295509295909350565b60006020828403121561383957600080fd5b600082015167ffffffffffffffff81111561385357600080fd5b61385f84828501613594565b91505092915050565b60006020828403121561387a57600080fd5b6000613888848285016135be565b91505092915050565b6000602082840312156138a357600080fd5b60006138b1848285016135d3565b91505092915050565b600080604083850312156138cd57600080fd5b60006138db858286016135d3565b92505060206138ec858286016135d3565b9150509250929050565b6000806040838503121561390957600080fd5b6000613917858286016135d3565b92505060206139288582860161367b565b9150509250929050565b60006020828403121561394457600080fd5b600082013567ffffffffffffffff81111561395e57600080fd5b61396a848285016135e8565b91505092915050565b60006020828403121561398557600080fd5b600082015167ffffffffffffffff81111561399f57600080fd5b6139ab84828501613612565b91505092915050565b6000602082840312156139c657600080fd5b600082013567ffffffffffffffff8111156139e057600080fd5b6139ec84828501613651565b91505092915050565b60008060408385031215613a0857600080fd5b600083013567ffffffffffffffff811115613a2257600080fd5b613a2e85828601613651565b925050602083013567ffffffffffffffff811115613a4b57600080fd5b613a578582860161356a565b9150509250929050565b60008060008060008060c08789031215613a7a57600080fd5b600087013567ffffffffffffffff811115613a9457600080fd5b613aa089828a01613651565b965050602087013567ffffffffffffffff811115613abd57600080fd5b613ac989828a0161356a565b9550506040613ada89828a0161352b565b9450506060613aeb89828a0161367b565b935050608087013567ffffffffffffffff811115613b0857600080fd5b613b1489828a016135e8565b92505060a0613b2589828a0161363c565b9150509295509295509295565b600080600080600080600060e0888a031215613b4d57600080fd5b600088013567ffffffffffffffff811115613b6757600080fd5b613b738a828b01613651565b975050602088013567ffffffffffffffff811115613b9057600080fd5b613b9c8a828b0161356a565b9650506040613bad8a828b0161352b565b9550506060613bbe8a828b0161367b565b945050608088013567ffffffffffffffff811115613bdb57600080fd5b613be78a828b016135e8565b93505060a0613bf88a828b0161363c565b92505060c0613c098a828b0161367b565b91505092959891949750929550565b600060208284031215613c2a57600080fd5b6000613c3884828501613690565b91505092915050565b600060208284031215613c5357600080fd5b6000613c61848285016136a5565b91505092915050565b6000613c768383613d33565b60208301905092915050565b613c8b81614f72565b82525050565b613c9a81614f60565b82525050565b6000613cab82614d49565b613cb58185614d77565b9350613cc083614d39565b8060005b83811015613cf1578151613cd88882613c6a565b9750613ce383614d6a565b925050600181019050613cc4565b5085935050505092915050565b613d0781614f84565b82525050565b613d1e613d1982614f90565b615193565b82525050565b613d2d81614fe8565b82525050565b613d3c81614fe8565b82525050565b613d53613d4e82614fe8565b6151a7565b82525050565b613d6a613d6582614fbc565b61519d565b82525050565b613d7981614ff2565b82525050565b6000613d8a82614d54565b613d948185614d82565b9350613da4818560208601615117565b613dad816152a8565b840191505092915050565b613dc181615082565b82525050565b613dd0816150a6565b82525050565b613ddf816150ca565b82525050565b613dee816150dc565b82525050565b613dfd816150ee565b82525050565b6000613e0e82614d5f565b613e188185614d93565b9350613e28818560208601615117565b613e31816152a8565b840191505092915050565b6000613e4782614d5f565b613e518185614da4565b9350613e61818560208601615117565b80840191505092915050565b6000613e7a600883614d93565b91507f536e617073686f740000000000000000000000000000000000000000000000006000830152602082019050919050565b6000613eba602583614d93565b91507f50726576696f7573207472616e73616374696f6e206e6f74206578656375746560008301527f64207965740000000000000000000000000000000000000000000000000000006020830152604082019050919050565b6000613f20602683614d93565b91507f4f776e61626c653a206e6577206f776e657220697320746865207a65726f206160008301527f64647265737300000000000000000000000000000000000000000000000000006020830152604082019050919050565b6000613f86601283614d93565b91507f44617461206e6f742072657472696576656400000000000000000000000000006000830152602082019050919050565b6000613fc6601983614d93565b91507f526573756c7473206172652076616c696420666f7265766572000000000000006000830152602082019050919050565b6000614006601f83614d93565b91507f50726f706f73616c20697320616c726561647920696e76616c696461746564006000830152602082019050919050565b6000614046602383614d93565b91507f50726f706f73616c2068617320616c7265616479206265656e207375626d697460008301527f74656400000000000000000000000000000000000000000000000000000000006020830152604082019050919050565b60006140ac601283614d93565b91507f526573756c7420686173206578706972656400000000000000000000000000006000830152602082019050919050565b60006140ec601e83614d93565b91507f5461726765742063616e206e6f74206265207a65726f206164647265737300006000830152602082019050919050565b600061412c602e83614d93565b91507f496e697469616c697a61626c653a20636f6e747261637420697320616c72656160008301527f647920696e697469616c697a65640000000000000000000000000000000000006020830152604082019050919050565b6000614192604483614d93565b91507f5468657265206e65656420746f206265206174206c656173742036307320626560008301527f747765656e20656e64206f6620636f6f6c646f776e20616e642065787069726160208301527f74696f6e000000000000000000000000000000000000000000000000000000006040830152606082019050919050565b600061421e601a83614d93565b91507f526573756c7420686173206e6f742065787069726564207965740000000000006000830152602082019050919050565b600061425e602083614d93565b91507f4f776e61626c653a2063616c6c6572206973206e6f7420746865206f776e65726000830152602082019050919050565b600061429e601e83614d93565b91507f4176617461722063616e206e6f74206265207a65726f206164647265737300006000830152602082019050919050565b60006142de602083614d93565b91507f477561726420646f6573206e6f7420696d706c656d656e7420494552433136356000830152602082019050919050565b600061431e602083614d93565b91507f43616e6e6f742065786563757465207472616e73616374696f6e20616761696e6000830152602082019050919050565b600061435e601c83614d93565b91507f5761697420666f72206164646974696f6e616c20636f6f6c646f776e000000006000830152602082019050919050565b600061439e602583614d93565b91507f4e6f2071756572792069642073657420666f722070726f76696465642070726f60008301527f706f73616c0000000000000000000000000000000000000000000000000000006020830152604082019050919050565b6000614404601d83614d93565b91507f50726f706f73616c20686173206265656e20696e76616c6964617465640000006000830152602082019050919050565b6000614444601c83614d93565b91507f5472616e73616374696f6e20776173206e6f7420617070726f766564000000006000830152602082019050919050565b6000614484601983614d93565b91507f4d6f64756c65207472616e73616374696f6e206661696c6564000000000000006000830152602082019050919050565b60006144c4601b83614d93565b91507f556e6578706563746564207472616e73616374696f6e206861736800000000006000830152602082019050919050565b6145008161505b565b82525050565b6145176145128261505b565b6151b1565b82525050565b61452681615065565b82525050565b60006145388284613ca0565b915081905092915050565b600061454f8287613d0d565b60018201915061455f8286613d0d565b60018201915061456f8285613d42565b60208201915061457f8284613d42565b60208201915081905095945050505050565b600061459d8285613d42565b6020820191506145ad8284614506565b6020820191508190509392505050565b60006145c98284613e3c565b915081905092915050565b60006145e08286613e3c565b91506145ec8285613d59565b6003820191506145fc8284613e3c565b9150819050949350505050565b600060208201905061461e6000830184613c91565b92915050565b60006080820190506146396000830187613c91565b61464660208301866144f7565b81810360408301526146588185613d7f565b90506146676060830184613dd6565b95945050505050565b600061016082019050614686600083018e613c91565b614693602083018d6144f7565b81810360408301526146a5818c613d7f565b90506146b4606083018b613dd6565b6146c1608083018a613de5565b6146ce60a0830189613de5565b6146db60c0830188613de5565b6146e860e0830187613c91565b6146f6610100830186613c82565b8181036101208301526147098185613d7f565b9050614719610140830184613c91565b9c9b505050505050505050505050565b600060208201905061473e6000830184613cfe565b92915050565b60006060820190506147596000830186613cfe565b818103602083015261476b8185613d7f565b905061477a60408301846144f7565b949350505050565b60006040820190506147976000830185613cfe565b6147a460208301846144f7565b9392505050565b60006020820190506147c06000830184613d24565b92915050565b600060c0820190506147db6000830189613d24565b6147e86020830188613c91565b6147f560408301876144f7565b6148026060830186613d24565b61480f6080830185613dd6565b61481c60a08301846144f7565b979650505050505050565b600060408201905061483c6000830185613d24565b6148496020830184613cfe565b9392505050565b60006040820190506148656000830185613d24565b61487260208301846144f7565b9392505050565b600060608201905061488e6000830186613d24565b61489b60208301856144f7565b6148a86040830184613dc7565b949350505050565b60006020820190506148c56000830184613d70565b92915050565b600060208201905081810360008301526148e58184613d7f565b905092915050565b60006020820190506149026000830184613db8565b92915050565b600060208201905061491d6000830184613df4565b92915050565b6000602082019050818103600083015261493d8184613e03565b905092915050565b6000604082019050818103600083015261495e81613e6d565b905081810360208301526149728184613d7f565b905092915050565b6000602082019050818103600083015261499381613ead565b9050919050565b600060208201905081810360008301526149b381613f13565b9050919050565b600060208201905081810360008301526149d381613f79565b9050919050565b600060208201905081810360008301526149f381613fb9565b9050919050565b60006020820190508181036000830152614a1381613ff9565b9050919050565b60006020820190508181036000830152614a3381614039565b9050919050565b60006020820190508181036000830152614a538161409f565b9050919050565b60006020820190508181036000830152614a73816140df565b9050919050565b60006020820190508181036000830152614a938161411f565b9050919050565b60006020820190508181036000830152614ab381614185565b9050919050565b60006020820190508181036000830152614ad381614211565b9050919050565b60006020820190508181036000830152614af381614251565b9050919050565b60006020820190508181036000830152614b1381614291565b9050919050565b60006020820190508181036000830152614b33816142d1565b9050919050565b60006020820190508181036000830152614b5381614311565b9050919050565b60006020820190508181036000830152614b7381614351565b9050919050565b60006020820190508181036000830152614b9381614391565b9050919050565b60006020820190508181036000830152614bb3816143f7565b9050919050565b60006020820190508181036000830152614bd381614437565b9050919050565b60006020820190508181036000830152614bf381614477565b9050919050565b60006020820190508181036000830152614c13816144b7565b9050919050565b6000602082019050614c2f60008301846144f7565b92915050565b6000602082019050614c4a600083018461451d565b92915050565b6000604051905081810181811067ffffffffffffffff82111715614c7757614c76615279565b5b8060405250919050565b600067ffffffffffffffff821115614c9c57614c9b615279565b5b602082029050602081019050919050565b600067ffffffffffffffff821115614cc857614cc7615279565b5b602082029050602081019050919050565b600067ffffffffffffffff821115614cf457614cf3615279565b5b601f19601f8301169050602081019050919050565b600067ffffffffffffffff821115614d2457614d23615279565b5b601f19601f8301169050602081019050919050565b6000819050602082019050919050565b600081519050919050565b600081519050919050565b600081519050919050565b6000602082019050919050565b600081905092915050565b600082825260208201905092915050565b600082825260208201905092915050565b600081905092915050565b6000614dba8261505b565b9150614dc58361505b565b9250827fffffffffffffffffffffffffffffffffffffffffffffffffffffffffffffffff03821115614dfa57614df96151ec565b5b828201905092915050565b6000614e1082615075565b9150614e1b83615075565b92508260ff03821115614e3157614e306151ec565b5b828201905092915050565b6000614e478261505b565b9150614e528361505b565b925082614e6257614e6161521b565b5b828204905092915050565b6000614e7882615075565b9150614e8383615075565b925082614e9357614e9261521b565b5b828204905092915050565b6000614ea98261505b565b9150614eb48361505b565b9250817fffffffffffffffffffffffffffffffffffffffffffffffffffffffffffffffff0483118215151615614eed57614eec6151ec565b5b828202905092915050565b6000614f038261505b565b9150614f0e8361505b565b925082821015614f2157614f206151ec565b5b828203905092915050565b6000614f3782615065565b9150614f4283615065565b925082821015614f5557614f546151ec565b5b828203905092915050565b6000614f6b8261503b565b9050919050565b6000614f7d8261503b565b9050919050565b60008115159050919050565b60007fff0000000000000000000000000000000000000000000000000000000000000082169050919050565b60007fffffff000000000000000000000000000000000000000000000000000000000082169050919050565b6000819050919050565b60007fffffffff0000000000000000000000000000000000000000000000000000000082169050919050565b600081905061502c826152c6565b919050565b6000819050919050565b600073ffffffffffffffffffffffffffffffffffffffff82169050919050565b6000819050919050565b600063ffffffff82169050919050565b600060ff82169050919050565b600061508d82615094565b9050919050565b600061509f8261503b565b9050919050565b60006150b1826150b8565b9050919050565b60006150c38261503b565b9050919050565b60006150d58261501e565b9050919050565b60006150e78261505b565b9050919050565b60006151016150fc83615031565b6152b9565b9050919050565b82818337600083830152505050565b60005b8381101561513557808201518184015260208101905061511a565b83811115615144576000848401525b50505050565b60006151558261505b565b91507fffffffffffffffffffffffffffffffffffffffffffffffffffffffffffffffff821415615188576151876151ec565b5b600182019050919050565b6000819050919050565b6000819050919050565b6000819050919050565b6000819050919050565b60006151c682615075565b91506151d183615075565b9250826151e1576151e061521b565b5b828206905092915050565b7f4e487b7100000000000000000000000000000000000000000000000000000000600052601160045260246000fd5b7f4e487b7100000000000000000000000000000000000000000000000000000000600052601260045260246000fd5b7f4e487b7100000000000000000000000000000000000000000000000000000000600052602160045260246000fd5b7f4e487b7100000000000000000000000000000000000000000000000000000000600052604160045260246000fd5b6000601f19601f8301169050919050565b60008160001b9050919050565b600281106152d7576152d661524a565b5b50565b6152e381614f60565b81146152ee57600080fd5b50565b6152fa81614f72565b811461530557600080fd5b50565b61531181614f84565b811461531c57600080fd5b50565b61532881614fe8565b811461533357600080fd5b50565b6002811061534357600080fd5b50565b61534f8161505b565b811461535a57600080fd5b50565b61536681615065565b811461537157600080fd5b5056fea2646970667358221220abe912aa7b11f6669608b967c7f6a9aa0305daad01fed63f0a66bc2ab9e6270064736f6c63430008000033",
    "linkReferences": {},
    "deployedLinkReferences": {}
}