{
  "_format": "hh-sol-artifact-1",
  "contractName": "TellorModule",
  "sourceName": "contracts/TellorModule.sol",
  "abi": [
    {
      "inputs": [
        {
          "internalType": "address",
          "name": "_avatar",
          "type": "address"
        },
        {
          "internalType": "address",
          "name": "_target",
          "type": "address"
        },
        {
          "internalType": "address payable",
          "name": "_tellorAddress",
          "type": "address"
        },
        {
          "internalType": "uint32",
          "name": "_cooldown",
          "type": "uint32"
        },
        {
          "internalType": "uint32",
          "name": "_expiration",
          "type": "uint32"
        }
      ],
      "stateMutability": "nonpayable",
      "type": "constructor"
    },
    {
      "anonymous": false,
      "inputs": [
        {
          "indexed": true,
          "internalType": "address",
          "name": "previousAvatar",
          "type": "address"
        },
        {
          "indexed": true,
          "internalType": "address",
          "name": "newAvatar",
          "type": "address"
        }
      ],
      "name": "AvatarSet",
      "type": "event"
    },
    {
      "anonymous": false,
      "inputs": [
        {
          "indexed": false,
          "internalType": "address",
          "name": "guard",
          "type": "address"
        }
      ],
      "name": "ChangedGuard",
      "type": "event"
    },
    {
      "anonymous": false,
      "inputs": [
        {
          "indexed": true,
          "internalType": "address",
          "name": "previousOwner",
          "type": "address"
        },
        {
          "indexed": true,
          "internalType": "address",
          "name": "newOwner",
          "type": "address"
        }
      ],
      "name": "OwnershipTransferred",
      "type": "event"
    },
    {
      "anonymous": false,
      "inputs": [
        {
          "indexed": true,
          "internalType": "bytes32",
          "name": "queryId",
          "type": "bytes32"
        },
        {
          "indexed": true,
          "internalType": "string",
          "name": "proposalId",
          "type": "string"
        }
      ],
      "name": "ProposalAdded",
      "type": "event"
    },
    {
      "anonymous": false,
      "inputs": [
        {
          "indexed": true,
          "internalType": "address",
          "name": "previousTarget",
          "type": "address"
        },
        {
          "indexed": true,
          "internalType": "address",
          "name": "newTarget",
          "type": "address"
        }
      ],
      "name": "TargetSet",
      "type": "event"
    },
    {
      "anonymous": false,
      "inputs": [
        {
          "indexed": true,
          "internalType": "address",
          "name": "initiator",
          "type": "address"
        },
        {
          "indexed": true,
          "internalType": "address",
          "name": "avatar",
          "type": "address"
        },
        {
          "indexed": false,
          "internalType": "address",
          "name": "target",
          "type": "address"
        }
      ],
      "name": "TellorModuleSetup",
      "type": "event"
    },
    {
      "inputs": [],
      "name": "DOMAIN_SEPARATOR_TYPEHASH",
      "outputs": [
        {
          "internalType": "bytes32",
          "name": "",
          "type": "bytes32"
        }
      ],
      "stateMutability": "view",
      "type": "function"
    },
    {
      "inputs": [],
      "name": "INVALIDATED",
      "outputs": [
        {
          "internalType": "bytes32",
          "name": "",
          "type": "bytes32"
        }
      ],
      "stateMutability": "view",
      "type": "function"
    },
    {
      "inputs": [],
      "name": "TRANSACTION_TYPEHASH",
      "outputs": [
        {
          "internalType": "bytes32",
          "name": "",
          "type": "bytes32"
        }
      ],
      "stateMutability": "view",
      "type": "function"
    },
    {
      "inputs": [
        {
          "internalType": "string",
          "name": "_proposalId",
          "type": "string"
        },
        {
          "internalType": "bytes32[]",
          "name": "_txHashes",
          "type": "bytes32[]"
        }
      ],
      "name": "addProposal",
      "outputs": [],
      "stateMutability": "nonpayable",
      "type": "function"
    },
    {
      "inputs": [],
      "name": "avatar",
      "outputs": [
        {
          "internalType": "address",
          "name": "",
          "type": "address"
        }
      ],
      "stateMutability": "view",
      "type": "function"
    },
    {
      "inputs": [
        {
          "internalType": "string",
          "name": "_proposalId",
          "type": "string"
        },
        {
          "internalType": "bytes32[]",
          "name": "_txHashes",
          "type": "bytes32[]"
        }
      ],
      "name": "buildProposal",
      "outputs": [
        {
          "internalType": "string",
          "name": "",
          "type": "string"
        }
      ],
      "stateMutability": "pure",
      "type": "function"
    },
    {
      "inputs": [],
      "name": "cooldown",
      "outputs": [
        {
          "internalType": "uint32",
          "name": "",
          "type": "uint32"
        }
      ],
      "stateMutability": "view",
      "type": "function"
    },
    {
      "inputs": [
        {
          "internalType": "string",
          "name": "_proposalId",
          "type": "string"
        },
        {
          "internalType": "bytes32[]",
          "name": "_txHashes",
          "type": "bytes32[]"
        },
        {
          "internalType": "address",
          "name": "_to",
          "type": "address"
        },
        {
          "internalType": "uint256",
          "name": "_value",
          "type": "uint256"
        },
        {
          "internalType": "bytes",
          "name": "_data",
          "type": "bytes"
        },
        {
          "internalType": "enum Enum.Operation",
          "name": "_operation",
          "type": "uint8"
        }
      ],
      "name": "executeProposal",
      "outputs": [],
      "stateMutability": "nonpayable",
      "type": "function"
    },
    {
      "inputs": [
        {
          "internalType": "string",
          "name": "_proposalId",
          "type": "string"
        },
        {
          "internalType": "bytes32[]",
          "name": "_txHashes",
          "type": "bytes32[]"
        },
        {
          "internalType": "address",
          "name": "_to",
          "type": "address"
        },
        {
          "internalType": "uint256",
          "name": "_value",
          "type": "uint256"
        },
        {
          "internalType": "bytes",
          "name": "_data",
          "type": "bytes"
        },
        {
          "internalType": "enum Enum.Operation",
          "name": "_operation",
          "type": "uint8"
        },
        {
          "internalType": "uint256",
          "name": "_txIndex",
          "type": "uint256"
        }
      ],
      "name": "executeProposalWithIndex",
      "outputs": [],
      "stateMutability": "nonpayable",
      "type": "function"
    },
    {
      "inputs": [
        {
          "internalType": "bytes32",
          "name": "",
          "type": "bytes32"
        },
        {
          "internalType": "bytes32",
          "name": "",
          "type": "bytes32"
        }
      ],
      "name": "executedProposalTransactions",
      "outputs": [
        {
          "internalType": "bool",
          "name": "",
          "type": "bool"
        }
      ],
      "stateMutability": "view",
      "type": "function"
    },
    {
      "inputs": [],
      "name": "getChainId",
      "outputs": [
        {
          "internalType": "uint256",
          "name": "",
          "type": "uint256"
        }
      ],
      "stateMutability": "view",
      "type": "function"
    },
    {
      "inputs": [
        {
          "internalType": "bytes32",
          "name": "_queryId",
          "type": "bytes32"
        }
      ],
      "name": "getCurrentValue",
      "outputs": [
        {
          "internalType": "bool",
          "name": "_ifRetrieve",
          "type": "bool"
        },
        {
          "internalType": "bytes",
          "name": "_value",
          "type": "bytes"
        },
        {
          "internalType": "uint256",
          "name": "_timestampRetrieved",
          "type": "uint256"
        }
      ],
      "stateMutability": "view",
      "type": "function"
    },
    {
      "inputs": [
        {
          "internalType": "bytes32",
          "name": "_queryId",
          "type": "bytes32"
        },
        {
          "internalType": "uint256",
          "name": "_timestamp",
          "type": "uint256"
        }
      ],
      "name": "getDataBefore",
      "outputs": [
        {
          "internalType": "bool",
          "name": "_ifRetrieve",
          "type": "bool"
        },
        {
          "internalType": "bytes",
          "name": "_value",
          "type": "bytes"
        },
        {
          "internalType": "uint256",
          "name": "_timestampRetrieved",
          "type": "uint256"
        }
      ],
      "stateMutability": "view",
      "type": "function"
    },
    {
      "inputs": [],
      "name": "getGuard",
      "outputs": [
        {
          "internalType": "address",
          "name": "_guard",
          "type": "address"
        }
      ],
      "stateMutability": "view",
      "type": "function"
    },
    {
      "inputs": [
        {
          "internalType": "bytes32",
          "name": "_queryId",
          "type": "bytes32"
        },
        {
          "internalType": "uint256",
          "name": "_timestamp",
          "type": "uint256"
        }
      ],
      "name": "getIndexForDataBefore",
      "outputs": [
        {
          "internalType": "bool",
          "name": "_found",
          "type": "bool"
        },
        {
          "internalType": "uint256",
          "name": "_index",
          "type": "uint256"
        }
      ],
      "stateMutability": "view",
      "type": "function"
    },
    {
      "inputs": [
        {
          "internalType": "bytes32",
          "name": "_queryId",
          "type": "bytes32"
        }
      ],
      "name": "getNewValueCountbyQueryId",
      "outputs": [
        {
          "internalType": "uint256",
          "name": "",
          "type": "uint256"
        }
      ],
      "stateMutability": "view",
      "type": "function"
    },
    {
      "inputs": [
        {
          "internalType": "string",
          "name": "_proposalId",
          "type": "string"
        }
      ],
      "name": "getQueryId",
      "outputs": [
        {
          "internalType": "bytes32",
          "name": "",
          "type": "bytes32"
        }
      ],
      "stateMutability": "pure",
      "type": "function"
    },
    {
      "inputs": [
        {
          "internalType": "bytes32",
          "name": "_queryId",
          "type": "bytes32"
        },
        {
          "internalType": "uint256",
          "name": "_index",
          "type": "uint256"
        }
      ],
      "name": "getTimestampbyQueryIdandIndex",
      "outputs": [
        {
          "internalType": "uint256",
          "name": "",
          "type": "uint256"
        }
      ],
      "stateMutability": "view",
      "type": "function"
    },
    {
      "inputs": [
        {
          "internalType": "address",
          "name": "_to",
          "type": "address"
        },
        {
          "internalType": "uint256",
          "name": "_value",
          "type": "uint256"
        },
        {
          "internalType": "bytes",
          "name": "_data",
          "type": "bytes"
        },
        {
          "internalType": "enum Enum.Operation",
          "name": "_operation",
          "type": "uint8"
        },
        {
          "internalType": "uint256",
          "name": "_nonce",
          "type": "uint256"
        }
      ],
      "name": "getTransactionHash",
      "outputs": [
        {
          "internalType": "bytes32",
          "name": "",
          "type": "bytes32"
        }
      ],
      "stateMutability": "view",
      "type": "function"
    },
    {
      "inputs": [],
      "name": "guard",
      "outputs": [
        {
          "internalType": "address",
          "name": "",
          "type": "address"
        }
      ],
      "stateMutability": "view",
      "type": "function"
    },
    {
      "inputs": [
        {
          "internalType": "bytes32",
          "name": "_queryId",
          "type": "bytes32"
        },
        {
          "internalType": "uint256",
          "name": "_timestamp",
          "type": "uint256"
        }
      ],
      "name": "isInDispute",
      "outputs": [
        {
          "internalType": "bool",
          "name": "",
          "type": "bool"
        }
      ],
      "stateMutability": "view",
      "type": "function"
    },
    {
      "inputs": [
        {
          "internalType": "bytes32",
          "name": "_proposalHash",
          "type": "bytes32"
        }
      ],
      "name": "markProposalWithExpiredResultAsInvalid",
      "outputs": [],
      "stateMutability": "nonpayable",
      "type": "function"
    },
    {
      "inputs": [],
      "name": "owner",
      "outputs": [
        {
          "internalType": "address",
          "name": "",
          "type": "address"
        }
      ],
      "stateMutability": "view",
      "type": "function"
    },
    {
      "inputs": [
        {
          "internalType": "bytes32",
          "name": "",
          "type": "bytes32"
        }
      ],
      "name": "queryIds",
      "outputs": [
        {
          "internalType": "bytes32",
          "name": "",
          "type": "bytes32"
        }
      ],
      "stateMutability": "view",
      "type": "function"
    },
    {
      "inputs": [],
      "name": "renounceOwnership",
      "outputs": [],
      "stateMutability": "nonpayable",
      "type": "function"
    },
    {
      "inputs": [],
      "name": "resultExpiration",
      "outputs": [
        {
          "internalType": "uint32",
          "name": "",
          "type": "uint32"
        }
      ],
      "stateMutability": "view",
      "type": "function"
    },
    {
      "inputs": [
        {
          "internalType": "bytes32",
          "name": "_queryId",
          "type": "bytes32"
        },
        {
          "internalType": "uint256",
          "name": "_timestamp",
          "type": "uint256"
        }
      ],
      "name": "retrieveData",
      "outputs": [
        {
          "internalType": "bytes",
          "name": "",
          "type": "bytes"
        }
      ],
      "stateMutability": "view",
      "type": "function"
    },
    {
      "inputs": [
        {
          "internalType": "address",
          "name": "_avatar",
          "type": "address"
        }
      ],
      "name": "setAvatar",
      "outputs": [],
      "stateMutability": "nonpayable",
      "type": "function"
    },
    {
      "inputs": [
        {
          "internalType": "address",
          "name": "_guard",
          "type": "address"
        }
      ],
      "name": "setGuard",
      "outputs": [],
      "stateMutability": "nonpayable",
      "type": "function"
    },
    {
      "inputs": [
        {
          "internalType": "address",
          "name": "_target",
          "type": "address"
        }
      ],
      "name": "setTarget",
      "outputs": [],
      "stateMutability": "nonpayable",
      "type": "function"
    },
    {
      "inputs": [
        {
          "internalType": "bytes",
          "name": "_initParams",
          "type": "bytes"
        }
      ],
      "name": "setUp",
      "outputs": [],
      "stateMutability": "nonpayable",
      "type": "function"
    },
    {
      "inputs": [],
      "name": "target",
      "outputs": [
        {
          "internalType": "address",
          "name": "",
          "type": "address"
        }
      ],
      "stateMutability": "view",
      "type": "function"
    },
    {
      "inputs": [],
      "name": "tellor",
      "outputs": [
        {
          "internalType": "contract ITellor",
          "name": "",
          "type": "address"
        }
      ],
      "stateMutability": "view",
      "type": "function"
    },
    {
      "inputs": [
        {
          "internalType": "address",
          "name": "newOwner",
          "type": "address"
        }
      ],
      "name": "transferOwnership",
      "outputs": [],
      "stateMutability": "nonpayable",
      "type": "function"
    }
  ],
  "bytecode": "0x60806040523480156200001157600080fd5b506040516200570b3803806200570b83398181016040528101906200003791906200048a565b8280606860006101000a81548173ffffffffffffffffffffffffffffffffffffffff021916908373ffffffffffffffffffffffffffffffffffffffff16021790555050600085858484604051602001620000959493929190620006c5565b6040516020818303038152906040529050620000b781620000c360201b60201c565b505050505050620008bb565b60008060008084806020019051810190620000df91906200041e565b9350935093509350606860149054906101000a900460ff16156200013a576040517f08c379a0000000000000000000000000000000000000000000000000000000008152600401620001319062000734565b60405180910390fd5b6001606860146101000a81548160ff021916908315150217905550600073ffffffffffffffffffffffffffffffffffffffff168473ffffffffffffffffffffffffffffffffffffffff161415620001c8576040517f08c379a0000000000000000000000000000000000000000000000000000000008152600401620001bf9062000778565b60405180910390fd5b600073ffffffffffffffffffffffffffffffffffffffff168373ffffffffffffffffffffffffffffffffffffffff1614156200023b576040517f08c379a0000000000000000000000000000000000000000000000000000000008152600401620002329062000712565b60405180910390fd5b60008163ffffffff161480620002655750603c82826200025c9190620007ab565b63ffffffff1610155b620002a7576040517f08c379a00000000000000000000000000000000000000000000000000000000081526004016200029e9062000756565b60405180910390fd5b83606660006101000a81548173ffffffffffffffffffffffffffffffffffffffff021916908373ffffffffffffffffffffffffffffffffffffffff16021790555082606760006101000a81548173ffffffffffffffffffffffffffffffffffffffff021916908373ffffffffffffffffffffffffffffffffffffffff16021790555080606860156101000a81548163ffffffff021916908363ffffffff16021790555081606a60006101000a81548163ffffffff021916908363ffffffff1602179055508373ffffffffffffffffffffffffffffffffffffffff163373ffffffffffffffffffffffffffffffffffffffff167f8cf089e89d710ad7a888a28dd8f52df5b7e0d21ef9001a76e4688b06f549391c85604051620003ca9190620006a8565b60405180910390a35050505050565b600081519050620003ea816200086d565b92915050565b600081519050620004018162000887565b92915050565b6000815190506200041881620008a1565b92915050565b600080600080608085870312156200043557600080fd5b60006200044587828801620003f0565b94505060206200045887828801620003f0565b93505060406200046b8782880162000407565b92505060606200047e8782880162000407565b91505092959194509250565b600080600080600060a08688031215620004a357600080fd5b6000620004b388828901620003d9565b9550506020620004c688828901620003d9565b9450506040620004d988828901620003f0565b9350506060620004ec8882890162000407565b9250506080620004ff8882890162000407565b9150509295509295909350565b6200051781620007e6565b82525050565b60006200052c601e836200079a565b91507f5461726765742063616e206e6f74206265207a65726f206164647265737300006000830152602082019050919050565b60006200056e602e836200079a565b91507f496e697469616c697a61626c653a20636f6e747261637420697320616c72656160008301527f647920696e697469616c697a65640000000000000000000000000000000000006020830152604082019050919050565b6000620005d66044836200079a565b91507f5468657265206e65656420746f206265206174206c656173742036307320626560008301527f747765656e20656e64206f6620636f6f6c646f776e20616e642065787069726160208301527f74696f6e000000000000000000000000000000000000000000000000000000006040830152606082019050919050565b600062000664601e836200079a565b91507f4176617461722063616e206e6f74206265207a65726f206164647265737300006000830152602082019050919050565b620006a2816200082e565b82525050565b6000602082019050620006bf60008301846200050c565b92915050565b6000608082019050620006dc60008301876200050c565b620006eb60208301866200050c565b620006fa604083018562000697565b62000709606083018462000697565b95945050505050565b600060208201905081810360008301526200072d816200051d565b9050919050565b600060208201905081810360008301526200074f816200055f565b9050919050565b600060208201905081810360008301526200077181620005c7565b9050919050565b60006020820190508181036000830152620007938162000655565b9050919050565b600082825260208201905092915050565b6000620007b8826200082e565b9150620007c5836200082e565b925082821015620007db57620007da6200083e565b5b828203905092915050565b6000620007f3826200080e565b9050919050565b600062000807826200080e565b9050919050565b600073ffffffffffffffffffffffffffffffffffffffff82169050919050565b600063ffffffff82169050919050565b7f4e487b7100000000000000000000000000000000000000000000000000000000600052601160045260246000fd5b6200087881620007e6565b81146200088457600080fd5b50565b6200089281620007fa565b81146200089e57600080fd5b50565b620008ac816200082e565b8114620008b857600080fd5b50565b614e4080620008cb6000396000f3fe608060405234801561001057600080fd5b50600436106102065760003560e01c806377b03e0d1161011a578063adf1639d116100ad578063d4b839921161007c578063d4b839921461061a578063e19a9dd914610638578063ea0b9c3a14610654578063f2fde38b14610684578063ff0394eb146106a057610206565b8063adf1639d1461056a578063c5958af91461059c578063c9106389146105cc578063ce5e11bf146105ea57610206565b80638da5cb5b116100e95780638da5cb5b146104e25780638dcd266114610500578063a4f9edbf1461051c578063a792765f1461053857610206565b806377b03e0d14610458578063787a08a6146104885780637ceab3b1146104a657806388633b7b146104c457610206565b80632b5000411161019d57806344e87f911161016c57806344e87f91146103b45780634e1b8374146103e45780635aef7de614610414578063715018a614610432578063776d1a011461043c57610206565b80632b500041146103065780632bf87cc01461033657806331460e3d146103665780633408e4701461039657610206565b806322617d97116101d957806322617d971461027f5780632351a8771461029b578063276e832a146102b757806329449085146102d557610206565b8063086cfca81461020b57806314604b8c146102275780631959ad5b146102435780631db61b5414610261575b600080fd5b610225600480360381019061022091906131a2565b6106be565b005b610241600480360381019061023c91906135f1565b610800565b005b61024b610ccd565b6040516102589190614383565b60405180910390f35b610269610cf3565b6040516102769190614241565b60405180910390f35b61029960048036038101906102949190613350565b610d1a565b005b6102b560048036038101906102b09190613520565b610f82565b005b6102bf610f9a565b6040516102cc91906146cb565b60405180910390f35b6102ef60048036038101906102ea91906133b5565b610fb0565b6040516102fd929190614218565b60405180910390f35b610320600480360381019061031b9190613257565b61112b565b60405161032d9190614241565b60405180910390f35b610350600480360381019061034b9190613473565b61114c565b60405161035d9190614241565b60405180910390f35b610380600480360381019061037b9190613350565b6111a0565b60405161038d9190614241565b60405180910390f35b61039e6111b8565b6040516103ab91906146b0565b60405180910390f35b6103ce60048036038101906103c991906133b5565b6111c5565b6040516103db91906141bf565b60405180910390f35b6103fe60048036038101906103f99190613379565b6114ce565b60405161040b91906141bf565b60405180910390f35b61041c6114fd565b604051610429919061409f565b60405180910390f35b61043a611523565b005b610456600480360381019061045191906131a2565b6115ab565b005b610472600480360381019061046d9190613350565b6116ed565b60405161047f91906146b0565b60405180910390f35b61049061192a565b60405161049d91906146cb565b60405180910390f35b6104ae611940565b6040516104bb919061409f565b60405180910390f35b6104cc611966565b6040516104d99190614241565b60405180910390f35b6104ea61198d565b6040516104f7919061409f565b60405180910390f35b61051a600480360381019061051591906134b4565b6119b7565b005b610536600480360381019061053191906133f1565b611a98565b005b610552600480360381019061054d91906133b5565b611d9b565b604051610561939291906141da565b60405180910390f35b610584600480360381019061057f9190613350565b611e4d565b604051610593939291906141da565b60405180910390f35b6105b660048036038101906105b191906133b5565b611f06565b6040516105c39190614361565b60405180910390f35b6105d4612152565b6040516105e1919061409f565b60405180910390f35b61060460048036038101906105ff91906133b5565b61217c565b60405161061191906146b0565b60405180910390f35b6106226123be565b60405161062f919061409f565b60405180910390f35b610652600480360381019061064d91906131a2565b6123e4565b005b61066e600480360381019061066991906134b4565b61261a565b60405161067b91906143b9565b60405180910390f35b61069e600480360381019061069991906131a2565b612682565b005b6106a861277a565b6040516106b59190614241565b60405180910390f35b6106c66127a1565b73ffffffffffffffffffffffffffffffffffffffff166106e461198d565b73ffffffffffffffffffffffffffffffffffffffff161461073a576040517f08c379a000000000000000000000000000000000000000000000000000000000815260040161073190614570565b60405180910390fd5b6000606660009054906101000a900473ffffffffffffffffffffffffffffffffffffffff16905081606660006101000a81548173ffffffffffffffffffffffffffffffffffffffff021916908373ffffffffffffffffffffffffffffffffffffffff1602179055508173ffffffffffffffffffffffffffffffffffffffff168173ffffffffffffffffffffffffffffffffffffffff167f52ae88b092de36f87fb43fe794eb1381023b9c1bce563a871154022c63dce34260405160405180910390a35050565b600061080c888861261a565b8051906020012090506000606b60008381526020019081526020016000205490506000801b811415610873576040517f08c379a000000000000000000000000000000000000000000000000000000000815260040161086a90614610565b60405180910390fd5b7fffffffffffffffffffffffffffffffffffffffffffffffffffffffffffffffff60001b8114156108d9576040517f08c379a00000000000000000000000000000000000000000000000000000000081526004016108d090614630565b60405180910390fd5b60006108e8888888888861112b565b905080898581518110610924577f4e487b7100000000000000000000000000000000000000000000000000000000600052603260045260246000fd5b60200260200101511461096c576040517f08c379a000000000000000000000000000000000000000000000000000000000815260040161096390614690565b60405180910390fd5b600080600061097b8542611d9b565b925092509250826109c1576040517f08c379a00000000000000000000000000000000000000000000000000000000081526004016109b890614450565b60405180910390fd5b42606a60009054906101000a900463ffffffff1663ffffffff16826109e69190614845565b10610a26576040517f08c379a0000000000000000000000000000000000000000000000000000000008152600401610a1d906145f0565b60405180910390fd5b600082806020019051810190610a3c9190613327565b905080610a7e576040517f08c379a0000000000000000000000000000000000000000000000000000000008152600401610a7590614650565b60405180910390fd5b6000606860159054906101000a900463ffffffff16905060008163ffffffff161480610abb5750428163ffffffff1684610ab89190614845565b10155b610afa576040517f08c379a0000000000000000000000000000000000000000000000000000000008152600401610af1906144d0565b60405180910390fd5b6000891480610b8357506069600089815260200190815260200160002060008f60018c610b27919061498e565b81518110610b5e577f4e487b7100000000000000000000000000000000000000000000000000000000600052603260045260246000fd5b6020026020010151815260200190815260200160002060009054906101000a900460ff165b610bc2576040517f08c379a0000000000000000000000000000000000000000000000000000000008152600401610bb990614410565b60405180910390fd5b60696000898152602001908152602001600020600087815260200190815260200160002060009054906101000a900460ff1615610c34576040517f08c379a0000000000000000000000000000000000000000000000000000000008152600401610c2b906145d0565b60405180910390fd5b6001606960008a8152602001908152602001600020600088815260200190815260200160002060006101000a81548160ff021916908315150217905550610c7d8d8d8d8d6127a9565b610cbc576040517f08c379a0000000000000000000000000000000000000000000000000000000008152600401610cb390614670565b60405180910390fd5b505050505050505050505050505050565b606860009054906101000a900473ffffffffffffffffffffffffffffffffffffffff1681565b7f47e79534a245952e8b16893a336b85a3d9ea9fa8c573f3d803afb92a7946921860001b81565b6000606860159054906101000a900463ffffffff16905060008163ffffffff1611610d7a576040517f08c379a0000000000000000000000000000000000000000000000000000000008152600401610d7190614470565b60405180910390fd5b6000606b60008481526020019081526020016000205490507fffffffffffffffffffffffffffffffffffffffffffffffffffffffffffffffff60001b811415610df8576040517f08c379a0000000000000000000000000000000000000000000000000000000008152600401610def90614490565b60405180910390fd5b6000801b811415610e3e576040517f08c379a0000000000000000000000000000000000000000000000000000000008152600401610e3590614610565b60405180910390fd5b6000806000610e4d8442611d9b565b92509250925082610e93576040517f08c379a0000000000000000000000000000000000000000000000000000000008152600401610e8a90614450565b60405180910390fd5b600082806020019051810190610ea99190613327565b905080610eeb576040517f08c379a0000000000000000000000000000000000000000000000000000000008152600401610ee290614650565b60405180910390fd5b428663ffffffff1683610efe9190614845565b10610f3e576040517f08c379a0000000000000000000000000000000000000000000000000000000008152600401610f3590614550565b60405180910390fd5b7fffffffffffffffffffffffffffffffffffffffffffffffffffffffffffffffff60001b606b60008981526020019081526020016000208190555050505050505050565b610f928686868686866000610800565b505050505050565b606860159054906101000a900463ffffffff1681565b6000806000610fbe856116ed565b9050600081111561111b57600080600090506000600184610fdf919061498e565b90506000610fed898461217c565b905087811061100757600080965096505050505050611124565b611011898361217c565b90508781101561102c57600182965096505050505050611124565b5b6001156111165782600160028585611045919061498e565b61104f91906148d2565b6110599190614845565b6110639190614845565b935061106f898561217c565b9050878110156110c15760006110918a60018761108c9190614845565b61217c565b90508881106110ac5760018597509750505050505050611124565b6001856110b99190614845565b935050611111565b60006110d98a6001876110d4919061498e565b61217c565b90508881101561110057600180866110f1919061498e565b97509750505050505050611124565b60018561110d919061498e565b9250505b61102d565b505050505b60008092509250505b9250929050565b600061113a8686868686612a9e565b80519060200120905095945050505050565b6000808260405160200161116091906143b9565b60405160208183030381529060405260405160200161117f91906143db565b60405160208183030381529060405280519060200120905080915050919050565b606b6020528060005260406000206000915090505481565b6000804690508091505090565b6000807318431fd88adf138e8b979a7246eb58ea7126ea1673ffffffffffffffffffffffffffffffffffffffff16606860009054906101000a900473ffffffffffffffffffffffffffffffffffffffff1673ffffffffffffffffffffffffffffffffffffffff161480611299575073e8218cacb0a5421bc6409e498d9f8cc8869945ea73ffffffffffffffffffffffffffffffffffffffff16606860009054906101000a900473ffffffffffffffffffffffffffffffffffffffff1673ffffffffffffffffffffffffffffffffffffffff16145b156113685760007388df592f8eb5d7bd38bfef7deb0fbc02cf3778a090508073ffffffffffffffffffffffffffffffffffffffff1663699f200f7fefa19baa864049f50491093580c5433e97e8d5e41f8db1a61108b4fa44cacd936040518263ffffffff1660e01b8152600401611310919061439e565b60206040518083038186803b15801561132857600080fd5b505afa15801561133c573d6000803e3d6000fd5b505050506040513d601f19601f8201168201806040525081019061136091906131cb565b91505061140b565b606860009054906101000a900473ffffffffffffffffffffffffffffffffffffffff1673ffffffffffffffffffffffffffffffffffffffff16635aa6e6756040518163ffffffff1660e01b815260040160206040518083038186803b1580156113d057600080fd5b505afa1580156113e4573d6000803e3d6000fd5b505050506040513d601f19601f8201168201806040525081019061140891906131cb565b90505b60008173ffffffffffffffffffffffffffffffffffffffff1663248638e5868660405160200161143c929190614027565b604051602081830303815290604052805190602001206040518263ffffffff1660e01b815260040161146e9190614241565b60006040518083038186803b15801561148657600080fd5b505afa15801561149a573d6000803e3d6000fd5b505050506040513d6000823e3d601f19601f820116820180604052508101906114c391906132e6565b511191505092915050565b60696020528160005260406000206020528060005260406000206000915091509054906101000a900460ff1681565b606660009054906101000a900473ffffffffffffffffffffffffffffffffffffffff1681565b61152b6127a1565b73ffffffffffffffffffffffffffffffffffffffff1661154961198d565b73ffffffffffffffffffffffffffffffffffffffff161461159f576040517f08c379a000000000000000000000000000000000000000000000000000000000815260040161159690614570565b60405180910390fd5b6115a96000612b99565b565b6115b36127a1565b73ffffffffffffffffffffffffffffffffffffffff166115d161198d565b73ffffffffffffffffffffffffffffffffffffffff1614611627576040517f08c379a000000000000000000000000000000000000000000000000000000000815260040161161e90614570565b60405180910390fd5b6000606760009054906101000a900473ffffffffffffffffffffffffffffffffffffffff16905081606760006101000a81548173ffffffffffffffffffffffffffffffffffffffff021916908373ffffffffffffffffffffffffffffffffffffffff1602179055508173ffffffffffffffffffffffffffffffffffffffff168173ffffffffffffffffffffffffffffffffffffffff167f90cc2f570a6eb594b1580ea3e41247d2d73a55281889e86bd4ec2fc29c7e62d660405160405180910390a35050565b60007318431fd88adf138e8b979a7246eb58ea7126ea1673ffffffffffffffffffffffffffffffffffffffff16606860009054906101000a900473ffffffffffffffffffffffffffffffffffffffff1673ffffffffffffffffffffffffffffffffffffffff1614806117c0575073e8218cacb0a5421bc6409e498d9f8cc8869945ea73ffffffffffffffffffffffffffffffffffffffff16606860009054906101000a900473ffffffffffffffffffffffffffffffffffffffff1673ffffffffffffffffffffffffffffffffffffffff16145b1561187757606860009054906101000a900473ffffffffffffffffffffffffffffffffffffffff1673ffffffffffffffffffffffffffffffffffffffff166335e72432836040518263ffffffff1660e01b81526004016118209190614241565b60206040518083038186803b15801561183857600080fd5b505afa15801561184c573d6000803e3d6000fd5b505050506040513d601f19601f8201168201806040525081019061187091906136d7565b9050611925565b606860009054906101000a900473ffffffffffffffffffffffffffffffffffffffff1673ffffffffffffffffffffffffffffffffffffffff166377b03e0d836040518263ffffffff1660e01b81526004016118d29190614241565b60206040518083038186803b1580156118ea57600080fd5b505afa1580156118fe573d6000803e3d6000fd5b505050506040513d601f19601f8201168201806040525081019061192291906136d7565b90505b919050565b606a60009054906101000a900463ffffffff1681565b606560009054906101000a900473ffffffffffffffffffffffffffffffffffffffff1681565b7f72e9670a7ee00f5fbf1049b8c38e3f22fab7e9b85029e85cf9412f17fdd5c2ad60001b81565b6000603360009054906101000a900473ffffffffffffffffffffffffffffffffffffffff16905090565b60006119c3838361261a565b90506000818051906020012090506000801b606b60008381526020019081526020016000205414611a29576040517f08c379a0000000000000000000000000000000000000000000000000000000008152600401611a20906144b0565b60405180910390fd5b6000611a348561114c565b905080606b60008481526020019081526020016000208190555084604051611a5c9190614053565b6040518091039020817fd017d7c85eb4d3d4fc8c875e7d272062ad7dd797ccdb7b46b9c749a4e4864e3860405160405180910390a35050505050565b60008060008084806020019051810190611ab291906131f4565b9350935093509350606860149054906101000a900460ff1615611b0a576040517f08c379a0000000000000000000000000000000000000000000000000000000008152600401611b0190614510565b60405180910390fd5b6001606860146101000a81548160ff021916908315150217905550600073ffffffffffffffffffffffffffffffffffffffff168473ffffffffffffffffffffffffffffffffffffffff161415611b95576040517f08c379a0000000000000000000000000000000000000000000000000000000008152600401611b8c90614590565b60405180910390fd5b600073ffffffffffffffffffffffffffffffffffffffff168373ffffffffffffffffffffffffffffffffffffffff161415611c05576040517f08c379a0000000000000000000000000000000000000000000000000000000008152600401611bfc906144f0565b60405180910390fd5b60008163ffffffff161480611c2c5750603c8282611c2391906149c2565b63ffffffff1610155b611c6b576040517f08c379a0000000000000000000000000000000000000000000000000000000008152600401611c6290614530565b60405180910390fd5b83606660006101000a81548173ffffffffffffffffffffffffffffffffffffffff021916908373ffffffffffffffffffffffffffffffffffffffff16021790555082606760006101000a81548173ffffffffffffffffffffffffffffffffffffffff021916908373ffffffffffffffffffffffffffffffffffffffff16021790555080606860156101000a81548163ffffffff021916908363ffffffff16021790555081606a60006101000a81548163ffffffff021916908363ffffffff1602179055508373ffffffffffffffffffffffffffffffffffffffff163373ffffffffffffffffffffffffffffffffffffffff167f8cf089e89d710ad7a888a28dd8f52df5b7e0d21ef9001a76e4688b06f549391c85604051611d8c919061409f565b60405180910390a35050505050565b600060606000806000611dae8787610fb0565b9150915081611dd85760006040518060200160405280600081525060009450945094505050611e46565b6000611de4888361217c565b9050611df08882611f06565b94506040518060200160405280600081525080519060200120858051906020012014611e285760018582955095509550505050611e46565b60006040518060200160405280600081525060009550955095505050505b9250925092565b60006060600080611e5d856116ed565b90506000811415611e8857600060405180602001604052806000815250600093509350935050611eff565b6000611ea086600184611e9b919061498e565b61217c565b9050611eac8682611f06565b93506040518060200160405280600081525080519060200120848051906020012014611ee357600184829450945094505050611eff565b6000604051806020016040528060008152508294509450945050505b9193909250565b60607318431fd88adf138e8b979a7246eb58ea7126ea1673ffffffffffffffffffffffffffffffffffffffff16606860009054906101000a900473ffffffffffffffffffffffffffffffffffffffff1673ffffffffffffffffffffffffffffffffffffffff161480611fd9575073e8218cacb0a5421bc6409e498d9f8cc8869945ea73ffffffffffffffffffffffffffffffffffffffff16606860009054906101000a900473ffffffffffffffffffffffffffffffffffffffff1673ffffffffffffffffffffffffffffffffffffffff16145b1561209757606860009054906101000a900473ffffffffffffffffffffffffffffffffffffffff1673ffffffffffffffffffffffffffffffffffffffff16630b2d2b0d84846040518363ffffffff1660e01b815260040161203b9291906142e6565b60006040518083038186803b15801561205357600080fd5b505afa158015612067573d6000803e3d6000fd5b505050506040513d6000823e3d601f19601f820116820180604052508101906120909190613432565b905061214c565b606860009054906101000a900473ffffffffffffffffffffffffffffffffffffffff1673ffffffffffffffffffffffffffffffffffffffff1663c5958af984846040518363ffffffff1660e01b81526004016120f49291906142e6565b60006040518083038186803b15801561210c57600080fd5b505afa158015612120573d6000803e3d6000fd5b505050506040513d6000823e3d601f19601f820116820180604052508101906121499190613432565b90505b92915050565b6000606560009054906101000a900473ffffffffffffffffffffffffffffffffffffffff16905090565b60007318431fd88adf138e8b979a7246eb58ea7126ea1673ffffffffffffffffffffffffffffffffffffffff16606860009054906101000a900473ffffffffffffffffffffffffffffffffffffffff1673ffffffffffffffffffffffffffffffffffffffff16148061224f575073e8218cacb0a5421bc6409e498d9f8cc8869945ea73ffffffffffffffffffffffffffffffffffffffff16606860009054906101000a900473ffffffffffffffffffffffffffffffffffffffff1673ffffffffffffffffffffffffffffffffffffffff16145b1561230857606860009054906101000a900473ffffffffffffffffffffffffffffffffffffffff1673ffffffffffffffffffffffffffffffffffffffff16637c37b8b484846040518363ffffffff1660e01b81526004016122b19291906142e6565b60206040518083038186803b1580156122c957600080fd5b505afa1580156122dd573d6000803e3d6000fd5b505050506040513d601f19601f8201168201806040525081019061230191906136d7565b90506123b8565b606860009054906101000a900473ffffffffffffffffffffffffffffffffffffffff1673ffffffffffffffffffffffffffffffffffffffff1663ce5e11bf84846040518363ffffffff1660e01b81526004016123659291906142e6565b60206040518083038186803b15801561237d57600080fd5b505afa158015612391573d6000803e3d6000fd5b505050506040513d601f19601f820116820180604052508101906123b591906136d7565b90505b92915050565b606760009054906101000a900473ffffffffffffffffffffffffffffffffffffffff1681565b6123ec6127a1565b73ffffffffffffffffffffffffffffffffffffffff1661240a61198d565b73ffffffffffffffffffffffffffffffffffffffff1614612460576040517f08c379a000000000000000000000000000000000000000000000000000000000815260040161245790614570565b60405180910390fd5b600073ffffffffffffffffffffffffffffffffffffffff168173ffffffffffffffffffffffffffffffffffffffff161461257d578073ffffffffffffffffffffffffffffffffffffffff166301ffc9a77fe6d7a83a000000000000000000000000000000000000000000000000000000006040518263ffffffff1660e01b81526004016124ed9190614346565b60206040518083038186803b15801561250557600080fd5b505afa158015612519573d6000803e3d6000fd5b505050506040513d601f19601f8201168201806040525081019061253d9190613327565b61257c576040517f08c379a0000000000000000000000000000000000000000000000000000000008152600401612573906145b0565b60405180910390fd5b5b80606560006101000a81548173ffffffffffffffffffffffffffffffffffffffff021916908373ffffffffffffffffffffffffffffffffffffffff1602179055507f1151116914515bc0891ff9047a6cb32cf902546f83066499bcf8ba33d2353fa2606560009054906101000a900473ffffffffffffffffffffffffffffffffffffffff1660405161260f919061409f565b60405180910390a150565b6060600061264d836040516020016126329190613fc2565b60405160208183030381529060405280519060200120612c5f565b90508362e2909f60e81b8260405160200161266a9392919061406a565b60405160208183030381529060405291505092915050565b61268a6127a1565b73ffffffffffffffffffffffffffffffffffffffff166126a861198d565b73ffffffffffffffffffffffffffffffffffffffff16146126fe576040517f08c379a00000000000000000000000000000000000000000000000000000000081526004016126f590614570565b60405180910390fd5b600073ffffffffffffffffffffffffffffffffffffffff168173ffffffffffffffffffffffffffffffffffffffff16141561276e576040517f08c379a000000000000000000000000000000000000000000000000000000000815260040161276590614430565b60405180910390fd5b61277781612b99565b50565b7fffffffffffffffffffffffffffffffffffffffffffffffffffffffffffffffff60001b81565b600033905090565b60008073ffffffffffffffffffffffffffffffffffffffff16606560009054906101000a900473ffffffffffffffffffffffffffffffffffffffff1673ffffffffffffffffffffffffffffffffffffffff16146128db57606560009054906101000a900473ffffffffffffffffffffffffffffffffffffffff1673ffffffffffffffffffffffffffffffffffffffff166375f0bb528686868660008060008060006040518060400160405280600281526020017f307800000000000000000000000000000000000000000000000000000000000081525060006040518c63ffffffff1660e01b81526004016128a89b9a99989796959493929190614106565b600060405180830381600087803b1580156128c257600080fd5b505af11580156128d6573d6000803e3d6000fd5b505050505b606760009054906101000a900473ffffffffffffffffffffffffffffffffffffffff1673ffffffffffffffffffffffffffffffffffffffff1663468721a7868686866040518563ffffffff1660e01b815260040161293c94939291906140ba565b602060405180830381600087803b15801561295657600080fd5b505af115801561296a573d6000803e3d6000fd5b505050506040513d601f19601f8201168201806040525081019061298e9190613327565b9050600073ffffffffffffffffffffffffffffffffffffffff16606560009054906101000a900473ffffffffffffffffffffffffffffffffffffffff1673ffffffffffffffffffffffffffffffffffffffff1614612a9657606560009054906101000a900473ffffffffffffffffffffffffffffffffffffffff1673ffffffffffffffffffffffffffffffffffffffff1663932713687f3078000000000000000000000000000000000000000000000000000000000000836040518363ffffffff1660e01b8152600401612a639291906142bd565b600060405180830381600087803b158015612a7d57600080fd5b505af1158015612a91573d6000803e3d6000fd5b505050505b949350505050565b60606000612aaa6111b8565b905060007f47e79534a245952e8b16893a336b85a3d9ea9fa8c573f3d803afb92a7946921860001b8230604051602001612ae69392919061430f565b60405160208183030381529060405280519060200120905060007f72e9670a7ee00f5fbf1049b8c38e3f22fab7e9b85029e85cf9412f17fdd5c2ad60001b898989805190602001208989604051602001612b459695949392919061425c565b604051602081830303815290604052805190602001209050601960f81b600160f81b8383604051602001612b7c9493929190613fd9565b604051602081830303815290604052935050505095945050505050565b6000603360009054906101000a900473ffffffffffffffffffffffffffffffffffffffff16905081603360006101000a81548173ffffffffffffffffffffffffffffffffffffffff021916908373ffffffffffffffffffffffffffffffffffffffff1602179055508173ffffffffffffffffffffffffffffffffffffffff168173ffffffffffffffffffffffffffffffffffffffff167f8be0079c531659141344cd1fd0a4f28419497f9722a3daafe3b4186f6b6457e060405160405180910390a35050565b60606000604067ffffffffffffffff811115612ca4577f4e487b7100000000000000000000000000000000000000000000000000000000600052604160045260246000fd5b6040519080825280601f01601f191660200182016040528015612cd65781602001600182028036833780820191505090505b50905060005b6020811015612e3a576000600882612cf49190614934565b85901b60f81c90506000601082612d0b9190614903565b90506000601083612d1c9190614c51565b9050612d2782612e44565b85856002612d359190614934565b81518110612d6c577f4e487b7100000000000000000000000000000000000000000000000000000000600052603260045260246000fd5b60200101907effffffffffffffffffffffffffffffffffffffffffffffffffffffffffffff1916908160001a905350612da481612e44565b856001866002612db49190614934565b612dbe9190614845565b81518110612df5577f4e487b7100000000000000000000000000000000000000000000000000000000600052603260045260246000fd5b60200101907effffffffffffffffffffffffffffffffffffffffffffffffffffffffffffff1916908160001a9053505050508080612e3290614be0565b915050612cdc565b5080915050919050565b6000600a8260ff161015612e6957603082612e5f919061489b565b60f81b9050612e7c565b605782612e76919061489b565b60f81b90505b919050565b6000612e94612e8f84614717565b6146e6565b90508083825260208201905082856020860282011115612eb357600080fd5b60005b85811015612ee35781612ec988826130bb565b845260208401935060208301925050600181019050612eb6565b5050509392505050565b6000612f00612efb84614743565b6146e6565b90508083825260208201905082856020860282011115612f1f57600080fd5b60005b85811015612f4f5781612f358882613178565b845260208401935060208301925050600181019050612f22565b5050509392505050565b6000612f6c612f678461476f565b6146e6565b905082815260208101848484011115612f8457600080fd5b612f8f848285614b9e565b509392505050565b6000612faa612fa58461476f565b6146e6565b905082815260208101848484011115612fc257600080fd5b612fcd848285614bad565b509392505050565b6000612fe8612fe38461479f565b6146e6565b90508281526020810184848401111561300057600080fd5b61300b848285614b9e565b509392505050565b60008135905061302281614d70565b92915050565b60008151905061303781614d70565b92915050565b60008151905061304c81614d87565b92915050565b600082601f83011261306357600080fd5b8135613073848260208601612e81565b91505092915050565b600082601f83011261308d57600080fd5b815161309d848260208601612eed565b91505092915050565b6000815190506130b581614d9e565b92915050565b6000813590506130ca81614db5565b92915050565b600082601f8301126130e157600080fd5b81356130f1848260208601612f59565b91505092915050565b600082601f83011261310b57600080fd5b815161311b848260208601612f97565b91505092915050565b60008135905061313381614dcc565b92915050565b600082601f83011261314a57600080fd5b813561315a848260208601612fd5565b91505092915050565b60008135905061317281614ddc565b92915050565b60008151905061318781614ddc565b92915050565b60008151905061319c81614df3565b92915050565b6000602082840312156131b457600080fd5b60006131c284828501613013565b91505092915050565b6000602082840312156131dd57600080fd5b60006131eb84828501613028565b91505092915050565b6000806000806080858703121561320a57600080fd5b60006132188782880161303d565b94505060206132298782880161303d565b935050604061323a8782880161318d565b925050606061324b8782880161318d565b91505092959194509250565b600080600080600060a0868803121561326f57600080fd5b600061327d88828901613013565b955050602061328e88828901613163565b945050604086013567ffffffffffffffff8111156132ab57600080fd5b6132b7888289016130d0565b93505060606132c888828901613124565b92505060806132d988828901613163565b9150509295509295909350565b6000602082840312156132f857600080fd5b600082015167ffffffffffffffff81111561331257600080fd5b61331e8482850161307c565b91505092915050565b60006020828403121561333957600080fd5b6000613347848285016130a6565b91505092915050565b60006020828403121561336257600080fd5b6000613370848285016130bb565b91505092915050565b6000806040838503121561338c57600080fd5b600061339a858286016130bb565b92505060206133ab858286016130bb565b9150509250929050565b600080604083850312156133c857600080fd5b60006133d6858286016130bb565b92505060206133e785828601613163565b9150509250929050565b60006020828403121561340357600080fd5b600082013567ffffffffffffffff81111561341d57600080fd5b613429848285016130d0565b91505092915050565b60006020828403121561344457600080fd5b600082015167ffffffffffffffff81111561345e57600080fd5b61346a848285016130fa565b91505092915050565b60006020828403121561348557600080fd5b600082013567ffffffffffffffff81111561349f57600080fd5b6134ab84828501613139565b91505092915050565b600080604083850312156134c757600080fd5b600083013567ffffffffffffffff8111156134e157600080fd5b6134ed85828601613139565b925050602083013567ffffffffffffffff81111561350a57600080fd5b61351685828601613052565b9150509250929050565b60008060008060008060c0878903121561353957600080fd5b600087013567ffffffffffffffff81111561355357600080fd5b61355f89828a01613139565b965050602087013567ffffffffffffffff81111561357c57600080fd5b61358889828a01613052565b955050604061359989828a01613013565b94505060606135aa89828a01613163565b935050608087013567ffffffffffffffff8111156135c757600080fd5b6135d389828a016130d0565b92505060a06135e489828a01613124565b9150509295509295509295565b600080600080600080600060e0888a03121561360c57600080fd5b600088013567ffffffffffffffff81111561362657600080fd5b6136328a828b01613139565b975050602088013567ffffffffffffffff81111561364f57600080fd5b61365b8a828b01613052565b965050604061366c8a828b01613013565b955050606061367d8a828b01613163565b945050608088013567ffffffffffffffff81111561369a57600080fd5b6136a68a828b016130d0565b93505060a06136b78a828b01613124565b92505060c06136c88a828b01613163565b91505092959891949750929550565b6000602082840312156136e957600080fd5b60006136f784828501613178565b91505092915050565b600061370c83836137c9565b60208301905092915050565b61372181614a08565b82525050565b613730816149f6565b82525050565b6000613741826147df565b61374b818561480d565b9350613756836147cf565b8060005b8381101561378757815161376e8882613700565b975061377983614800565b92505060018101905061375a565b5085935050505092915050565b61379d81614a1a565b82525050565b6137b46137af82614a26565b614c29565b82525050565b6137c381614a7e565b82525050565b6137d281614a7e565b82525050565b6137e96137e482614a7e565b614c3d565b82525050565b6138006137fb82614a52565b614c33565b82525050565b61380f81614a88565b82525050565b6000613820826147ea565b61382a8185614818565b935061383a818560208601614bad565b61384381614d3e565b840191505092915050565b61385781614b18565b82525050565b61386681614b3c565b82525050565b61387581614b60565b82525050565b61388481614b72565b82525050565b61389381614b84565b82525050565b60006138a4826147f5565b6138ae8185614829565b93506138be818560208601614bad565b6138c781614d3e565b840191505092915050565b60006138dd826147f5565b6138e7818561483a565b93506138f7818560208601614bad565b80840191505092915050565b6000613910600883614829565b91507f536e617073686f740000000000000000000000000000000000000000000000006000830152602082019050919050565b6000613950602583614829565b91507f50726576696f7573207472616e73616374696f6e206e6f74206578656375746560008301527f64207965740000000000000000000000000000000000000000000000000000006020830152604082019050919050565b60006139b6602683614829565b91507f4f776e61626c653a206e6577206f776e657220697320746865207a65726f206160008301527f64647265737300000000000000000000000000000000000000000000000000006020830152604082019050919050565b6000613a1c601283614829565b91507f44617461206e6f742072657472696576656400000000000000000000000000006000830152602082019050919050565b6000613a5c601983614829565b91507f526573756c7473206172652076616c696420666f7265766572000000000000006000830152602082019050919050565b6000613a9c601f83614829565b91507f50726f706f73616c20697320616c726561647920696e76616c696461746564006000830152602082019050919050565b6000613adc602383614829565b91507f50726f706f73616c2068617320616c7265616479206265656e207375626d697460008301527f74656400000000000000000000000000000000000000000000000000000000006020830152604082019050919050565b6000613b42601283614829565b91507f526573756c7420686173206578706972656400000000000000000000000000006000830152602082019050919050565b6000613b82601e83614829565b91507f5461726765742063616e206e6f74206265207a65726f206164647265737300006000830152602082019050919050565b6000613bc2602e83614829565b91507f496e697469616c697a61626c653a20636f6e747261637420697320616c72656160008301527f647920696e697469616c697a65640000000000000000000000000000000000006020830152604082019050919050565b6000613c28604483614829565b91507f5468657265206e65656420746f206265206174206c656173742036307320626560008301527f747765656e20656e64206f6620636f6f6c646f776e20616e642065787069726160208301527f74696f6e000000000000000000000000000000000000000000000000000000006040830152606082019050919050565b6000613cb4601a83614829565b91507f526573756c7420686173206e6f742065787069726564207965740000000000006000830152602082019050919050565b6000613cf4602083614829565b91507f4f776e61626c653a2063616c6c6572206973206e6f7420746865206f776e65726000830152602082019050919050565b6000613d34601e83614829565b91507f4176617461722063616e206e6f74206265207a65726f206164647265737300006000830152602082019050919050565b6000613d74602083614829565b91507f477561726420646f6573206e6f7420696d706c656d656e7420494552433136356000830152602082019050919050565b6000613db4602083614829565b91507f43616e6e6f742065786563757465207472616e73616374696f6e20616761696e6000830152602082019050919050565b6000613df4601c83614829565b91507f5761697420666f72206164646974696f6e616c20636f6f6c646f776e000000006000830152602082019050919050565b6000613e34602583614829565b91507f4e6f2071756572792069642073657420666f722070726f76696465642070726f60008301527f706f73616c0000000000000000000000000000000000000000000000000000006020830152604082019050919050565b6000613e9a601d83614829565b91507f50726f706f73616c20686173206265656e20696e76616c6964617465640000006000830152602082019050919050565b6000613eda601c83614829565b91507f5472616e73616374696f6e20776173206e6f7420617070726f766564000000006000830152602082019050919050565b6000613f1a601983614829565b91507f4d6f64756c65207472616e73616374696f6e206661696c6564000000000000006000830152602082019050919050565b6000613f5a601b83614829565b91507f556e6578706563746564207472616e73616374696f6e206861736800000000006000830152602082019050919050565b613f9681614af1565b82525050565b613fad613fa882614af1565b614c47565b82525050565b613fbc81614afb565b82525050565b6000613fce8284613736565b915081905092915050565b6000613fe582876137a3565b600182019150613ff582866137a3565b60018201915061400582856137d8565b60208201915061401582846137d8565b60208201915081905095945050505050565b600061403382856137d8565b6020820191506140438284613f9c565b6020820191508190509392505050565b600061405f82846138d2565b915081905092915050565b600061407682866138d2565b915061408282856137ef565b60038201915061409282846138d2565b9150819050949350505050565b60006020820190506140b46000830184613727565b92915050565b60006080820190506140cf6000830187613727565b6140dc6020830186613f8d565b81810360408301526140ee8185613815565b90506140fd606083018461386c565b95945050505050565b60006101608201905061411c600083018e613727565b614129602083018d613f8d565b818103604083015261413b818c613815565b905061414a606083018b61386c565b614157608083018a61387b565b61416460a083018961387b565b61417160c083018861387b565b61417e60e0830187613727565b61418c610100830186613718565b81810361012083015261419f8185613815565b90506141af610140830184613727565b9c9b505050505050505050505050565b60006020820190506141d46000830184613794565b92915050565b60006060820190506141ef6000830186613794565b81810360208301526142018185613815565b90506142106040830184613f8d565b949350505050565b600060408201905061422d6000830185613794565b61423a6020830184613f8d565b9392505050565b600060208201905061425660008301846137ba565b92915050565b600060c08201905061427160008301896137ba565b61427e6020830188613727565b61428b6040830187613f8d565b61429860608301866137ba565b6142a5608083018561386c565b6142b260a0830184613f8d565b979650505050505050565b60006040820190506142d260008301856137ba565b6142df6020830184613794565b9392505050565b60006040820190506142fb60008301856137ba565b6143086020830184613f8d565b9392505050565b600060608201905061432460008301866137ba565b6143316020830185613f8d565b61433e604083018461385d565b949350505050565b600060208201905061435b6000830184613806565b92915050565b6000602082019050818103600083015261437b8184613815565b905092915050565b6000602082019050614398600083018461384e565b92915050565b60006020820190506143b3600083018461388a565b92915050565b600060208201905081810360008301526143d38184613899565b905092915050565b600060408201905081810360008301526143f481613903565b905081810360208301526144088184613815565b905092915050565b6000602082019050818103600083015261442981613943565b9050919050565b60006020820190508181036000830152614449816139a9565b9050919050565b6000602082019050818103600083015261446981613a0f565b9050919050565b6000602082019050818103600083015261448981613a4f565b9050919050565b600060208201905081810360008301526144a981613a8f565b9050919050565b600060208201905081810360008301526144c981613acf565b9050919050565b600060208201905081810360008301526144e981613b35565b9050919050565b6000602082019050818103600083015261450981613b75565b9050919050565b6000602082019050818103600083015261452981613bb5565b9050919050565b6000602082019050818103600083015261454981613c1b565b9050919050565b6000602082019050818103600083015261456981613ca7565b9050919050565b6000602082019050818103600083015261458981613ce7565b9050919050565b600060208201905081810360008301526145a981613d27565b9050919050565b600060208201905081810360008301526145c981613d67565b9050919050565b600060208201905081810360008301526145e981613da7565b9050919050565b6000602082019050818103600083015261460981613de7565b9050919050565b6000602082019050818103600083015261462981613e27565b9050919050565b6000602082019050818103600083015261464981613e8d565b9050919050565b6000602082019050818103600083015261466981613ecd565b9050919050565b6000602082019050818103600083015261468981613f0d565b9050919050565b600060208201905081810360008301526146a981613f4d565b9050919050565b60006020820190506146c56000830184613f8d565b92915050565b60006020820190506146e06000830184613fb3565b92915050565b6000604051905081810181811067ffffffffffffffff8211171561470d5761470c614d0f565b5b8060405250919050565b600067ffffffffffffffff82111561473257614731614d0f565b5b602082029050602081019050919050565b600067ffffffffffffffff82111561475e5761475d614d0f565b5b602082029050602081019050919050565b600067ffffffffffffffff82111561478a57614789614d0f565b5b601f19601f8301169050602081019050919050565b600067ffffffffffffffff8211156147ba576147b9614d0f565b5b601f19601f8301169050602081019050919050565b6000819050602082019050919050565b600081519050919050565b600081519050919050565b600081519050919050565b6000602082019050919050565b600081905092915050565b600082825260208201905092915050565b600082825260208201905092915050565b600081905092915050565b600061485082614af1565b915061485b83614af1565b9250827fffffffffffffffffffffffffffffffffffffffffffffffffffffffffffffffff038211156148905761488f614c82565b5b828201905092915050565b60006148a682614b0b565b91506148b183614b0b565b92508260ff038211156148c7576148c6614c82565b5b828201905092915050565b60006148dd82614af1565b91506148e883614af1565b9250826148f8576148f7614cb1565b5b828204905092915050565b600061490e82614b0b565b915061491983614b0b565b92508261492957614928614cb1565b5b828204905092915050565b600061493f82614af1565b915061494a83614af1565b9250817fffffffffffffffffffffffffffffffffffffffffffffffffffffffffffffffff048311821515161561498357614982614c82565b5b828202905092915050565b600061499982614af1565b91506149a483614af1565b9250828210156149b7576149b6614c82565b5b828203905092915050565b60006149cd82614afb565b91506149d883614afb565b9250828210156149eb576149ea614c82565b5b828203905092915050565b6000614a0182614ad1565b9050919050565b6000614a1382614ad1565b9050919050565b60008115159050919050565b60007fff0000000000000000000000000000000000000000000000000000000000000082169050919050565b60007fffffff000000000000000000000000000000000000000000000000000000000082169050919050565b6000819050919050565b60007fffffffff0000000000000000000000000000000000000000000000000000000082169050919050565b6000819050614ac282614d5c565b919050565b6000819050919050565b600073ffffffffffffffffffffffffffffffffffffffff82169050919050565b6000819050919050565b600063ffffffff82169050919050565b600060ff82169050919050565b6000614b2382614b2a565b9050919050565b6000614b3582614ad1565b9050919050565b6000614b4782614b4e565b9050919050565b6000614b5982614ad1565b9050919050565b6000614b6b82614ab4565b9050919050565b6000614b7d82614af1565b9050919050565b6000614b97614b9283614ac7565b614d4f565b9050919050565b82818337600083830152505050565b60005b83811015614bcb578082015181840152602081019050614bb0565b83811115614bda576000848401525b50505050565b6000614beb82614af1565b91507fffffffffffffffffffffffffffffffffffffffffffffffffffffffffffffffff821415614c1e57614c1d614c82565b5b600182019050919050565b6000819050919050565b6000819050919050565b6000819050919050565b6000819050919050565b6000614c5c82614b0b565b9150614c6783614b0b565b925082614c7757614c76614cb1565b5b828206905092915050565b7f4e487b7100000000000000000000000000000000000000000000000000000000600052601160045260246000fd5b7f4e487b7100000000000000000000000000000000000000000000000000000000600052601260045260246000fd5b7f4e487b7100000000000000000000000000000000000000000000000000000000600052602160045260246000fd5b7f4e487b7100000000000000000000000000000000000000000000000000000000600052604160045260246000fd5b6000601f19601f8301169050919050565b60008160001b9050919050565b60028110614d6d57614d6c614ce0565b5b50565b614d79816149f6565b8114614d8457600080fd5b50565b614d9081614a08565b8114614d9b57600080fd5b50565b614da781614a1a565b8114614db257600080fd5b50565b614dbe81614a7e565b8114614dc957600080fd5b50565b60028110614dd957600080fd5b50565b614de581614af1565b8114614df057600080fd5b50565b614dfc81614afb565b8114614e0757600080fd5b5056fea26469706673582212209c8255fec4b8d83a9982306617fee473fc4b52fdbfe7fc49ba32e8e0cfae820364736f6c63430008000033",
  "linkReferences": {},
  "deployedLinkReferences": {}
}