{
  "_format": "hh-sol-artifact-1",
  "contractName": "OptimisticGovernor",
  "sourceName": "contracts/OptimisticGovernor.sol",
  "abi": [
    {
      "inputs": [
        {
          "internalType": "address",
          "name": "_finder",
          "type": "address"
        },
        {
          "internalType": "address",
          "name": "_owner",
          "type": "address"
        },
        {
          "internalType": "address",
          "name": "_collateral",
          "type": "address"
        },
        {
          "internalType": "uint256",
          "name": "_bondAmount",
          "type": "uint256"
        },
        {
          "internalType": "string",
          "name": "_rules",
          "type": "string"
        },
        {
          "internalType": "bytes32",
          "name": "_identifier",
          "type": "bytes32"
        },
        {
          "internalType": "uint64",
          "name": "_liveness",
          "type": "uint64"
        }
      ],
      "stateMutability": "nonpayable",
      "type": "constructor"
    },
    {
      "anonymous": false,
      "inputs": [
        {
          "indexed": true,
          "internalType": "address",
          "name": "previousAvatar",
          "type": "address"
        },
        {
          "indexed": true,
          "internalType": "address",
          "name": "newAvatar",
          "type": "address"
        }
      ],
      "name": "AvatarSet",
      "type": "event"
    },
    {
      "anonymous": false,
      "inputs": [
        {
          "indexed": false,
          "internalType": "address",
          "name": "guard",
          "type": "address"
        }
      ],
      "name": "ChangedGuard",
      "type": "event"
    },
    {
      "anonymous": false,
      "inputs": [
        {
          "indexed": true,
          "internalType": "address",
          "name": "owner",
          "type": "address"
        },
        {
          "indexed": true,
          "internalType": "address",
          "name": "avatar",
          "type": "address"
        },
        {
          "indexed": false,
          "internalType": "address",
          "name": "target",
          "type": "address"
        }
      ],
      "name": "OptimisticGovernorDeployed",
      "type": "event"
    },
    {
      "anonymous": false,
      "inputs": [
        {
          "indexed": true,
          "internalType": "address",
          "name": "previousOwner",
          "type": "address"
        },
        {
          "indexed": true,
          "internalType": "address",
          "name": "newOwner",
          "type": "address"
        }
      ],
      "name": "OwnershipTransferred",
      "type": "event"
    },
    {
      "anonymous": false,
      "inputs": [
        {
          "indexed": true,
          "internalType": "bytes32",
          "name": "proposalHash",
          "type": "bytes32"
        },
        {
          "indexed": true,
          "internalType": "bytes32",
          "name": "assertionId",
          "type": "bytes32"
        }
      ],
      "name": "ProposalDeleted",
      "type": "event"
    },
    {
      "anonymous": false,
      "inputs": [
        {
          "indexed": true,
          "internalType": "bytes32",
          "name": "proposalHash",
          "type": "bytes32"
        },
        {
          "indexed": true,
          "internalType": "bytes32",
          "name": "assertionId",
          "type": "bytes32"
        }
      ],
      "name": "ProposalExecuted",
      "type": "event"
    },
    {
      "anonymous": false,
      "inputs": [
        {
          "indexed": true,
          "internalType": "contract IERC20",
          "name": "collateral",
          "type": "address"
        },
        {
          "indexed": true,
          "internalType": "uint256",
          "name": "bondAmount",
          "type": "uint256"
        }
      ],
      "name": "SetBond",
      "type": "event"
    },
    {
      "anonymous": false,
      "inputs": [
        {
          "indexed": true,
          "internalType": "contract IERC20",
          "name": "collateral",
          "type": "address"
        }
      ],
      "name": "SetCollateral",
      "type": "event"
    },
    {
      "anonymous": false,
      "inputs": [
        {
          "indexed": true,
          "internalType": "address",
          "name": "escalationManager",
          "type": "address"
        }
      ],
      "name": "SetEscalationManager",
      "type": "event"
    },
    {
      "anonymous": false,
      "inputs": [
        {
          "indexed": true,
          "internalType": "bytes32",
          "name": "identifier",
          "type": "bytes32"
        }
      ],
      "name": "SetIdentifier",
      "type": "event"
    },
    {
      "anonymous": false,
      "inputs": [
        {
          "indexed": true,
          "internalType": "uint64",
          "name": "liveness",
          "type": "uint64"
        }
      ],
      "name": "SetLiveness",
      "type": "event"
    },
    {
      "anonymous": false,
      "inputs": [
        {
          "indexed": false,
          "internalType": "string",
          "name": "rules",
          "type": "string"
        }
      ],
      "name": "SetRules",
      "type": "event"
    },
    {
      "anonymous": false,
      "inputs": [
        {
          "indexed": true,
          "internalType": "address",
          "name": "previousTarget",
          "type": "address"
        },
        {
          "indexed": true,
          "internalType": "address",
          "name": "newTarget",
          "type": "address"
        }
      ],
      "name": "TargetSet",
      "type": "event"
    },
    {
      "anonymous": false,
      "inputs": [
        {
          "indexed": true,
          "internalType": "bytes32",
          "name": "proposalHash",
          "type": "bytes32"
        },
        {
          "indexed": true,
          "internalType": "bytes32",
          "name": "assertionId",
          "type": "bytes32"
        },
        {
          "indexed": true,
          "internalType": "uint256",
          "name": "transactionIndex",
          "type": "uint256"
        }
      ],
      "name": "TransactionExecuted",
      "type": "event"
    },
    {
      "anonymous": false,
      "inputs": [
        {
          "indexed": true,
          "internalType": "address",
          "name": "proposer",
          "type": "address"
        },
        {
          "indexed": true,
          "internalType": "uint256",
          "name": "proposalTime",
          "type": "uint256"
        },
        {
          "indexed": true,
          "internalType": "bytes32",
          "name": "assertionId",
          "type": "bytes32"
        },
        {
          "components": [
            {
              "components": [
                {
                  "internalType": "address",
                  "name": "to",
                  "type": "address"
                },
                {
                  "internalType": "enum Enum.Operation",
                  "name": "operation",
                  "type": "uint8"
                },
                {
                  "internalType": "uint256",
                  "name": "value",
                  "type": "uint256"
                },
                {
                  "internalType": "bytes",
                  "name": "data",
                  "type": "bytes"
                }
              ],
              "internalType": "struct OptimisticGovernor.Transaction[]",
              "name": "transactions",
              "type": "tuple[]"
            },
            {
              "internalType": "uint256",
              "name": "requestTime",
              "type": "uint256"
            }
          ],
          "indexed": false,
          "internalType": "struct OptimisticGovernor.Proposal",
          "name": "proposal",
          "type": "tuple"
        },
        {
          "indexed": false,
          "internalType": "bytes32",
          "name": "proposalHash",
          "type": "bytes32"
        },
        {
          "indexed": false,
          "internalType": "bytes",
          "name": "explanation",
          "type": "bytes"
        },
        {
          "indexed": false,
          "internalType": "string",
          "name": "rules",
          "type": "string"
        },
        {
          "indexed": false,
          "internalType": "uint256",
          "name": "challengeWindowEnds",
          "type": "uint256"
        }
      ],
      "name": "TransactionsProposed",
      "type": "event"
    },
    {
      "inputs": [],
      "name": "EXPLANATION_KEY",
      "outputs": [
        {
          "internalType": "bytes",
          "name": "",
          "type": "bytes"
        }
      ],
      "stateMutability": "view",
      "type": "function"
    },
    {
      "inputs": [],
      "name": "PROPOSAL_HASH_KEY",
      "outputs": [
        {
          "internalType": "bytes",
          "name": "",
          "type": "bytes"
        }
      ],
      "stateMutability": "view",
      "type": "function"
    },
    {
      "inputs": [],
      "name": "RULES_KEY",
      "outputs": [
        {
          "internalType": "bytes",
          "name": "",
          "type": "bytes"
        }
      ],
      "stateMutability": "view",
      "type": "function"
    },
    {
      "inputs": [
        {
          "internalType": "bytes32",
          "name": "assertionId",
          "type": "bytes32"
        }
      ],
      "name": "assertionDisputedCallback",
      "outputs": [],
      "stateMutability": "nonpayable",
      "type": "function"
    },
    {
      "inputs": [
        {
          "internalType": "bytes32",
          "name": "",
          "type": "bytes32"
        }
      ],
      "name": "assertionIds",
      "outputs": [
        {
          "internalType": "bytes32",
          "name": "",
          "type": "bytes32"
        }
      ],
      "stateMutability": "view",
      "type": "function"
    },
    {
      "inputs": [
        {
          "internalType": "bytes32",
          "name": "assertionId",
          "type": "bytes32"
        },
        {
          "internalType": "bool",
          "name": "assertedTruthfully",
          "type": "bool"
        }
      ],
      "name": "assertionResolvedCallback",
      "outputs": [],
      "stateMutability": "nonpayable",
      "type": "function"
    },
    {
      "inputs": [],
      "name": "avatar",
      "outputs": [
        {
          "internalType": "address",
          "name": "",
          "type": "address"
        }
      ],
      "stateMutability": "view",
      "type": "function"
    },
    {
      "inputs": [],
      "name": "bondAmount",
      "outputs": [
        {
          "internalType": "uint256",
          "name": "",
          "type": "uint256"
        }
      ],
      "stateMutability": "view",
      "type": "function"
    },
    {
      "inputs": [],
      "name": "collateral",
      "outputs": [
        {
          "internalType": "contract IERC20",
          "name": "",
          "type": "address"
        }
      ],
      "stateMutability": "view",
      "type": "function"
    },
    {
      "inputs": [
        {
          "internalType": "bytes32",
          "name": "_proposalHash",
          "type": "bytes32"
        }
      ],
      "name": "deleteProposalOnUpgrade",
      "outputs": [],
      "stateMutability": "nonpayable",
      "type": "function"
    },
    {
      "inputs": [],
      "name": "escalationManager",
      "outputs": [
        {
          "internalType": "address",
          "name": "",
          "type": "address"
        }
      ],
      "stateMutability": "view",
      "type": "function"
    },
    {
      "inputs": [
        {
          "components": [
            {
              "internalType": "address",
              "name": "to",
              "type": "address"
            },
            {
              "internalType": "enum Enum.Operation",
              "name": "operation",
              "type": "uint8"
            },
            {
              "internalType": "uint256",
              "name": "value",
              "type": "uint256"
            },
            {
              "internalType": "bytes",
              "name": "data",
              "type": "bytes"
            }
          ],
          "internalType": "struct OptimisticGovernor.Transaction[]",
          "name": "_transactions",
          "type": "tuple[]"
        }
      ],
      "name": "executeProposal",
      "outputs": [],
      "stateMutability": "payable",
      "type": "function"
    },
    {
      "inputs": [],
      "name": "finder",
      "outputs": [
        {
          "internalType": "contract FinderInterface",
          "name": "",
          "type": "address"
        }
      ],
      "stateMutability": "view",
      "type": "function"
    },
    {
      "inputs": [],
      "name": "getCurrentTime",
      "outputs": [
        {
          "internalType": "uint256",
          "name": "",
          "type": "uint256"
        }
      ],
      "stateMutability": "view",
      "type": "function"
    },
    {
      "inputs": [],
      "name": "getGuard",
      "outputs": [
        {
          "internalType": "address",
          "name": "_guard",
          "type": "address"
        }
      ],
      "stateMutability": "view",
      "type": "function"
    },
    {
      "inputs": [],
      "name": "getProposalBond",
      "outputs": [
        {
          "internalType": "uint256",
          "name": "",
          "type": "uint256"
        }
      ],
      "stateMutability": "view",
      "type": "function"
    },
    {
      "inputs": [],
      "name": "guard",
      "outputs": [
        {
          "internalType": "address",
          "name": "",
          "type": "address"
        }
      ],
      "stateMutability": "view",
      "type": "function"
    },
    {
      "inputs": [],
      "name": "identifier",
      "outputs": [
        {
          "internalType": "bytes32",
          "name": "",
          "type": "bytes32"
        }
      ],
      "stateMutability": "view",
      "type": "function"
    },
    {
      "inputs": [],
      "name": "liveness",
      "outputs": [
        {
          "internalType": "uint64",
          "name": "",
          "type": "uint64"
        }
      ],
      "stateMutability": "view",
      "type": "function"
    },
    {
      "inputs": [],
      "name": "optimisticOracleV3",
      "outputs": [
        {
          "internalType": "contract OptimisticOracleV3Interface",
          "name": "",
          "type": "address"
        }
      ],
      "stateMutability": "view",
      "type": "function"
    },
    {
      "inputs": [],
      "name": "owner",
      "outputs": [
        {
          "internalType": "address",
          "name": "",
          "type": "address"
        }
      ],
      "stateMutability": "view",
      "type": "function"
    },
    {
      "inputs": [
        {
          "internalType": "bytes32",
          "name": "",
          "type": "bytes32"
        }
      ],
      "name": "proposalHashes",
      "outputs": [
        {
          "internalType": "bytes32",
          "name": "",
          "type": "bytes32"
        }
      ],
      "stateMutability": "view",
      "type": "function"
    },
    {
      "inputs": [
        {
          "components": [
            {
              "internalType": "address",
              "name": "to",
              "type": "address"
            },
            {
              "internalType": "enum Enum.Operation",
              "name": "operation",
              "type": "uint8"
            },
            {
              "internalType": "uint256",
              "name": "value",
              "type": "uint256"
            },
            {
              "internalType": "bytes",
              "name": "data",
              "type": "bytes"
            }
          ],
          "internalType": "struct OptimisticGovernor.Transaction[]",
          "name": "_transactions",
          "type": "tuple[]"
        },
        {
          "internalType": "bytes",
          "name": "_explanation",
          "type": "bytes"
        }
      ],
      "name": "proposeTransactions",
      "outputs": [],
      "stateMutability": "nonpayable",
      "type": "function"
    },
    {
      "inputs": [],
      "name": "renounceOwnership",
      "outputs": [],
      "stateMutability": "nonpayable",
      "type": "function"
    },
    {
      "inputs": [],
      "name": "rules",
      "outputs": [
        {
          "internalType": "string",
          "name": "",
          "type": "string"
        }
      ],
      "stateMutability": "view",
      "type": "function"
    },
    {
      "inputs": [
        {
          "internalType": "address",
          "name": "_avatar",
          "type": "address"
        }
      ],
      "name": "setAvatar",
      "outputs": [],
      "stateMutability": "nonpayable",
      "type": "function"
    },
    {
      "inputs": [
        {
          "internalType": "contract IERC20",
          "name": "_collateral",
          "type": "address"
        },
        {
          "internalType": "uint256",
          "name": "_bondAmount",
          "type": "uint256"
        }
      ],
      "name": "setCollateralAndBond",
      "outputs": [],
      "stateMutability": "nonpayable",
      "type": "function"
    },
    {
      "inputs": [
        {
          "internalType": "address",
          "name": "_escalationManager",
          "type": "address"
        }
      ],
      "name": "setEscalationManager",
      "outputs": [],
      "stateMutability": "nonpayable",
      "type": "function"
    },
    {
      "inputs": [
        {
          "internalType": "address",
          "name": "_guard",
          "type": "address"
        }
      ],
      "name": "setGuard",
      "outputs": [],
      "stateMutability": "nonpayable",
      "type": "function"
    },
    {
      "inputs": [
        {
          "internalType": "bytes32",
          "name": "_identifier",
          "type": "bytes32"
        }
      ],
      "name": "setIdentifier",
      "outputs": [],
      "stateMutability": "nonpayable",
      "type": "function"
    },
    {
      "inputs": [
        {
          "internalType": "uint64",
          "name": "_liveness",
          "type": "uint64"
        }
      ],
      "name": "setLiveness",
      "outputs": [],
      "stateMutability": "nonpayable",
      "type": "function"
    },
    {
      "inputs": [
        {
          "internalType": "string",
          "name": "_rules",
          "type": "string"
        }
      ],
      "name": "setRules",
      "outputs": [],
      "stateMutability": "nonpayable",
      "type": "function"
    },
    {
      "inputs": [
        {
          "internalType": "address",
          "name": "_target",
          "type": "address"
        }
      ],
      "name": "setTarget",
      "outputs": [],
      "stateMutability": "nonpayable",
      "type": "function"
    },
    {
      "inputs": [
        {
          "internalType": "bytes",
          "name": "initializeParams",
          "type": "bytes"
        }
      ],
      "name": "setUp",
      "outputs": [],
      "stateMutability": "nonpayable",
      "type": "function"
    },
    {
      "inputs": [],
      "name": "sync",
      "outputs": [],
      "stateMutability": "nonpayable",
      "type": "function"
    },
    {
      "inputs": [],
      "name": "target",
      "outputs": [
        {
          "internalType": "address",
          "name": "",
          "type": "address"
        }
      ],
      "stateMutability": "view",
      "type": "function"
    },
    {
      "inputs": [
        {
          "internalType": "address",
          "name": "newOwner",
          "type": "address"
        }
      ],
      "name": "transferOwnership",
      "outputs": [],
      "stateMutability": "nonpayable",
      "type": "function"
    }
  ],
  "bytecode": "0x60a06040523480156200001157600080fd5b506040516200565938038062005659833981016040819052620000349162000d92565b6067805460ff60a01b1916600160a01b179055604051600090620000679088908890889088908890889060200162000e67565b60408051601f1981840301815291905290506001600160a01b038816620000d55760405162461bcd60e51b815260206004820152601f60248201527f46696e64657220616464726573732063616e206e6f7420626520656d7074790060448201526064015b60405180910390fd5b6001600160a01b038816608052620000ed81620000fb565b50505050505050506200110a565b600054610100900460ff16620001185760005460ff161562000122565b62000122620002be565b620001875760405162461bcd60e51b815260206004820152602e60248201527f496e697469616c697a61626c653a20636f6e747261637420697320616c72656160448201526d191e481a5b9a5d1a585b1a5e995960921b6064820152608401620000cc565b600054610100900460ff16158015620001aa576000805461ffff19166101011790555b620001c36067805460ff60a01b1916600160a01b179055565b620001cd620002dc565b60008060008060008087806020019051810190620001ec919062000ebf565b9550955095509550955095506200020a85856200034460201b60201c565b6200021583620004a9565b620002208262000592565b6200022b81620006da565b620002368662000842565b6200024186620008df565b6200024c866200097c565b6200025662000a3c565b6066546067546040516001600160a01b03918216815291811691908816907f268908d64ce6f0c721a4acf6ea8202edcdd077d5fee9976a9ce604f5bf30098f9060200160405180910390a35050505050508015620002ba576000805461ff00191690555b5050565b6000620002d63062000ae260201b620024f01760201c565b15905090565b600054610100900460ff16620003385760405162461bcd60e51b815260206004820152602b60248201526000805160206200561983398151915260448201526a6e697469616c697a696e6760a81b6064820152608401620000cc565b6200034262000af1565b565b6033546001600160a01b031633146200038f5760405162461bcd60e51b81526020600482018190526024820152600080516020620056398339815191526044820152606401620000cc565b6200039962000b58565b604051631d1d5b3960e11b81526001600160a01b0384811660048301529190911690633a3ab67290602401602060405180830381865afa158015620003e2573d6000803e3d6000fd5b505050506040513d601f19601f8201168201806040525081019062000408919062000f4f565b620004565760405162461bcd60e51b815260206004820152601860248201527f426f6e6420746f6b656e206e6f7420737570706f7274656400000000000000006044820152606401620000cc565b606880546001600160a01b0319166001600160a01b03841690811790915560698290556040518291907f6d99292521faedf161a1edd828ddef955afcb227fa80a42c65e5ac25dba40c0990600090a35050565b6033546001600160a01b03163314620004f45760405162461bcd60e51b81526020600482018190526024820152600080516020620056398339815191526044820152606401620000cc565b6000815111620005475760405162461bcd60e51b815260206004820152601660248201527f52756c65732063616e206e6f7420626520656d707479000000000000000000006044820152606401620000cc565b606a62000555828262001009565b507fd126aed3fefb9793c6164dec52a0cd8fed9bd9a8867f4d7b41dbd6c7134ebf3081604051620005879190620010d5565b60405180910390a150565b6033546001600160a01b03163314620005dd5760405162461bcd60e51b81526020600482018190526024820152600080516020620056398339815191526044820152606401620000cc565b620005e762000bee565b6001600160a01b03166390978d1b826040518263ffffffff1660e01b81526004016200061591815260200190565b602060405180830381865afa15801562000633573d6000803e3d6000fd5b505050506040513d601f19601f8201168201806040525081019062000659919062000f4f565b620006a75760405162461bcd60e51b815260206004820152601860248201527f4964656e746966696572206e6f7420737570706f7274656400000000000000006044820152606401620000cc565b606b81905560405181907ff35b61cf27d8ae21648935573dbd9eefad145ebc7dfe806273e3f93d9896ab9c90600090a250565b6033546001600160a01b03163314620007255760405162461bcd60e51b81526020600482018190526024820152600080516020620056398339815191526044820152606401620000cc565b6000816001600160401b031611620007805760405162461bcd60e51b815260206004820152601360248201527f4c6976656e6573732063616e27742062652030000000000000000000000000006044820152606401620000cc565b63bb744800816001600160401b031610620007ec5760405162461bcd60e51b815260206004820152602560248201527f4c6976656e657373206d757374206265206c657373207468616e2035323030206044820152647765656b7360d81b6064820152608401620000cc565b60688054600160a01b600160e01b031916600160a01b6001600160401b038416908102919091179091556040517f0ccc3b904401a4ffd81153f4acf19daaa09629a146f2642dc4785ff2d243d3aa90600090a250565b6033546001600160a01b031633146200088d5760405162461bcd60e51b81526020600482018190526024820152600080516020620056398339815191526044820152606401620000cc565b606680546001600160a01b038381166001600160a01b0319831681179093556040519116919082907f52ae88b092de36f87fb43fe794eb1381023b9c1bce563a871154022c63dce34290600090a35050565b6033546001600160a01b031633146200092a5760405162461bcd60e51b81526020600482018190526024820152600080516020620056398339815191526044820152606401620000cc565b606780546001600160a01b038381166001600160a01b0319831681179093556040519116919082907f90cc2f570a6eb594b1580ea3e41247d2d73a55281889e86bd4ec2fc29c7e62d690600090a35050565b6033546001600160a01b03163314620009c75760405162461bcd60e51b81526020600482018190526024820152600080516020620056398339815191526044820152606401620000cc565b6001600160a01b03811662000a2e5760405162461bcd60e51b815260206004820152602660248201527f4f776e61626c653a206e6577206f776e657220697320746865207a65726f206160448201526564647265737360d01b6064820152608401620000cc565b62000a398162000c40565b50565b6080516040516302abf57960e61b8152714f7074696d69737469634f7261636c65563360701b60048201526001600160a01b039091169063aafd5e4090602401602060405180830381865afa15801562000a9a573d6000803e3d6000fd5b505050506040513d601f19601f8201168201806040525081019062000ac09190620010ea565b606c80546001600160a01b0319166001600160a01b0392909216919091179055565b6001600160a01b03163b151590565b600054610100900460ff1662000b4d5760405162461bcd60e51b815260206004820152602b60248201526000805160206200561983398151915260448201526a6e697469616c697a696e6760a81b6064820152608401620000cc565b620003423362000c40565b6080516040516302abf57960e61b81527f436f6c6c61746572616c57686974656c6973740000000000000000000000000060048201526000916001600160a01b03169063aafd5e40906024015b602060405180830381865afa15801562000bc3573d6000803e3d6000fd5b505050506040513d601f19601f8201168201806040525081019062000be99190620010ea565b905090565b6080516040516302abf57960e61b81527f4964656e74696669657257686974656c6973740000000000000000000000000060048201526000916001600160a01b03169063aafd5e409060240162000ba5565b603380546001600160a01b038381166001600160a01b0319831681179093556040519116919082907f8be0079c531659141344cd1fd0a4f28419497f9722a3daafe3b4186f6b6457e090600090a35050565b6001600160a01b038116811462000a3957600080fd5b634e487b7160e01b600052604160045260246000fd5b60005b8381101562000cdb57818101518382015260200162000cc1565b50506000910152565b600082601f83011262000cf657600080fd5b81516001600160401b038082111562000d135762000d1362000ca8565b604051601f8301601f19908116603f0116810190828211818310171562000d3e5762000d3e62000ca8565b8160405283815286602085880101111562000d5857600080fd5b62000d6b84602083016020890162000cbe565b9695505050505050565b80516001600160401b038116811462000d8d57600080fd5b919050565b600080600080600080600060e0888a03121562000dae57600080fd5b875162000dbb8162000c92565b602089015190975062000dce8162000c92565b604089015190965062000de18162000c92565b606089015160808a015191965094506001600160401b0381111562000e0557600080fd5b62000e138a828b0162000ce4565b93505060a0880151915062000e2b60c0890162000d75565b905092959891949750929550565b6000815180845262000e5381602086016020860162000cbe565b601f01601f19169290920160200192915050565b6001600160a01b038781168252861660208201526040810185905260c06060820181905260009062000e9c9083018662000e39565b6080830194909452506001600160401b039190911660a090910152949350505050565b60008060008060008060c0878903121562000ed957600080fd5b865162000ee68162000c92565b602088015190965062000ef98162000c92565b6040880151606089015191965094506001600160401b0381111562000f1d57600080fd5b62000f2b89828a0162000ce4565b9350506080870151915062000f4360a0880162000d75565b90509295509295509295565b60006020828403121562000f6257600080fd5b8151801515811462000f7357600080fd5b9392505050565b600181811c9082168062000f8f57607f821691505b60208210810362000fb057634e487b7160e01b600052602260045260246000fd5b50919050565b601f8211156200100457600081815260208120601f850160051c8101602086101562000fdf5750805b601f850160051c820191505b81811015620010005782815560010162000feb565b5050505b505050565b81516001600160401b0381111562001025576200102562000ca8565b6200103d8162001036845462000f7a565b8462000fb6565b602080601f8311600181146200107557600084156200105c5750858301515b600019600386901b1c1916600185901b17855562001000565b600085815260208120601f198616915b82811015620010a65788860151825594840194600190910190840162001085565b5085821015620010c55787850151600019600388901b60f8161c191681555b5050505050600190811b01905550565b60208152600062000f73602083018462000e39565b600060208284031215620010fd57600080fd5b815162000f738162000c92565b6080516144de6200113b600039600081816106280152818161255d015281816129930152612ac401526144de6000f3fe6080604052600436106102695760003560e01c806380f323a711610153578063ce0d8d20116100cb578063e20dac001161007f578063f2fde38b11610064578063f2fde38b146107bb578063f913f33a146107db578063fff6cae91461082457600080fd5b8063e20dac001461077c578063f1b156b21461079c57600080fd5b8063d4b83992116100b0578063d4b8399214610702578063d8dfeb451461072f578063e19a9dd91461075c57600080fd5b8063ce0d8d20146106c2578063d448a4ec146106e257600080fd5b8063ae054fdc11610122578063c5b0298911610107578063c5b029891461064a578063c910638914610677578063ca22b65a146106a257600080fd5b8063ae054fdc146105f6578063b9a3c84c1461061657600080fd5b806380f323a71461054c5780638da5cb5b146105625780639cd5b1151461058d578063a4f9edbf146105d657600080fd5b80635ad02cab116101e6578063715018a6116101b5578063776d1a011161019a578063776d1a01146104e95780637998a1c4146105095780637ceab3b11461051f57600080fd5b8063715018a6146104b457806375e0fc39146104c957600080fd5b80635ad02cab146103bf5780635aef7de6146104085780635da08758146104355780636ad0690a1461046257600080fd5b8063226beb191161023d5780633c4432f1116102225780633c4432f11461035057806350564e191461037057806352f6747a1461039d57600080fd5b8063226beb19146102eb57806329cb924d1461033d57600080fd5b8062c992061461026e578063086cfca8146102905780631b61cd22146102b0578063210f68ae146102d8575b600080fd5b34801561027a57600080fd5b5061028e610289366004613455565b610839565b005b34801561029c57600080fd5b5061028e6102ab366004613490565b6109db565b3480156102bc57600080fd5b506102c5610ad3565b6040519081526020015b60405180910390f35b61028e6102e6366004613745565b610b88565b3480156102f757600080fd5b50606c546103189073ffffffffffffffffffffffffffffffffffffffff1681565b60405173ffffffffffffffffffffffffffffffffffffffff90911681526020016102cf565b34801561034957600080fd5b50426102c5565b34801561035c57600080fd5b5061028e61036b366004613790565b610e9c565b34801561037c57600080fd5b506102c561038b366004613455565b606e6020526000908152604090205481565b3480156103a957600080fd5b506103b26110ab565b6040516102cf919061381b565b3480156103cb57600080fd5b506103b26040518060400160405280600581526020017f72756c657300000000000000000000000000000000000000000000000000000081525081565b34801561041457600080fd5b506066546103189073ffffffffffffffffffffffffffffffffffffffff1681565b34801561044157600080fd5b506102c5610450366004613455565b606f6020526000908152604090205481565b34801561046e57600080fd5b5060685461049b9074010000000000000000000000000000000000000000900467ffffffffffffffff1681565b60405167ffffffffffffffff90911681526020016102cf565b3480156104c057600080fd5b5061028e611139565b3480156104d557600080fd5b5061028e6104e436600461382e565b6111c6565b3480156104f557600080fd5b5061028e610504366004613490565b6113bf565b34801561051557600080fd5b506102c5606b5481565b34801561052b57600080fd5b506065546103189073ffffffffffffffffffffffffffffffffffffffff1681565b34801561055857600080fd5b506102c560695481565b34801561056e57600080fd5b5060335473ffffffffffffffffffffffffffffffffffffffff16610318565b34801561059957600080fd5b506103b26040518060400160405280600b81526020017f6578706c616e6174696f6e00000000000000000000000000000000000000000081525081565b3480156105e257600080fd5b5061028e6105f136600461385a565b6114b7565b34801561060257600080fd5b5061028e610611366004613455565b6116ee565b34801561062257600080fd5b506103187f000000000000000000000000000000000000000000000000000000000000000081565b34801561065657600080fd5b50606d546103189073ffffffffffffffffffffffffffffffffffffffff1681565b34801561068357600080fd5b5060655473ffffffffffffffffffffffffffffffffffffffff16610318565b3480156106ae57600080fd5b5061028e6106bd366004613490565b6119a6565b3480156106ce57600080fd5b5061028e6106dd36600461388f565b611a96565b3480156106ee57600080fd5b5061028e6106fd366004613455565b611bc9565b34801561070e57600080fd5b506067546103189073ffffffffffffffffffffffffffffffffffffffff1681565b34801561073b57600080fd5b506068546103189073ffffffffffffffffffffffffffffffffffffffff1681565b34801561076857600080fd5b5061028e610777366004613490565b611c4f565b34801561078857600080fd5b5061028e6107973660046138d8565b611e73565b3480156107a857600080fd5b5061028e6107b736600461394a565b5050565b3480156107c757600080fd5b5061028e6107d6366004613490565b612342565b3480156107e757600080fd5b506103b26040518060400160405280600c81526020017f70726f706f73616c48617368000000000000000000000000000000000000000081525081565b34801561083057600080fd5b5061028e61246f565b60335473ffffffffffffffffffffffffffffffffffffffff1633146108bf576040517f08c379a000000000000000000000000000000000000000000000000000000000815260206004820181905260248201527f4f776e61626c653a2063616c6c6572206973206e6f7420746865206f776e657260448201526064015b60405180910390fd5b6108c761250c565b73ffffffffffffffffffffffffffffffffffffffff166390978d1b826040518263ffffffff1660e01b815260040161090191815260200190565b602060405180830381865afa15801561091e573d6000803e3d6000fd5b505050506040513d601f19601f82011682018060405250810190610942919061398a565b6109a8576040517f08c379a000000000000000000000000000000000000000000000000000000000815260206004820152601860248201527f4964656e746966696572206e6f7420737570706f72746564000000000000000060448201526064016108b6565b606b81905560405181907ff35b61cf27d8ae21648935573dbd9eefad145ebc7dfe806273e3f93d9896ab9c90600090a250565b60335473ffffffffffffffffffffffffffffffffffffffff163314610a5c576040517f08c379a000000000000000000000000000000000000000000000000000000000815260206004820181905260248201527f4f776e61626c653a2063616c6c6572206973206e6f7420746865206f776e657260448201526064016108b6565b6066805473ffffffffffffffffffffffffffffffffffffffff8381167fffffffffffffffffffffffff0000000000000000000000000000000000000000831681179093556040519116919082907f52ae88b092de36f87fb43fe794eb1381023b9c1bce563a871154022c63dce34290600090a35050565b606c546068546040517f4360af3d00000000000000000000000000000000000000000000000000000000815273ffffffffffffffffffffffffffffffffffffffff918216600482015260009283921690634360af3d90602401602060405180830381865afa158015610b49573d6000803e3d6000fd5b505050506040513d601f19601f82011682018060405250810190610b6d91906139a7565b90506069548111610b8057606954610b82565b805b91505090565b610b906125e3565b610bbd606780547fffffffffffffffffffffff00ffffffffffffffffffffffffffffffffffffffff169055565b600081604051602001610bd09190613a98565b604080517fffffffffffffffffffffffffffffffffffffffffffffffffffffffffffffffe081840301815291815281516020928301206000818152606e909352912054909150610c7c576040517f08c379a000000000000000000000000000000000000000000000000000000000815260206004820152601c60248201527f50726f706f73616c206861736820646f6573206e6f742065786973740000000060448201526064016108b6565b6000818152606e60209081526040808320805490849055808452606f90925280832092909255606c5491517f8ea2f2ab00000000000000000000000000000000000000000000000000000000815260048101829052909173ffffffffffffffffffffffffffffffffffffffff1690638ea2f2ab906024016020604051808303816000875af1158015610d12573d6000803e3d6000fd5b505050506040513d601f19601f82011682018060405250810190610d36919061398a565b5060005b8351811015610e25576000848281518110610d5757610d57613aab565b60200260200101519050610d7d8160000151826040015183606001518460200151612667565b610de3576040517f08c379a000000000000000000000000000000000000000000000000000000000815260206004820152601d60248201527f4661696c656420746f2065786563757465207472616e73616374696f6e00000060448201526064016108b6565b8183857f67f39f68c4fc5b0946e6512365dcb417c73df77a42aa2a37a4e464b07184f7a160405160405180910390a45080610e1d81613b09565b915050610d3a565b50604051819083907f921387264e63e358003f4757db4b456f399ba4ffbaa053ffab8439d6a32ef59c90600090a35050610e99606780547fffffffffffffffffffffff00ffffffffffffffffffffffffffffffffffffffff1674010000000000000000000000000000000000000000179055565b50565b60335473ffffffffffffffffffffffffffffffffffffffff163314610f1d576040517f08c379a000000000000000000000000000000000000000000000000000000000815260206004820181905260248201527f4f776e61626c653a2063616c6c6572206973206e6f7420746865206f776e657260448201526064016108b6565b60008167ffffffffffffffff1611610f91576040517f08c379a000000000000000000000000000000000000000000000000000000000815260206004820152601360248201527f4c6976656e6573732063616e277420626520300000000000000000000000000060448201526064016108b6565b63bb7448008167ffffffffffffffff161061102e576040517f08c379a000000000000000000000000000000000000000000000000000000000815260206004820152602560248201527f4c6976656e657373206d757374206265206c657373207468616e20353230302060448201527f7765656b7300000000000000000000000000000000000000000000000000000060648201526084016108b6565b606880547fffffffff0000000000000000ffffffffffffffffffffffffffffffffffffffff167401000000000000000000000000000000000000000067ffffffffffffffff8416908102919091179091556040517f0ccc3b904401a4ffd81153f4acf19daaa09629a146f2642dc4785ff2d243d3aa90600090a250565b606a80546110b890613b41565b80601f01602080910402602001604051908101604052809291908181526020018280546110e490613b41565b80156111315780601f1061110657610100808354040283529160200191611131565b820191906000526020600020905b81548152906001019060200180831161111457829003601f168201915b505050505081565b60335473ffffffffffffffffffffffffffffffffffffffff1633146111ba576040517f08c379a000000000000000000000000000000000000000000000000000000000815260206004820181905260248201527f4f776e61626c653a2063616c6c6572206973206e6f7420746865206f776e657260448201526064016108b6565b6111c460006128cb565b565b60335473ffffffffffffffffffffffffffffffffffffffff163314611247576040517f08c379a000000000000000000000000000000000000000000000000000000000815260206004820181905260248201527f4f776e61626c653a2063616c6c6572206973206e6f7420746865206f776e657260448201526064016108b6565b61124f612942565b6040517f3a3ab67200000000000000000000000000000000000000000000000000000000815273ffffffffffffffffffffffffffffffffffffffff84811660048301529190911690633a3ab67290602401602060405180830381865afa1580156112bd573d6000803e3d6000fd5b505050506040513d601f19601f820116820180604052508101906112e1919061398a565b611347576040517f08c379a000000000000000000000000000000000000000000000000000000000815260206004820152601860248201527f426f6e6420746f6b656e206e6f7420737570706f72746564000000000000000060448201526064016108b6565b606880547fffffffffffffffffffffffff00000000000000000000000000000000000000001673ffffffffffffffffffffffffffffffffffffffff841690811790915560698290556040518291907f6d99292521faedf161a1edd828ddef955afcb227fa80a42c65e5ac25dba40c0990600090a35050565b60335473ffffffffffffffffffffffffffffffffffffffff163314611440576040517f08c379a000000000000000000000000000000000000000000000000000000000815260206004820181905260248201527f4f776e61626c653a2063616c6c6572206973206e6f7420746865206f776e657260448201526064016108b6565b6067805473ffffffffffffffffffffffffffffffffffffffff8381167fffffffffffffffffffffffff0000000000000000000000000000000000000000831681179093556040519116919082907f90cc2f570a6eb594b1580ea3e41247d2d73a55281889e86bd4ec2fc29c7e62d690600090a35050565b600054610100900460ff166114d25760005460ff16156114d6565b303b155b611562576040517f08c379a000000000000000000000000000000000000000000000000000000000815260206004820152602e60248201527f496e697469616c697a61626c653a20636f6e747261637420697320616c72656160448201527f647920696e697469616c697a656400000000000000000000000000000000000060648201526084016108b6565b600054610100900460ff161580156115a157600080547fffffffffffffffffffffffffffffffffffffffffffffffffffffffffffff0000166101011790555b6115e5606780547fffffffffffffffffffffff00ffffffffffffffffffffffffffffffffffffffff1674010000000000000000000000000000000000000000179055565b6115ed6129d7565b6000806000806000808780602001905181019061160a9190613b9f565b95509550955095509550955061162085856111c6565b61162983611a96565b61163282610839565b61163b81610e9c565b611644866109db565b61164d866113bf565b61165686612342565b61165e612a76565b60665460675460405173ffffffffffffffffffffffffffffffffffffffff918216815291811691908816907f268908d64ce6f0c721a4acf6ea8202edcdd077d5fee9976a9ce604f5bf30098f9060200160405180910390a350505050505080156107b757600080547fffffffffffffffffffffffffffffffffffffffffffffffffffffffffffff00ff1690555050565b6116f66125e3565b611723606780547fffffffffffffffffffffff00ffffffffffffffffffffffffffffffffffffffff169055565b8061178a576040517f08c379a000000000000000000000000000000000000000000000000000000000815260206004820152601560248201527f496e76616c69642070726f706f73616c2068617368000000000000000000000060448201526064016108b6565b6000818152606e602052604090205480611800576040517f08c379a000000000000000000000000000000000000000000000000000000000815260206004820152601c60248201527f50726f706f73616c206861736820646f6573206e6f742065786973740000000060448201526064016108b6565b606c546040517f883028840000000000000000000000000000000000000000000000000000000081526004810183905260009173ffffffffffffffffffffffffffffffffffffffff169063883028849060240161020060405180830381865afa158015611871573d6000803e3d6000fd5b505050506040513d601f19601f820116820180604052508101906118959190613d0b565b6020015173ffffffffffffffffffffffffffffffffffffffff1614611916576040517f08c379a000000000000000000000000000000000000000000000000000000000815260206004820152601960248201527f4f4f76332075706772616465206e6f742064657465637465640000000000000060448201526064016108b6565b6000828152606e60209081526040808320839055838352606f90915280822082905551829184917f5edbbf8fde9a20c0b179352d836e1b966c991ff50d04bb4c014ef9eaac3d75cd9190a350610e99606780547fffffffffffffffffffffff00ffffffffffffffffffffffffffffffffffffffff1674010000000000000000000000000000000000000000179055565b60335473ffffffffffffffffffffffffffffffffffffffff163314611a27576040517f08c379a000000000000000000000000000000000000000000000000000000000815260206004820181905260248201527f4f776e61626c653a2063616c6c6572206973206e6f7420746865206f776e657260448201526064016108b6565b606d80547fffffffffffffffffffffffff00000000000000000000000000000000000000001673ffffffffffffffffffffffffffffffffffffffff83169081179091556040517fe0bfd64da71d0b48c43fc899463d98150863aec223fad28e3584ab986d06f67090600090a250565b60335473ffffffffffffffffffffffffffffffffffffffff163314611b17576040517f08c379a000000000000000000000000000000000000000000000000000000000815260206004820181905260248201527f4f776e61626c653a2063616c6c6572206973206e6f7420746865206f776e657260448201526064016108b6565b6000815111611b82576040517f08c379a000000000000000000000000000000000000000000000000000000000815260206004820152601660248201527f52756c65732063616e206e6f7420626520656d7074790000000000000000000060448201526064016108b6565b606a611b8e8282613e39565b507fd126aed3fefb9793c6164dec52a0cd8fed9bd9a8867f4d7b41dbd6c7134ebf3081604051611bbe919061381b565b60405180910390a150565b6000818152606f6020526040902054606c5473ffffffffffffffffffffffffffffffffffffffff163303611c46576000818152606e60209081526040808320839055848352606f90915280822082905551839183917f5edbbf8fde9a20c0b179352d836e1b966c991ff50d04bb4c014ef9eaac3d75cd9190a35050565b6107b7816116ee565b60335473ffffffffffffffffffffffffffffffffffffffff163314611cd0576040517f08c379a000000000000000000000000000000000000000000000000000000000815260206004820181905260248201527f4f776e61626c653a2063616c6c6572206973206e6f7420746865206f776e657260448201526064016108b6565b73ffffffffffffffffffffffffffffffffffffffff811615611e00576040517f01ffc9a70000000000000000000000000000000000000000000000000000000081527fe6d7a83a00000000000000000000000000000000000000000000000000000000600482015273ffffffffffffffffffffffffffffffffffffffff8216906301ffc9a790602401602060405180830381865afa158015611d76573d6000803e3d6000fd5b505050506040513d601f19601f82011682018060405250810190611d9a919061398a565b611e00576040517f08c379a000000000000000000000000000000000000000000000000000000000815260206004820181905260248201527f477561726420646f6573206e6f7420696d706c656d656e74204945524331363560448201526064016108b6565b606580547fffffffffffffffffffffffff00000000000000000000000000000000000000001673ffffffffffffffffffffffffffffffffffffffff83169081179091556040519081527f1151116914515bc0891ff9047a6cb32cf902546f83066499bcf8ba33d2353fa290602001611bbe565b611e7b6125e3565b611ea8606780547fffffffffffffffffffffff00ffffffffffffffffffffffffffffffffffffffff169055565b6040805180820190915260608152426020820181905290339060005b855181101561205c57600073ffffffffffffffffffffffffffffffffffffffff16868281518110611ef757611ef7613aab565b60200260200101516000015173ffffffffffffffffffffffffffffffffffffffff1603611f80576040517f08c379a000000000000000000000000000000000000000000000000000000000815260206004820152601e60248201527f5468652060746f6020616464726573732063616e6e6f7420626520307830000060448201526064016108b6565b6000868281518110611f9457611f94613aab565b60200260200101516060015151111561204a57611fe4868281518110611fbc57611fbc613aab565b60200260200101516000015173ffffffffffffffffffffffffffffffffffffffff163b151590565b61204a576040517f08c379a000000000000000000000000000000000000000000000000000000000815260206004820152601d60248201527f454f412063616e2774206163636570742074782077697468206461746100000060448201526064016108b6565b8061205481613b09565b915050611ec4565b50848152604051600090612074908790602001613a98565b60405160208183030381529060405280519060200120905060006120988287612b8b565b6000838152606e602052604090205490915015612111576040517f08c379a000000000000000000000000000000000000000000000000000000000815260206004820152601f60248201527f4475706c69636174652070726f706f73616c73206e6f7420616c6c6f7765640060448201526064016108b6565b600061211b610ad3565b6068549091506121439073ffffffffffffffffffffffffffffffffffffffff16333084612c77565b606c5460685461216d9173ffffffffffffffffffffffffffffffffffffffff918216911683612d59565b606c54606d54606854606b546040517f6457c97900000000000000000000000000000000000000000000000000000000815260009473ffffffffffffffffffffffffffffffffffffffff90811694636457c97994612201948a948e94309481169367ffffffffffffffff74010000000000000000000000000000000000000000820416939116918c91908c90600401613f53565b6020604051808303816000875af1158015612220573d6000803e3d6000fd5b505050506040513d601f19601f8201168201806040525081019061224491906139a7565b6000858152606e60209081526040808320849055838352606f90915290208590556068549091508190889073ffffffffffffffffffffffffffffffffffffffff8916907f3100c6fe4fcf9f84fa7552fac0148f6481fa5a5c79da76d0460fa5cd7852566d90899089908e90606a906122de9074010000000000000000000000000000000000000000900467ffffffffffffffff1688613fce565b6040516122ef959493929190613fe1565b60405180910390a4505050505050506107b7606780547fffffffffffffffffffffff00ffffffffffffffffffffffffffffffffffffffff1674010000000000000000000000000000000000000000179055565b60335473ffffffffffffffffffffffffffffffffffffffff1633146123c3576040517f08c379a000000000000000000000000000000000000000000000000000000000815260206004820181905260248201527f4f776e61626c653a2063616c6c6572206973206e6f7420746865206f776e657260448201526064016108b6565b73ffffffffffffffffffffffffffffffffffffffff8116612466576040517f08c379a000000000000000000000000000000000000000000000000000000000815260206004820152602660248201527f4f776e61626c653a206e6577206f776e657220697320746865207a65726f206160448201527f646472657373000000000000000000000000000000000000000000000000000060648201526084016108b6565b610e99816128cb565b6124776125e3565b6124a4606780547fffffffffffffffffffffff00ffffffffffffffffffffffffffffffffffffffff169055565b6124ac612a76565b6111c4606780547fffffffffffffffffffffff00ffffffffffffffffffffffffffffffffffffffff1674010000000000000000000000000000000000000000179055565b73ffffffffffffffffffffffffffffffffffffffff163b151590565b6040517faafd5e400000000000000000000000000000000000000000000000000000000081527f4964656e74696669657257686974656c6973740000000000000000000000000060048201526000907f000000000000000000000000000000000000000000000000000000000000000073ffffffffffffffffffffffffffffffffffffffff169063aafd5e40906024015b602060405180830381865afa1580156125ba573d6000803e3d6000fd5b505050506040513d601f19601f820116820180604052508101906125de91906140d3565b905090565b60675474010000000000000000000000000000000000000000900460ff166111c4576040517f08c379a000000000000000000000000000000000000000000000000000000000815260206004820152601f60248201527f5265656e7472616e637947756172643a207265656e7472616e742063616c6c0060448201526064016108b6565b60655460009073ffffffffffffffffffffffffffffffffffffffff161561275757606554604080518082018252600281527f3078000000000000000000000000000000000000000000000000000000000000602082015290517f75f0bb5200000000000000000000000000000000000000000000000000000000815273ffffffffffffffffffffffffffffffffffffffff909216916375f0bb529161272491899189918991899160009182918291829182919082906004016140f0565b600060405180830381600087803b15801561273e57600080fd5b505af1158015612752573d6000803e3d6000fd5b505050505b6067546040517f468721a700000000000000000000000000000000000000000000000000000000815273ffffffffffffffffffffffffffffffffffffffff9091169063468721a7906127b3908890889088908890600401614189565b6020604051808303816000875af11580156127d2573d6000803e3d6000fd5b505050506040513d601f19601f820116820180604052508101906127f6919061398a565b60655490915073ffffffffffffffffffffffffffffffffffffffff16156128c3576065546040517f932713680000000000000000000000000000000000000000000000000000000081527f30780000000000000000000000000000000000000000000000000000000000006004820152821515602482015273ffffffffffffffffffffffffffffffffffffffff90911690639327136890604401600060405180830381600087803b1580156128aa57600080fd5b505af11580156128be573d6000803e3d6000fd5b505050505b949350505050565b6033805473ffffffffffffffffffffffffffffffffffffffff8381167fffffffffffffffffffffffff0000000000000000000000000000000000000000831681179093556040519116919082907f8be0079c531659141344cd1fd0a4f28419497f9722a3daafe3b4186f6b6457e090600090a35050565b6040517faafd5e400000000000000000000000000000000000000000000000000000000081527f436f6c6c61746572616c57686974656c6973740000000000000000000000000060048201526000907f000000000000000000000000000000000000000000000000000000000000000073ffffffffffffffffffffffffffffffffffffffff169063aafd5e409060240161259d565b600054610100900460ff16612a6e576040517f08c379a000000000000000000000000000000000000000000000000000000000815260206004820152602b60248201527f496e697469616c697a61626c653a20636f6e7472616374206973206e6f74206960448201527f6e697469616c697a696e6700000000000000000000000000000000000000000060648201526084016108b6565b6111c4612e57565b6040517faafd5e400000000000000000000000000000000000000000000000000000000081527f4f7074696d69737469634f7261636c655633000000000000000000000000000060048201527f000000000000000000000000000000000000000000000000000000000000000073ffffffffffffffffffffffffffffffffffffffff169063aafd5e4090602401602060405180830381865afa158015612b20573d6000803e3d6000fd5b505050506040513d601f19601f82011682018060405250810190612b4491906140d3565b606c80547fffffffffffffffffffffffff00000000000000000000000000000000000000001673ffffffffffffffffffffffffffffffffffffffff92909216919091179055565b6060612bdc604051806020016040528060008152506040518060400160405280600c81526020017f70726f706f73616c48617368000000000000000000000000000000000000000081525085612ef7565b6040518060400160405280600b81526020017f6578706c616e6174696f6e000000000000000000000000000000000000000000815250836040518060400160405280600581526020017f72756c6573000000000000000000000000000000000000000000000000000000815250606a604051602001612c5f9594939291906141d6565b60405160208183030381529060405290505b92915050565b60405173ffffffffffffffffffffffffffffffffffffffff80851660248301528316604482015260648101829052612d539085907f23b872dd00000000000000000000000000000000000000000000000000000000906084015b604080517fffffffffffffffffffffffffffffffffffffffffffffffffffffffffffffffe08184030181529190526020810180517bffffffffffffffffffffffffffffffffffffffffffffffffffffffff167fffffffff0000000000000000000000000000000000000000000000000000000090931692909217909152612f3e565b50505050565b6040517fdd62ed3e00000000000000000000000000000000000000000000000000000000815230600482015273ffffffffffffffffffffffffffffffffffffffff8381166024830152600091839186169063dd62ed3e90604401602060405180830381865afa158015612dd0573d6000803e3d6000fd5b505050506040513d601f19601f82011682018060405250810190612df491906139a7565b612dfe9190613fce565b60405173ffffffffffffffffffffffffffffffffffffffff8516602482015260448101829052909150612d539085907f095ea7b30000000000000000000000000000000000000000000000000000000090606401612cd1565b600054610100900460ff16612eee576040517f08c379a000000000000000000000000000000000000000000000000000000000815260206004820152602b60248201527f496e697469616c697a61626c653a20636f6e7472616374206973206e6f74206960448201527f6e697469616c697a696e6700000000000000000000000000000000000000000060648201526084016108b6565b6111c4336128cb565b60606000612f05858561304f565b90508481612f1285613091565b604051602001612f249392919061436d565b6040516020818303038152906040529150505b9392505050565b6000612fa0826040518060400160405280602081526020017f5361666545524332303a206c6f772d6c6576656c2063616c6c206661696c65648152508573ffffffffffffffffffffffffffffffffffffffff166130d19092919063ffffffff16565b80519091501561304a5780806020019051810190612fbe919061398a565b61304a576040517f08c379a000000000000000000000000000000000000000000000000000000000815260206004820152602a60248201527f5361666545524332303a204552433230206f7065726174696f6e20646964206e60448201527f6f7420737563636565640000000000000000000000000000000000000000000060648201526084016108b6565b505050565b815160609015613080578160405160200161306a91906143b0565b6040516020818303038152906040529050612c71565b8160405160200161306a919061441c565b60606130a0608083901c6130e0565b6130a9836130e0565b6040805160208101939093528201526060016040516020818303038152906040529050919050565b60606128c38484600085613282565b6000808260001c9050806fffffffffffffffffffffffffffffffff169050806801000000000000000002811777ffffffffffffffff0000000000000000ffffffffffffffff169050806401000000000281177bffffffff00000000ffffffff00000000ffffffff00000000ffffffff16905080620100000281177dffff0000ffff0000ffff0000ffff0000ffff0000ffff0000ffff0000ffff169050806101000281177eff00ff00ff00ff00ff00ff00ff00ff00ff00ff00ff00ff00ff00ff00ff00ff1690508060100281177f0f0f0f0f0f0f0f0f0f0f0f0f0f0f0f0f0f0f0f0f0f0f0f0f0f0f0f0f0f0f0f0f16905060006008827f080808080808080808080808080808080808080808080808080808080808080816816132045761320461445d565b0460047f040404040404040404040404040404040404040404040404040404040404040484160460027f020202020202020202020202020202020202020202020202020202020202020285160417166027029091017f3030303030303030303030303030303030303030303030303030303030303030019392505050565b606082471015613314576040517f08c379a000000000000000000000000000000000000000000000000000000000815260206004820152602660248201527f416464726573733a20696e73756666696369656e742062616c616e636520666f60448201527f722063616c6c000000000000000000000000000000000000000000000000000060648201526084016108b6565b843b61337c576040517f08c379a000000000000000000000000000000000000000000000000000000000815260206004820152601d60248201527f416464726573733a2063616c6c20746f206e6f6e2d636f6e747261637400000060448201526064016108b6565b6000808673ffffffffffffffffffffffffffffffffffffffff1685876040516133a5919061448c565b60006040518083038185875af1925050503d80600081146133e2576040519150601f19603f3d011682016040523d82523d6000602084013e6133e7565b606091505b50915091506133f7828286613402565b979650505050505050565b60608315613411575081612f37565b8251156134215782518084602001fd5b816040517f08c379a00000000000000000000000000000000000000000000000000000000081526004016108b6919061381b565b60006020828403121561346757600080fd5b5035919050565b73ffffffffffffffffffffffffffffffffffffffff81168114610e9957600080fd5b6000602082840312156134a257600080fd5b8135612f378161346e565b7f4e487b7100000000000000000000000000000000000000000000000000000000600052604160045260246000fd5b6040516080810167ffffffffffffffff811182821017156134ff576134ff6134ad565b60405290565b604051610180810167ffffffffffffffff811182821017156134ff576134ff6134ad565b604051601f82017fffffffffffffffffffffffffffffffffffffffffffffffffffffffffffffffe016810167ffffffffffffffff81118282101715613570576135706134ad565b604052919050565b600067ffffffffffffffff821115613592576135926134ad565b50601f017fffffffffffffffffffffffffffffffffffffffffffffffffffffffffffffffe01660200190565b60006135d16135cc84613578565b613529565b90508281528383830111156135e557600080fd5b828260208301376000602084830101529392505050565b600082601f83011261360d57600080fd5b612f37838335602085016135be565b600082601f83011261362d57600080fd5b8135602067ffffffffffffffff8083111561364a5761364a6134ad565b8260051b613659838201613529565b938452858101830193838101908886111561367357600080fd5b84880192505b85831015613739578235848111156136915760008081fd5b88016080818b037fffffffffffffffffffffffffffffffffffffffffffffffffffffffffffffffe0018113156136c75760008081fd5b6136cf6134dc565b878301356136dc8161346e565b8152604083810135600281106136f25760008081fd5b828a01526060848101358284015292840135928884111561371557600091508182fd5b6137238e8b868801016135fc565b9083015250845250509184019190840190613679565b98975050505050505050565b60006020828403121561375757600080fd5b813567ffffffffffffffff81111561376e57600080fd5b6128c38482850161361c565b67ffffffffffffffff81168114610e9957600080fd5b6000602082840312156137a257600080fd5b8135612f378161377a565b60005b838110156137c85781810151838201526020016137b0565b50506000910152565b600081518084526137e98160208601602086016137ad565b601f017fffffffffffffffffffffffffffffffffffffffffffffffffffffffffffffffe0169290920160200192915050565b602081526000612f3760208301846137d1565b6000806040838503121561384157600080fd5b823561384c8161346e565b946020939093013593505050565b60006020828403121561386c57600080fd5b813567ffffffffffffffff81111561388357600080fd5b6128c3848285016135fc565b6000602082840312156138a157600080fd5b813567ffffffffffffffff8111156138b857600080fd5b8201601f810184136138c957600080fd5b6128c3848235602084016135be565b600080604083850312156138eb57600080fd5b823567ffffffffffffffff8082111561390357600080fd5b61390f8683870161361c565b9350602085013591508082111561392557600080fd5b50613932858286016135fc565b9150509250929050565b8015158114610e9957600080fd5b6000806040838503121561395d57600080fd5b82359150602083013561396f8161393c565b809150509250929050565b80516139858161393c565b919050565b60006020828403121561399c57600080fd5b8151612f378161393c565b6000602082840312156139b957600080fd5b5051919050565b600281106139f7577f4e487b7100000000000000000000000000000000000000000000000000000000600052602160045260246000fd5b9052565b600081518084526020808501808196508360051b8101915082860160005b85811015613a8b5782840389528151608073ffffffffffffffffffffffffffffffffffffffff825116865286820151613a54888801826139c0565b5060408281015190870152606091820151918601819052613a77818701836137d1565b9a87019a9550505090840190600101613a19565b5091979650505050505050565b602081526000612f3760208301846139fb565b7f4e487b7100000000000000000000000000000000000000000000000000000000600052603260045260246000fd5b7f4e487b7100000000000000000000000000000000000000000000000000000000600052601160045260246000fd5b60007fffffffffffffffffffffffffffffffffffffffffffffffffffffffffffffffff8203613b3a57613b3a613ada565b5060010190565b600181811c90821680613b5557607f821691505b602082108103613b8e577f4e487b7100000000000000000000000000000000000000000000000000000000600052602260045260246000fd5b50919050565b80516139858161377a565b60008060008060008060c08789031215613bb857600080fd5b8651613bc38161346e565b6020880151909650613bd48161346e565b60408801516060890151919650945067ffffffffffffffff811115613bf857600080fd5b8701601f81018913613c0957600080fd5b8051613c176135cc82613578565b8181528a6020838501011115613c2c57600080fd5b613c3d8260208301602086016137ad565b80955050505060808701519150613c5660a08801613b94565b90509295509295509295565b80516139858161346e565b600060a08284031215613c7f57600080fd5b60405160a0810181811067ffffffffffffffff82111715613ca257613ca26134ad565b80604052508091508251613cb58161393c565b81526020830151613cc58161393c565b60208201526040830151613cd88161393c565b60408201526060830151613ceb8161346e565b60608201526080830151613cfe8161346e565b6080919091015292915050565b60006102008284031215613d1e57600080fd5b613d26613505565b613d308484613c6d565b8152613d3e60a08401613c62565b6020820152613d4f60c08401613b94565b6040820152613d6060e0840161397a565b6060820152610100613d73818501613c62565b6080830152610120613d86818601613b94565b60a0840152610140613d9981870161397a565b60c08501526101608087015160e0860152610180870151848601526101a087015183860152613dcb6101c08801613c62565b82860152613ddc6101e08801613c62565b90850152509195945050505050565b601f82111561304a57600081815260208120601f850160051c81016020861015613e125750805b601f850160051c820191505b81811015613e3157828155600101613e1e565b505050505050565b815167ffffffffffffffff811115613e5357613e536134ad565b613e6781613e618454613b41565b84613deb565b602080601f831160018114613eba5760008415613e845750858301515b7fffffffffffffffffffffffffffffffffffffffffffffffffffffffffffffffff600386901b1c1916600185901b178555613e31565b6000858152602081207fffffffffffffffffffffffffffffffffffffffffffffffffffffffffffffffe08616915b82811015613f0757888601518255948401946001909101908401613ee8565b5085821015613f4357878501517fffffffffffffffffffffffffffffffffffffffffffffffffffffffffffffffff600388901b60f8161c191681555b5050505050600190811b01905550565b6000610120808352613f678184018d6137d1565b73ffffffffffffffffffffffffffffffffffffffff9b8c166020850152998b1660408401525050958816606087015267ffffffffffffffff9490941660808601529190951660a084015260c083019490945260e08201939093526101000191909152919050565b80820180821115612c7157612c71613ada565b60a0815260008651604060a0840152613ffd60e08401826139fb565b905060208089015160c08501528781850152838203604085015261402182886137d1565b915083820360608501526000865461403881613b41565b80855260018281168015614053576001811461408b576140b9565b7fffffffffffffffffffffffffffffffffffffffffffffffffffffffffffffff008416868801528583151560051b88010194506140b9565b8a6000528560002060005b848110156140b1578154898201890152908301908701614096565b880187019550505b505050508093505050508260808301529695505050505050565b6000602082840312156140e557600080fd5b8151612f378161346e565b600061016073ffffffffffffffffffffffffffffffffffffffff808f1684528d60208501528160408501526141278285018e6137d1565b9150614136606085018d6139c0565b8a60808501528960a08501528860c085015280881660e085015280871661010085015283820361012085015261416c82876137d1565b925080851661014085015250509c9b505050505050505050505050565b73ffffffffffffffffffffffffffffffffffffffff851681528360208201526080604082015260006141be60808301856137d1565b90506141cd60608301846139c0565b95945050505050565b6000865160206141e98285838c016137ad565b81840191507f2c0000000000000000000000000000000000000000000000000000000000000082526001885161422481838601858d016137ad565b8084019350507f3a22000000000000000000000000000000000000000000000000000000000000808285015288516142628160038701868d016137ad565b7f222c00000000000000000000000000000000000000000000000000000000000060039590910194850152875161429f8160058701868c016137ad565b600594019384015285546007906000906142b881613b41565b81851680156142ce576001811461430557614335565b7fffffffffffffffffffffffffffffffffffffffffffffffffffffffffffffff008316858901528482151583028901019350614335565b8a6000528660002060005b8381101561432b5781548a8201880152908701908801614310565b5050848289010193505b50507f22000000000000000000000000000000000000000000000000000000000000008252506001019b9a5050505050505050505050565b6000845161437f8184602089016137ad565b8451908301906143938183602089016137ad565b84519101906143a68183602088016137ad565b0195945050505050565b7f2c000000000000000000000000000000000000000000000000000000000000008152600082516143e88160018501602087016137ad565b7f3a000000000000000000000000000000000000000000000000000000000000006001939091019283015250600201919050565b6000825161442e8184602087016137ad565b7f3a00000000000000000000000000000000000000000000000000000000000000920191825250600101919050565b7f4e487b7100000000000000000000000000000000000000000000000000000000600052601260045260246000fd5b6000825161449e8184602087016137ad565b919091019291505056fea264697066735822122059cd61e501bb0a313c4581280c5be7c92cd7e49764508932b90badd81b95a19464736f6c63430008100033496e697469616c697a61626c653a20636f6e7472616374206973206e6f7420694f776e61626c653a2063616c6c6572206973206e6f7420746865206f776e6572",
  "linkReferences": {},
  "deployedLinkReferences": {}
}