{
  "_format": "hh-sol-artifact-1",
  "contractName": "OZGovernorModule",
  "sourceName": "contracts/OZGovernorModule.sol",
  "abi": [
    {
      "inputs": [
        {
          "internalType": "address",
          "name": "_owner",
          "type": "address"
        },
        {
          "internalType": "address",
          "name": "_target",
          "type": "address"
        },
        {
          "internalType": "address",
          "name": "_multisend",
          "type": "address"
        },
        {
          "internalType": "address",
          "name": "_token",
          "type": "address"
        },
        {
          "internalType": "string",
          "name": "_name",
          "type": "string"
        },
        {
          "internalType": "uint256",
          "name": "_votingDelay",
          "type": "uint256"
        },
        {
          "internalType": "uint256",
          "name": "_votingPeriod",
          "type": "uint256"
        },
        {
          "internalType": "uint256",
          "name": "_proposalThreshold",
          "type": "uint256"
        },
        {
          "internalType": "uint256",
          "name": "_quorum",
          "type": "uint256"
        },
        {
          "internalType": "uint64",
          "name": "_initialVoteExtension",
          "type": "uint64"
        }
      ],
      "stateMutability": "nonpayable",
      "type": "constructor"
    },
    {
      "inputs": [],
      "name": "TransactionsFailed",
      "type": "error"
    },
    {
      "anonymous": false,
      "inputs": [
        {
          "indexed": false,
          "internalType": "uint64",
          "name": "oldVoteExtension",
          "type": "uint64"
        },
        {
          "indexed": false,
          "internalType": "uint64",
          "name": "newVoteExtension",
          "type": "uint64"
        }
      ],
      "name": "LateQuorumVoteExtensionSet",
      "type": "event"
    },
    {
      "anonymous": false,
      "inputs": [
        {
          "indexed": true,
          "internalType": "address",
          "name": "multisend",
          "type": "address"
        }
      ],
      "name": "MultisendSet",
      "type": "event"
    },
    {
      "anonymous": false,
      "inputs": [
        {
          "indexed": true,
          "internalType": "address",
          "name": "owner",
          "type": "address"
        },
        {
          "indexed": true,
          "internalType": "address",
          "name": "target",
          "type": "address"
        }
      ],
      "name": "OZGovernorModuleSetUp",
      "type": "event"
    },
    {
      "anonymous": false,
      "inputs": [
        {
          "indexed": true,
          "internalType": "address",
          "name": "previousOwner",
          "type": "address"
        },
        {
          "indexed": true,
          "internalType": "address",
          "name": "newOwner",
          "type": "address"
        }
      ],
      "name": "OwnershipTransferred",
      "type": "event"
    },
    {
      "anonymous": false,
      "inputs": [
        {
          "indexed": false,
          "internalType": "uint256",
          "name": "proposalId",
          "type": "uint256"
        }
      ],
      "name": "ProposalCanceled",
      "type": "event"
    },
    {
      "anonymous": false,
      "inputs": [
        {
          "indexed": false,
          "internalType": "uint256",
          "name": "proposalId",
          "type": "uint256"
        },
        {
          "indexed": false,
          "internalType": "address",
          "name": "proposer",
          "type": "address"
        },
        {
          "indexed": false,
          "internalType": "address[]",
          "name": "targets",
          "type": "address[]"
        },
        {
          "indexed": false,
          "internalType": "uint256[]",
          "name": "values",
          "type": "uint256[]"
        },
        {
          "indexed": false,
          "internalType": "string[]",
          "name": "signatures",
          "type": "string[]"
        },
        {
          "indexed": false,
          "internalType": "bytes[]",
          "name": "calldatas",
          "type": "bytes[]"
        },
        {
          "indexed": false,
          "internalType": "uint256",
          "name": "startBlock",
          "type": "uint256"
        },
        {
          "indexed": false,
          "internalType": "uint256",
          "name": "endBlock",
          "type": "uint256"
        },
        {
          "indexed": false,
          "internalType": "string",
          "name": "description",
          "type": "string"
        }
      ],
      "name": "ProposalCreated",
      "type": "event"
    },
    {
      "anonymous": false,
      "inputs": [
        {
          "indexed": false,
          "internalType": "uint256",
          "name": "proposalId",
          "type": "uint256"
        }
      ],
      "name": "ProposalExecuted",
      "type": "event"
    },
    {
      "anonymous": false,
      "inputs": [
        {
          "indexed": true,
          "internalType": "uint256",
          "name": "proposalId",
          "type": "uint256"
        },
        {
          "indexed": false,
          "internalType": "uint64",
          "name": "extendedDeadline",
          "type": "uint64"
        }
      ],
      "name": "ProposalExtended",
      "type": "event"
    },
    {
      "anonymous": false,
      "inputs": [
        {
          "indexed": false,
          "internalType": "uint256",
          "name": "oldProposalThreshold",
          "type": "uint256"
        },
        {
          "indexed": false,
          "internalType": "uint256",
          "name": "newProposalThreshold",
          "type": "uint256"
        }
      ],
      "name": "ProposalThresholdSet",
      "type": "event"
    },
    {
      "anonymous": false,
      "inputs": [
        {
          "indexed": false,
          "internalType": "uint256",
          "name": "oldQuorumNumerator",
          "type": "uint256"
        },
        {
          "indexed": false,
          "internalType": "uint256",
          "name": "newQuorumNumerator",
          "type": "uint256"
        }
      ],
      "name": "QuorumNumeratorUpdated",
      "type": "event"
    },
    {
      "anonymous": false,
      "inputs": [
        {
          "indexed": true,
          "internalType": "address",
          "name": "previousTarget",
          "type": "address"
        },
        {
          "indexed": true,
          "internalType": "address",
          "name": "newTarget",
          "type": "address"
        }
      ],
      "name": "TargetSet",
      "type": "event"
    },
    {
      "anonymous": false,
      "inputs": [
        {
          "indexed": true,
          "internalType": "address",
          "name": "voter",
          "type": "address"
        },
        {
          "indexed": false,
          "internalType": "uint256",
          "name": "proposalId",
          "type": "uint256"
        },
        {
          "indexed": false,
          "internalType": "uint8",
          "name": "support",
          "type": "uint8"
        },
        {
          "indexed": false,
          "internalType": "uint256",
          "name": "weight",
          "type": "uint256"
        },
        {
          "indexed": false,
          "internalType": "string",
          "name": "reason",
          "type": "string"
        }
      ],
      "name": "VoteCast",
      "type": "event"
    },
    {
      "anonymous": false,
      "inputs": [
        {
          "indexed": false,
          "internalType": "uint256",
          "name": "oldVotingDelay",
          "type": "uint256"
        },
        {
          "indexed": false,
          "internalType": "uint256",
          "name": "newVotingDelay",
          "type": "uint256"
        }
      ],
      "name": "VotingDelaySet",
      "type": "event"
    },
    {
      "anonymous": false,
      "inputs": [
        {
          "indexed": false,
          "internalType": "uint256",
          "name": "oldVotingPeriod",
          "type": "uint256"
        },
        {
          "indexed": false,
          "internalType": "uint256",
          "name": "newVotingPeriod",
          "type": "uint256"
        }
      ],
      "name": "VotingPeriodSet",
      "type": "event"
    },
    {
      "inputs": [],
      "name": "BALLOT_TYPEHASH",
      "outputs": [
        {
          "internalType": "bytes32",
          "name": "",
          "type": "bytes32"
        }
      ],
      "stateMutability": "view",
      "type": "function"
    },
    {
      "inputs": [],
      "name": "COUNTING_MODE",
      "outputs": [
        {
          "internalType": "string",
          "name": "",
          "type": "string"
        }
      ],
      "stateMutability": "pure",
      "type": "function"
    },
    {
      "inputs": [
        {
          "internalType": "uint256",
          "name": "proposalId",
          "type": "uint256"
        },
        {
          "internalType": "uint8",
          "name": "support",
          "type": "uint8"
        }
      ],
      "name": "castVote",
      "outputs": [
        {
          "internalType": "uint256",
          "name": "",
          "type": "uint256"
        }
      ],
      "stateMutability": "nonpayable",
      "type": "function"
    },
    {
      "inputs": [
        {
          "internalType": "uint256",
          "name": "proposalId",
          "type": "uint256"
        },
        {
          "internalType": "uint8",
          "name": "support",
          "type": "uint8"
        },
        {
          "internalType": "uint8",
          "name": "v",
          "type": "uint8"
        },
        {
          "internalType": "bytes32",
          "name": "r",
          "type": "bytes32"
        },
        {
          "internalType": "bytes32",
          "name": "s",
          "type": "bytes32"
        }
      ],
      "name": "castVoteBySig",
      "outputs": [
        {
          "internalType": "uint256",
          "name": "",
          "type": "uint256"
        }
      ],
      "stateMutability": "nonpayable",
      "type": "function"
    },
    {
      "inputs": [
        {
          "internalType": "uint256",
          "name": "proposalId",
          "type": "uint256"
        },
        {
          "internalType": "uint8",
          "name": "support",
          "type": "uint8"
        },
        {
          "internalType": "string",
          "name": "reason",
          "type": "string"
        }
      ],
      "name": "castVoteWithReason",
      "outputs": [
        {
          "internalType": "uint256",
          "name": "",
          "type": "uint256"
        }
      ],
      "stateMutability": "nonpayable",
      "type": "function"
    },
    {
      "inputs": [
        {
          "internalType": "address[]",
          "name": "targets",
          "type": "address[]"
        },
        {
          "internalType": "uint256[]",
          "name": "values",
          "type": "uint256[]"
        },
        {
          "internalType": "bytes[]",
          "name": "calldatas",
          "type": "bytes[]"
        },
        {
          "internalType": "bytes32",
          "name": "descriptionHash",
          "type": "bytes32"
        }
      ],
      "name": "execute",
      "outputs": [
        {
          "internalType": "uint256",
          "name": "",
          "type": "uint256"
        }
      ],
      "stateMutability": "payable",
      "type": "function"
    },
    {
      "inputs": [
        {
          "internalType": "address",
          "name": "account",
          "type": "address"
        },
        {
          "internalType": "uint256",
          "name": "blockNumber",
          "type": "uint256"
        }
      ],
      "name": "getVotes",
      "outputs": [
        {
          "internalType": "uint256",
          "name": "",
          "type": "uint256"
        }
      ],
      "stateMutability": "view",
      "type": "function"
    },
    {
      "inputs": [
        {
          "internalType": "uint256",
          "name": "proposalId",
          "type": "uint256"
        },
        {
          "internalType": "address",
          "name": "account",
          "type": "address"
        }
      ],
      "name": "hasVoted",
      "outputs": [
        {
          "internalType": "bool",
          "name": "",
          "type": "bool"
        }
      ],
      "stateMutability": "view",
      "type": "function"
    },
    {
      "inputs": [
        {
          "internalType": "address[]",
          "name": "targets",
          "type": "address[]"
        },
        {
          "internalType": "uint256[]",
          "name": "values",
          "type": "uint256[]"
        },
        {
          "internalType": "bytes[]",
          "name": "calldatas",
          "type": "bytes[]"
        },
        {
          "internalType": "bytes32",
          "name": "descriptionHash",
          "type": "bytes32"
        }
      ],
      "name": "hashProposal",
      "outputs": [
        {
          "internalType": "uint256",
          "name": "",
          "type": "uint256"
        }
      ],
      "stateMutability": "pure",
      "type": "function"
    },
    {
      "inputs": [],
      "name": "lateQuorumVoteExtension",
      "outputs": [
        {
          "internalType": "uint64",
          "name": "",
          "type": "uint64"
        }
      ],
      "stateMutability": "view",
      "type": "function"
    },
    {
      "inputs": [],
      "name": "multisend",
      "outputs": [
        {
          "internalType": "address",
          "name": "",
          "type": "address"
        }
      ],
      "stateMutability": "view",
      "type": "function"
    },
    {
      "inputs": [],
      "name": "name",
      "outputs": [
        {
          "internalType": "string",
          "name": "",
          "type": "string"
        }
      ],
      "stateMutability": "view",
      "type": "function"
    },
    {
      "inputs": [],
      "name": "owner",
      "outputs": [
        {
          "internalType": "address",
          "name": "",
          "type": "address"
        }
      ],
      "stateMutability": "view",
      "type": "function"
    },
    {
      "inputs": [
        {
          "internalType": "uint256",
          "name": "proposalId",
          "type": "uint256"
        }
      ],
      "name": "proposalDeadline",
      "outputs": [
        {
          "internalType": "uint256",
          "name": "",
          "type": "uint256"
        }
      ],
      "stateMutability": "view",
      "type": "function"
    },
    {
      "inputs": [
        {
          "internalType": "uint256",
          "name": "proposalId",
          "type": "uint256"
        }
      ],
      "name": "proposalSnapshot",
      "outputs": [
        {
          "internalType": "uint256",
          "name": "",
          "type": "uint256"
        }
      ],
      "stateMutability": "view",
      "type": "function"
    },
    {
      "inputs": [],
      "name": "proposalThreshold",
      "outputs": [
        {
          "internalType": "uint256",
          "name": "",
          "type": "uint256"
        }
      ],
      "stateMutability": "view",
      "type": "function"
    },
    {
      "inputs": [
        {
          "internalType": "uint256",
          "name": "proposalId",
          "type": "uint256"
        }
      ],
      "name": "proposalVotes",
      "outputs": [
        {
          "internalType": "uint256",
          "name": "againstVotes",
          "type": "uint256"
        },
        {
          "internalType": "uint256",
          "name": "forVotes",
          "type": "uint256"
        },
        {
          "internalType": "uint256",
          "name": "abstainVotes",
          "type": "uint256"
        }
      ],
      "stateMutability": "view",
      "type": "function"
    },
    {
      "inputs": [
        {
          "internalType": "address[]",
          "name": "targets",
          "type": "address[]"
        },
        {
          "internalType": "uint256[]",
          "name": "values",
          "type": "uint256[]"
        },
        {
          "internalType": "bytes[]",
          "name": "calldatas",
          "type": "bytes[]"
        },
        {
          "internalType": "string",
          "name": "description",
          "type": "string"
        }
      ],
      "name": "propose",
      "outputs": [
        {
          "internalType": "uint256",
          "name": "",
          "type": "uint256"
        }
      ],
      "stateMutability": "nonpayable",
      "type": "function"
    },
    {
      "inputs": [
        {
          "internalType": "uint256",
          "name": "blockNumber",
          "type": "uint256"
        }
      ],
      "name": "quorum",
      "outputs": [
        {
          "internalType": "uint256",
          "name": "",
          "type": "uint256"
        }
      ],
      "stateMutability": "view",
      "type": "function"
    },
    {
      "inputs": [],
      "name": "quorumDenominator",
      "outputs": [
        {
          "internalType": "uint256",
          "name": "",
          "type": "uint256"
        }
      ],
      "stateMutability": "view",
      "type": "function"
    },
    {
      "inputs": [],
      "name": "quorumNumerator",
      "outputs": [
        {
          "internalType": "uint256",
          "name": "",
          "type": "uint256"
        }
      ],
      "stateMutability": "view",
      "type": "function"
    },
    {
      "inputs": [
        {
          "internalType": "address",
          "name": "target",
          "type": "address"
        },
        {
          "internalType": "uint256",
          "name": "value",
          "type": "uint256"
        },
        {
          "internalType": "bytes",
          "name": "data",
          "type": "bytes"
        }
      ],
      "name": "relay",
      "outputs": [],
      "stateMutability": "nonpayable",
      "type": "function"
    },
    {
      "inputs": [
        {
          "internalType": "uint64",
          "name": "newVoteExtension",
          "type": "uint64"
        }
      ],
      "name": "setLateQuorumVoteExtension",
      "outputs": [],
      "stateMutability": "nonpayable",
      "type": "function"
    },
    {
      "inputs": [
        {
          "internalType": "address",
          "name": "_multisend",
          "type": "address"
        }
      ],
      "name": "setMultisend",
      "outputs": [],
      "stateMutability": "nonpayable",
      "type": "function"
    },
    {
      "inputs": [
        {
          "internalType": "uint256",
          "name": "newProposalThreshold",
          "type": "uint256"
        }
      ],
      "name": "setProposalThreshold",
      "outputs": [],
      "stateMutability": "nonpayable",
      "type": "function"
    },
    {
      "inputs": [
        {
          "internalType": "address",
          "name": "_target",
          "type": "address"
        }
      ],
      "name": "setTarget",
      "outputs": [],
      "stateMutability": "nonpayable",
      "type": "function"
    },
    {
      "inputs": [
        {
          "internalType": "bytes",
          "name": "initializeParams",
          "type": "bytes"
        }
      ],
      "name": "setUp",
      "outputs": [],
      "stateMutability": "nonpayable",
      "type": "function"
    },
    {
      "inputs": [
        {
          "internalType": "uint256",
          "name": "newVotingDelay",
          "type": "uint256"
        }
      ],
      "name": "setVotingDelay",
      "outputs": [],
      "stateMutability": "nonpayable",
      "type": "function"
    },
    {
      "inputs": [
        {
          "internalType": "uint256",
          "name": "newVotingPeriod",
          "type": "uint256"
        }
      ],
      "name": "setVotingPeriod",
      "outputs": [],
      "stateMutability": "nonpayable",
      "type": "function"
    },
    {
      "inputs": [
        {
          "internalType": "uint256",
          "name": "proposalId",
          "type": "uint256"
        }
      ],
      "name": "state",
      "outputs": [
        {
          "internalType": "enum IGovernorUpgradeable.ProposalState",
          "name": "",
          "type": "uint8"
        }
      ],
      "stateMutability": "view",
      "type": "function"
    },
    {
      "inputs": [
        {
          "internalType": "bytes4",
          "name": "interfaceId",
          "type": "bytes4"
        }
      ],
      "name": "supportsInterface",
      "outputs": [
        {
          "internalType": "bool",
          "name": "",
          "type": "bool"
        }
      ],
      "stateMutability": "view",
      "type": "function"
    },
    {
      "inputs": [],
      "name": "target",
      "outputs": [
        {
          "internalType": "address",
          "name": "",
          "type": "address"
        }
      ],
      "stateMutability": "view",
      "type": "function"
    },
    {
      "inputs": [],
      "name": "token",
      "outputs": [
        {
          "internalType": "contract IVotesUpgradeable",
          "name": "",
          "type": "address"
        }
      ],
      "stateMutability": "view",
      "type": "function"
    },
    {
      "inputs": [
        {
          "internalType": "address",
          "name": "_owner",
          "type": "address"
        }
      ],
      "name": "transferOwnership",
      "outputs": [],
      "stateMutability": "nonpayable",
      "type": "function"
    },
    {
      "inputs": [
        {
          "internalType": "uint256",
          "name": "newQuorumNumerator",
          "type": "uint256"
        }
      ],
      "name": "updateQuorumNumerator",
      "outputs": [],
      "stateMutability": "nonpayable",
      "type": "function"
    },
    {
      "inputs": [],
      "name": "version",
      "outputs": [
        {
          "internalType": "string",
          "name": "",
          "type": "string"
        }
      ],
      "stateMutability": "view",
      "type": "function"
    },
    {
      "inputs": [],
      "name": "votingDelay",
      "outputs": [
        {
          "internalType": "uint256",
          "name": "",
          "type": "uint256"
        }
      ],
      "stateMutability": "view",
      "type": "function"
    },
    {
      "inputs": [],
      "name": "votingPeriod",
      "outputs": [
        {
          "internalType": "uint256",
          "name": "",
          "type": "uint256"
        }
      ],
      "stateMutability": "view",
      "type": "function"
    },
    {
      "stateMutability": "payable",
      "type": "receive"
    }
  ],
  "bytecode": "0x60806040523480156200001157600080fd5b506040516200759738038062007597833981810160405281019062000037919062000e96565b60008a8a8a8a8a8a8a8a8a8a6040516020016200005e9a999897969594939291906200103b565b604051602081830303815290604052905062000080816200009160201b60201c565b505050505050505050505062001591565b600060019054906101000a900460ff16620000bb5760008054906101000a900460ff1615620000cc565b620000cb6200034f60201b60201c565b5b6200010e576040517f08c379a0000000000000000000000000000000000000000000000000000000008152600401620001059062001168565b60405180910390fd5b60008060019054906101000a900460ff1615905080156200015f576001600060016101000a81548160ff02191690831515021790555060016000806101000a81548160ff0219169083151502179055505b6000806000806000806000806000808b806020019051810190620001849190620011cf565b9950995099509950995099509950995099509950896101f860006101000a81548173ffffffffffffffffffffffffffffffffffffffff021916908373ffffffffffffffffffffffffffffffffffffffff160217905550886101fa60006101000a81548173ffffffffffffffffffffffffffffffffffffffff021916908373ffffffffffffffffffffffffffffffffffffffff160217905550876101f960006101000a81548173ffffffffffffffffffffffffffffffffffffffff021916908373ffffffffffffffffffffffffffffffffffffffff1602179055506200026f866200036d60201b60201c565b62000282858585620003f460201b60201c565b620002926200045e60201b60201c565b620002a387620004b260201b60201c565b620002b4826200051860201b60201c565b620002c5816200057e60201b60201c565b8873ffffffffffffffffffffffffffffffffffffffff168a73ffffffffffffffffffffffffffffffffffffffff167f636e209fff6b662c507f20ad7b6e82c9aed68a65e25693848ff96d0b1614c66060405160405180910390a35050505050505050505080156200034b5760008060016101000a81548160ff0219169083151502179055505b5050565b60006200036730620005e460201b62001f4f1760201c565b15905090565b600060019054906101000a900460ff16620003bf576040517f08c379a0000000000000000000000000000000000000000000000000000000008152600401620003b6906200135a565b60405180910390fd5b620003e081620003d46200060760201b60201c565b6200064460201b60201c565b620003f181620006c260201b60201c565b50565b600060019054906101000a900460ff1662000446576040517f08c379a00000000000000000000000000000000000000000000000000000000081526004016200043d906200135a565b60405180910390fd5b620004598383836200073060201b60201c565b505050565b600060019054906101000a900460ff16620004b0576040517f08c379a0000000000000000000000000000000000000000000000000000000008152600401620004a7906200135a565b60405180910390fd5b565b600060019054906101000a900460ff1662000504576040517f08c379a0000000000000000000000000000000000000000000000000000000008152600401620004fb906200135a565b60405180910390fd5b6200051581620007ba60201b60201c565b50565b600060019054906101000a900460ff166200056a576040517f08c379a000000000000000000000000000000000000000000000000000000000815260040162000561906200135a565b60405180910390fd5b6200057b816200085160201b60201c565b50565b600060019054906101000a900460ff16620005d0576040517f08c379a0000000000000000000000000000000000000000000000000000000008152600401620005c7906200135a565b60405180910390fd5b620005e181620008b760201b60201c565b50565b6000808273ffffffffffffffffffffffffffffffffffffffff163b119050919050565b60606040518060400160405280600181526020017f3100000000000000000000000000000000000000000000000000000000000000815250905090565b600060019054906101000a900460ff1662000696576040517f08c379a00000000000000000000000000000000000000000000000000000000081526004016200068d906200135a565b60405180910390fd5b600082805190602001209050600082805190602001209050816065819055508060668190555050505050565b600060019054906101000a900460ff1662000714576040517f08c379a00000000000000000000000000000000000000000000000000000000081526004016200070b906200135a565b60405180910390fd5b8060cb90805190602001906200072c92919062000b64565b5050565b600060019054906101000a900460ff1662000782576040517f08c379a000000000000000000000000000000000000000000000000000000000815260040162000779906200135a565b60405180910390fd5b62000793836200091d60201b60201c565b620007a4826200096460201b60201c565b620007b581620009f160201b60201c565b505050565b600060019054906101000a900460ff166200080c576040517f08c379a000000000000000000000000000000000000000000000000000000000815260040162000803906200135a565b60405180910390fd5b8061016160006101000a81548173ffffffffffffffffffffffffffffffffffffffff021916908373ffffffffffffffffffffffffffffffffffffffff16021790555050565b600060019054906101000a900460ff16620008a3576040517f08c379a00000000000000000000000000000000000000000000000000000000081526004016200089a906200135a565b60405180910390fd5b620008b48162000a3860201b60201c565b50565b600060019054906101000a900460ff1662000909576040517f08c379a000000000000000000000000000000000000000000000000000000000815260040162000900906200135a565b60405180910390fd5b6200091a8162000adc60201b60201c565b50565b7fc565b045403dc03c2eea82b81a0465edad9e2e7fc4d97e11421c209da93d7a9360fd5482604051620009529291906200137c565b60405180910390a18060fd8190555050565b60008111620009aa576040517f08c379a0000000000000000000000000000000000000000000000000000000008152600401620009a1906200141f565b60405180910390fd5b7f7e3f7f0708a84de9203036abaa450dccc85ad5ff52f78c170f3edb55cf5e882860fe5482604051620009df9291906200137c565b60405180910390a18060fe8190555050565b7fccb45da8d5717e6c4544694297c4ba5cf151d455c9bb0ed4fc7a38411bc0546160ff548260405162000a269291906200137c565b60405180910390a18060ff8190555050565b62000a4862000b5b60201b60201c565b81111562000a8d576040517f08c379a000000000000000000000000000000000000000000000000000000000815260040162000a8490620014dd565b60405180910390fd5b600061019454905081610194819055507f0553476bf02ef2726e8ce5ced78d63e26e602e4a2257b1f559418e24b4633997818360405162000ad09291906200137c565b60405180910390a15050565b7f7ca4ac117ed3cdce75c1161d8207c440389b1a15d69d096831664657c07dafc26101c660009054906101000a900467ffffffffffffffff168260405162000b26929190620014ff565b60405180910390a1806101c660006101000a81548167ffffffffffffffff021916908367ffffffffffffffff16021790555050565b60006064905090565b82805462000b72906200155b565b90600052602060002090601f01602090048101928262000b96576000855562000be2565b82601f1062000bb157805160ff191683800117855562000be2565b8280016001018555821562000be2579182015b8281111562000be157825182559160200191906001019062000bc4565b5b50905062000bf1919062000bf5565b5090565b5b8082111562000c1057600081600090555060010162000bf6565b5090565b6000604051905090565b600080fd5b600080fd5b600073ffffffffffffffffffffffffffffffffffffffff82169050919050565b600062000c558262000c28565b9050919050565b62000c678162000c48565b811462000c7357600080fd5b50565b60008151905062000c878162000c5c565b92915050565b600080fd5b600080fd5b6000601f19601f8301169050919050565b7f4e487b7100000000000000000000000000000000000000000000000000000000600052604160045260246000fd5b62000ce28262000c97565b810181811067ffffffffffffffff8211171562000d045762000d0362000ca8565b5b80604052505050565b600062000d1962000c14565b905062000d27828262000cd7565b919050565b600067ffffffffffffffff82111562000d4a5762000d4962000ca8565b5b62000d558262000c97565b9050602081019050919050565b60005b8381101562000d8257808201518184015260208101905062000d65565b8381111562000d92576000848401525b50505050565b600062000daf62000da98462000d2c565b62000d0d565b90508281526020810184848401111562000dce5762000dcd62000c92565b5b62000ddb84828562000d62565b509392505050565b600082601f83011262000dfb5762000dfa62000c8d565b5b815162000e0d84826020860162000d98565b91505092915050565b6000819050919050565b62000e2b8162000e16565b811462000e3757600080fd5b50565b60008151905062000e4b8162000e20565b92915050565b600067ffffffffffffffff82169050919050565b62000e708162000e51565b811462000e7c57600080fd5b50565b60008151905062000e908162000e65565b92915050565b6000806000806000806000806000806101408b8d03121562000ebd5762000ebc62000c1e565b5b600062000ecd8d828e0162000c76565b9a5050602062000ee08d828e0162000c76565b995050604062000ef38d828e0162000c76565b985050606062000f068d828e0162000c76565b97505060808b015167ffffffffffffffff81111562000f2a5762000f2962000c23565b5b62000f388d828e0162000de3565b96505060a062000f4b8d828e0162000e3a565b95505060c062000f5e8d828e0162000e3a565b94505060e062000f718d828e0162000e3a565b93505061010062000f858d828e0162000e3a565b92505061012062000f998d828e0162000e7f565b9150509295989b9194979a5092959850565b62000fb68162000c48565b82525050565b600081519050919050565b600082825260208201905092915050565b600062000fe58262000fbc565b62000ff1818562000fc7565b93506200100381856020860162000d62565b6200100e8162000c97565b840191505092915050565b620010248162000e16565b82525050565b620010358162000e51565b82525050565b60006101408201905062001053600083018d62000fab565b62001062602083018c62000fab565b62001071604083018b62000fab565b62001080606083018a62000fab565b818103608083015262001094818962000fd8565b9050620010a560a083018862001019565b620010b460c083018762001019565b620010c360e083018662001019565b620010d361010083018562001019565b620010e36101208301846200102a565b9b9a5050505050505050505050565b7f496e697469616c697a61626c653a20636f6e747261637420697320616c72656160008201527f647920696e697469616c697a6564000000000000000000000000000000000000602082015250565b600062001150602e8362000fc7565b91506200115d82620010f2565b604082019050919050565b60006020820190508181036000830152620011838162001141565b9050919050565b6000620011978262000c28565b9050919050565b620011a9816200118a565b8114620011b557600080fd5b50565b600081519050620011c9816200119e565b92915050565b6000806000806000806000806000806101408b8d031215620011f657620011f562000c1e565b5b6000620012068d828e01620011b8565b9a50506020620012198d828e01620011b8565b99505060406200122c8d828e01620011b8565b98505060606200123f8d828e01620011b8565b97505060808b015167ffffffffffffffff81111562001263576200126262000c23565b5b620012718d828e0162000de3565b96505060a0620012848d828e0162000e3a565b95505060c0620012978d828e0162000e3a565b94505060e0620012aa8d828e0162000e3a565b935050610100620012be8d828e0162000e3a565b925050610120620012d28d828e0162000e7f565b9150509295989b9194979a5092959850565b7f496e697469616c697a61626c653a20636f6e7472616374206973206e6f74206960008201527f6e697469616c697a696e67000000000000000000000000000000000000000000602082015250565b600062001342602b8362000fc7565b91506200134f82620012e4565b604082019050919050565b60006020820190508181036000830152620013758162001333565b9050919050565b600060408201905062001393600083018562001019565b620013a2602083018462001019565b9392505050565b7f476f7665726e6f7253657474696e67733a20766f74696e6720706572696f642060008201527f746f6f206c6f7700000000000000000000000000000000000000000000000000602082015250565b60006200140760278362000fc7565b91506200141482620013a9565b604082019050919050565b600060208201905081810360008301526200143a81620013f8565b9050919050565b7f476f7665726e6f72566f74657351756f72756d4672616374696f6e3a2071756f60008201527f72756d4e756d657261746f72206f7665722071756f72756d44656e6f6d696e6160208201527f746f720000000000000000000000000000000000000000000000000000000000604082015250565b6000620014c560438362000fc7565b9150620014d28262001441565b606082019050919050565b60006020820190508181036000830152620014f881620014b6565b9050919050565b60006040820190506200151660008301856200102a565b6200152560208301846200102a565b9392505050565b7f4e487b7100000000000000000000000000000000000000000000000000000000600052602260045260246000fd5b600060028204905060018216806200157457607f821691505b602082108114156200158b576200158a6200152c565b5b50919050565b615ff680620015a16000396000f3fe6080604052600436106102295760003560e01c80638b95eccd11610123578063d07f91e9116100ab578063eb9019d41161006f578063eb9019d4146108bc578063ece40cc1146108f9578063f2fde38b14610922578063f8ce560a1461094b578063fc0c546a146109885761026f565b8063d07f91e9146107e9578063d4b8399214610812578063dd4e2ba51461083d578063deaaa7cc14610868578063ea0217cf146108935761026f565b8063a7713a70116100f2578063a7713a70146106f0578063b58131b01461071b578063c01f9e3714610746578063c28bc2fa14610783578063c59057e4146107ac5761026f565b80638b95eccd146106485780638da5cb5b1461067157806397c3d3341461069c578063a4f9edbf146106c75761026f565b80633bccf4fd116101b15780635678138811610175578063567813881461053f57806370b0f6601461057c578063776d1a01146105a55780637b3c71d3146105ce5780637d5e81e21461060b5761026f565b80633bccf4fd1461041e5780633e4f49e61461045b5780634385963214610498578063544ffc9c146104d557806354fd4d50146105145761026f565b80632656227d116101f85780632656227d14610330578063294402cc146103605780632d63f6931461038b57806332b8113e146103c85780633932abb1146103f35761026f565b806301ffc9a71461027457806302a251a3146102b157806306f3f9e6146102dc57806306fdde03146103055761026f565b3661026f573073ffffffffffffffffffffffffffffffffffffffff1661024d6109b3565b73ffffffffffffffffffffffffffffffffffffffff161461026d57600080fd5b005b600080fd5b34801561028057600080fd5b5061029b60048036038101906102969190613601565b6109de565b6040516102a89190613649565b60405180910390f35b3480156102bd57600080fd5b506102c6610a58565b6040516102d3919061367d565b60405180910390f35b3480156102e857600080fd5b5061030360048036038101906102fe91906136c4565b610a62565b005b34801561031157600080fd5b5061031a610aea565b604051610327919061378a565b60405180910390f35b61034a60048036038101906103459190613be1565b610b7c565b604051610357919061367d565b60405180910390f35b34801561036c57600080fd5b50610375610cb0565b6040516103829190613cab565b60405180910390f35b34801561039757600080fd5b506103b260048036038101906103ad91906136c4565b610cd7565b6040516103bf919061367d565b60405180910390f35b3480156103d457600080fd5b506103dd610d45565b6040516103ea9190613ce9565b60405180910390f35b3480156103ff57600080fd5b50610408610d64565b604051610415919061367d565b60405180910390f35b34801561042a57600080fd5b5061044560048036038101906104409190613d3d565b610d6e565b604051610452919061367d565b60405180910390f35b34801561046757600080fd5b50610482600480360381019061047d91906136c4565b610df8565b60405161048f9190613e2f565b60405180910390f35b3480156104a457600080fd5b506104bf60048036038101906104ba9190613e4a565b610f0d565b6040516104cc9190613649565b60405180910390f35b3480156104e157600080fd5b506104fc60048036038101906104f791906136c4565b610f79565b60405161050b93929190613e8a565b60405180910390f35b34801561052057600080fd5b50610529610fb2565b604051610536919061378a565b60405180910390f35b34801561054b57600080fd5b5061056660048036038101906105619190613ec1565b610fef565b604051610573919061367d565b60405180910390f35b34801561058857600080fd5b506105a3600480360381019061059e91906136c4565b611020565b005b3480156105b157600080fd5b506105cc60048036038101906105c79190613f01565b6110a8565b005b3480156105da57600080fd5b506105f560048036038101906105f09190613f89565b6111e6565b604051610602919061367d565b60405180910390f35b34801561061757600080fd5b50610632600480360381019061062d919061409e565b61124e565b60405161063f919061367d565b60405180910390f35b34801561065457600080fd5b5061066f600480360381019061066a9190613f01565b61154e565b005b34801561067d57600080fd5b50610686611652565b6040516106939190613cab565b60405180910390f35b3480156106a857600080fd5b506106b1611679565b6040516106be919061367d565b60405180910390f35b3480156106d357600080fd5b506106ee60048036038101906106e99190614175565b611682565b005b3480156106fc57600080fd5b506107056118ff565b604051610712919061367d565b60405180910390f35b34801561072757600080fd5b5061073061190a565b60405161073d919061367d565b60405180910390f35b34801561075257600080fd5b5061076d600480360381019061076891906136c4565b611919565b60405161077a919061367d565b60405180910390f35b34801561078f57600080fd5b506107aa60048036038101906107a59190614214565b61192b565b005b3480156107b857600080fd5b506107d360048036038101906107ce9190613be1565b6119fd565b6040516107e0919061367d565b60405180910390f35b3480156107f557600080fd5b50610810600480360381019061080b91906142b4565b611a39565b005b34801561081e57600080fd5b50610827611ac1565b6040516108349190613cab565b60405180910390f35b34801561084957600080fd5b50610852611ae8565b60405161085f919061378a565b60405180910390f35b34801561087457600080fd5b5061087d611b25565b60405161088a91906142f0565b60405180910390f35b34801561089f57600080fd5b506108ba60048036038101906108b591906136c4565b611b49565b005b3480156108c857600080fd5b506108e360048036038101906108de919061430b565b611bd1565b6040516108f0919061367d565b60405180910390f35b34801561090557600080fd5b50610920600480360381019061091b91906136c4565b611c89565b005b34801561092e57600080fd5b5061094960048036038101906109449190613f01565b611d11565b005b34801561095757600080fd5b50610972600480360381019061096d91906136c4565b611e4f565b60405161097f919061367d565b60405180910390f35b34801561099457600080fd5b5061099d611f28565b6040516109aa91906143aa565b60405180910390f35b60006101f860009054906101000a900473ffffffffffffffffffffffffffffffffffffffff16905090565b60007fbf26d897000000000000000000000000000000000000000000000000000000007bffffffffffffffffffffffffffffffffffffffffffffffffffffffff1916827bffffffffffffffffffffffffffffffffffffffffffffffffffffffff19161480610a515750610a5082611f72565b5b9050919050565b600060fe54905090565b610a6a6109b3565b73ffffffffffffffffffffffffffffffffffffffff16610a88611fdc565b73ffffffffffffffffffffffffffffffffffffffff1614610ade576040517f08c379a0000000000000000000000000000000000000000000000000000000008152600401610ad590614411565b60405180910390fd5b610ae781611fe4565b50565b606060cb8054610af990614460565b80601f0160208091040260200160405190810160405280929190818152602001828054610b2590614460565b8015610b725780601f10610b4757610100808354040283529160200191610b72565b820191906000526020600020905b815481529060010190602001808311610b5557829003601f168201915b5050505050905090565b600080610b8b868686866119fd565b90506000610b9882610df8565b905060046007811115610bae57610bad613db8565b5b816007811115610bc157610bc0613db8565b5b1480610bf1575060056007811115610bdc57610bdb613db8565b5b816007811115610bef57610bee613db8565b5b145b610c30576040517f08c379a0000000000000000000000000000000000000000000000000000000008152600401610c2790614504565b60405180910390fd5b600160cc600084815260200190815260200160002060020160006101000a81548160ff0219169083151502179055507f712ae1383f79ac853f8d882153778e0260ef8f03b504e2866e0593e04d2b291f82604051610c8e919061367d565b60405180910390a1610ca3828888888861207b565b8192505050949350505050565b6101f960009054906101000a900473ffffffffffffffffffffffffffffffffffffffff1681565b6000610d3460cc60008481526020019081526020016000206000016040518060200160405290816000820160009054906101000a900467ffffffffffffffff1667ffffffffffffffff1667ffffffffffffffff1681525050612239565b67ffffffffffffffff169050919050565b60006101c660009054906101000a900467ffffffffffffffff16905090565b600060fd54905090565b600080610dcf610dc77f150214d74d59b7d1e90c73fc22ef3d991dd0a76b046543d4d80ab92d2a50328f8989604051602001610dac93929190614533565b60405160208183030381529060405280519060200120612247565b868686612261565b9050610dec8782886040518060200160405280600081525061228c565b91505095945050505050565b60008060cc600084815260200190815260200160002090508060020160009054906101000a900460ff1615610e31576007915050610f08565b8060020160019054906101000a900460ff1615610e52576002915050610f08565b6000610e5d84610cd7565b90506000811415610ea3576040517f08c379a0000000000000000000000000000000000000000000000000000000008152600401610e9a906145b6565b60405180910390fd5b438110610eb557600092505050610f08565b6000610ec085611919565b9050438110610ed55760019350505050610f08565b610ede856122a4565b8015610eef5750610eee856122ec565b5b15610f005760049350505050610f08565b600393505050505b919050565b600061012f600084815260200190815260200160002060030160008373ffffffffffffffffffffffffffffffffffffffff1673ffffffffffffffffffffffffffffffffffffffff16815260200190815260200160002060009054906101000a900460ff16905092915050565b60008060008061012f60008681526020019081526020016000209050806000015481600101548260020154935093509350509193909250565b60606040518060400160405280600181526020017f3100000000000000000000000000000000000000000000000000000000000000815250905090565b600080610ffa611fdc565b90506110178482856040518060200160405280600081525061228c565b91505092915050565b6110286109b3565b73ffffffffffffffffffffffffffffffffffffffff16611046611fdc565b73ffffffffffffffffffffffffffffffffffffffff161461109c576040517f08c379a000000000000000000000000000000000000000000000000000000000815260040161109390614411565b60405180910390fd5b6110a581612318565b50565b6110b06109b3565b73ffffffffffffffffffffffffffffffffffffffff166110ce611fdc565b73ffffffffffffffffffffffffffffffffffffffff1614611124576040517f08c379a000000000000000000000000000000000000000000000000000000000815260040161111b90614411565b60405180910390fd5b8073ffffffffffffffffffffffffffffffffffffffff166101fa60009054906101000a900473ffffffffffffffffffffffffffffffffffffffff1673ffffffffffffffffffffffffffffffffffffffff167f90cc2f570a6eb594b1580ea3e41247d2d73a55281889e86bd4ec2fc29c7e62d660405160405180910390a3806101fa60006101000a81548173ffffffffffffffffffffffffffffffffffffffff021916908373ffffffffffffffffffffffffffffffffffffffff16021790555050565b6000806111f1611fdc565b905061124386828787878080601f016020809104026020016040519081016040528093929190818152602001838380828437600081840152601f19601f8201169050808301925050505050505061228c565b915050949350505050565b600061125861190a565b61126e336001436112699190614605565b611bd1565b10156112af576040517f08c379a00000000000000000000000000000000000000000000000000000000081526004016112a6906146d1565b60405180910390fd5b60006112c486868686805190602001206119fd565b9050845186511461130a576040517f08c379a000000000000000000000000000000000000000000000000000000000815260040161130190614763565b60405180910390fd5b835186511461134e576040517f08c379a000000000000000000000000000000000000000000000000000000000815260040161134590614763565b60405180910390fd5b6000865111611392576040517f08c379a0000000000000000000000000000000000000000000000000000000008152600401611389906147cf565b60405180910390fd5b600060cc600083815260200190815260200160002090506113f2816000016040518060200160405290816000820160009054906101000a900467ffffffffffffffff1667ffffffffffffffff1667ffffffffffffffff168152505061235d565b611431576040517f08c379a000000000000000000000000000000000000000000000000000000000815260040161142890614861565b60405180910390fd5b600061144361143e610d64565b612377565b61144c43612377565b6114569190614881565b9050600061146a611465610a58565b612377565b826114759190614881565b905061148d82846000016123ce90919063ffffffff16565b6114a381846001016123ce90919063ffffffff16565b7f7d84a6263ae0d98d3329bd7b46bb4e8d6f98cd35a7adb45c274c8b7fd5ebd5e0846114cd611fdc565b8b8b8d5167ffffffffffffffff8111156114ea576114e96137b1565b5b60405190808252806020026020018201604052801561151d57816020015b60608152602001906001900390816115085790505b508c88888e60405161153799989796959493929190614c8f565b60405180910390a183945050505050949350505050565b6115566109b3565b73ffffffffffffffffffffffffffffffffffffffff16611574611fdc565b73ffffffffffffffffffffffffffffffffffffffff16146115ca576040517f08c379a00000000000000000000000000000000000000000000000000000000081526004016115c190614411565b60405180910390fd5b806101f960006101000a81548173ffffffffffffffffffffffffffffffffffffffff021916908373ffffffffffffffffffffffffffffffffffffffff1602179055508073ffffffffffffffffffffffffffffffffffffffff167fe4d105ea08807ad5b7301b7bf6cb385189ef18304cef1417cb2f76077b81413160405160405180910390a250565b6101f860009054906101000a900473ffffffffffffffffffffffffffffffffffffffff1681565b60006064905090565b600060019054906101000a900460ff166116aa5760008054906101000a900460ff16156116b3565b6116b26123fd565b5b6116f2576040517f08c379a00000000000000000000000000000000000000000000000000000000081526004016116e990614db1565b60405180910390fd5b60008060019054906101000a900460ff161590508015611742576001600060016101000a81548160ff02191690831515021790555060016000806101000a81548160ff0219169083151502179055505b6000806000806000806000806000808b8060200190518101906117659190614ea9565b9950995099509950995099509950995099509950896101f860006101000a81548173ffffffffffffffffffffffffffffffffffffffff021916908373ffffffffffffffffffffffffffffffffffffffff160217905550886101fa60006101000a81548173ffffffffffffffffffffffffffffffffffffffff021916908373ffffffffffffffffffffffffffffffffffffffff160217905550876101f960006101000a81548173ffffffffffffffffffffffffffffffffffffffff021916908373ffffffffffffffffffffffffffffffffffffffff1602179055506118488661240e565b61185385858561247a565b61185b6124d9565b6118648761252a565b61186d82612585565b611876816125e0565b8873ffffffffffffffffffffffffffffffffffffffff168a73ffffffffffffffffffffffffffffffffffffffff167f636e209fff6b662c507f20ad7b6e82c9aed68a65e25693848ff96d0b1614c66060405160405180910390a35050505050505050505080156118fb5760008060016101000a81548160ff0219169083151502179055505b5050565b600061019454905090565b600061191461263b565b905090565b600061192482612645565b9050919050565b6119336109b3565b73ffffffffffffffffffffffffffffffffffffffff16611951611fdc565b73ffffffffffffffffffffffffffffffffffffffff16146119a7576040517f08c379a000000000000000000000000000000000000000000000000000000000815260040161199e90614411565b60405180910390fd5b6119f68483838080601f016020809104026020016040519081016040528093929190818152602001838380828437600081840152601f19601f82011690508083019250505050505050856126c2565b5050505050565b600084848484604051602001611a169493929190614fa4565b6040516020818303038152906040528051906020012060001c9050949350505050565b611a416109b3565b73ffffffffffffffffffffffffffffffffffffffff16611a5f611fdc565b73ffffffffffffffffffffffffffffffffffffffff1614611ab5576040517f08c379a0000000000000000000000000000000000000000000000000000000008152600401611aac90614411565b60405180910390fd5b611abe816126f1565b50565b6101fa60009054906101000a900473ffffffffffffffffffffffffffffffffffffffff1681565b60606040518060400160405280602081526020017f737570706f72743d627261766f2671756f72756d3d666f722c6162737461696e815250905090565b7f150214d74d59b7d1e90c73fc22ef3d991dd0a76b046543d4d80ab92d2a50328f81565b611b516109b3565b73ffffffffffffffffffffffffffffffffffffffff16611b6f611fdc565b73ffffffffffffffffffffffffffffffffffffffff1614611bc5576040517f08c379a0000000000000000000000000000000000000000000000000000000008152600401611bbc90614411565b60405180910390fd5b611bce8161276e565b50565b600061016160009054906101000a900473ffffffffffffffffffffffffffffffffffffffff1673ffffffffffffffffffffffffffffffffffffffff16633a46b1a884846040518363ffffffff1660e01b8152600401611c31929190614ffe565b60206040518083038186803b158015611c4957600080fd5b505afa158015611c5d573d6000803e3d6000fd5b505050506040513d601f19601f82011682018060405250810190611c819190615027565b905092915050565b611c916109b3565b73ffffffffffffffffffffffffffffffffffffffff16611caf611fdc565b73ffffffffffffffffffffffffffffffffffffffff1614611d05576040517f08c379a0000000000000000000000000000000000000000000000000000000008152600401611cfc90614411565b60405180910390fd5b611d0e816127f6565b50565b611d196109b3565b73ffffffffffffffffffffffffffffffffffffffff16611d37611fdc565b73ffffffffffffffffffffffffffffffffffffffff1614611d8d576040517f08c379a0000000000000000000000000000000000000000000000000000000008152600401611d8490614411565b60405180910390fd5b8073ffffffffffffffffffffffffffffffffffffffff166101f860009054906101000a900473ffffffffffffffffffffffffffffffffffffffff1673ffffffffffffffffffffffffffffffffffffffff167f8be0079c531659141344cd1fd0a4f28419497f9722a3daafe3b4186f6b6457e060405160405180910390a3806101f860006101000a81548173ffffffffffffffffffffffffffffffffffffffff021916908373ffffffffffffffffffffffffffffffffffffffff16021790555050565b6000611e59611679565b611e616118ff565b61016160009054906101000a900473ffffffffffffffffffffffffffffffffffffffff1673ffffffffffffffffffffffffffffffffffffffff16638e539e8c856040518263ffffffff1660e01b8152600401611ebd919061367d565b60206040518083038186803b158015611ed557600080fd5b505afa158015611ee9573d6000803e3d6000fd5b505050506040513d601f19601f82011682018060405250810190611f0d9190615027565b611f179190615054565b611f2191906150dd565b9050919050565b61016160009054906101000a900473ffffffffffffffffffffffffffffffffffffffff1681565b6000808273ffffffffffffffffffffffffffffffffffffffff163b119050919050565b60007f01ffc9a7000000000000000000000000000000000000000000000000000000007bffffffffffffffffffffffffffffffffffffffffffffffffffffffff1916827bffffffffffffffffffffffffffffffffffffffffffffffffffffffff1916149050919050565b600033905090565b611fec611679565b81111561202e576040517f08c379a0000000000000000000000000000000000000000000000000000000008152600401612025906151a6565b60405180910390fd5b600061019454905081610194819055507f0553476bf02ef2726e8ce5ced78d63e26e602e4a2257b1f559418e24b4633997818360405161206f9291906151c6565b60405180910390a15050565b60008060008073__$8bd22aa76f0d91428cab59098dc61bbe63$__631075c4d46101f960009054906101000a900473ffffffffffffffffffffffffffffffffffffffff168a8a8a6040518563ffffffff1660e01b81526004016120e1949392919061540e565b60006040518083038186803b1580156120f957600080fd5b505af415801561210d573d6000803e3d6000fd5b505050506040513d6000823e3d601f19601f820116820180604052508101906121369190615512565b935093509350935060006101fa60009054906101000a900473ffffffffffffffffffffffffffffffffffffffff1673ffffffffffffffffffffffffffffffffffffffff1663468721a7868686866040518563ffffffff1660e01b81526004016121a29493929190615627565b602060405180830381600087803b1580156121bc57600080fd5b505af11580156121d0573d6000803e3d6000fd5b505050506040513d601f19601f820116820180604052508101906121f4919061569f565b90508061222d576040517f50e006fd00000000000000000000000000000000000000000000000000000000815260040160405180910390fd5b50505050505050505050565b600081600001519050919050565b600061225a61225461283b565b8361287b565b9050919050565b6000806000612272878787876128ae565b9150915061227f816129bb565b8192505050949350505050565b600061229a85858585612b90565b9050949350505050565b60008061012f60008481526020019081526020016000209050806002015481600101546122d191906156cc565b6122e26122dd85610cd7565b611e4f565b1115915050919050565b60008061012f600084815260200190815260200160002090508060000154816001015411915050919050565b7fc565b045403dc03c2eea82b81a0465edad9e2e7fc4d97e11421c209da93d7a9360fd548260405161234b9291906151c6565b60405180910390a18060fd8190555050565b600080826000015167ffffffffffffffff16149050919050565b600067ffffffffffffffff80168211156123c6576040517f08c379a00000000000000000000000000000000000000000000000000000000081526004016123bd90615794565b60405180910390fd5b819050919050565b808260000160006101000a81548167ffffffffffffffff021916908367ffffffffffffffff1602179055505050565b600061240830611f4f565b15905090565b600060019054906101000a900460ff1661245d576040517f08c379a000000000000000000000000000000000000000000000000000000000815260040161245490615826565b60405180910390fd5b61246e81612469610fb2565b612ca9565b61247781612d24565b50565b600060019054906101000a900460ff166124c9576040517f08c379a00000000000000000000000000000000000000000000000000000000081526004016124c090615826565b60405180910390fd5b6124d4838383612d8d565b505050565b600060019054906101000a900460ff16612528576040517f08c379a000000000000000000000000000000000000000000000000000000000815260040161251f90615826565b60405180910390fd5b565b600060019054906101000a900460ff16612579576040517f08c379a000000000000000000000000000000000000000000000000000000000815260040161257090615826565b60405180910390fd5b61258281612dfc565b50565b600060019054906101000a900460ff166125d4576040517f08c379a00000000000000000000000000000000000000000000000000000000081526004016125cb90615826565b60405180910390fd5b6125dd81612e90565b50565b600060019054906101000a900460ff1661262f576040517f08c379a000000000000000000000000000000000000000000000000000000000815260040161262690615826565b60405180910390fd5b61263881612eeb565b50565b600060ff54905090565b60006126bb61265383612f46565b6126ac6101c760008681526020019081526020016000206040518060200160405290816000820160009054906101000a900467ffffffffffffffff1667ffffffffffffffff1667ffffffffffffffff1681525050612239565b67ffffffffffffffff16612fb4565b9050919050565b60606126e8848484604051806060016040528060298152602001615f9860299139612fce565b90509392505050565b7f7ca4ac117ed3cdce75c1161d8207c440389b1a15d69d096831664657c07dafc26101c660009054906101000a900467ffffffffffffffff1682604051612739929190615846565b60405180910390a1806101c660006101000a81548167ffffffffffffffff021916908367ffffffffffffffff16021790555050565b600081116127b1576040517f08c379a00000000000000000000000000000000000000000000000000000000081526004016127a8906158e1565b60405180910390fd5b7f7e3f7f0708a84de9203036abaa450dccc85ad5ff52f78c170f3edb55cf5e882860fe54826040516127e49291906151c6565b60405180910390a18060fe8190555050565b7fccb45da8d5717e6c4544694297c4ba5cf151d455c9bb0ed4fc7a38411bc0546160ff54826040516128299291906151c6565b60405180910390a18060ff8190555050565b60006128767f8b73c3c69bb8fe3d512ecc4cf759cc79239f7b179b0ffacaa9a75d522b39400f6128696130e2565b6128716130ec565b6130f6565b905090565b60008282604051602001612890929190615979565b60405160208183030381529060405280519060200120905092915050565b6000807f7fffffffffffffffffffffffffffffff5d576e7357a4501ddfe92f46681b20a08360001c11156128e95760006003915091506129b2565b601b8560ff16141580156129015750601c8560ff1614155b156129135760006004915091506129b2565b60006001878787876040516000815260200160405260405161293894939291906159b0565b6020604051602081039080840390855afa15801561295a573d6000803e3d6000fd5b505050602060405103519050600073ffffffffffffffffffffffffffffffffffffffff168173ffffffffffffffffffffffffffffffffffffffff1614156129a9576000600192509250506129b2565b80600092509250505b94509492505050565b600060048111156129cf576129ce613db8565b5b8160048111156129e2576129e1613db8565b5b14156129ed57612b8d565b60016004811115612a0157612a00613db8565b5b816004811115612a1457612a13613db8565b5b1415612a55576040517f08c379a0000000000000000000000000000000000000000000000000000000008152600401612a4c90615a41565b60405180910390fd5b60026004811115612a6957612a68613db8565b5b816004811115612a7c57612a7b613db8565b5b1415612abd576040517f08c379a0000000000000000000000000000000000000000000000000000000008152600401612ab490615aad565b60405180910390fd5b60036004811115612ad157612ad0613db8565b5b816004811115612ae457612ae3613db8565b5b1415612b25576040517f08c379a0000000000000000000000000000000000000000000000000000000008152600401612b1c90615b3f565b60405180910390fd5b600480811115612b3857612b37613db8565b5b816004811115612b4b57612b4a613db8565b5b1415612b8c576040517f08c379a0000000000000000000000000000000000000000000000000000000008152600401612b8390615bd1565b60405180910390fd5b5b50565b600080612b9f86868686613130565b905060006101c760008881526020019081526020016000209050612bff816040518060200160405290816000820160009054906101000a900467ffffffffffffffff1667ffffffffffffffff1667ffffffffffffffff168152505061235d565b8015612c105750612c0f876122a4565b5b15612c9c576000612c1f610d45565b612c2843612377565b612c329190614881565b9050612c3d88611919565b8167ffffffffffffffff161115612c8757877f541f725fb9f7c98a30cc9c0ff32fbb14358cd7159c847a3aa20a2bdc442ba51182604051612c7e9190613ce9565b60405180910390a25b612c9a81836123ce90919063ffffffff16565b505b8192505050949350505050565b600060019054906101000a900460ff16612cf8576040517f08c379a0000000000000000000000000000000000000000000000000000000008152600401612cef90615826565b60405180910390fd5b600082805190602001209050600082805190602001209050816065819055508060668190555050505050565b600060019054906101000a900460ff16612d73576040517f08c379a0000000000000000000000000000000000000000000000000000000008152600401612d6a90615826565b60405180910390fd5b8060cb9080519060200190612d899291906134f2565b5050565b600060019054906101000a900460ff16612ddc576040517f08c379a0000000000000000000000000000000000000000000000000000000008152600401612dd390615826565b60405180910390fd5b612de583612318565b612dee8261276e565b612df7816127f6565b505050565b600060019054906101000a900460ff16612e4b576040517f08c379a0000000000000000000000000000000000000000000000000000000008152600401612e4290615826565b60405180910390fd5b8061016160006101000a81548173ffffffffffffffffffffffffffffffffffffffff021916908373ffffffffffffffffffffffffffffffffffffffff16021790555050565b600060019054906101000a900460ff16612edf576040517f08c379a0000000000000000000000000000000000000000000000000000000008152600401612ed690615826565b60405180910390fd5b612ee881611fe4565b50565b600060019054906101000a900460ff16612f3a576040517f08c379a0000000000000000000000000000000000000000000000000000000008152600401612f3190615826565b60405180910390fd5b612f43816126f1565b50565b6000612fa360cc60008481526020019081526020016000206001016040518060200160405290816000820160009054906101000a900467ffffffffffffffff1667ffffffffffffffff1667ffffffffffffffff1681525050612239565b67ffffffffffffffff169050919050565b600081831015612fc45781612fc6565b825b905092915050565b606082471015613013576040517f08c379a000000000000000000000000000000000000000000000000000000000815260040161300a90615c63565b60405180910390fd5b61301c85611f4f565b61305b576040517f08c379a000000000000000000000000000000000000000000000000000000000815260040161305290615ccf565b60405180910390fd5b6000808673ffffffffffffffffffffffffffffffffffffffff1685876040516130849190615d2b565b60006040518083038185875af1925050503d80600081146130c1576040519150601f19603f3d011682016040523d82523d6000602084013e6130c6565b606091505b50915091506130d6828286613284565b92505050949350505050565b6000606554905090565b6000606654905090565b60008383834630604051602001613111959493929190615d42565b6040516020818303038152906040528051906020012090509392505050565b60008060cc600087815260200190815260200160002090506001600781111561315c5761315b613db8565b5b61316587610df8565b600781111561317757613176613db8565b5b146131b7576040517f08c379a00000000000000000000000000000000000000000000000000000000081526004016131ae90615e07565b60405180910390fd5b600061321586613206846000016040518060200160405290816000820160009054906101000a900467ffffffffffffffff1667ffffffffffffffff1667ffffffffffffffff1681525050612239565b67ffffffffffffffff16611bd1565b9050613223878787846132eb565b8573ffffffffffffffffffffffffffffffffffffffff167fb8e138887d0aa13bab447e82de9d5c1777041ecd21ca36ba824ff1e6c07ddda48887848860405161326f9493929190615e27565b60405180910390a28092505050949350505050565b60608315613294578290506132e4565b6000835111156132a75782518084602001fd5b816040517f08c379a00000000000000000000000000000000000000000000000000000000081526004016132db919061378a565b60405180910390fd5b9392505050565b600061012f600086815260200190815260200160002090508060030160008573ffffffffffffffffffffffffffffffffffffffff1673ffffffffffffffffffffffffffffffffffffffff16815260200190815260200160002060009054906101000a900460ff1615613392576040517f08c379a000000000000000000000000000000000000000000000000000000000815260040161338990615ee5565b60405180910390fd5b60018160030160008673ffffffffffffffffffffffffffffffffffffffff1673ffffffffffffffffffffffffffffffffffffffff16815260200190815260200160002060006101000a81548160ff02191690831515021790555060006002811115613400576133ff613db8565b5b60ff168360ff16141561342d578181600001600082825461342191906156cc565b925050819055506134eb565b6001600281111561344157613440613db8565b5b60ff168360ff16141561346e578181600101600082825461346291906156cc565b925050819055506134ea565b60028081111561348157613480613db8565b5b60ff168360ff1614156134ae57818160020160008282546134a291906156cc565b925050819055506134e9565b6040517f08c379a00000000000000000000000000000000000000000000000000000000081526004016134e090615f77565b60405180910390fd5b5b5b5050505050565b8280546134fe90614460565b90600052602060002090601f0160209004810192826135205760008555613567565b82601f1061353957805160ff1916838001178555613567565b82800160010185558215613567579182015b8281111561356657825182559160200191906001019061354b565b5b5090506135749190613578565b5090565b5b80821115613591576000816000905550600101613579565b5090565b6000604051905090565b600080fd5b600080fd5b60007fffffffff0000000000000000000000000000000000000000000000000000000082169050919050565b6135de816135a9565b81146135e957600080fd5b50565b6000813590506135fb816135d5565b92915050565b6000602082840312156136175761361661359f565b5b6000613625848285016135ec565b91505092915050565b60008115159050919050565b6136438161362e565b82525050565b600060208201905061365e600083018461363a565b92915050565b6000819050919050565b61367781613664565b82525050565b6000602082019050613692600083018461366e565b92915050565b6136a181613664565b81146136ac57600080fd5b50565b6000813590506136be81613698565b92915050565b6000602082840312156136da576136d961359f565b5b60006136e8848285016136af565b91505092915050565b600081519050919050565b600082825260208201905092915050565b60005b8381101561372b578082015181840152602081019050613710565b8381111561373a576000848401525b50505050565b6000601f19601f8301169050919050565b600061375c826136f1565b61376681856136fc565b935061377681856020860161370d565b61377f81613740565b840191505092915050565b600060208201905081810360008301526137a48184613751565b905092915050565b600080fd5b7f4e487b7100000000000000000000000000000000000000000000000000000000600052604160045260246000fd5b6137e982613740565b810181811067ffffffffffffffff82111715613808576138076137b1565b5b80604052505050565b600061381b613595565b905061382782826137e0565b919050565b600067ffffffffffffffff821115613847576138466137b1565b5b602082029050602081019050919050565b600080fd5b600073ffffffffffffffffffffffffffffffffffffffff82169050919050565b60006138888261385d565b9050919050565b6138988161387d565b81146138a357600080fd5b50565b6000813590506138b58161388f565b92915050565b60006138ce6138c98461382c565b613811565b905080838252602082019050602084028301858111156138f1576138f0613858565b5b835b8181101561391a578061390688826138a6565b8452602084019350506020810190506138f3565b5050509392505050565b600082601f830112613939576139386137ac565b5b81356139498482602086016138bb565b91505092915050565b600067ffffffffffffffff82111561396d5761396c6137b1565b5b602082029050602081019050919050565b600061399161398c84613952565b613811565b905080838252602082019050602084028301858111156139b4576139b3613858565b5b835b818110156139dd57806139c988826136af565b8452602084019350506020810190506139b6565b5050509392505050565b600082601f8301126139fc576139fb6137ac565b5b8135613a0c84826020860161397e565b91505092915050565b600067ffffffffffffffff821115613a3057613a2f6137b1565b5b602082029050602081019050919050565b600080fd5b600067ffffffffffffffff821115613a6157613a606137b1565b5b613a6a82613740565b9050602081019050919050565b82818337600083830152505050565b6000613a99613a9484613a46565b613811565b905082815260208101848484011115613ab557613ab4613a41565b5b613ac0848285613a77565b509392505050565b600082601f830112613add57613adc6137ac565b5b8135613aed848260208601613a86565b91505092915050565b6000613b09613b0484613a15565b613811565b90508083825260208201905060208402830185811115613b2c57613b2b613858565b5b835b81811015613b7357803567ffffffffffffffff811115613b5157613b506137ac565b5b808601613b5e8982613ac8565b85526020850194505050602081019050613b2e565b5050509392505050565b600082601f830112613b9257613b916137ac565b5b8135613ba2848260208601613af6565b91505092915050565b6000819050919050565b613bbe81613bab565b8114613bc957600080fd5b50565b600081359050613bdb81613bb5565b92915050565b60008060008060808587031215613bfb57613bfa61359f565b5b600085013567ffffffffffffffff811115613c1957613c186135a4565b5b613c2587828801613924565b945050602085013567ffffffffffffffff811115613c4657613c456135a4565b5b613c52878288016139e7565b935050604085013567ffffffffffffffff811115613c7357613c726135a4565b5b613c7f87828801613b7d565b9250506060613c9087828801613bcc565b91505092959194509250565b613ca58161387d565b82525050565b6000602082019050613cc06000830184613c9c565b92915050565b600067ffffffffffffffff82169050919050565b613ce381613cc6565b82525050565b6000602082019050613cfe6000830184613cda565b92915050565b600060ff82169050919050565b613d1a81613d04565b8114613d2557600080fd5b50565b600081359050613d3781613d11565b92915050565b600080600080600060a08688031215613d5957613d5861359f565b5b6000613d67888289016136af565b9550506020613d7888828901613d28565b9450506040613d8988828901613d28565b9350506060613d9a88828901613bcc565b9250506080613dab88828901613bcc565b9150509295509295909350565b7f4e487b7100000000000000000000000000000000000000000000000000000000600052602160045260246000fd5b60088110613df857613df7613db8565b5b50565b6000819050613e0982613de7565b919050565b6000613e1982613dfb565b9050919050565b613e2981613e0e565b82525050565b6000602082019050613e446000830184613e20565b92915050565b60008060408385031215613e6157613e6061359f565b5b6000613e6f858286016136af565b9250506020613e80858286016138a6565b9150509250929050565b6000606082019050613e9f600083018661366e565b613eac602083018561366e565b613eb9604083018461366e565b949350505050565b60008060408385031215613ed857613ed761359f565b5b6000613ee6858286016136af565b9250506020613ef785828601613d28565b9150509250929050565b600060208284031215613f1757613f1661359f565b5b6000613f25848285016138a6565b91505092915050565b600080fd5b60008083601f840112613f4957613f486137ac565b5b8235905067ffffffffffffffff811115613f6657613f65613f2e565b5b602083019150836001820283011115613f8257613f81613858565b5b9250929050565b60008060008060608587031215613fa357613fa261359f565b5b6000613fb1878288016136af565b9450506020613fc287828801613d28565b935050604085013567ffffffffffffffff811115613fe357613fe26135a4565b5b613fef87828801613f33565b925092505092959194509250565b600067ffffffffffffffff821115614018576140176137b1565b5b61402182613740565b9050602081019050919050565b600061404161403c84613ffd565b613811565b90508281526020810184848401111561405d5761405c613a41565b5b614068848285613a77565b509392505050565b600082601f830112614085576140846137ac565b5b813561409584826020860161402e565b91505092915050565b600080600080608085870312156140b8576140b761359f565b5b600085013567ffffffffffffffff8111156140d6576140d56135a4565b5b6140e287828801613924565b945050602085013567ffffffffffffffff811115614103576141026135a4565b5b61410f878288016139e7565b935050604085013567ffffffffffffffff8111156141305761412f6135a4565b5b61413c87828801613b7d565b925050606085013567ffffffffffffffff81111561415d5761415c6135a4565b5b61416987828801614070565b91505092959194509250565b60006020828403121561418b5761418a61359f565b5b600082013567ffffffffffffffff8111156141a9576141a86135a4565b5b6141b584828501613ac8565b91505092915050565b60008083601f8401126141d4576141d36137ac565b5b8235905067ffffffffffffffff8111156141f1576141f0613f2e565b5b60208301915083600182028301111561420d5761420c613858565b5b9250929050565b6000806000806060858703121561422e5761422d61359f565b5b600061423c878288016138a6565b945050602061424d878288016136af565b935050604085013567ffffffffffffffff81111561426e5761426d6135a4565b5b61427a878288016141be565b925092505092959194509250565b61429181613cc6565b811461429c57600080fd5b50565b6000813590506142ae81614288565b92915050565b6000602082840312156142ca576142c961359f565b5b60006142d88482850161429f565b91505092915050565b6142ea81613bab565b82525050565b600060208201905061430560008301846142e1565b92915050565b600080604083850312156143225761432161359f565b5b6000614330858286016138a6565b9250506020614341858286016136af565b9150509250929050565b6000819050919050565b600061437061436b6143668461385d565b61434b565b61385d565b9050919050565b600061438282614355565b9050919050565b600061439482614377565b9050919050565b6143a481614389565b82525050565b60006020820190506143bf600083018461439b565b92915050565b7f476f7665726e6f723a206f6e6c79476f7665726e616e63650000000000000000600082015250565b60006143fb6018836136fc565b9150614406826143c5565b602082019050919050565b6000602082019050818103600083015261442a816143ee565b9050919050565b7f4e487b7100000000000000000000000000000000000000000000000000000000600052602260045260246000fd5b6000600282049050600182168061447857607f821691505b6020821081141561448c5761448b614431565b5b50919050565b7f476f7665726e6f723a2070726f706f73616c206e6f742073756363657373667560008201527f6c00000000000000000000000000000000000000000000000000000000000000602082015250565b60006144ee6021836136fc565b91506144f982614492565b604082019050919050565b6000602082019050818103600083015261451d816144e1565b9050919050565b61452d81613d04565b82525050565b600060608201905061454860008301866142e1565b614555602083018561366e565b6145626040830184614524565b949350505050565b7f476f7665726e6f723a20756e6b6e6f776e2070726f706f73616c206964000000600082015250565b60006145a0601d836136fc565b91506145ab8261456a565b602082019050919050565b600060208201905081810360008301526145cf81614593565b9050919050565b7f4e487b7100000000000000000000000000000000000000000000000000000000600052601160045260246000fd5b600061461082613664565b915061461b83613664565b92508282101561462e5761462d6145d6565b5b828203905092915050565b7f476f7665726e6f72436f6d7061746962696c697479427261766f3a2070726f7060008201527f6f73657220766f7465732062656c6f772070726f706f73616c2074687265736860208201527f6f6c640000000000000000000000000000000000000000000000000000000000604082015250565b60006146bb6043836136fc565b91506146c682614639565b606082019050919050565b600060208201905081810360008301526146ea816146ae565b9050919050565b7f476f7665726e6f723a20696e76616c69642070726f706f73616c206c656e677460008201527f6800000000000000000000000000000000000000000000000000000000000000602082015250565b600061474d6021836136fc565b9150614758826146f1565b604082019050919050565b6000602082019050818103600083015261477c81614740565b9050919050565b7f476f7665726e6f723a20656d7074792070726f706f73616c0000000000000000600082015250565b60006147b96018836136fc565b91506147c482614783565b602082019050919050565b600060208201905081810360008301526147e8816147ac565b9050919050565b7f476f7665726e6f723a2070726f706f73616c20616c726561647920657869737460008201527f7300000000000000000000000000000000000000000000000000000000000000602082015250565b600061484b6021836136fc565b9150614856826147ef565b604082019050919050565b6000602082019050818103600083015261487a8161483e565b9050919050565b600061488c82613cc6565b915061489783613cc6565b92508267ffffffffffffffff038211156148b4576148b36145d6565b5b828201905092915050565b600081519050919050565b600082825260208201905092915050565b6000819050602082019050919050565b6148f48161387d565b82525050565b600061490683836148eb565b60208301905092915050565b6000602082019050919050565b600061492a826148bf565b61493481856148ca565b935061493f836148db565b8060005b8381101561497057815161495788826148fa565b975061496283614912565b925050600181019050614943565b5085935050505092915050565b600081519050919050565b600082825260208201905092915050565b6000819050602082019050919050565b6149b281613664565b82525050565b60006149c483836149a9565b60208301905092915050565b6000602082019050919050565b60006149e88261497d565b6149f28185614988565b93506149fd83614999565b8060005b83811015614a2e578151614a1588826149b8565b9750614a20836149d0565b925050600181019050614a01565b5085935050505092915050565b600081519050919050565b600082825260208201905092915050565b6000819050602082019050919050565b600082825260208201905092915050565b6000614a83826136f1565b614a8d8185614a67565b9350614a9d81856020860161370d565b614aa681613740565b840191505092915050565b6000614abd8383614a78565b905092915050565b6000602082019050919050565b6000614add82614a3b565b614ae78185614a46565b935083602082028501614af985614a57565b8060005b85811015614b355784840389528151614b168582614ab1565b9450614b2183614ac5565b925060208a01995050600181019050614afd565b50829750879550505050505092915050565b600081519050919050565b600082825260208201905092915050565b6000819050602082019050919050565b600081519050919050565b600082825260208201905092915050565b6000614b9a82614b73565b614ba48185614b7e565b9350614bb481856020860161370d565b614bbd81613740565b840191505092915050565b6000614bd48383614b8f565b905092915050565b6000602082019050919050565b6000614bf482614b47565b614bfe8185614b52565b935083602082028501614c1085614b63565b8060005b85811015614c4c5784840389528151614c2d8582614bc8565b9450614c3883614bdc565b925060208a01995050600181019050614c14565b50829750879550505050505092915050565b6000614c79614c74614c6f84613cc6565b61434b565b613664565b9050919050565b614c8981614c5e565b82525050565b600061012082019050614ca5600083018c61366e565b614cb2602083018b613c9c565b8181036040830152614cc4818a61491f565b90508181036060830152614cd881896149dd565b90508181036080830152614cec8188614ad2565b905081810360a0830152614d008187614be9565b9050614d0f60c0830186614c80565b614d1c60e0830185614c80565b818103610100830152614d2f8184613751565b90509a9950505050505050505050565b7f496e697469616c697a61626c653a20636f6e747261637420697320616c72656160008201527f647920696e697469616c697a6564000000000000000000000000000000000000602082015250565b6000614d9b602e836136fc565b9150614da682614d3f565b604082019050919050565b60006020820190508181036000830152614dca81614d8e565b9050919050565b6000614ddc8261385d565b9050919050565b614dec81614dd1565b8114614df757600080fd5b50565b600081519050614e0981614de3565b92915050565b6000614e22614e1d84613ffd565b613811565b905082815260208101848484011115614e3e57614e3d613a41565b5b614e4984828561370d565b509392505050565b600082601f830112614e6657614e656137ac565b5b8151614e76848260208601614e0f565b91505092915050565b600081519050614e8e81613698565b92915050565b600081519050614ea381614288565b92915050565b6000806000806000806000806000806101408b8d031215614ecd57614ecc61359f565b5b6000614edb8d828e01614dfa565b9a50506020614eec8d828e01614dfa565b9950506040614efd8d828e01614dfa565b9850506060614f0e8d828e01614dfa565b97505060808b015167ffffffffffffffff811115614f2f57614f2e6135a4565b5b614f3b8d828e01614e51565b96505060a0614f4c8d828e01614e7f565b95505060c0614f5d8d828e01614e7f565b94505060e0614f6e8d828e01614e7f565b935050610100614f808d828e01614e7f565b925050610120614f928d828e01614e94565b9150509295989b9194979a5092959850565b60006080820190508181036000830152614fbe818761491f565b90508181036020830152614fd281866149dd565b90508181036040830152614fe68185614be9565b9050614ff560608301846142e1565b95945050505050565b60006040820190506150136000830185613c9c565b615020602083018461366e565b9392505050565b60006020828403121561503d5761503c61359f565b5b600061504b84828501614e7f565b91505092915050565b600061505f82613664565b915061506a83613664565b9250817fffffffffffffffffffffffffffffffffffffffffffffffffffffffffffffffff04831182151516156150a3576150a26145d6565b5b828202905092915050565b7f4e487b7100000000000000000000000000000000000000000000000000000000600052601260045260246000fd5b60006150e882613664565b91506150f383613664565b925082615103576151026150ae565b5b828204905092915050565b7f476f7665726e6f72566f74657351756f72756d4672616374696f6e3a2071756f60008201527f72756d4e756d657261746f72206f7665722071756f72756d44656e6f6d696e6160208201527f746f720000000000000000000000000000000000000000000000000000000000604082015250565b60006151906043836136fc565b915061519b8261510e565b606082019050919050565b600060208201905081810360008301526151bf81615183565b9050919050565b60006040820190506151db600083018561366e565b6151e8602083018461366e565b9392505050565b6151f88161387d565b82525050565b600082825260208201905092915050565b6152188161387d565b82525050565b600061522a838361520f565b60208301905092915050565b6000615241826148bf565b61524b81856151fe565b9350615256836148db565b8060005b8381101561528757815161526e888261521e565b975061527983614912565b92505060018101905061525a565b5085935050505092915050565b600082825260208201905092915050565b6152ae81613664565b82525050565b60006152c083836152a5565b60208301905092915050565b60006152d78261497d565b6152e18185615294565b93506152ec83614999565b8060005b8381101561531d57815161530488826152b4565b975061530f836149d0565b9250506001810190506152f0565b5085935050505092915050565b600082825260208201905092915050565b600082825260208201905092915050565b600061535782614b73565b615361818561533b565b935061537181856020860161370d565b61537a81613740565b840191505092915050565b6000615391838361534c565b905092915050565b60006153a482614b47565b6153ae818561532a565b9350836020820285016153c085614b63565b8060005b858110156153fc57848403895281516153dd8582615385565b94506153e883614bdc565b925060208a019950506001810190506153c4565b50829750879550505050505092915050565b600060808201905061542360008301876151ef565b81810360208301526154358186615236565b9050818103604083015261544981856152cc565b9050818103606083015261545d8184615399565b905095945050505050565b6000815190506154778161388f565b92915050565b600061549061548b84613a46565b613811565b9050828152602081018484840111156154ac576154ab613a41565b5b6154b784828561370d565b509392505050565b600082601f8301126154d4576154d36137ac565b5b81516154e484826020860161547d565b91505092915050565b600281106154fa57600080fd5b50565b60008151905061550c816154ed565b92915050565b6000806000806080858703121561552c5761552b61359f565b5b600061553a87828801615468565b945050602061554b87828801614e7f565b935050604085015167ffffffffffffffff81111561556c5761556b6135a4565b5b615578878288016154bf565b9250506060615589878288016154fd565b91505092959194509250565b600082825260208201905092915050565b60006155b182614b73565b6155bb8185615595565b93506155cb81856020860161370d565b6155d481613740565b840191505092915050565b600281106155f0576155ef613db8565b5b50565b6000819050615601826155df565b919050565b6000615611826155f3565b9050919050565b61562181615606565b82525050565b600060808201905061563c6000830187613c9c565b615649602083018661366e565b818103604083015261565b81856155a6565b905061566a6060830184615618565b95945050505050565b61567c8161362e565b811461568757600080fd5b50565b60008151905061569981615673565b92915050565b6000602082840312156156b5576156b461359f565b5b60006156c38482850161568a565b91505092915050565b60006156d782613664565b91506156e283613664565b9250827fffffffffffffffffffffffffffffffffffffffffffffffffffffffffffffffff03821115615717576157166145d6565b5b828201905092915050565b7f53616665436173743a2076616c756520646f65736e27742066697420696e203660008201527f3420626974730000000000000000000000000000000000000000000000000000602082015250565b600061577e6026836136fc565b915061578982615722565b604082019050919050565b600060208201905081810360008301526157ad81615771565b9050919050565b7f496e697469616c697a61626c653a20636f6e7472616374206973206e6f74206960008201527f6e697469616c697a696e67000000000000000000000000000000000000000000602082015250565b6000615810602b836136fc565b915061581b826157b4565b604082019050919050565b6000602082019050818103600083015261583f81615803565b9050919050565b600060408201905061585b6000830185613cda565b6158686020830184613cda565b9392505050565b7f476f7665726e6f7253657474696e67733a20766f74696e6720706572696f642060008201527f746f6f206c6f7700000000000000000000000000000000000000000000000000602082015250565b60006158cb6027836136fc565b91506158d68261586f565b604082019050919050565b600060208201905081810360008301526158fa816158be565b9050919050565b600081905092915050565b7f1901000000000000000000000000000000000000000000000000000000000000600082015250565b6000615942600283615901565b915061594d8261590c565b600282019050919050565b6000819050919050565b61597361596e82613bab565b615958565b82525050565b600061598482615935565b91506159908285615962565b6020820191506159a08284615962565b6020820191508190509392505050565b60006080820190506159c560008301876142e1565b6159d26020830186614524565b6159df60408301856142e1565b6159ec60608301846142e1565b95945050505050565b7f45434453413a20696e76616c6964207369676e61747572650000000000000000600082015250565b6000615a2b6018836136fc565b9150615a36826159f5565b602082019050919050565b60006020820190508181036000830152615a5a81615a1e565b9050919050565b7f45434453413a20696e76616c6964207369676e6174757265206c656e67746800600082015250565b6000615a97601f836136fc565b9150615aa282615a61565b602082019050919050565b60006020820190508181036000830152615ac681615a8a565b9050919050565b7f45434453413a20696e76616c6964207369676e6174757265202773272076616c60008201527f7565000000000000000000000000000000000000000000000000000000000000602082015250565b6000615b296022836136fc565b9150615b3482615acd565b604082019050919050565b60006020820190508181036000830152615b5881615b1c565b9050919050565b7f45434453413a20696e76616c6964207369676e6174757265202776272076616c60008201527f7565000000000000000000000000000000000000000000000000000000000000602082015250565b6000615bbb6022836136fc565b9150615bc682615b5f565b604082019050919050565b60006020820190508181036000830152615bea81615bae565b9050919050565b7f416464726573733a20696e73756666696369656e742062616c616e636520666f60008201527f722063616c6c0000000000000000000000000000000000000000000000000000602082015250565b6000615c4d6026836136fc565b9150615c5882615bf1565b604082019050919050565b60006020820190508181036000830152615c7c81615c40565b9050919050565b7f416464726573733a2063616c6c20746f206e6f6e2d636f6e7472616374000000600082015250565b6000615cb9601d836136fc565b9150615cc482615c83565b602082019050919050565b60006020820190508181036000830152615ce881615cac565b9050919050565b600081905092915050565b6000615d0582614b73565b615d0f8185615cef565b9350615d1f81856020860161370d565b80840191505092915050565b6000615d378284615cfa565b915081905092915050565b600060a082019050615d5760008301886142e1565b615d6460208301876142e1565b615d7160408301866142e1565b615d7e606083018561366e565b615d8b6080830184613c9c565b9695505050505050565b7f476f7665726e6f723a20766f7465206e6f742063757272656e746c792061637460008201527f6976650000000000000000000000000000000000000000000000000000000000602082015250565b6000615df16023836136fc565b9150615dfc82615d95565b604082019050919050565b60006020820190508181036000830152615e2081615de4565b9050919050565b6000608082019050615e3c600083018761366e565b615e496020830186614524565b615e56604083018561366e565b8181036060830152615e688184613751565b905095945050505050565b7f476f7665726e6f72566f74696e6753696d706c653a20766f746520616c72656160008201527f6479206361737400000000000000000000000000000000000000000000000000602082015250565b6000615ecf6027836136fc565b9150615eda82615e73565b604082019050919050565b60006020820190508181036000830152615efe81615ec2565b9050919050565b7f476f7665726e6f72566f74696e6753696d706c653a20696e76616c696420766160008201527f6c756520666f7220656e756d20566f7465547970650000000000000000000000602082015250565b6000615f616035836136fc565b9150615f6c82615f05565b604082019050919050565b60006020820190508181036000830152615f9081615f54565b905091905056fe416464726573733a206c6f772d6c6576656c2063616c6c20776974682076616c7565206661696c6564a2646970667358221220cfb28ace4cf869c04c43b8d5176b287dc24425a84f89093c4d159ffb8dd1c00b64736f6c63430008090033",
  "linkReferences": {
    "contracts/MultisendEncoder.sol": {
      "MultisendEncoder": [
        {
          "length": 20,
          "start": 13860
        }
      ]
    }
  },
  "deployedLinkReferences": {
    "contracts/MultisendEncoder.sol": {
      "MultisendEncoder": [
        {
          "length": 20,
          "start": 8323
        }
      ]
    }
  }
}