{
  "_format": "hh-sol-artifact-1",
  "contractName": "TellorModule",
  "sourceName": "contracts/TellorModule.sol",
  "abi": [
    {
      "inputs": [
        {
          "internalType": "address",
          "name": "_owner",
          "type": "address"
        },
        {
          "internalType": "address",
          "name": "_avatar",
          "type": "address"
        },
        {
          "internalType": "address",
          "name": "_target",
          "type": "address"
        },
        {
          "internalType": "address payable",
          "name": "_tellorAddress",
          "type": "address"
        },
        {
          "internalType": "uint32",
          "name": "_cooldown",
          "type": "uint32"
        },
        {
          "internalType": "uint32",
          "name": "_expiration",
          "type": "uint32"
        }
      ],
      "stateMutability": "nonpayable",
      "type": "constructor"
    },
    {
      "anonymous": false,
      "inputs": [
        {
          "indexed": true,
          "internalType": "address",
          "name": "previousAvatar",
          "type": "address"
        },
        {
          "indexed": true,
          "internalType": "address",
          "name": "newAvatar",
          "type": "address"
        }
      ],
      "name": "AvatarSet",
      "type": "event"
    },
    {
      "anonymous": false,
      "inputs": [
        {
          "indexed": false,
          "internalType": "address",
          "name": "guard",
          "type": "address"
        }
      ],
      "name": "ChangedGuard",
      "type": "event"
    },
    {
      "anonymous": false,
      "inputs": [
        {
          "indexed": true,
          "internalType": "address",
          "name": "previousOwner",
          "type": "address"
        },
        {
          "indexed": true,
          "internalType": "address",
          "name": "newOwner",
          "type": "address"
        }
      ],
      "name": "OwnershipTransferred",
      "type": "event"
    },
    {
      "anonymous": false,
      "inputs": [
        {
          "indexed": true,
          "internalType": "bytes32",
          "name": "queryId",
          "type": "bytes32"
        },
        {
          "indexed": true,
          "internalType": "string",
          "name": "proposalId",
          "type": "string"
        }
      ],
      "name": "ProposalAdded",
      "type": "event"
    },
    {
      "anonymous": false,
      "inputs": [
        {
          "indexed": true,
          "internalType": "address",
          "name": "previousTarget",
          "type": "address"
        },
        {
          "indexed": true,
          "internalType": "address",
          "name": "newTarget",
          "type": "address"
        }
      ],
      "name": "TargetSet",
      "type": "event"
    },
    {
      "anonymous": false,
      "inputs": [
        {
          "indexed": true,
          "internalType": "address",
          "name": "initiator",
          "type": "address"
        },
        {
          "indexed": true,
          "internalType": "address",
          "name": "avatar",
          "type": "address"
        },
        {
          "indexed": false,
          "internalType": "address",
          "name": "target",
          "type": "address"
        }
      ],
      "name": "TellorModuleSetup",
      "type": "event"
    },
    {
      "inputs": [],
      "name": "DOMAIN_SEPARATOR_TYPEHASH",
      "outputs": [
        {
          "internalType": "bytes32",
          "name": "",
          "type": "bytes32"
        }
      ],
      "stateMutability": "view",
      "type": "function"
    },
    {
      "inputs": [],
      "name": "INVALIDATED",
      "outputs": [
        {
          "internalType": "bytes32",
          "name": "",
          "type": "bytes32"
        }
      ],
      "stateMutability": "view",
      "type": "function"
    },
    {
      "inputs": [],
      "name": "TRANSACTION_TYPEHASH",
      "outputs": [
        {
          "internalType": "bytes32",
          "name": "",
          "type": "bytes32"
        }
      ],
      "stateMutability": "view",
      "type": "function"
    },
    {
      "inputs": [
        {
          "internalType": "string",
          "name": "_proposalId",
          "type": "string"
        },
        {
          "internalType": "bytes32[]",
          "name": "_txHashes",
          "type": "bytes32[]"
        }
      ],
      "name": "addProposal",
      "outputs": [],
      "stateMutability": "nonpayable",
      "type": "function"
    },
    {
      "inputs": [],
      "name": "avatar",
      "outputs": [
        {
          "internalType": "address",
          "name": "",
          "type": "address"
        }
      ],
      "stateMutability": "view",
      "type": "function"
    },
    {
      "inputs": [
        {
          "internalType": "string",
          "name": "_proposalId",
          "type": "string"
        },
        {
          "internalType": "bytes32[]",
          "name": "_txHashes",
          "type": "bytes32[]"
        }
      ],
      "name": "buildProposal",
      "outputs": [
        {
          "internalType": "string",
          "name": "",
          "type": "string"
        }
      ],
      "stateMutability": "pure",
      "type": "function"
    },
    {
      "inputs": [],
      "name": "cooldown",
      "outputs": [
        {
          "internalType": "uint32",
          "name": "",
          "type": "uint32"
        }
      ],
      "stateMutability": "view",
      "type": "function"
    },
    {
      "inputs": [
        {
          "internalType": "string",
          "name": "_proposalId",
          "type": "string"
        },
        {
          "internalType": "bytes32[]",
          "name": "_txHashes",
          "type": "bytes32[]"
        },
        {
          "internalType": "address",
          "name": "_to",
          "type": "address"
        },
        {
          "internalType": "uint256",
          "name": "_value",
          "type": "uint256"
        },
        {
          "internalType": "bytes",
          "name": "_data",
          "type": "bytes"
        },
        {
          "internalType": "enum Enum.Operation",
          "name": "_operation",
          "type": "uint8"
        }
      ],
      "name": "executeProposal",
      "outputs": [],
      "stateMutability": "nonpayable",
      "type": "function"
    },
    {
      "inputs": [
        {
          "internalType": "string",
          "name": "_proposalId",
          "type": "string"
        },
        {
          "internalType": "bytes32[]",
          "name": "_txHashes",
          "type": "bytes32[]"
        },
        {
          "internalType": "address",
          "name": "_to",
          "type": "address"
        },
        {
          "internalType": "uint256",
          "name": "_value",
          "type": "uint256"
        },
        {
          "internalType": "bytes",
          "name": "_data",
          "type": "bytes"
        },
        {
          "internalType": "enum Enum.Operation",
          "name": "_operation",
          "type": "uint8"
        },
        {
          "internalType": "uint256",
          "name": "_txIndex",
          "type": "uint256"
        }
      ],
      "name": "executeProposalWithIndex",
      "outputs": [],
      "stateMutability": "nonpayable",
      "type": "function"
    },
    {
      "inputs": [
        {
          "internalType": "bytes32",
          "name": "",
          "type": "bytes32"
        },
        {
          "internalType": "bytes32",
          "name": "",
          "type": "bytes32"
        }
      ],
      "name": "executedProposalTransactions",
      "outputs": [
        {
          "internalType": "bool",
          "name": "",
          "type": "bool"
        }
      ],
      "stateMutability": "view",
      "type": "function"
    },
    {
      "inputs": [],
      "name": "getChainId",
      "outputs": [
        {
          "internalType": "uint256",
          "name": "",
          "type": "uint256"
        }
      ],
      "stateMutability": "view",
      "type": "function"
    },
    {
      "inputs": [
        {
          "internalType": "bytes32",
          "name": "_queryId",
          "type": "bytes32"
        },
        {
          "internalType": "uint256",
          "name": "_timestamp",
          "type": "uint256"
        }
      ],
      "name": "getDataAfter",
      "outputs": [
        {
          "internalType": "bytes",
          "name": "_value",
          "type": "bytes"
        },
        {
          "internalType": "uint256",
          "name": "_timestampRetrieved",
          "type": "uint256"
        }
      ],
      "stateMutability": "view",
      "type": "function"
    },
    {
      "inputs": [
        {
          "internalType": "bytes32",
          "name": "_queryId",
          "type": "bytes32"
        },
        {
          "internalType": "uint256",
          "name": "_timestamp",
          "type": "uint256"
        }
      ],
      "name": "getDataBefore",
      "outputs": [
        {
          "internalType": "bytes",
          "name": "_value",
          "type": "bytes"
        },
        {
          "internalType": "uint256",
          "name": "_timestampRetrieved",
          "type": "uint256"
        }
      ],
      "stateMutability": "view",
      "type": "function"
    },
    {
      "inputs": [],
      "name": "getGuard",
      "outputs": [
        {
          "internalType": "address",
          "name": "_guard",
          "type": "address"
        }
      ],
      "stateMutability": "view",
      "type": "function"
    },
    {
      "inputs": [
        {
          "internalType": "bytes32",
          "name": "_queryId",
          "type": "bytes32"
        },
        {
          "internalType": "uint256",
          "name": "_timestamp",
          "type": "uint256"
        }
      ],
      "name": "getIndexForDataAfter",
      "outputs": [
        {
          "internalType": "bool",
          "name": "_found",
          "type": "bool"
        },
        {
          "internalType": "uint256",
          "name": "_index",
          "type": "uint256"
        }
      ],
      "stateMutability": "view",
      "type": "function"
    },
    {
      "inputs": [
        {
          "internalType": "bytes32",
          "name": "_queryId",
          "type": "bytes32"
        },
        {
          "internalType": "uint256",
          "name": "_timestamp",
          "type": "uint256"
        }
      ],
      "name": "getIndexForDataBefore",
      "outputs": [
        {
          "internalType": "bool",
          "name": "_found",
          "type": "bool"
        },
        {
          "internalType": "uint256",
          "name": "_index",
          "type": "uint256"
        }
      ],
      "stateMutability": "view",
      "type": "function"
    },
    {
      "inputs": [
        {
          "internalType": "bytes32",
          "name": "_queryId",
          "type": "bytes32"
        },
        {
          "internalType": "uint256",
          "name": "_timestamp",
          "type": "uint256"
        },
        {
          "internalType": "uint256",
          "name": "_maxAge",
          "type": "uint256"
        },
        {
          "internalType": "uint256",
          "name": "_maxCount",
          "type": "uint256"
        }
      ],
      "name": "getMultipleValuesBefore",
      "outputs": [
        {
          "internalType": "bytes[]",
          "name": "_values",
          "type": "bytes[]"
        },
        {
          "internalType": "uint256[]",
          "name": "_timestamps",
          "type": "uint256[]"
        }
      ],
      "stateMutability": "view",
      "type": "function"
    },
    {
      "inputs": [
        {
          "internalType": "bytes32",
          "name": "_queryId",
          "type": "bytes32"
        }
      ],
      "name": "getNewValueCountbyQueryId",
      "outputs": [
        {
          "internalType": "uint256",
          "name": "",
          "type": "uint256"
        }
      ],
      "stateMutability": "view",
      "type": "function"
    },
    {
      "inputs": [
        {
          "internalType": "string",
          "name": "_proposalId",
          "type": "string"
        },
        {
          "internalType": "bytes32[]",
          "name": "_txHashes",
          "type": "bytes32[]"
        }
      ],
      "name": "getQueryId",
      "outputs": [
        {
          "internalType": "bytes32",
          "name": "",
          "type": "bytes32"
        }
      ],
      "stateMutability": "view",
      "type": "function"
    },
    {
      "inputs": [
        {
          "internalType": "bytes32",
          "name": "_queryId",
          "type": "bytes32"
        },
        {
          "internalType": "uint256",
          "name": "_timestamp",
          "type": "uint256"
        }
      ],
      "name": "getReporterByTimestamp",
      "outputs": [
        {
          "internalType": "address",
          "name": "",
          "type": "address"
        }
      ],
      "stateMutability": "view",
      "type": "function"
    },
    {
      "inputs": [
        {
          "internalType": "bytes32",
          "name": "_queryId",
          "type": "bytes32"
        },
        {
          "internalType": "uint256",
          "name": "_index",
          "type": "uint256"
        }
      ],
      "name": "getTimestampbyQueryIdandIndex",
      "outputs": [
        {
          "internalType": "uint256",
          "name": "",
          "type": "uint256"
        }
      ],
      "stateMutability": "view",
      "type": "function"
    },
    {
      "inputs": [
        {
          "internalType": "address",
          "name": "_to",
          "type": "address"
        },
        {
          "internalType": "uint256",
          "name": "_value",
          "type": "uint256"
        },
        {
          "internalType": "bytes",
          "name": "_data",
          "type": "bytes"
        },
        {
          "internalType": "enum Enum.Operation",
          "name": "_operation",
          "type": "uint8"
        },
        {
          "internalType": "uint256",
          "name": "_nonce",
          "type": "uint256"
        }
      ],
      "name": "getTransactionHash",
      "outputs": [
        {
          "internalType": "bytes32",
          "name": "",
          "type": "bytes32"
        }
      ],
      "stateMutability": "view",
      "type": "function"
    },
    {
      "inputs": [],
      "name": "guard",
      "outputs": [
        {
          "internalType": "address",
          "name": "",
          "type": "address"
        }
      ],
      "stateMutability": "view",
      "type": "function"
    },
    {
      "inputs": [],
      "name": "idMappingContract",
      "outputs": [
        {
          "internalType": "contract IMappingContract",
          "name": "",
          "type": "address"
        }
      ],
      "stateMutability": "view",
      "type": "function"
    },
    {
      "inputs": [
        {
          "internalType": "bytes32",
          "name": "_queryId",
          "type": "bytes32"
        },
        {
          "internalType": "uint256",
          "name": "_timestamp",
          "type": "uint256"
        }
      ],
      "name": "isInDispute",
      "outputs": [
        {
          "internalType": "bool",
          "name": "",
          "type": "bool"
        }
      ],
      "stateMutability": "view",
      "type": "function"
    },
    {
      "inputs": [
        {
          "internalType": "string",
          "name": "_proposalId",
          "type": "string"
        },
        {
          "internalType": "bytes32[]",
          "name": "_txHashes",
          "type": "bytes32[]"
        }
      ],
      "name": "markProposalAsInvalid",
      "outputs": [],
      "stateMutability": "nonpayable",
      "type": "function"
    },
    {
      "inputs": [
        {
          "internalType": "bytes32",
          "name": "_proposalHash",
          "type": "bytes32"
        }
      ],
      "name": "markProposalAsInvalidByHash",
      "outputs": [],
      "stateMutability": "nonpayable",
      "type": "function"
    },
    {
      "inputs": [
        {
          "internalType": "bytes32",
          "name": "_proposalHash",
          "type": "bytes32"
        }
      ],
      "name": "markProposalWithExpiredResultAsInvalid",
      "outputs": [],
      "stateMutability": "nonpayable",
      "type": "function"
    },
    {
      "inputs": [],
      "name": "owner",
      "outputs": [
        {
          "internalType": "address",
          "name": "",
          "type": "address"
        }
      ],
      "stateMutability": "view",
      "type": "function"
    },
    {
      "inputs": [
        {
          "internalType": "bytes32",
          "name": "",
          "type": "bytes32"
        }
      ],
      "name": "queryIds",
      "outputs": [
        {
          "internalType": "bytes32",
          "name": "",
          "type": "bytes32"
        }
      ],
      "stateMutability": "view",
      "type": "function"
    },
    {
      "inputs": [],
      "name": "renounceOwnership",
      "outputs": [],
      "stateMutability": "nonpayable",
      "type": "function"
    },
    {
      "inputs": [],
      "name": "resultExpiration",
      "outputs": [
        {
          "internalType": "uint32",
          "name": "",
          "type": "uint32"
        }
      ],
      "stateMutability": "view",
      "type": "function"
    },
    {
      "inputs": [
        {
          "internalType": "bytes32",
          "name": "_queryId",
          "type": "bytes32"
        },
        {
          "internalType": "uint256",
          "name": "_timestamp",
          "type": "uint256"
        }
      ],
      "name": "retrieveData",
      "outputs": [
        {
          "internalType": "bytes",
          "name": "",
          "type": "bytes"
        }
      ],
      "stateMutability": "view",
      "type": "function"
    },
    {
      "inputs": [
        {
          "internalType": "address",
          "name": "_avatar",
          "type": "address"
        }
      ],
      "name": "setAvatar",
      "outputs": [],
      "stateMutability": "nonpayable",
      "type": "function"
    },
    {
      "inputs": [
        {
          "internalType": "address",
          "name": "_guard",
          "type": "address"
        }
      ],
      "name": "setGuard",
      "outputs": [],
      "stateMutability": "nonpayable",
      "type": "function"
    },
    {
      "inputs": [
        {
          "internalType": "address",
          "name": "_addy",
          "type": "address"
        }
      ],
      "name": "setIdMappingContract",
      "outputs": [],
      "stateMutability": "nonpayable",
      "type": "function"
    },
    {
      "inputs": [
        {
          "internalType": "address",
          "name": "_target",
          "type": "address"
        }
      ],
      "name": "setTarget",
      "outputs": [],
      "stateMutability": "nonpayable",
      "type": "function"
    },
    {
      "inputs": [
        {
          "internalType": "bytes",
          "name": "_initParams",
          "type": "bytes"
        }
      ],
      "name": "setUp",
      "outputs": [],
      "stateMutability": "nonpayable",
      "type": "function"
    },
    {
      "inputs": [],
      "name": "target",
      "outputs": [
        {
          "internalType": "address",
          "name": "",
          "type": "address"
        }
      ],
      "stateMutability": "view",
      "type": "function"
    },
    {
      "inputs": [],
      "name": "tellor",
      "outputs": [
        {
          "internalType": "contract ITellor",
          "name": "",
          "type": "address"
        }
      ],
      "stateMutability": "view",
      "type": "function"
    },
    {
      "inputs": [
        {
          "internalType": "address",
          "name": "newOwner",
          "type": "address"
        }
      ],
      "name": "transferOwnership",
      "outputs": [],
      "stateMutability": "nonpayable",
      "type": "function"
    },
    {
      "inputs": [
        {
          "internalType": "bytes32",
          "name": "_id",
          "type": "bytes32"
        }
      ],
      "name": "valueFor",
      "outputs": [
        {
          "internalType": "int256",
          "name": "_value",
          "type": "int256"
        },
        {
          "internalType": "uint256",
          "name": "_timestamp",
          "type": "uint256"
        },
        {
          "internalType": "uint256",
          "name": "_statusCode",
          "type": "uint256"
        }
      ],
      "stateMutability": "view",
      "type": "function"
    }
  ],
  "bytecode": "0x60806040523480156200001157600080fd5b50604051620068ea380380620068ea833981810160405281019062000037919062000a15565b8280606860006101000a81548173ffffffffffffffffffffffffffffffffffffffff021916908373ffffffffffffffffffffffffffffffffffffffff160217905550506000868686868686604051602001620000999695949392919062000beb565b6040516020818303038152906040529050620000bb81620000c860201b60201c565b5050505050505062000fd8565b60008060008060008086806020019051810190620000e7919062000979565b955095509550955095509550606960149054906101000a900460ff161562000146576040517f08c379a00000000000000000000000000000000000000000000000000000000081526004016200013d9062000c9c565b60405180910390fd5b6001606960146101000a81548160ff021916908315150217905550620001716200044960201b60201c565b600073ffffffffffffffffffffffffffffffffffffffff168573ffffffffffffffffffffffffffffffffffffffff161415620001e4576040517f08c379a0000000000000000000000000000000000000000000000000000000008152600401620001db9062000d02565b60405180910390fd5b600073ffffffffffffffffffffffffffffffffffffffff168473ffffffffffffffffffffffffffffffffffffffff16141562000257576040517f08c379a00000000000000000000000000000000000000000000000000000000081526004016200024e9062000c7a565b60405180910390fd5b60008163ffffffff161480620002815750603c828262000278919062000d35565b63ffffffff1610155b620002c3576040517f08c379a0000000000000000000000000000000000000000000000000000000008152600401620002ba9062000cbe565b60405180910390fd5b84606660006101000a81548173ffffffffffffffffffffffffffffffffffffffff021916908373ffffffffffffffffffffffffffffffffffffffff16021790555083606760006101000a81548173ffffffffffffffffffffffffffffffffffffffff021916908373ffffffffffffffffffffffffffffffffffffffff16021790555082606860006101000a81548173ffffffffffffffffffffffffffffffffffffffff021916908373ffffffffffffffffffffffffffffffffffffffff16021790555080606960156101000a81548163ffffffff021916908363ffffffff16021790555081606b60006101000a81548163ffffffff021916908363ffffffff160217905550620003d9866200054860201b60201c565b8473ffffffffffffffffffffffffffffffffffffffff163373ffffffffffffffffffffffffffffffffffffffff167f8cf089e89d710ad7a888a28dd8f52df5b7e0d21ef9001a76e4688b06f549391c8660405162000438919062000bce565b60405180910390a350505050505050565b600060019054906101000a900460ff168062000470575060008054906101000a900460ff16155b620004b2576040517f08c379a0000000000000000000000000000000000000000000000000000000008152600401620004a99062000c9c565b60405180910390fd5b60008060019054906101000a900460ff16159050801562000503576001600060016101000a81548160ff02191690831515021790555060016000806101000a81548160ff0219169083151502179055505b620005136200065e60201b60201c565b620005236200073d60201b60201c565b8015620005455760008060016101000a81548160ff0219169083151502179055505b50565b620005586200083c60201b60201c565b73ffffffffffffffffffffffffffffffffffffffff166200057e6200084460201b60201c565b73ffffffffffffffffffffffffffffffffffffffff1614620005d7576040517f08c379a0000000000000000000000000000000000000000000000000000000008152600401620005ce9062000ce0565b60405180910390fd5b600073ffffffffffffffffffffffffffffffffffffffff168173ffffffffffffffffffffffffffffffffffffffff1614156200064a576040517f08c379a0000000000000000000000000000000000000000000000000000000008152600401620006419062000c58565b60405180910390fd5b6200065b816200086e60201b60201c565b50565b600060019054906101000a900460ff168062000685575060008054906101000a900460ff16155b620006c7576040517f08c379a0000000000000000000000000000000000000000000000000000000008152600401620006be9062000c9c565b60405180910390fd5b60008060019054906101000a900460ff16159050801562000718576001600060016101000a81548160ff02191690831515021790555060016000806101000a81548160ff0219169083151502179055505b80156200073a5760008060016101000a81548160ff0219169083151502179055505b50565b600060019054906101000a900460ff168062000764575060008054906101000a900460ff16155b620007a6576040517f08c379a00000000000000000000000000000000000000000000000000000000081526004016200079d9062000c9c565b60405180910390fd5b60008060019054906101000a900460ff161590508015620007f7576001600060016101000a81548160ff02191690831515021790555060016000806101000a81548160ff0219169083151502179055505b620008176200080b6200083c60201b60201c565b6200086e60201b60201c565b8015620008395760008060016101000a81548160ff0219169083151502179055505b50565b600033905090565b6000603360009054906101000a900473ffffffffffffffffffffffffffffffffffffffff16905090565b6000603360009054906101000a900473ffffffffffffffffffffffffffffffffffffffff16905081603360006101000a81548173ffffffffffffffffffffffffffffffffffffffff021916908373ffffffffffffffffffffffffffffffffffffffff1602179055508173ffffffffffffffffffffffffffffffffffffffff168173ffffffffffffffffffffffffffffffffffffffff167f8be0079c531659141344cd1fd0a4f28419497f9722a3daafe3b4186f6b6457e060405160405180910390a35050565b600081519050620009458162000f8a565b92915050565b6000815190506200095c8162000fa4565b92915050565b600081519050620009738162000fbe565b92915050565b60008060008060008060c0878903121562000999576200099862000df7565b5b6000620009a989828a016200094b565b9650506020620009bc89828a016200094b565b9550506040620009cf89828a016200094b565b9450506060620009e289828a016200094b565b9350506080620009f589828a0162000962565b92505060a062000a0889828a0162000962565b9150509295509295509295565b60008060008060008060c0878903121562000a355762000a3462000df7565b5b600062000a4589828a0162000934565b965050602062000a5889828a0162000934565b955050604062000a6b89828a0162000934565b945050606062000a7e89828a016200094b565b935050608062000a9189828a0162000962565b92505060a062000aa489828a0162000962565b9150509295509295509295565b62000abc8162000d84565b82525050565b62000acd8162000d70565b82525050565b600062000ae260268362000d24565b915062000aef8262000dfc565b604082019050919050565b600062000b09601e8362000d24565b915062000b168262000e4b565b602082019050919050565b600062000b30602e8362000d24565b915062000b3d8262000e74565b604082019050919050565b600062000b5760448362000d24565b915062000b648262000ec3565b606082019050919050565b600062000b7e60208362000d24565b915062000b8b8262000f38565b602082019050919050565b600062000ba5601e8362000d24565b915062000bb28262000f61565b602082019050919050565b62000bc88162000db8565b82525050565b600060208201905062000be5600083018462000ac2565b92915050565b600060c08201905062000c02600083018962000ac2565b62000c11602083018862000ac2565b62000c20604083018762000ac2565b62000c2f606083018662000ab1565b62000c3e608083018562000bbd565b62000c4d60a083018462000bbd565b979650505050505050565b6000602082019050818103600083015262000c738162000ad3565b9050919050565b6000602082019050818103600083015262000c958162000afa565b9050919050565b6000602082019050818103600083015262000cb78162000b21565b9050919050565b6000602082019050818103600083015262000cd98162000b48565b9050919050565b6000602082019050818103600083015262000cfb8162000b6f565b9050919050565b6000602082019050818103600083015262000d1d8162000b96565b9050919050565b600082825260208201905092915050565b600062000d428262000db8565b915062000d4f8362000db8565b92508282101562000d655762000d6462000dc8565b5b828203905092915050565b600062000d7d8262000d98565b9050919050565b600062000d918262000d98565b9050919050565b600073ffffffffffffffffffffffffffffffffffffffff82169050919050565b600063ffffffff82169050919050565b7f4e487b7100000000000000000000000000000000000000000000000000000000600052601160045260246000fd5b600080fd5b7f4f776e61626c653a206e6577206f776e657220697320746865207a65726f206160008201527f6464726573730000000000000000000000000000000000000000000000000000602082015250565b7f5461726765742063616e206e6f74206265207a65726f20616464726573730000600082015250565b7f496e697469616c697a61626c653a20636f6e747261637420697320616c72656160008201527f647920696e697469616c697a6564000000000000000000000000000000000000602082015250565b7f5468657265206e65656420746f206265206174206c656173742036307320626560008201527f747765656e20656e64206f6620636f6f6c646f776e20616e642065787069726160208201527f74696f6e00000000000000000000000000000000000000000000000000000000604082015250565b7f4f776e61626c653a2063616c6c6572206973206e6f7420746865206f776e6572600082015250565b7f4176617461722063616e206e6f74206265207a65726f20616464726573730000600082015250565b62000f958162000d70565b811462000fa157600080fd5b50565b62000faf8162000d84565b811462000fbb57600080fd5b50565b62000fc98162000db8565b811462000fd557600080fd5b50565b6159028062000fe86000396000f3fe608060405234801561001057600080fd5b506004361061025e5760003560e01c806377b03e0d11610146578063c9106389116100c3578063ea0b9c3a11610087578063ea0b9c3a1461074c578063f2fde38b1461077c578063f66f49c314610798578063f78eea83146107c9578063fcd4a546146107fb578063ff0394eb1461082c5761025e565b8063c910638914610694578063ce5e11bf146106b2578063d4b83992146106e2578063e07c548614610700578063e19a9dd9146107305761025e565b80638dcd26611161010a5780638dcd2661146105cb57806397722c20146105e7578063a4f9edbf14610617578063a792765f14610633578063c5958af9146106645761025e565b806377b03e0d14610523578063787a08a6146105535780637ceab3b11461057157806388633b7b1461058f5780638da5cb5b146105ad5761025e565b80632b500041116101df57806345c7980e116101a357806345c7980e146104625780634e1b83741461047e5780635aef7de6146104ae57806364ee3c6d146104cc578063715018a6146104fd578063776d1a01146105075761025e565b80632b5000411461039857806331460e3d146103c85780633408e470146103f85780633ea3c1461461041657806344e87f91146104325761025e565b806322617d971161022657806322617d97146102f35780632351a8771461030f578063276e832a1461032b57806329449085146103495780632af8aae01461037a5761025e565b8063086cfca81461026357806314604b8c1461027f578063193b505b1461029b5780631959ad5b146102b75780631db61b54146102d5575b600080fd5b61027d600480360381019061027891906136d7565b61084a565b005b61029960048036038101906102949190613c5d565b61098c565b005b6102b560048036038101906102b091906136d7565b610e0b565b005b6102bf610eaa565b6040516102cc9190614879565b60405180910390f35b6102dd610ed0565b6040516102ea91906146ec565b60405180910390f35b61030d60048036038101906103089190613931565b610ef7565b005b61032960048036038101906103249190613b7c565b61115d565b005b610333611175565b6040516103409190614c1b565b60405180910390f35b610363600480360381019061035e91906139cb565b61118b565b6040516103719291906146c3565b60405180910390f35b610382611245565b60405161038f919061485e565b60405180910390f35b6103b260048036038101906103ad91906137be565b61126b565b6040516103bf91906146ec565b60405180910390f35b6103e260048036038101906103dd9190613931565b61128c565b6040516103ef91906146ec565b60405180910390f35b6104006112a4565b60405161040d9190614c00565b60405180910390f35b610430600480360381019061042b9190613931565b6112b1565b005b61044c600480360381019061044791906139cb565b61136b565b60405161045991906146a8565b60405180910390f35b61047c60048036038101906104779190613b04565b611422565b005b6104986004803603810190610493919061398b565b61144b565b6040516104a591906146a8565b60405180910390f35b6104b661147a565b6040516104c3919061452f565b60405180910390f35b6104e660048036038101906104e191906139cb565b6114a0565b6040516104f492919061482e565b60405180910390f35b6105056114fa565b005b610521600480360381019061051c91906136d7565b611582565b005b61053d60048036038101906105389190613931565b6116c4565b60405161054a9190614c00565b60405180910390f35b61055b611778565b6040516105689190614c1b565b60405180910390f35b61057961178e565b604051610586919061452f565b60405180910390f35b6105976117b4565b6040516105a491906146ec565b60405180910390f35b6105b56117db565b6040516105c2919061452f565b60405180910390f35b6105e560048036038101906105e09190613b04565b611805565b005b61060160048036038101906105fc9190613b04565b6118e7565b60405161060e91906146ec565b60405180910390f35b610631600480360381019061062c9190613a72565b61196c565b005b61064d600480360381019061064891906139cb565b611cca565b60405161065b92919061482e565b60405180910390f35b61067e600480360381019061067991906139cb565b611d92565b60405161068b919061480c565b60405180910390f35b61069c611e4e565b6040516106a9919061452f565b60405180910390f35b6106cc60048036038101906106c791906139cb565b611e78565b6040516106d99190614c00565b60405180910390f35b6106ea611f2f565b6040516106f7919061452f565b60405180910390f35b61071a600480360381019061071591906139cb565b611f55565b604051610727919061452f565b60405180910390f35b61074a600480360381019061074591906136d7565b61200c565b005b61076660048036038101906107619190613b04565b612242565b60405161077391906148cb565b60405180910390f35b610796600480360381019061079191906136d7565b6122aa565b005b6107b260048036038101906107ad91906139cb565b6123a2565b6040516107c09291906146c3565b60405180910390f35b6107e360048036038101906107de9190613931565b612587565b6040516107f293929190614894565b60405180910390f35b61081560048036038101906108109190613a0b565b61269b565b604051610823929190614671565b60405180910390f35b610834612a6f565b60405161084191906146ec565b60405180910390f35b610852612a96565b73ffffffffffffffffffffffffffffffffffffffff166108706117db565b73ffffffffffffffffffffffffffffffffffffffff16146108c6576040517f08c379a00000000000000000000000000000000000000000000000000000000081526004016108bd90614ac0565b60405180910390fd5b6000606660009054906101000a900473ffffffffffffffffffffffffffffffffffffffff16905081606660006101000a81548173ffffffffffffffffffffffffffffffffffffffff021916908373ffffffffffffffffffffffffffffffffffffffff1602179055508173ffffffffffffffffffffffffffffffffffffffff168173ffffffffffffffffffffffffffffffffffffffff167f52ae88b092de36f87fb43fe794eb1381023b9c1bce563a871154022c63dce34260405160405180910390a35050565b60006109988888612242565b8051906020012090506000606c60008381526020019081526020016000205490506000801b8114156109ff576040517f08c379a00000000000000000000000000000000000000000000000000000000081526004016109f690614b60565b60405180910390fd5b7fffffffffffffffffffffffffffffffffffffffffffffffffffffffffffffffff60001b811415610a65576040517f08c379a0000000000000000000000000000000000000000000000000000000008152600401610a5c90614b80565b60405180910390fd5b6000610a74888888888861126b565b905080898581518110610a8a57610a89615306565b5b602002602001015114610ad2576040517f08c379a0000000000000000000000000000000000000000000000000000000008152600401610ac990614be0565b60405180910390fd5b600080610adf8442611cca565b9150915060008111610b26576040517f08c379a0000000000000000000000000000000000000000000000000000000008152600401610b1d906149a0565b60405180910390fd5b42606b60009054906101000a900463ffffffff1663ffffffff1682610b4b9190614df3565b10610b8b576040517f08c379a0000000000000000000000000000000000000000000000000000000008152600401610b8290614b40565b60405180910390fd5b600082806020019051810190610ba19190613855565b905080610be3576040517f08c379a0000000000000000000000000000000000000000000000000000000008152600401610bda90614ba0565b60405180910390fd5b6000606960159054906101000a900463ffffffff16905060008163ffffffff161480610c205750428163ffffffff1684610c1d9190614df3565b10155b610c5f576040517f08c379a0000000000000000000000000000000000000000000000000000000008152600401610c5690614a20565b60405180910390fd5b6000881480610cc25750606a600088815260200190815260200160002060008e60018b610c8c9190614f3c565b81518110610c9d57610c9c615306565b5b6020026020010151815260200190815260200160002060009054906101000a900460ff165b610d01576040517f08c379a0000000000000000000000000000000000000000000000000000000008152600401610cf890614960565b60405180910390fd5b606a6000888152602001908152602001600020600086815260200190815260200160002060009054906101000a900460ff1615610d73576040517f08c379a0000000000000000000000000000000000000000000000000000000008152600401610d6a90614b20565b60405180910390fd5b6001606a6000898152602001908152602001600020600087815260200190815260200160002060006101000a81548160ff021916908315150217905550610dbc8c8c8c8c612a9e565b610dfb576040517f08c379a0000000000000000000000000000000000000000000000000000000008152600401610df290614bc0565b60405180910390fd5b5050505050505050505050505050565b600073ffffffffffffffffffffffffffffffffffffffff16606960009054906101000a900473ffffffffffffffffffffffffffffffffffffffff1673ffffffffffffffffffffffffffffffffffffffff1614610e6657600080fd5b80606960006101000a81548173ffffffffffffffffffffffffffffffffffffffff021916908373ffffffffffffffffffffffffffffffffffffffff16021790555050565b606860009054906101000a900473ffffffffffffffffffffffffffffffffffffffff1681565b7f47e79534a245952e8b16893a336b85a3d9ea9fa8c573f3d803afb92a7946921860001b81565b6000606960159054906101000a900463ffffffff16905060008163ffffffff1611610f57576040517f08c379a0000000000000000000000000000000000000000000000000000000008152600401610f4e906149c0565b60405180910390fd5b6000606c60008481526020019081526020016000205490507fffffffffffffffffffffffffffffffffffffffffffffffffffffffffffffffff60001b811415610fd5576040517f08c379a0000000000000000000000000000000000000000000000000000000008152600401610fcc906149e0565b60405180910390fd5b6000801b81141561101b576040517f08c379a000000000000000000000000000000000000000000000000000000000815260040161101290614b60565b60405180910390fd5b6000806110288342611cca565b915091506000811161106f576040517f08c379a0000000000000000000000000000000000000000000000000000000008152600401611066906149a0565b60405180910390fd5b6000828060200190518101906110859190613855565b9050806110c7576040517f08c379a00000000000000000000000000000000000000000000000000000000081526004016110be90614ba0565b60405180910390fd5b428563ffffffff16836110da9190614df3565b1061111a576040517f08c379a000000000000000000000000000000000000000000000000000000000815260040161111190614aa0565b60405180910390fd5b7fffffffffffffffffffffffffffffffffffffffffffffffffffffffffffffffff60001b606c600088815260200190815260200160002081905550505050505050565b61116d868686868686600061098c565b505050505050565b606960159054906101000a900463ffffffff1681565b600080606860009054906101000a900473ffffffffffffffffffffffffffffffffffffffff1673ffffffffffffffffffffffffffffffffffffffff16632944908585856040518363ffffffff1660e01b81526004016111eb929190614791565b604080518083038186803b15801561120257600080fd5b505afa158015611216573d6000803e3d6000fd5b505050506040513d601f19601f8201168201806040525081019061123a91906138f1565b915091509250929050565b606960009054906101000a900473ffffffffffffffffffffffffffffffffffffffff1681565b600061127a8686868686612d93565b80519060200120905095945050505050565b606c6020528060005260406000206000915090505481565b6000804690508091505090565b6112b9612a96565b73ffffffffffffffffffffffffffffffffffffffff166112d76117db565b73ffffffffffffffffffffffffffffffffffffffff161461132d576040517f08c379a000000000000000000000000000000000000000000000000000000000815260040161132490614ac0565b60405180910390fd5b7fffffffffffffffffffffffffffffffffffffffffffffffffffffffffffffffff60001b606c60008381526020019081526020016000208190555050565b6000606860009054906101000a900473ffffffffffffffffffffffffffffffffffffffff1673ffffffffffffffffffffffffffffffffffffffff166344e87f9184846040518363ffffffff1660e01b81526004016113ca929190614791565b60206040518083038186803b1580156113e257600080fd5b505afa1580156113f6573d6000803e3d6000fd5b505050506040513d601f19601f8201168201806040525081019061141a9190613855565b905092915050565b600061142e8383612242565b9050600081805190602001209050611445816112b1565b50505050565b606a6020528160005260406000206020528060005260406000206000915091509054906101000a900460ff1681565b606660009054906101000a900473ffffffffffffffffffffffffffffffffffffffff1681565b606060008060006114b186866123a2565b91509150816114d857600060405180602001604052806000815250909350935050506114f3565b6114e28682611e78565b92506114ee8684611d92565b935050505b9250929050565b611502612a96565b73ffffffffffffffffffffffffffffffffffffffff166115206117db565b73ffffffffffffffffffffffffffffffffffffffff1614611576576040517f08c379a000000000000000000000000000000000000000000000000000000000815260040161156d90614ac0565b60405180910390fd5b6115806000612e8e565b565b61158a612a96565b73ffffffffffffffffffffffffffffffffffffffff166115a86117db565b73ffffffffffffffffffffffffffffffffffffffff16146115fe576040517f08c379a00000000000000000000000000000000000000000000000000000000081526004016115f590614ac0565b60405180910390fd5b6000606760009054906101000a900473ffffffffffffffffffffffffffffffffffffffff16905081606760006101000a81548173ffffffffffffffffffffffffffffffffffffffff021916908373ffffffffffffffffffffffffffffffffffffffff1602179055508173ffffffffffffffffffffffffffffffffffffffff168173ffffffffffffffffffffffffffffffffffffffff167f90cc2f570a6eb594b1580ea3e41247d2d73a55281889e86bd4ec2fc29c7e62d660405160405180910390a35050565b6000606860009054906101000a900473ffffffffffffffffffffffffffffffffffffffff1673ffffffffffffffffffffffffffffffffffffffff166377b03e0d836040518263ffffffff1660e01b815260040161172191906146ec565b60206040518083038186803b15801561173957600080fd5b505afa15801561174d573d6000803e3d6000fd5b505050506040513d601f19601f820116820180604052508101906117719190613d53565b9050919050565b606b60009054906101000a900463ffffffff1681565b606560009054906101000a900473ffffffffffffffffffffffffffffffffffffffff1681565b7f72e9670a7ee00f5fbf1049b8c38e3f22fab7e9b85029e85cf9412f17fdd5c2ad60001b81565b6000603360009054906101000a900473ffffffffffffffffffffffffffffffffffffffff16905090565b60006118118383612242565b90506000818051906020012090506000801b606c60008381526020019081526020016000205414611877576040517f08c379a000000000000000000000000000000000000000000000000000000000815260040161186e90614a00565b60405180910390fd5b600061188385856118e7565b905080606c600084815260200190815260200160002081905550846040516118ab91906144e3565b6040518091039020817fd017d7c85eb4d3d4fc8c875e7d272062ad7dd797ccdb7b46b9c749a4e4864e3860405160405180910390a35050505050565b600080826040516020016118fb919061464f565b604051602081830303815290604052805190602001209050600084823060405160200161192a939291906148ed565b604051602081830303815290604052604051602001611949919061492b565b604051602081830303815290604052805190602001209050809250505092915050565b600080600080600080868060200190518101906119899190613731565b955095509550955095509550606960149054906101000a900460ff16156119e5576040517f08c379a00000000000000000000000000000000000000000000000000000000081526004016119dc90614a60565b60405180910390fd5b6001606960146101000a81548160ff021916908315150217905550611a08612f54565b600073ffffffffffffffffffffffffffffffffffffffff168573ffffffffffffffffffffffffffffffffffffffff161415611a78576040517f08c379a0000000000000000000000000000000000000000000000000000000008152600401611a6f90614ae0565b60405180910390fd5b600073ffffffffffffffffffffffffffffffffffffffff168473ffffffffffffffffffffffffffffffffffffffff161415611ae8576040517f08c379a0000000000000000000000000000000000000000000000000000000008152600401611adf90614a40565b60405180910390fd5b60008163ffffffff161480611b0f5750603c8282611b069190614f70565b63ffffffff1610155b611b4e576040517f08c379a0000000000000000000000000000000000000000000000000000000008152600401611b4590614a80565b60405180910390fd5b84606660006101000a81548173ffffffffffffffffffffffffffffffffffffffff021916908373ffffffffffffffffffffffffffffffffffffffff16021790555083606760006101000a81548173ffffffffffffffffffffffffffffffffffffffff021916908373ffffffffffffffffffffffffffffffffffffffff16021790555082606860006101000a81548173ffffffffffffffffffffffffffffffffffffffff021916908373ffffffffffffffffffffffffffffffffffffffff16021790555080606960156101000a81548163ffffffff021916908363ffffffff16021790555081606b60006101000a81548163ffffffff021916908363ffffffff160217905550611c5c866122aa565b8473ffffffffffffffffffffffffffffffffffffffff163373ffffffffffffffffffffffffffffffffffffffff167f8cf089e89d710ad7a888a28dd8f52df5b7e0d21ef9001a76e4688b06f549391c86604051611cb9919061452f565b60405180910390a350505050505050565b60606000606860009054906101000a900473ffffffffffffffffffffffffffffffffffffffff1673ffffffffffffffffffffffffffffffffffffffff1663a792765f85856040518363ffffffff1660e01b8152600401611d2b929190614791565b60006040518083038186803b158015611d4357600080fd5b505afa158015611d57573d6000803e3d6000fd5b505050506040513d6000823e3d601f19601f82011682018060405250810190611d809190613882565b90915080925081935050509250929050565b6060606860009054906101000a900473ffffffffffffffffffffffffffffffffffffffff1673ffffffffffffffffffffffffffffffffffffffff1663c5958af984846040518363ffffffff1660e01b8152600401611df1929190614791565b60006040518083038186803b158015611e0957600080fd5b505afa158015611e1d573d6000803e3d6000fd5b505050506040513d6000823e3d601f19601f82011682018060405250810190611e469190613abb565b905092915050565b6000606560009054906101000a900473ffffffffffffffffffffffffffffffffffffffff16905090565b6000606860009054906101000a900473ffffffffffffffffffffffffffffffffffffffff1673ffffffffffffffffffffffffffffffffffffffff1663ce5e11bf84846040518363ffffffff1660e01b8152600401611ed7929190614791565b60206040518083038186803b158015611eef57600080fd5b505afa158015611f03573d6000803e3d6000fd5b505050506040513d601f19601f82011682018060405250810190611f279190613d53565b905092915050565b606760009054906101000a900473ffffffffffffffffffffffffffffffffffffffff1681565b6000606860009054906101000a900473ffffffffffffffffffffffffffffffffffffffff1673ffffffffffffffffffffffffffffffffffffffff1663e07c548684846040518363ffffffff1660e01b8152600401611fb4929190614791565b60206040518083038186803b158015611fcc57600080fd5b505afa158015611fe0573d6000803e3d6000fd5b505050506040513d601f19601f820116820180604052508101906120049190613704565b905092915050565b612014612a96565b73ffffffffffffffffffffffffffffffffffffffff166120326117db565b73ffffffffffffffffffffffffffffffffffffffff1614612088576040517f08c379a000000000000000000000000000000000000000000000000000000000815260040161207f90614ac0565b60405180910390fd5b600073ffffffffffffffffffffffffffffffffffffffff168173ffffffffffffffffffffffffffffffffffffffff16146121a5578073ffffffffffffffffffffffffffffffffffffffff166301ffc9a77fe6d7a83a000000000000000000000000000000000000000000000000000000006040518263ffffffff1660e01b815260040161211591906147f1565b60206040518083038186803b15801561212d57600080fd5b505afa158015612141573d6000803e3d6000fd5b505050506040513d601f19601f820116820180604052508101906121659190613855565b6121a4576040517f08c379a000000000000000000000000000000000000000000000000000000000815260040161219b90614b00565b60405180910390fd5b5b80606560006101000a81548173ffffffffffffffffffffffffffffffffffffffff021916908373ffffffffffffffffffffffffffffffffffffffff1602179055507f1151116914515bc0891ff9047a6cb32cf902546f83066499bcf8ba33d2353fa2606560009054906101000a900473ffffffffffffffffffffffffffffffffffffffff16604051612237919061452f565b60405180910390a150565b606060006122758360405160200161225a919061447e565b6040516020818303038152906040528051906020012061303d565b90508362e2909f60e81b82604051602001612292939291906144fa565b60405160208183030381529060405291505092915050565b6122b2612a96565b73ffffffffffffffffffffffffffffffffffffffff166122d06117db565b73ffffffffffffffffffffffffffffffffffffffff1614612326576040517f08c379a000000000000000000000000000000000000000000000000000000000815260040161231d90614ac0565b60405180910390fd5b600073ffffffffffffffffffffffffffffffffffffffff168173ffffffffffffffffffffffffffffffffffffffff161415612396576040517f08c379a000000000000000000000000000000000000000000000000000000000815260040161238d90614980565b60405180910390fd5b61239f81612e8e565b50565b60008060006123b0856116c4565b905060008114156123c8576000809250925050612580565b80806123d390615186565b915050600060019050600080600084905060006123f08a83611e78565b905088811161240b5760008097509750505050505050612580565b6124158a84611e78565b90508881111561242457600094505b5b84156124ec57600283836124399190614df3565b6124439190614e80565b935061244f8a85611e78565b9050888111156124995760006124718b60018761246c9190614f3c565b611e78565b90508981116124835760009550612493565b6001856124909190614f3c565b92505b506124e7565b60006124b18b6001876124ac9190614df3565b611e78565b9050898111156124d5576000955084806124ca906151e1565b9550508091506124e5565b6001856124e29190614df3565b93505b505b612425565b6124f68a8261136b565b61250c5760018497509750505050505050612580565b5b6125178a8261136b565b801561252257508584105b15612546578380612532906151e1565b94505061253f8a85611e78565b905061250d565b858414801561255b575061255a8a8261136b565b5b156125725760008097509750505050505050612580565b600184975097505050505050505b9250929050565b600080600080606960009054906101000a900473ffffffffffffffffffffffffffffffffffffffff1673ffffffffffffffffffffffffffffffffffffffff166387a475fd866040518263ffffffff1660e01b81526004016125e891906146ec565b60206040518083038186803b15801561260057600080fd5b505afa158015612614573d6000803e3d6000fd5b505050506040513d601f19601f82011682018060405250810190612638919061395e565b905060606126528260014261264d9190614df3565b611cca565b80955081925050506000841415612676576000806101949450945094505050612694565b6000612681826131b0565b9050809550858560c89550955095505050505b9193909250565b6060806000806126b68887896126b19190614f3c565b6123a2565b915091508161276357600067ffffffffffffffff8111156126da576126d9615335565b5b60405190808252806020026020018201604052801561270d57816020015b60608152602001906001900390816126f85790505b50600067ffffffffffffffff81111561272957612728615335565b5b6040519080825280602002602001820160405280156127575781602001602082028036833780820191505090505b50935093505050612a66565b600061276f898961118b565b80925081945050508261282157600067ffffffffffffffff81111561279757612796615335565b5b6040519080825280602002602001820160405280156127ca57816020015b60608152602001906001900390816127b55790505b50600067ffffffffffffffff8111156127e6576127e5615335565b5b6040519080825280602002602001820160405280156128145781602001602082028036833780820191505090505b5094509450505050612a66565b60008060008867ffffffffffffffff8111156128405761283f615335565b5b60405190808252806020026020018201604052801561286e5781602001602082028036833780820191505090505b5090505b88831080156128975750848260018661288b9190614df3565b6128959190614f3c565b115b156129065760006128b38d84876128ae9190614f3c565b611e78565b90506128bf8d8261136b565b6128f257808285815181106128d7576128d6615306565b5b60200260200101818152505083806128ee906151e1565b9450505b82806128fd906151e1565b93505050612872565b60008367ffffffffffffffff81111561292257612921615335565b5b60405190808252806020026020018201604052801561295557816020015b60608152602001906001900390816129405790505b50905060008467ffffffffffffffff81111561297457612973615335565b5b6040519080825280602002602001820160405280156129a25781602001602082028036833780820191505090505b50905060005b85811015612a565783816001886129bf9190614f3c565b6129c99190614f3c565b815181106129da576129d9615306565b5b60200260200101518282815181106129f5576129f4615306565b5b602002602001018181525050612a258f838381518110612a1857612a17615306565b5b6020026020010151611d92565b838281518110612a3857612a37615306565b5b60200260200101819052508080612a4e906151e1565b9150506129a8565b5081819950995050505050505050505b94509492505050565b7fffffffffffffffffffffffffffffffffffffffffffffffffffffffffffffffff60001b81565b600033905090565b60008073ffffffffffffffffffffffffffffffffffffffff16606560009054906101000a900473ffffffffffffffffffffffffffffffffffffffff1673ffffffffffffffffffffffffffffffffffffffff1614612bd057606560009054906101000a900473ffffffffffffffffffffffffffffffffffffffff1673ffffffffffffffffffffffffffffffffffffffff166375f0bb528686868660008060008060006040518060400160405280600281526020017f307800000000000000000000000000000000000000000000000000000000000081525060006040518c63ffffffff1660e01b8152600401612b9d9b9a99989796959493929190614596565b600060405180830381600087803b158015612bb757600080fd5b505af1158015612bcb573d6000803e3d6000fd5b505050505b606760009054906101000a900473ffffffffffffffffffffffffffffffffffffffff1673ffffffffffffffffffffffffffffffffffffffff1663468721a7868686866040518563ffffffff1660e01b8152600401612c31949392919061454a565b602060405180830381600087803b158015612c4b57600080fd5b505af1158015612c5f573d6000803e3d6000fd5b505050506040513d601f19601f82011682018060405250810190612c839190613855565b9050600073ffffffffffffffffffffffffffffffffffffffff16606560009054906101000a900473ffffffffffffffffffffffffffffffffffffffff1673ffffffffffffffffffffffffffffffffffffffff1614612d8b57606560009054906101000a900473ffffffffffffffffffffffffffffffffffffffff1673ffffffffffffffffffffffffffffffffffffffff1663932713687f3078000000000000000000000000000000000000000000000000000000000000836040518363ffffffff1660e01b8152600401612d58929190614768565b600060405180830381600087803b158015612d7257600080fd5b505af1158015612d86573d6000803e3d6000fd5b505050505b949350505050565b60606000612d9f6112a4565b905060007f47e79534a245952e8b16893a336b85a3d9ea9fa8c573f3d803afb92a7946921860001b8230604051602001612ddb939291906147ba565b60405160208183030381529060405280519060200120905060007f72e9670a7ee00f5fbf1049b8c38e3f22fab7e9b85029e85cf9412f17fdd5c2ad60001b898989805190602001208989604051602001612e3a96959493929190614707565b604051602081830303815290604052805190602001209050601960f81b600160f81b8383604051602001612e719493929190614495565b604051602081830303815290604052935050505095945050505050565b6000603360009054906101000a900473ffffffffffffffffffffffffffffffffffffffff16905081603360006101000a81548173ffffffffffffffffffffffffffffffffffffffff021916908373ffffffffffffffffffffffffffffffffffffffff1602179055508173ffffffffffffffffffffffffffffffffffffffff168173ffffffffffffffffffffffffffffffffffffffff167f8be0079c531659141344cd1fd0a4f28419497f9722a3daafe3b4186f6b6457e060405160405180910390a35050565b600060019054906101000a900460ff1680612f7a575060008054906101000a900460ff16155b612fb9576040517f08c379a0000000000000000000000000000000000000000000000000000000008152600401612fb090614a60565b60405180910390fd5b60008060019054906101000a900460ff161590508015613009576001600060016101000a81548160ff02191690831515021790555060016000806101000a81548160ff0219169083151502179055505b613011613218565b6130196132f1565b801561303a5760008060016101000a81548160ff0219169083151502179055505b50565b60606000604067ffffffffffffffff81111561305c5761305b615335565b5b6040519080825280601f01601f19166020018201604052801561308e5781602001600182028036833780820191505090505b50905060005b60208110156131a65760006008826130ac9190614ee2565b85901b60f81c905060006010826130c39190614eb1565b905060006010836130d49190615248565b90506130df826133da565b858560026130ed9190614ee2565b815181106130fe576130fd615306565b5b60200101907effffffffffffffffffffffffffffffffffffffffffffffffffffffffffffff1916908160001a905350613136816133da565b8560018660026131469190614ee2565b6131509190614df3565b8151811061316157613160615306565b5b60200101907effffffffffffffffffffffffffffffffffffffffffffffffffffffffffffff1916908160001a905350505050808061319e906151e1565b915050613094565b5080915050919050565b600080600090505b8251811015613212578281815181106131d4576131d3615306565b5b602001015160f81c60f81b60f81c60ff16610100836131f39190614ee2565b6131fd9190614df3565b9150808061320a906151e1565b9150506131b8565b50919050565b600060019054906101000a900460ff168061323e575060008054906101000a900460ff16155b61327d576040517f08c379a000000000000000000000000000000000000000000000000000000000815260040161327490614a60565b60405180910390fd5b60008060019054906101000a900460ff1615905080156132cd576001600060016101000a81548160ff02191690831515021790555060016000806101000a81548160ff0219169083151502179055505b80156132ee5760008060016101000a81548160ff0219169083151502179055505b50565b600060019054906101000a900460ff1680613317575060008054906101000a900460ff16155b613356576040517f08c379a000000000000000000000000000000000000000000000000000000000815260040161334d90614a60565b60405180910390fd5b60008060019054906101000a900460ff1615905080156133a6576001600060016101000a81548160ff02191690831515021790555060016000806101000a81548160ff0219169083151502179055505b6133b66133b1612a96565b612e8e565b80156133d75760008060016101000a81548160ff0219169083151502179055505b50565b6000600a8260ff1610156133ff576030826133f59190614e49565b60f81b9050613412565b60578261340c9190614e49565b60f81b90505b919050565b600061342a61342584614c5b565b614c36565b9050808382526020820190508285602086028201111561344d5761344c615369565b5b60005b8581101561347d578161346388826135cf565b845260208401935060208301925050600181019050613450565b5050509392505050565b600061349a61349584614c87565b614c36565b9050828152602081018484840111156134b6576134b561536e565b5b6134c1848285615144565b509392505050565b60006134dc6134d784614c87565b614c36565b9050828152602081018484840111156134f8576134f761536e565b5b613503848285615153565b509392505050565b600061351e61351984614cb8565b614c36565b90508281526020810184848401111561353a5761353961536e565b5b613545848285615144565b509392505050565b60008135905061355c81615832565b92915050565b60008151905061357181615832565b92915050565b60008151905061358681615849565b92915050565b600082601f8301126135a1576135a0615364565b5b81356135b1848260208601613417565b91505092915050565b6000815190506135c981615860565b92915050565b6000813590506135de81615877565b92915050565b6000815190506135f381615877565b92915050565b600082601f83011261360e5761360d615364565b5b813561361e848260208601613487565b91505092915050565b600082601f83011261363c5761363b615364565b5b815161364c8482602086016134c9565b91505092915050565b6000813590506136648161588e565b92915050565b600082601f83011261367f5761367e615364565b5b813561368f84826020860161350b565b91505092915050565b6000813590506136a78161589e565b92915050565b6000815190506136bc8161589e565b92915050565b6000815190506136d1816158b5565b92915050565b6000602082840312156136ed576136ec615378565b5b60006136fb8482850161354d565b91505092915050565b60006020828403121561371a57613719615378565b5b600061372884828501613562565b91505092915050565b60008060008060008060c0878903121561374e5761374d615378565b5b600061375c89828a01613577565b965050602061376d89828a01613577565b955050604061377e89828a01613577565b945050606061378f89828a01613577565b93505060806137a089828a016136c2565b92505060a06137b189828a016136c2565b9150509295509295509295565b600080600080600060a086880312156137da576137d9615378565b5b60006137e88882890161354d565b95505060206137f988828901613698565b945050604086013567ffffffffffffffff81111561381a57613819615373565b5b613826888289016135f9565b935050606061383788828901613655565b925050608061384888828901613698565b9150509295509295909350565b60006020828403121561386b5761386a615378565b5b6000613879848285016135ba565b91505092915050565b60008060006060848603121561389b5761389a615378565b5b60006138a9868287016135ba565b935050602084015167ffffffffffffffff8111156138ca576138c9615373565b5b6138d686828701613627565b92505060406138e7868287016136ad565b9150509250925092565b6000806040838503121561390857613907615378565b5b6000613916858286016135ba565b9250506020613927858286016136ad565b9150509250929050565b60006020828403121561394757613946615378565b5b6000613955848285016135cf565b91505092915050565b60006020828403121561397457613973615378565b5b6000613982848285016135e4565b91505092915050565b600080604083850312156139a2576139a1615378565b5b60006139b0858286016135cf565b92505060206139c1858286016135cf565b9150509250929050565b600080604083850312156139e2576139e1615378565b5b60006139f0858286016135cf565b9250506020613a0185828601613698565b9150509250929050565b60008060008060808587031215613a2557613a24615378565b5b6000613a33878288016135cf565b9450506020613a4487828801613698565b9350506040613a5587828801613698565b9250506060613a6687828801613698565b91505092959194509250565b600060208284031215613a8857613a87615378565b5b600082013567ffffffffffffffff811115613aa657613aa5615373565b5b613ab2848285016135f9565b91505092915050565b600060208284031215613ad157613ad0615378565b5b600082015167ffffffffffffffff811115613aef57613aee615373565b5b613afb84828501613627565b91505092915050565b60008060408385031215613b1b57613b1a615378565b5b600083013567ffffffffffffffff811115613b3957613b38615373565b5b613b458582860161366a565b925050602083013567ffffffffffffffff811115613b6657613b65615373565b5b613b728582860161358c565b9150509250929050565b60008060008060008060c08789031215613b9957613b98615378565b5b600087013567ffffffffffffffff811115613bb757613bb6615373565b5b613bc389828a0161366a565b965050602087013567ffffffffffffffff811115613be457613be3615373565b5b613bf089828a0161358c565b9550506040613c0189828a0161354d565b9450506060613c1289828a01613698565b935050608087013567ffffffffffffffff811115613c3357613c32615373565b5b613c3f89828a016135f9565b92505060a0613c5089828a01613655565b9150509295509295509295565b600080600080600080600060e0888a031215613c7c57613c7b615378565b5b600088013567ffffffffffffffff811115613c9a57613c99615373565b5b613ca68a828b0161366a565b975050602088013567ffffffffffffffff811115613cc757613cc6615373565b5b613cd38a828b0161358c565b9650506040613ce48a828b0161354d565b9550506060613cf58a828b01613698565b945050608088013567ffffffffffffffff811115613d1657613d15615373565b5b613d228a828b016135f9565b93505060a0613d338a828b01613655565b92505060c0613d448a828b01613698565b91505092959891949750929550565b600060208284031215613d6957613d68615378565b5b6000613d77848285016136ad565b91505092915050565b6000613d8c8383613faf565b60208301905092915050565b6000613da48383613fcd565b60208301905092915050565b6000613dbc8383614019565b905092915050565b6000613dd08383614451565b60208301905092915050565b613de581614fb6565b82525050565b613df481614fa4565b82525050565b6000613e0582614d19565b613e0f8185614d77565b9350613e1a83614ce9565b8060005b83811015613e4b578151613e328882613d80565b9750613e3d83614d50565b925050600181019050613e1e565b5085935050505092915050565b6000613e6382614d19565b613e6d8185614d88565b9350613e7883614ce9565b8060005b83811015613ea9578151613e908882613d98565b9750613e9b83614d50565b925050600181019050613e7c565b5085935050505092915050565b6000613ec182614d24565b613ecb8185614d93565b935083602082028501613edd85614cf9565b8060005b85811015613f195784840389528151613efa8582613db0565b9450613f0583614d5d565b925060208a01995050600181019050613ee1565b50829750879550505050505092915050565b6000613f3682614d2f565b613f408185614da4565b9350613f4b83614d09565b8060005b83811015613f7c578151613f638882613dc4565b9750613f6e83614d6a565b925050600181019050613f4f565b5085935050505092915050565b613f9281614fc8565b82525050565b613fa9613fa482614fd4565b61522a565b82525050565b613fb88161502c565b82525050565b613fc78161502c565b82525050565b613fd68161502c565b82525050565b613fed613fe88261502c565b61523e565b82525050565b614004613fff82615000565b615234565b82525050565b61401381615036565b82525050565b600061402482614d3a565b61402e8185614db5565b935061403e818560208601615153565b6140478161537d565b840191505092915050565b600061405d82614d3a565b6140678185614dc6565b9350614077818560208601615153565b6140808161537d565b840191505092915050565b614094816150c6565b82525050565b6140a3816150d8565b82525050565b6140b2816150ea565b82525050565b6140c1816150fc565b82525050565b6140d081615075565b82525050565b6140df8161510e565b82525050565b60006140f082614d45565b6140fa8185614dd7565b935061410a818560208601615153565b6141138161537d565b840191505092915050565b600061412982614d45565b6141338185614de8565b9350614143818560208601615153565b80840191505092915050565b600061415c600883614dd7565b91506141678261538e565b602082019050919050565b600061417f602583614dd7565b915061418a826153b7565b604082019050919050565b60006141a2602683614dd7565b91506141ad82615406565b604082019050919050565b60006141c5601283614dd7565b91506141d082615455565b602082019050919050565b60006141e8601983614dd7565b91506141f38261547e565b602082019050919050565b600061420b601f83614dd7565b9150614216826154a7565b602082019050919050565b600061422e602383614dd7565b9150614239826154d0565b604082019050919050565b6000614251601283614dd7565b915061425c8261551f565b602082019050919050565b6000614274601e83614dd7565b915061427f82615548565b602082019050919050565b6000614297602e83614dd7565b91506142a282615571565b604082019050919050565b60006142ba604483614dd7565b91506142c5826155c0565b606082019050919050565b60006142dd601a83614dd7565b91506142e882615635565b602082019050919050565b6000614300602083614dd7565b915061430b8261565e565b602082019050919050565b6000614323601e83614dd7565b915061432e82615687565b602082019050919050565b6000614346602083614dd7565b9150614351826156b0565b602082019050919050565b6000614369602083614dd7565b9150614374826156d9565b602082019050919050565b600061438c601c83614dd7565b915061439782615702565b602082019050919050565b60006143af602583614dd7565b91506143ba8261572b565b604082019050919050565b60006143d2601d83614dd7565b91506143dd8261577a565b602082019050919050565b60006143f5601c83614dd7565b9150614400826157a3565b602082019050919050565b6000614418601983614dd7565b9150614423826157cc565b602082019050919050565b600061443b601b83614dd7565b9150614446826157f5565b602082019050919050565b61445a8161509f565b82525050565b6144698161509f565b82525050565b614478816150a9565b82525050565b600061448a8284613e58565b915081905092915050565b60006144a18287613f98565b6001820191506144b18286613f98565b6001820191506144c18285613fdc565b6020820191506144d18284613fdc565b60208201915081905095945050505050565b60006144ef828461411e565b915081905092915050565b6000614506828661411e565b91506145128285613ff3565b600382019150614522828461411e565b9150819050949350505050565b60006020820190506145446000830184613deb565b92915050565b600060808201905061455f6000830187613deb565b61456c6020830186614460565b818103604083015261457e8185614052565b905061458d60608301846140b8565b95945050505050565b6000610160820190506145ac600083018e613deb565b6145b9602083018d614460565b81810360408301526145cb818c614052565b90506145da606083018b6140b8565b6145e7608083018a6140d6565b6145f460a08301896140d6565b61460160c08301886140d6565b61460e60e0830187613deb565b61461c610100830186613ddc565b81810361012083015261462f8185614052565b905061463f610140830184613deb565b9c9b505050505050505050505050565b600060208201905081810360008301526146698184613dfa565b905092915050565b6000604082019050818103600083015261468b8185613eb6565b9050818103602083015261469f8184613f2b565b90509392505050565b60006020820190506146bd6000830184613f89565b92915050565b60006040820190506146d86000830185613f89565b6146e56020830184614460565b9392505050565b60006020820190506147016000830184613fbe565b92915050565b600060c08201905061471c6000830189613fbe565b6147296020830188613deb565b6147366040830187614460565b6147436060830186613fbe565b61475060808301856140b8565b61475d60a0830184614460565b979650505050505050565b600060408201905061477d6000830185613fbe565b61478a6020830184613f89565b9392505050565b60006040820190506147a66000830185613fbe565b6147b36020830184614460565b9392505050565b60006060820190506147cf6000830186613fbe565b6147dc6020830185614460565b6147e960408301846140a9565b949350505050565b6000602082019050614806600083018461400a565b92915050565b600060208201905081810360008301526148268184614052565b905092915050565b600060408201905081810360008301526148488185614052565b90506148576020830184614460565b9392505050565b6000602082019050614873600083018461408b565b92915050565b600060208201905061488e600083018461409a565b92915050565b60006060820190506148a960008301866140c7565b6148b66020830185614460565b6148c36040830184614460565b949350505050565b600060208201905081810360008301526148e581846140e5565b905092915050565b6000606082019050818103600083015261490781866140e5565b90506149166020830185613fbe565b6149236040830184613deb565b949350505050565b600060408201905081810360008301526149448161414f565b905081810360208301526149588184614052565b905092915050565b6000602082019050818103600083015261497981614172565b9050919050565b6000602082019050818103600083015261499981614195565b9050919050565b600060208201905081810360008301526149b9816141b8565b9050919050565b600060208201905081810360008301526149d9816141db565b9050919050565b600060208201905081810360008301526149f9816141fe565b9050919050565b60006020820190508181036000830152614a1981614221565b9050919050565b60006020820190508181036000830152614a3981614244565b9050919050565b60006020820190508181036000830152614a5981614267565b9050919050565b60006020820190508181036000830152614a798161428a565b9050919050565b60006020820190508181036000830152614a99816142ad565b9050919050565b60006020820190508181036000830152614ab9816142d0565b9050919050565b60006020820190508181036000830152614ad9816142f3565b9050919050565b60006020820190508181036000830152614af981614316565b9050919050565b60006020820190508181036000830152614b1981614339565b9050919050565b60006020820190508181036000830152614b398161435c565b9050919050565b60006020820190508181036000830152614b598161437f565b9050919050565b60006020820190508181036000830152614b79816143a2565b9050919050565b60006020820190508181036000830152614b99816143c5565b9050919050565b60006020820190508181036000830152614bb9816143e8565b9050919050565b60006020820190508181036000830152614bd98161440b565b9050919050565b60006020820190508181036000830152614bf98161442e565b9050919050565b6000602082019050614c156000830184614460565b92915050565b6000602082019050614c30600083018461446f565b92915050565b6000614c40614c51565b9050614c4c82826151b0565b919050565b6000604051905090565b600067ffffffffffffffff821115614c7657614c75615335565b5b602082029050602081019050919050565b600067ffffffffffffffff821115614ca257614ca1615335565b5b614cab8261537d565b9050602081019050919050565b600067ffffffffffffffff821115614cd357614cd2615335565b5b614cdc8261537d565b9050602081019050919050565b6000819050602082019050919050565b6000819050602082019050919050565b6000819050602082019050919050565b600081519050919050565b600081519050919050565b600081519050919050565b600081519050919050565b600081519050919050565b6000602082019050919050565b6000602082019050919050565b6000602082019050919050565b600082825260208201905092915050565b600081905092915050565b600082825260208201905092915050565b600082825260208201905092915050565b600082825260208201905092915050565b600082825260208201905092915050565b600082825260208201905092915050565b600081905092915050565b6000614dfe8261509f565b9150614e098361509f565b9250827fffffffffffffffffffffffffffffffffffffffffffffffffffffffffffffffff03821115614e3e57614e3d615279565b5b828201905092915050565b6000614e54826150b9565b9150614e5f836150b9565b92508260ff03821115614e7557614e74615279565b5b828201905092915050565b6000614e8b8261509f565b9150614e968361509f565b925082614ea657614ea56152a8565b5b828204905092915050565b6000614ebc826150b9565b9150614ec7836150b9565b925082614ed757614ed66152a8565b5b828204905092915050565b6000614eed8261509f565b9150614ef88361509f565b9250817fffffffffffffffffffffffffffffffffffffffffffffffffffffffffffffffff0483118215151615614f3157614f30615279565b5b828202905092915050565b6000614f478261509f565b9150614f528361509f565b925082821015614f6557614f64615279565b5b828203905092915050565b6000614f7b826150a9565b9150614f86836150a9565b925082821015614f9957614f98615279565b5b828203905092915050565b6000614faf8261507f565b9050919050565b6000614fc18261507f565b9050919050565b60008115159050919050565b60007fff0000000000000000000000000000000000000000000000000000000000000082169050919050565b60007fffffff000000000000000000000000000000000000000000000000000000000082169050919050565b6000819050919050565b60007fffffffff0000000000000000000000000000000000000000000000000000000082169050919050565b60008190506150708261581e565b919050565b6000819050919050565b600073ffffffffffffffffffffffffffffffffffffffff82169050919050565b6000819050919050565b600063ffffffff82169050919050565b600060ff82169050919050565b60006150d182615120565b9050919050565b60006150e382615120565b9050919050565b60006150f582615120565b9050919050565b600061510782615062565b9050919050565b60006151198261509f565b9050919050565b600061512b82615132565b9050919050565b600061513d8261507f565b9050919050565b82818337600083830152505050565b60005b83811015615171578082015181840152602081019050615156565b83811115615180576000848401525b50505050565b60006151918261509f565b915060008214156151a5576151a4615279565b5b600182039050919050565b6151b98261537d565b810181811067ffffffffffffffff821117156151d8576151d7615335565b5b80604052505050565b60006151ec8261509f565b91507fffffffffffffffffffffffffffffffffffffffffffffffffffffffffffffffff82141561521f5761521e615279565b5b600182019050919050565b6000819050919050565b6000819050919050565b6000819050919050565b6000615253826150b9565b915061525e836150b9565b92508261526e5761526d6152a8565b5b828206905092915050565b7f4e487b7100000000000000000000000000000000000000000000000000000000600052601160045260246000fd5b7f4e487b7100000000000000000000000000000000000000000000000000000000600052601260045260246000fd5b7f4e487b7100000000000000000000000000000000000000000000000000000000600052602160045260246000fd5b7f4e487b7100000000000000000000000000000000000000000000000000000000600052603260045260246000fd5b7f4e487b7100000000000000000000000000000000000000000000000000000000600052604160045260246000fd5b600080fd5b600080fd5b600080fd5b600080fd5b600080fd5b6000601f19601f8301169050919050565b7f536e617073686f74000000000000000000000000000000000000000000000000600082015250565b7f50726576696f7573207472616e73616374696f6e206e6f74206578656375746560008201527f6420796574000000000000000000000000000000000000000000000000000000602082015250565b7f4f776e61626c653a206e6577206f776e657220697320746865207a65726f206160008201527f6464726573730000000000000000000000000000000000000000000000000000602082015250565b7f44617461206e6f74207265747269657665640000000000000000000000000000600082015250565b7f526573756c7473206172652076616c696420666f726576657200000000000000600082015250565b7f50726f706f73616c20697320616c726561647920696e76616c69646174656400600082015250565b7f50726f706f73616c2068617320616c7265616479206265656e207375626d697460008201527f7465640000000000000000000000000000000000000000000000000000000000602082015250565b7f526573756c742068617320657870697265640000000000000000000000000000600082015250565b7f5461726765742063616e206e6f74206265207a65726f20616464726573730000600082015250565b7f496e697469616c697a61626c653a20636f6e747261637420697320616c72656160008201527f647920696e697469616c697a6564000000000000000000000000000000000000602082015250565b7f5468657265206e65656420746f206265206174206c656173742036307320626560008201527f747765656e20656e64206f6620636f6f6c646f776e20616e642065787069726160208201527f74696f6e00000000000000000000000000000000000000000000000000000000604082015250565b7f526573756c7420686173206e6f74206578706972656420796574000000000000600082015250565b7f4f776e61626c653a2063616c6c6572206973206e6f7420746865206f776e6572600082015250565b7f4176617461722063616e206e6f74206265207a65726f20616464726573730000600082015250565b7f477561726420646f6573206e6f7420696d706c656d656e742049455243313635600082015250565b7f43616e6e6f742065786563757465207472616e73616374696f6e20616761696e600082015250565b7f5761697420666f72206164646974696f6e616c20636f6f6c646f776e00000000600082015250565b7f4e6f2071756572792069642073657420666f722070726f76696465642070726f60008201527f706f73616c000000000000000000000000000000000000000000000000000000602082015250565b7f50726f706f73616c20686173206265656e20696e76616c696461746564000000600082015250565b7f5472616e73616374696f6e20776173206e6f7420617070726f76656400000000600082015250565b7f4d6f64756c65207472616e73616374696f6e206661696c656400000000000000600082015250565b7f556e6578706563746564207472616e73616374696f6e20686173680000000000600082015250565b6002811061582f5761582e6152d7565b5b50565b61583b81614fa4565b811461584657600080fd5b50565b61585281614fb6565b811461585d57600080fd5b50565b61586981614fc8565b811461587457600080fd5b50565b6158808161502c565b811461588b57600080fd5b50565b6002811061589b57600080fd5b50565b6158a78161509f565b81146158b257600080fd5b50565b6158be816150a9565b81146158c957600080fd5b5056fea26469706673582212206892507425d626221bb2779913fc06776f187ccf218097bbdab0e89b8750900764736f6c63430008070033",
  "linkReferences": {},
  "deployedLinkReferences": {}
}